:100000000C94AA010C94D2010C94D2010C94D2014C
:100010000C94D2010C94D2010C94D2010C949C0249
:100020000C94D2010C94D2010C94D2010C94D20104
:100030000C94D2010C9400030C94D2010C94D201C4
:100040000C941C1D0C94D2010C94B81B0C94921BA4
:100050000C94D2010C94D2010C94D2010C94D201D4
:100060000C94EA1B0C94D20131203C2047205220F2
:100070005D2068207320F809FA0A420B820BB50B49
:10008000F50B280C680CAE0CEF0C4D0DAB0D4F0EA4
:10009000A60EF4096214651468146B146E147114BE
:1000A00074144300005EBCE2613FDD83C29C7E208D
:1000B000A3FD1F419DC3217FFCA2401E5F01E3BD44
:1000C0003E6082DC237D9FC1421CFEA0E1BF5D0338
:1000D00080DE3C62BEE0025CDF81633D7C22C09E2C
:1000E0001D43A1FF4618FAA427799BC584DA386618
:1000F000E5BB5907DB856739BAE406581947A5FB04
:100100007826C49A653BD987045AB8E6A7F91B45F7
:10011000C6987A24F8A6441A99C7257B3A6486D8EB
:100120005B05E7B98CD2306EEDB3510F4E10F2ACD7
:100130002F7193CD114FADF3702ECC92D38D6F31C3
:10014000B2EC0E50AFF1134DCE90722C6D33D18FB7
:100150000C52B0EE326C8ED0530DEFB1F0AE4C12AB
:1001600091CF2D73CA947628ABF517490856B4EA97
:100170006937D58B5709EBB536688AD495CB297783
:10018000F4AA4816E9B7550B88D6346A2B7597C977
:100190004A14F6A8742AC896154BA9F7B6E80A546B
:1001A000D7896B35454550524F4D206E616374655C
:1001B0006E69204F4B0000000000240027002A0039
:1001C00000000000250028002B00000000080002AD
:1001D0000100000304070000000000000000000010
:1001E000000023002600290004040404040404047D
:1001F00002020202020203030303030301020408D2
:100200001020408001020408102001020408102080
:100210002A2A2A2A2A2A2A2A2A2A2A2A2A2A2A2A3E
:100220002A2A2A2A2A2A00492056797073617420C2
:10023000646174756D206120636173004820567994
:1002400070736174207465706C6F7475004720560C
:100250007970736174206672656B76656E63690090
:1002600046205469736B20454550524F4D00452040
:10027000536D617A617420454550524F4D004420C2
:100280004E6173746176697420646174756D206168
:100290002063617300432053707573746974207018
:1002A000726F6772616D20330042205370757374F2
:1002B00069742070726F6772616D20320041205343
:1002C0007075737469742070726F6772616D20311C
:1002D000003F204E61706F76656461002A2A2A20F3
:1002E0004D454E55202A2A2A2A2A2A2A2A2A2A2AEB
:1002F0002A2A007777772E70696872742E636F6D83
:100300000030002D002D002D002053656320302D7E
:1003100035393A2000204D696E20302D35393A208C
:100320000020486F6420302D32333A2000204D6584
:100330007320312D31323A20002044656E20312D5A
:1003400033313A200020526F6B2031382D39393A41
:100350002000BF2B11241FBECFEFD8E0DEBFCDBFE2
:1003600013E0A0E0B1E0E0E9FFE502C005900D92E6
:10037000AC3DB107D9F725E0ACEDB3E001C01D926B
:10038000AC3EB207E1F711E0CAEAD1E004C0219720
:10039000FE010E94852FC93AD107C9F70E94661D48
:1003A0000C94C62F0C940000FC0190810180F28116
:1003B000E02D892F809560FF12C0F894228182235E
:1003C00082838181892B8183A3E2B0E01197F1F7C9
:1003D0008281982B9283789487ED90E011C0F894F5
:1003E0002281822382838181892B8183AFEFB0E0D8
:1003F0001197F1F78281982B928378948FE090E0A7
:100400000197F1F70895089580E090E00895CF9363
:10041000DF93EC0160E08E810E94BE1261E08E816C
:100420000E94BE1260E08E810E94BE128BE891E0B5
:100430000197F1F7DF91CF910895CF93C82F61E82D
:1004400073E086E994E00E94901B6AE072E086E91E
:1004500094E00E94901B6C2F86E994E00E94991210
:100460006AE072E086E994E00E94901BC13051F48A
:100470008091F40390E09093010480930004C09372
:100480001C041AC0C23059F48091F30390E0909399
:1004900001048093000481E0809319040DC0C330EF
:1004A00009F048C08091F20390E09093010480939A
:1004B000000481E0809316040E942C1460931204BF
:1004C00070931304809314049093150410920E04F7
:1004D00010920F0410921004109211040E942C1418
:1004E00060930204709303048093040490930504C2
:1004F00069EB71E086E994E00E94901B6AE072E08B
:1005000086E994E00E94901B409100045091010400
:1005100060E070E02AE086E994E00E946B1A6AE0ED
:1005200072E086E994E00E94901B8FEA91E0CF91FF
:100530000C944612CF9108951F920F920FB60F920E
:1005400011242F933F934F935F936F937F938F93D8
:100550009F93AF93BF934091840050918500809109
:10056000300490913104A0913204B0913304209171
:100570003404309135042F5F3F4F3093350420937E
:10058000340460913604709137042617370748F118
:10059000B09B04C04F3F510501F1F8F0109280006C
:1005A000109281001092B0001092B10010926F0072
:1005B00010927000DC0199278827840F951FA11DD8
:1005C000B11D8093380490933904A0933A04B093FA
:1005D0003B0481E080933C0404C00196A11DB11D41
:1005E000DDCFBF91AF919F918F917F916F915F917F
:1005F0004F913F912F910F900FBE0F901F90189524
:100600001F920F920FB60F9211248F939F93AF9367
:10061000BF938091300490913104A0913204B09145
:1006200033040196A11DB11D8093300490933104D1
:10063000A0933204B0933304BF91AF919F918F91F7
:100640000F900FBE0F901F9018950F931F936093FC
:10065000E2037093E3038093E4039093E503009136
:1006600018011091190120911A0130911B01DC0130
:10067000CB01800F911FA21FB31F8093DE039093C5
:10068000DF03A093E003B093E10382E090E0909356
:10069000E7038093E6030E942C1460932C0470936C
:1006A0002D0480932E0490932F041F910F91089591
:1006B000CF92DF92EF92FF920F931F930E942C1420
:1006C000C0902C04D0902D04E0902E04F0902F04C4
:1006D0008B019C010C191D092E093F098091E20331
:1006E0009091E303A091E403B091E503083E134029
:1006F00021053105D0F00196A11DB11D8093E203C3
:100700009093E303A093E403B093E503B701A6013C
:1007100048515C4F6F4F7F4F40932C0450932D04F2
:1007200060932E0470932F04C9CF4091DE03509143
:10073000DF036091E0037091E10384179507A6073A
:10074000B707C8F1E091DC03F091DD03309799F130
:100750000995611571058105910519F00E94250320
:100760002AC04091E2035091E3036091E403709149
:10077000E5038091180190911901A0911A01B0919F
:100780001B01840F951FA61FB71F8093DE03909354
:10079000DF03A093E003B093E10381E090E02091B8
:1007A000E6033091E703232B11F480E090E090936F
:1007B000E7038093E6036091E2037091E303809185
:1007C000E4039091E5031F910F91FF90EF90DF906C
:1007D000CF9008954F925F926F927F928F929F92E7
:1007E000AF92BF92CF92DF92EF92FF920F931F933F
:1007F000CF93DF93FC011681A12FB0E020E833E313
:1008000041EE51E00E949A2F4B015C01C2EBD7E010
:100810009D0104E610E080E9E82EFF24F394CE0168
:10082000825B974082179307D4F4CE018370992797
:10083000892B99F4CE01B8010E94302F892B31F415
:10084000CE01B7010E94302F892B39F480E8880E41
:1008500081E5981E81E0A81EB11C2196E0CF45805D
:10086000512C2E54384FC90164E670E00E94302F9D
:100870007C01C90160E971E00E94302F6C010AE837
:1008800013E0C1E0D0E03901A3E06A227724C41567
:10089000D50534F5C230D10589F46114710471F4C1
:1008A000E114F10419F4C114D10441F4B0E88B0E41
:1008B000BBE39B1EB6E2AB1EB11C0EC0D8018C91EF
:1008C000A82FB0E020E831E541E050E00E949A2FE7
:1008D000860E971EA81EB91E21960F5F1F4FD7CFF9
:1008E0004181228130E0A0E1BEE00E948B2F6B01AC
:1008F0007C01242F30E0ACE3B0E00E948B2FDC01C0
:10090000CB018C0D9D1DAE1DBF1D20816C017D0195
:10091000C20ED11CE11CF11CA481B0E0119720E8AB
:1009200031E541E050E00E94A52FDC01CB018C0DA8
:100930009D1DAE1DBF1DBC01CD01680D791D8A1D19
:100940009B1DDF91CF911F910F91FF90EF90DF9052
:10095000CF90BF90AF909F908F907F906F905F905F
:100960004F9008951F93CF93DF93CDB7DEB72797AE
:100970000FB6F894DEBF0FBECDBF81E0809369044F
:1009800088E680938A04109293041092920460E0A7
:1009900086E695E00E94FA1981E00E940B11811110
:1009A000B4C0809191048111FCCF81E080939104C7
:1009B000809390049FEF909368041092670496E0F0
:1009C000909366048093450480914504806D8093E4
:1009D000450480918F04813061F410928F048091DE
:1009E00045048093BB008091BC0083FDF8CF85EC6B
:1009F00001C085EE8093BC00809191048130E1F3C9
:100A000080916704873018F49091670401C097E0E3
:100A1000A6E4B4E0E8E8F5E080E0891721F02D9144
:100A200021938F5FFACF109295048093940490E005
:100A300007970CF46AC086E695E00E94B119182F5A
:100A40008695869586958E70982F990F990F890FA8
:100A5000912F9F70890F898386E695E00E94B119D6
:100A6000982F92959F708F702AE0929F800D11248D
:100A70008A8386E695E00E94B119982F96959695FF
:100A800096959670292F220F220F920F8F70890F43
:100A90008B8386E695E00E94B119982F92959F70FE
:100AA0008F702AE0929F800D11248C8386E695E05A
:100AB0000E94B119982F92959F708F702AE0929F93
:100AC000800D11248D8386E695E00E94B119982F40
:100AD00092959F708F702AE0929F800D11248E83D3
:100AE00086E695E00E94B119982F9F70925E8295DC
:100AF0008F702AE0829F900D11249F8317FD05C0FF
:100B0000CE0101960E94EA0303C060E070E0CB01D1
:100B100027960FB6F894DEBF0FBECDBFDF91CF9101
:100B20001F9108956F927F928F929F92AF92BF9282
:100B3000CF92DF92EF92FF920F931F93CF93DF93A9
:100B40006B017C01EA018CE3882E912CA12CB12C45
:100B5000C701B601A50194010E94442F6883CA0110
:100B6000B901A50194010E94442F6983C701B60110
:100B700020E13EE040E050E00E94442FCA01B9016C
:100B800028E130E040E050E00E94442F6A83C70132
:100B9000B60120E831E541E050E00E94442F6901B0
:100BA0007A01CA01B9016C5F7F4F8F4F9F4F27E0D9
:100BB00030E040E050E00E94442F6F5F6B83812C57
:100BC000912C540140E094E6692E712C00E911E06B
:100BD000242F30E02E54384FF901E370FF2730976F
:100BE00089F4C901B3010E94302F892B31F4C90166
:100BF000B8010E94302F892B29F48EE691E0A0E005
:100C0000B0E004C08DE691E0A0E0B0E0880E991E4F
:100C1000AA1EBB1ED501C401AA27BB27C816D90628
:100C2000EA06FB0610F04F5FD3CF4E83309799F45E
:100C3000C90164E670E00E94302F892B39F4C901A4
:100C400060E971E00E94302F892B29F48EE691E053
:100C5000A0E0B0E004C08DE691E0A0E0B0E0881A2A
:100C6000990AAA0ABB0AC818D908EA08FB08C901E8
:100C700064E670E00E94302F8C01C90160E971E0E8
:100C80000E94302FAAE8B3E020E0213041F43097F1
:100C900051F40115110529F4009729F402C04C9173
:100CA00003C04DE101C04CE150E060E070E0C416CB
:100CB000D506E606F70640F0C41AD50AE60AF70A92
:100CC0002F5F11962C3009F72F5F2D83C394CC82B0
:100CD000DF91CF911F910F91FF90EF90DF90CF9018
:100CE000BF90AF909F908F907F906F900895CF921C
:100CF000DF92EF92FF92C0902804D0902904E090F8
:100D00002A04F0902B04C616D706E806F90671F0FF
:100D10006B017C0148EE53E00E949205C0922804CA
:100D2000D0922904E0922A04F0922B04FF90EF90D5
:100D3000DF90CF9008950E9458030E94770680911B
:100D4000EE0390E08E54984F08950E9458030E943D
:100D500077068091ED0390E008950E9458030E9469
:100D600077068091EC0390E008950E9458030E945A
:100D700077068091E80390E008950E9458030E944E
:100D800077068091E90390E008950E9458030E943D
:100D900077068091EA0390E00895DC0180E06150DD
:100DA00040F09D91E82FE927F0E0EC55FF4F84914A
:100DB000F6CF0895DF92EF92FF920F931F93CF9398
:100DC000DF93EC01D62EE42E08E010E0FF24F3942C
:100DD00061E08D2D8F2109F460E0CE010E94D401E5
:100DE000FF0C01501109A1F7E11010C0F894E9813E
:100DF000FA8191818881809589238183E981FA81B3
:100E0000928188818095892382837894DF91CF9124
:100E10001F910F91FF90EF90DF900895EF92FF9256
:100E20000F931F93CF93DF938C017B0140E065E527
:100E30000E94DA06E70188E0E80EF11C699140E0C3
:100E4000C8010E94DA06CE15DF05C1F7DF91CF9108
:100E50001F910F91FF90EF900895FC019081018008
:100E6000F281E02DF8948181892B81832281892F61
:100E7000809528232283A7E0B0E01197F1F7218124
:100E800082238183A3E2B0E01197F1F78081789407
:100E9000EFECF0E03197F1F7982381E009F480E07E
:100EA0000895DC012C911196ED91FC911297F89424
:100EB0008181922F90958923818378948DE743E0F7
:100EC00050E0815021F1DA011197F1F7308132239E
:100ED000C1F3F8948281892382838181822B81836B
:100EE0007894ABE7B7E01197F1F7F89481819823F4
:100EF000918383E191E00197F1F78081282381E0DC
:100F000009F080E07894E3E6F6E03197F1F7089590
:100F1000BF92CF92DF92EF92FF920F931F93CF93E6
:100F2000DF93EC01D62EC72E8D8581115BC0CE01DB
:100F30000E945107811104C01B861D861C8666C055
:100F400040E060EFCE010E94DA0601E0E12CB12C16
:100F500011E0CE010E942D07F82ECE010E942D0730
:100F600091E0F91203C08130B1F434C02E2D30E08D
:100F7000F8121BC08B85181738F4FE01E20FF31F1F
:100F80008381802341F402C0181729F0F12C193015
:100F900058F41C8709C0FE01EE0DF11D8381802BE2
:100FA0008383FF24F39409C0B12EFE01E20FF31FE7
:100FB0009381802F8095892383836F2DCE010E949A
:100FC000D4011F5F000F11F4E39401E087E08E1558
:100FD00008F0BFCF113430F0BB86B11012C081E0F1
:100FE0008D870FC01B861D861C8680E0DE01139650
:100FF000ED2DFC2D2B969D919193AC17BD07D9F744
:1010000005C08B81882371F381E0F0CFDF91CF9110
:101010001F910F91FF90EF90DF90CF90BF900895B8
:10102000CF92DF92EF92FF92CF93DF93CDB7DEB7EF
:1010300061970FB6F894DEBF0FBECDBF80911F043D
:1010400081111FC180911C0481111BC18091190461
:10105000811117C180911604811113C18091580527
:10106000909159050E94510740E06CEC8091580521
:10107000909159050E94DA064091530564E48091ED
:101080005805909159050E94DA06809155058823EC
:10109000A9F0E0915405E950E33040F4F0E0EE0FA0
:1010A000FF1FEA56FC4F6081718102C06EEE72E054
:1010B000072E000C880B990B0E94F213E091580543
:1010C000F0915905138615861486DF011B96CF0112
:1010D00003961E92A817B907E1F7BE01665F7F4F1E
:1010E000CF010E948807882349F067E0CE010A9665
:1010F0000E94CD069989891709F46FC060E070E0FD
:101100008EEF92EC609306047093070480930804BA
:101110009093090410923C0484EF91E0909337047B
:1011200080933604109235041092340410923004E7
:101130001092310410923204109233041092800005
:10114000109281001092B0001092B10081E0809363
:101150006F0082E08093B0009CE79093B30080938F
:10116000700010928500109284001092B20083BD2E
:1011700085E08093B10087E08093810080913C04FA
:10118000811102C0A895FACF60913804709139049A
:1011900080913A0490913B040E94FB2D20E030E0C6
:1011A0004AE754E40E94B22E6B017C016091360440
:1011B0007091370480E090E00E94FB2D9B01AC0110
:1011C000C701B6010E94532D6093FC037093FD0389
:1011D0008093FE039093FF0354C0BE016F5F7F4F67
:1011E000CE010A960E946711882309F447C068E07F
:1011F000CE0101960E94CD06998589133FC02A81B0
:1012000030E0C901982F8827990F990F990F6981AC
:1012100028E0629FB00111249C01262B372B8A8580
:10122000803151F5688570E08F81AB01481B510911
:10123000CA019695982F8827979587950E94302FF9
:1012400060517109207F53E0220F331F5A95E1F757
:10125000620F731F613854EE75070CF44FCF072EE1
:10126000000C880B990B0E94FD2D20E030E040E03F
:101270005CE30E94B22E46CFB901ECCF60E874EE79
:10128000E9CF61960FB6F894DEBF0FBECDBFDF91F8
:10129000CF91FF90EF90DF90CF900895AF92BF92E3
:1012A000CF92DF92EF92FF920F931F93CF93DF9332
:1012B0005C017C0187E0E80EF11CC0E0D0E0062F65
:1012C00010E0670161E0F70181917F010E94B61390
:1012D000B8010C2E02C0759567950A94E2F761700B
:1012E000F60180810E94BE122196C430D10549F7D3
:1012F000C501DF91CF911F910F91FF90EF90DF908B
:10130000CF90BF90AF900C940702AF92BF92CF9254
:10131000DF92EF92FF920F931F93CF93DF93EC0135
:10132000F62E642F8C810E94BE128D818F3F19F0A2
:1013300060E00E94BE128F850F2D10E084FF2DC04B
:101340005E0187E0A80EB11CE12CF12C650161E083
:10135000F50181915F010E94B613B8010E2C02C005
:10136000759567950A94E2F76170F60180810E9495
:10137000BE12FFEFEF1AFF0A88E0E816F10431F71A
:10138000CE01DF91CF911F910F91FF90EF90DF90F1
:10139000CF90BF90AF900C940702B80184E0759590
:1013A00067958A95E1F7CE010E944E096F2DCE0117
:1013B000DF91CF911F910F91FF90EF90DF90CF9031
:1013C000BF90AF900C944E0941E00E94850981E0E6
:1013D00090E0089590E08F30910508F017C5FC016A
:1013E000E55CFF4F0C94852F1092F0031092EF03F1
:1013F00060E080E00E94001263E471E08BE395E01E
:101400000E94901B61E08EE00E9400126AE072E090
:101410008BE395E00E94901B61EA71E08BE395E01D
:101420000E94901B61E080E00E9400128091030204
:10143000823019F460E471E008C06EE371E08BE380
:1014400095E00E94901B6EE371E08BE395E00E94B3
:10145000901B61E082E00E940012809102028230C3
:1014600019F46BE371E008C06EE371E08BE395E083
:101470000E94901B6EE371E08BE395E00E94901B4D
:1014800061E084E00E94001280910102823019F430
:1014900068E371E008C06EE371E08BE395E00E94C1
:1014A000901B6EE371E08BE395E00E94901B61E07E
:1014B00086E00E94001280910002823019F465E3F8
:1014C00071E008C06EE371E08BE395E00E94901B31
:1014D0006EE371E08BE395E00E94901B61E088E091
:1014E0000E9400128091FF01823019F462E371E0E2
:1014F00008C06EE371E08BE395E00E94901B6EE301
:1015000071E08BE395E00E94901B61E08AE00E940D
:1015100000128091FE01823019F46FE271E008C080
:101520006EE371E08BE395E00E94901B6EE371E047
:101530008BE395E00E94901B61E08CE00E9400121A
:101540008091FD01823019F46CE271E008C06EE315
:1015500071E08BE395E00E94901B6EE371E08BE3FA
:1015600095E00E94901B1092DC011092DB018091AB
:10157000F103811105C061E00E9400120E941A125D
:101580008091F103813031F461E082E00E94001229
:101590000E941A128091F103823031F461E084E0FC
:1015A0000E9400120E941A128091F103833031F4DC
:1015B00061E086E00E9400120E941A128091F103FD
:1015C000843031F461E088E00E9400120E941A1217
:1015D0008091F103853031F461E08AE00E940012CD
:1015E0000E941A128091F103863009F00FC461E065
:1015F0008CE008C460E080E00E94001260E073E0CC
:101600008BE395E00E94901B61E080E00E94001255
:1016100080911E0490E00E94E2146DE773E08BE37A
:1016200095E00E94901B80911D0490E00E94E214BE
:101630006AE072E08BE395E00E94901B68EF72E035
:101640008BE395E00E94901B64EE71E08BE395E0E4
:101650000E94901B81E090E09093DC018093DB017D
:101660008091F103811106C061E081E00E940012C7
:101670000E941A128091F103813009F0C7C361E022
:1016800084E0C0C360E080E00E94001267EE72E078
:101690008BE395E00E94901B61E080E00E940012C5
:1016A0008091F40390E00E94E2146AE072E08BE320
:1016B00095E00E94901B65EE72E08BE395E00E943E
:1016C000901B6FED72E08BE395E00E94901B6AE047
:1016D00072E08BE395E00E94901B6FEA71E08BE370
:1016E00095E00E94901B6DED72E08BE395E00E9407
:1016F000901B64EE71E08BE395E00E94901B82E00A
:1017000090E025C160E080E00E9400126CEC72E085
:101710008BE395E00E94901B61E080E00E94001244
:1017200080911B0490E00E94E2146DE773E08BE36C
:1017300095E00E94901B80911A0490E00E94E214B0
:101740006AE072E08BE395E00E94901B68EF72E024
:101750008BE395E00E94901B64EE71E08BE395E0D3
:101760000E94901B83E090E077CF60E080E00E94D1
:1017700000126BEB72E08BE395E00E94901B61E03E
:1017800080E00E9400128091F30390E00E94E21436
:101790006AE072E08BE395E00E94901B65EE72E0D8
:1017A0008BE395E00E94901B6FED72E08BE395E078
:1017B0000E94901B6AE072E08BE395E00E94901B10
:1017C0006FEA71E08BE395E00E94901B6DED72E093
:1017D0008BE395E00E94901B64EE71E08BE395E053
:1017E0000E94901B84E090E0B2C060E080E00E9424
:1017F00000126AEA72E08BE395E00E94901B61E0C0
:1018000080E00E9400128091180490E00E94E2148F
:101810006DE773E08BE395E00E94901B80911704C5
:1018200090E00E94E2146AE072E08BE395E00E948F
:10183000901B68EF72E08BE395E00E94901B64EED2
:1018400071E08BE395E00E94901B85E090E004CF6F
:1018500060E080E00E94001269E972E08BE395E0AD
:101860000E94901B61E080E00E9400128091F203D0
:1018700090E00E94E2146AE072E08BE395E00E943F
:10188000901B65EE72E08BE395E00E94901B6FED7C
:1018900072E08BE395E00E94901B6AE072E08BE3BC
:1018A00095E00E94901B6FEA71E08BE395E00E9447
:1018B000901B6DED72E08BE395E00E94901B64EE4F
:1018C00071E08BE395E00E94901B86E090E03FC0C2
:1018D00060E080E00E94001268E872E08BE395E02F
:1018E0000E94901B61E080E00E94001280910D0434
:1018F00090E00E94E2146AE072E08BE395E00E94BF
:10190000901B65EE72E08BE395E00E94901B62E80D
:1019100072E08BE395E00E94901B6AE072E08BE33B
:1019200095E00E94901B6FEA71E08BE395E00E94C6
:10193000901B6DED72E08BE395E00E94901B64EECE
:1019400071E08BE395E00E94901B87E090E090931C
:10195000DC018093DB0161E081E054C260E080E063
:101960000E94001261E772E08BE395E00E94901BF9
:1019700061E080E00E94001260910C048BE395E02E
:101980000E9499126AE072E08BE395E00E94901B3E
:1019900065EE72E08BE395E00E94901B62E872E0D6
:1019A0008BE395E00E94901B6AE072E08BE395E088
:1019B0000E94901B6FEA71E08BE395E00E94901B00
:1019C0006DED72E08BE395E00E94901B64EE71E098
:1019D0008BE395E00E94901B88E090E00DC260E0F0
:1019E00080E00E94001268E673E08BE395E00E94BD
:1019F000901B61E080E00E94001280910B04823015
:101A000001F569E672E08BE395E00E94901B6AE0C5
:101A100072E08BE395E00E94901B65EE72E08BE331
:101A200095E00E94901B62E08BE395E00E94E40940
:101A300067E672E08BE395E00E94901B6EEB71E02D
:101A40001FC06FE572E08BE395E00E94901B6AE097
:101A500072E08BE395E00E94901B65EE72E08BE3F1
:101A600095E00E94901B61E08BE395E00E94E40901
:101A700067E672E08BE395E00E94901B65EB71E0F6
:101A80008BE395E00E94901B6DED72E08BE395E097
:101A90000E94901B89E090E0AFC160E080E00E946E
:101AA000001267E473E08BE395E00E94901B61E015
:101AB00080E00E94001280910A04823001F569E6FC
:101AC00072E08BE395E00E94901B6AE072E08BE38A
:101AD00095E00E94901B65EE72E08BE395E00E941A
:101AE000901B62E08BE395E00E94E40967E672E0F8
:101AF0008BE395E00E94901B6EEB71E01FC06FE5D9
:101B000072E08BE395E00E94901B6AE072E08BE349
:101B100095E00E94901B65EE72E08BE395E00E94D9
:101B2000901B61E08BE395E00E94E40967E672E0B8
:101B30008BE395E00E94901B65EB71E08BE395E0F1
:101B40000E94901B6DED72E08BE395E00E94901B6C
:101B50008AE090E051C160E080E00E9400126EE4F3
:101B600072E08BE395E00E94901B61E080E00E94B0
:101B7000001264EE71E08BE395E00E94901B61E03F
:101B800080E00E94001280910802909109020E9458
:101B9000E21461E082E00E94001264E373E08BE3F0
:101BA00095E00E94901B80910602909107020E948E
:101BB000E21464EE71E08BE395E00E94901B61E01B
:101BC00085E00E94001264E373E08BE395E00E94DD
:101BD000901B80910402909105020E94E21464EE31
:101BE00071E08BE395E00E94901B61E08BE00E9426
:101BF00000128091F9039091FA030E94E21461E0CF
:101C00008DE00E9400126DE773E08BE395E00E9487
:101C1000901B8091F7039091F8030E94E21464EE08
:101C200071E08BE395E00E94901B8BE090E0909335
:101C3000DC018093DB011092F6031092F503809192
:101C4000F103811106C061E081E00E9400120E9450
:101C50001A128091F103813031F461E084E00E9436
:101C600000120E941A128091F103823031F461E077
:101C700087E00E9400120E941A128091F1038330C3
:101C800031F461E08CE00E9400120E941A128091EF
:101C9000F103843009F0BAC061E08FE0B3C060E0C6
:101CA00080E00E9400126DE372E08BE395E00E94F9
:101CB000901B61E080E00E94001261EA71E08BE31A
:101CC00095E00E94901B6AE072E08BE395E00E9431
:101CD000901B65EE72E08BE395E00E94901B62E042
:101CE0008BE395E00E94E40967E672E08BE395E000
:101CF0000E94901B69E372E08BE395E00E94901BC9
:101D00006AE072E08BE395E00E94901B61E08BE358
:101D100095E00E94E40967E672E08BE395E00E949B
:101D2000901B66E372E08BE395E00E94901B6DEDE3
:101D300072E08BE395E00E94901B64EE71E08BE310
:101D400095E00E94901B8CE090E056C060E080E03F
:101D50000E94001265E272E08BE395E00E94901B06
:101D600061E080E00E94001261EA71E08BE395E09F
:101D70000E94901B6AE072E08BE395E00E94901B4A
:101D800065EE72E08BE395E00E94901B62E08BE3CE
:101D900095E00E94E40967E672E08BE395E00E941B
:101DA000901B69E372E08BE395E00E94901B6AE070
:101DB00072E08BE395E00E94901B61E08BE395E07D
:101DC0000E94E40967E672E08BE395E00E94901BB5
:101DD00066E372E08BE395E00E94901B6DED72E08C
:101DE0008BE395E00E94901B64EE71E08BE395E03D
:101DF0000E94901B8DE090E09093DC018093DB01CA
:101E000061E080E00E9400120C941A120895CF93B2
:101E100082E090E00E941A1D80931E0483E090E00F
:101E20000E941A1D80931D0484E090E00E941A1DF8
:101E30008093F40385E090E00E941A1D80931B04B8
:101E400086E090E00E941A1D80931A0487E090E0DB
:101E50000E941A1D8093F30388E090E00E941A1DEF
:101E60008093180489E090E00E941A1D8093170463
:101E70008AE090E00E941A1D8093F2038BE090E0CC
:101E80000E941A1D80930D048CE090E00E941A1DA0
:101E900080930C048DE090E00E941A1D80930B0447
:101EA0008EE090E00E941A1DC82F8FE090E00E9403
:101EB0001A1D90E0A0E0B0E0BA2FA92F982F882734
:101EC0008C0F911DA11DB11D8093840590938505F4
:101ED000A0938605B093870580E190E00E941A1DCB
:101EE00080930A0481E190E00E941A1DC82F82E1CC
:101EF00090E00E941A1D90E0A0E0B0E0BA2FA92F58
:101F0000982F88278C0F911DA11DB11D80938005EE
:101F100090938105A0938205B093830584E190E0BE
:101F20000E941A1D8093030285E190E00E941A1D11
:101F30008093020286E190E00E941A1D80930102C4
:101F400087E190E00E941A1D8093000288E190E0F2
:101F50000E941A1D8093FF0189E190E00E941A1DE2
:101F60008093FE018AE190E00E941A1D8093FD019A
:101F700084EA91E0CF910C94A012CF92DF92EF927D
:101F8000FF92CF93DF93EC016A017B01642F0E94E3
:101F9000181D9927F7FC9A958F2D7E2D6D2DCE015A
:101FA0000196DF91CF91FF90EF90DF90CF900C944E
:101FB000181D0E94070F80911E04883138F066E0DA
:101FC00082E090E00E94181D81E001C080E09091C5
:101FD0001D049C3330F060E083E090E00E94181D07
:101FE00081E09091F4039550963F30F06EE184E0EB
:101FF00090E00E94181D81E090911B04983130F010
:1020000062E185E090E00E94181D81E090911A0441
:102010009C3330F060E086E090E00E94181D81E083
:102020009091F3039550963F30F06EE187E090E099
:102030000E94181D81E090911804983130F069E0F9
:1020400088E090E00E94181D81E0909117049C3375
:1020500030F060E089E090E00E94181D81E09091EE
:10206000F2039550963F30F06EE18AE090E00E94D6
:10207000181D81E090910D049B3F30F065E08BE0EE
:1020800090E00E94181D81E090910C049B3F30F07D
:1020900064E18CE090E00E94181D81E090910B04B7
:1020A0009150923030F061E08DE090E00E94181D78
:1020B00081E040918405509185056091860570917D
:1020C000870549355B416105710540F040E050E00E
:1020D000BA018EE090E00E94BD0F81E090910A0469
:1020E0009150923030F061E080E190E00E94181D44
:1020F00081E0409180055091810560918205709149
:102100008305453651056105710540F040E050E01A
:10211000BA0181E190E00E94BD0F81E0909103023D
:10212000933010F4913031F462E084E190E00E9449
:10213000181D81E090910202933010F4913031F437
:1021400062E085E190E00E94181D81E0909101021B
:10215000933010F4913031F462E086E190E00E9417
:10216000181D81E090910002933010F4913031F409
:1021700062E087E190E00E94181D81E09091FF01EC
:10218000933010F4913031F462E088E190E00E94E5
:10219000181D81E09091FE01933010F4913031F4DC
:1021A00062E089E190E00E94181D81E09091FD01BC
:1021B000933010F4913031F462E08AE190E00E94B3
:1021C000181D01C081110C94070F08953FB7F894B2
:1021D0008091410490914204A0914304B091440441
:1021E00026B5A89B05C02F3F19F00196A11DB11D72
:1021F0003FBFBA2FA92F982F8827820F911DA11DAD
:10220000B11DBC01CD0142E0660F771F881F991FE9
:102210004A95D1F70895282F30919204313208F071
:102220004AC0809191048111FCCF90918A0442E0D0
:1022300040939104209390042FEF20936804109210
:10224000670430936604EAE6F4E0A6E4B4E020E034
:10225000321721F041914D932F5FFACF1092450430
:1022600020914504990F922B9093450490918F04EF
:10227000913061F410928F04909145049093BB00CB
:102280009091BC0093FDF8CF95EC01C095EE909332
:10229000BC00909191049230E1F3909168049F3FCB
:1022A00079F080916804803241F080916804803335
:1022B00031F084E005C081E003C082E001C083E02A
:1022C0001092930410929204109269040895AF92B0
:1022D000BF92CF92DF92EF92FF920F931F93CF9313
:1022E000DF93EC018B0180915805909159050E9474
:1022F00051078823A1F1BE0180915805909159059D
:102300000E940E0740E06EEB8091580590915905B0
:102310000E94DA06E801680189E0C80ED11CA0908D
:102320005805B090590588E0E82EF12C10E001E046
:10233000C5010E942D078111102B000F81E0E81AC2
:10234000F108B1F71993CC16DD0649F780915805CD
:10235000909159050E94510791E0813009F090E079
:10236000892FDF91CF911F910F91FF90EF90DF9018
:10237000CF90BF90AF900895CF93DF93CDB7DEB7E6
:1023800029970FB6F894DEBF0FBECDBFBE016F5FB9
:102390007F4F0E946711882341F068E0CE010196CB
:1023A0000E94CD069985891711F080E012C08D81B9
:1023B0008F3311F48AE00DC0803420F48F31A9F7F7
:1023C00089E007C08F3521F08F3779F78CE001C0A5
:1023D0008BE029960FB6F894DEBF0FBECDBFDF911C
:1023E000CF91089540E0682F8BE395E00C94850928
:1023F00081E00E94F2118BE39FE10197F1F70895CC
:10240000643008F063E090914E05691710F06FEFAB
:10241000690FE62FF0E0E55CFA4F9489890F806838
:102420000C94F211EBE3F5E080898E7F808B88605D
:102430000C94F211EBE3F5E08089982F9160908B7A
:1024400089600C94F2110F931F93CF93DF938B014C
:10245000877028E0829FC001112480640E94F211DD
:10246000E801085F1F4F69918BE395E00E94E40942
:10247000C017D107C1F7DF91CF911F910F91089538
:102480006CEC73E086E994E00C94561ACF93DF93DA
:10249000BC0186E994E00E94561AEC010E944012A9
:1024A0008C0F9D1FDF91CF910895CF92DF92EF9215
:1024B000FF920F931F93CF93DF9377FF1DC06A01A5
:1024C0007B01EC016DE20E942B1A8C0144275527F9
:1024D000BA014C195D096E097F092AE0CE010E94FC
:1024E0006B1A800F911FDF91CF911F910F91FF9079
:1024F000EF90DF90CF9008952AE0DF91CF911F9168
:102500000F91FF90EF90DF90CF900C946B1ACF93C8
:10251000DF93AC01990F660B770B86E994E00E947C
:102520005512EC010E9440128C0F9D1FDF91CF913C
:102530000895462F50E060E070E02AE00C946B1A9A
:10254000CF93DF93BC0186E994E00E94321AEC013C
:102550000E9440128C0F9D1FDF91CF910895CF9361
:10256000DF93682F86E994E00E949912EC010E94A3
:1025700040128C0F9D1FDF91CF91089590E0FC01D8
:10258000E653FE4F2491FC01E450FE4F3491FC01D0
:10259000E851FE4FE491EE2309F43CC0222339F1C7
:1025A000233091F038F42130A9F0223001F584B5C0
:1025B0008F7D12C0273091F02830A1F02430B9F47B
:1025C000809180008F7D03C0809180008F77809301
:1025D00080000DC084B58F7784BD09C08091B000A4
:1025E0008F7703C08091B0008F7D8093B000F0E0C2
:1025F000EE0FFF1FE054FE4FA591B4919FB7F894E2
:10260000611104C08C913095382302C0EC913E2BAF
:102610003C939FBF089510929504109294041092D9
:102620009304109292041092910481E0809390049C
:1026300010928F0461E082E10E94BE1261E083E1AA
:102640000E94BE12E9EBF0E080818E7F8083808162
:102650008D7F808388E48093B80085E48093BC00FC
:102660008FE999E190938E0480938D0480EA99E13B
:1026700090938C0480938B040895CF93DF938230E2
:1026800028F090914A05986090934A0580934E05F2
:1026900010924F0580E48093500580E180935105AE
:1026A00080E5809352058BE39DE00197F1F760E0B0
:1026B00080913F050E94BE1260E0809141050E941A
:1026C000BE12809140058F3F19F060E00E94BE125B
:1026D00080914A0584FD20C063E08BE395E00E9471
:1026E0004E09CBE4D6E4CE010197F1F763E08BE32A
:1026F00095E00E944E092197F1F763E08BE395E0A6
:102700000E944E0983E592E00197F1F762E08BE3C6
:1027100095E00E944E0915C080620E94F2118BE480
:1027200096E40197F1F780914A0580620E94F211C8
:1027300083E592E00197F1F780914A0580620E945B
:10274000F21180914A0580620E94F21184E0809328
:102750004B058CE00E94F2110E94F81182E08093F8
:102760004C0586E0DF91CF910C94F211CF93DF936B
:1027700090E0FC01E450FE4F2491FC01E851FE4F33
:102780008491882361F190E0880F991FFC01EA543D
:10279000FE4FC591D491FC01E054FE4FA591B49138
:1027A000611109C09FB7F89488812095822388839E
:1027B000EC912E230BC0623061F49FB7F8948881AE
:1027C000322F309583238883EC912E2B2C939FBF3F
:1027D00006C08FB7F894E8812E2B28838FBFDF9136
:1027E000CF9108958F929F92AF92BF92CF92DF9236
:1027F000EF92FF926B017C010E94E6104B015C019D
:10280000C114D104E104F104F1F00E94E610DC01EE
:10281000CB0188199909AA09BB09883E9340A105F3
:10282000B10570F321E0C21AD108E108F10888EE81
:10283000880E83E0981EA11CB11CC114D104E104D0
:10284000F10419F7DDCFFF90EF90DF90CF90BF90AC
:10285000AF909F908F9008952FB7F89460913D04AA
:1028600070913E0480913F04909140042FBF0895E1
:10287000CF93DF93EC010A9728F460E386E994E0B4
:102880000E94F418AE01DD0F660B770B86E994E029
:10289000DF91CF910C9455128EE293E00C94461286
:1028A0000E9458030E947706E091EB038E2F90E080
:1028B000FC013197E730F105D8F4E65BFF4F81E08A
:1028C0000C94852F9091FD0111C0909103020EC0D0
:1028D000909102020BC09091010208C090910002F9
:1028E00005C09091FF0102C09091FE01923009F065
:1028F00080E00895CF93DF93CDB7DEB727970FB66B
:10290000F894DEBF0FBECDBF80E293E00E94461276
:1029100082E00E94F2118BE39FE10197F1F760E200
:1029200073E08BE395E00E94901B64EE71E08BE313
:1029300095E00E94901B61E080E00E94001264EE2E
:1029400071E08BE395E00E94901B809104029091CE
:10295000050260910602509108022091F503309122
:10296000F7034091F903843691051CF0825B974090
:1029700001C04E968093EE036093ED035093EC03F9
:102980004093EA033093E9032093E80388EE93E051
:102990000E94EA030E9425030E945803AE014F5F84
:1029A0005F4F0E949205898180688983CE010196DC
:1029B0000E942A2B89818F778983CE0101960E94FC
:1029C0002A2BFFCFCF93DF93EC010A9730F461E01D
:1029D00073E08BE395E00E94321AAE01DD0F660BC7
:1029E000770B8BE395E0DF91CF910C9455120E9409
:1029F000AD060E94E21464E373E08BE395E00E946D
:102A0000901B0E94A5060E94E21464E373E08BE32E
:102A100095E00E94901B0E949B06AC01990F660BEB
:102A2000770B8BE395E00E9455126AE072E08BE32E
:102A300095E00E94901B6AE072E08BE395E00E94B3
:102A4000901B60E08BE00E9400120E94C5060E946D
:102A5000E2146DE773E08BE395E00E94901B0E9407
:102A6000BD060E94E2146AE072E08BE395E00C94EC
:102A7000901B60E080E00E94001263EF72E08BE345
:102A800095E00E94321A61E080E00E94001261E14C
:102A900073E08BE395E00E94901B8CED92E00E9426
:102AA000A01281ED92E00E94A0128DEB92E00E94B4
:102AB000A01289EA92E00E94A01285E992E00E94A9
:102AC000A0128EE792E00E94A0128EE692E00E9491
:102AD000A01280E692E00E94A0128DE492E00E9493
:102AE000A0128CE392E00E94A01287E292E00E9482
:102AF000A01280E192E00E94A01260ED77E080E0F9
:102B000090E00C94F213CF93DF9386E994E00E9457
:102B1000BC18181619060CF0D1C286E994E00E9480
:102B20009A18EC018134910521F481E00E941D0284
:102B3000BDC08234910521F482E00E941D0261C271
:102B40008334910521F483E00E941D026DC2843418
:102B5000910509F086C065E873E086E994E00E947B
:102B6000901B65E473E086E994E00E94321A0E94AB
:102B7000A12C90E090930502809304020E94A12C66
:102B800090E090930502809304020E94871265E80A
:102B900073E086E994E00E94901B69E373E086E9A4
:102BA00094E00E94321A0E94A12C90E090930902B6
:102BB000809308020E94871265E873E086E994E03A
:102BC0000E94901B6DE273E086E994E00E94321A45
:102BD0000E94A12C90E090930702809306020E942D
:102BE000871265E873E086E994E00E94901B61E239
:102BF00073E086E994E00E94321A0E94A12C90E0D2
:102C00009093FA038093F9030E94871265E873E0BA
:102C100086E994E00E94901B65E173E086E994E008
:102C20000E94321A0E94A12C90E09093F8038093A6
:102C3000F7030E94871265E873E086E994E00E943A
:102C4000901B69E073E086E994E00E94321A0E94CA
:102C5000A12C90E09093F6038093F5030E948712D5
:102C600023C08534910511F50E94AC2B0E94D90F29
:102C70001092F6031092F5031092F8031092F703E6
:102C80001092FA031092F90381E090E09093090208
:102C900080930802909307028093060282E190E0FD
:102CA00090930502809304020E947A14C634D105E1
:102CB00009F089C10E94070F61E873E086E994E09A
:102CC0000E94901B6FE773E086E994E00E94901BDE
:102CD0006AE072E086E994E00E94901B60911E0415
:102CE00086E994E00E9499126DE773E086E994E02A
:102CF0000E94901B60911D0486E994E00E94991245
:102D000067E073E086E994E00E94321A8091F40350
:102D10000E94AF1261E873E086E994E00E94901B84
:102D20006BE773E086E994E00E94901B6AE072E032
:102D300086E994E00E94901B60911B0486E994E070
:102D40000E9499126DE773E086E994E00E94901B5F
:102D500060911A0486E994E00E94991265E073E09C
:102D600086E994E00E94321A8091F3030E94AF1228
:102D700061E873E086E994E00E94901B69E773E0E4
:102D800086E994E00E94901B6AE072E086E994E094
:102D90000E94901B6091180486E994E00E949912A9
:102DA0006DE773E086E994E00E94901B6091170440
:102DB00086E994E00E94991263E073E086E994E06A
:102DC0000E94321A8091F2030E94AF126CE072E00E
:102DD00086E994E00E94901B6AE072E086E994E044
:102DE0000E94901B65EB71E086E994E00E94901BC5
:102DF0006AE072E086E994E00E94901B80910D04E5
:102E00000E94AF126CE072E086E994E00E94901B91
:102E10006AE072E086E994E00E94901B6EEB71E03C
:102E200086E994E00E94901B6AE072E086E994E0F3
:102E30000E94901B80910C040E94AF1268E673E020
:102E400086E994E00E94901B6AE072E086E994E0D3
:102E50000E94901B80910B040E94AF1268E573E002
:102E600086E994E00E94901B6AE072E086E994E0B3
:102E70000E94901B409184055091850560918605C4
:102E80007091870586E994E00E9455120E944012D5
:102E900067E473E086E994E00E94901B6AE072E0C8
:102EA00086E994E00E94901B80910A040E94AF1270
:102EB00066E373E086E994E00E94901B6AE072E0AA
:102EC00086E994E00E94901B409180055091810515
:102ED000609182057091830586E994E00E94551205
:102EE0000E94401260E471E086E994E00E94901B29
:102EF0006AE072E086E994E00E94901B80910302F0
:102F00000E94AF126BE371E086E994E00E94901B8F
:102F10006AE072E086E994E00E94901B80910202D0
:102F20000E94AF1268E371E086E994E00E94901B72
:102F30006AE072E086E994E00E94901B80910102B1
:102F40000E94AF1265E371E086E994E00E94901B55
:102F50006AE072E086E994E00E94901B8091000292
:102F60000E94AF1262E371E086E994E00E94901B38
:102F70006AE072E086E994E00E94901B8091FF0174
:102F80000E94AF126FE271E086E994E00E94901B0C
:102F90006AE072E086E994E00E94901B8091FE0155
:102FA0000E94AF126CE271E086E994E00E94901BEF
:102FB0006AE072E086E994E00E94901B8091FD0136
:102FC0000E94AF1275C0C734D105D9F40E94100811
:102FD0004091FC035091FD036091FE037091FF034B
:102FE00022E086E994E00E94B41A6AE072E086E981
:102FF00094E00E94901B8091FB03DF91CF910C9491
:10300000AF12C834D10581F40E9410084091060423
:1030100050910704609108047091090422E086E948
:1030200094E00E94B41A40C0C934D10509F040C0F0
:103030000E94C5060E9438146DE773E086E994E0AB
:103040000E94901B0E94BD060E9438146DE773E039
:1030500086E994E00E94901B0E94B5060E943814F5
:103060006AE072E086E994E00E94901B0E94AD063F
:103070000E94381464E373E086E994E00E94901B98
:103080000E94A5060E94381464E373E086E994E088
:103090000E94901B0E949B06AC01990F660B770B58
:1030A00086E994E00E945512DF91CF910C94401272
:1030B000EF9721F4DF91CF910C943915DF91CF91E7
:1030C0000895CF92DF92EF92FF920F931F93CF93C9
:1030D000DF936C017A018B01C0E0D0E0CE15DF05F3
:1030E00081F0D8016D918D01D601ED91FC91019097
:1030F000F081E02DC6010995892B11F02196EECFC4
:103100007E01C701DF91CF911F910F91FF90EF904A
:10311000DF90CF900895FC01538D448D252F30E032
:10312000842F90E0821B930B541710F0CF960895D4
:1031300001970895FC01918D828D981761F0828D21
:10314000DF01A80FB11D5D968C91928D9F5F9F73DB
:10315000928F90E008958FEF9FEF0895FC01918D7D
:10316000828D981731F0828DE80FF11D858D90E0EA
:1031700008958FEF9FEF0895FC01918D228D892F87
:1031800090E0805C9F4F821B91098F73992708956F
:1031900086E994E00E94BC1821E0892B09F420E024
:1031A000822F0895FC01848DDF01A80FB11DA35A61
:1031B000BF4F2C91848D90E001968F739927848F57
:1031C000A689B7892C93A089B1898C91837080647A
:1031D0008C93938D848D981306C00288F389E02D1B
:1031E00080818F7D80830895EF92FF920F931F93CC
:1031F000CF93DF93EC0181E0888F9B8D8C8D9813AA
:1032000005C0E889F989808185FD26C0F62E0B8DE1
:1032100010E00F5F1F4F0F731127E02E8C8DE81207
:103220000CC00FB607FCFACFE889F989808185FFC9
:10323000F5CFCE010E94D218F1CF8B8DFE01E80FA1
:10324000F11DE35AFF4FF0829FB7F8940B8FEA8984
:10325000FB89808180620AC09FB7F894EE89FF895C
:103260006083E889F98980818370806480839FBF4F
:1032700081E090E0DF91CF911F910F91FF90EF904F
:103280000895CF93DF93EC01888D8823C9F0EA89F4
:10329000FB89808185FD05C0A889B9898C9186FD4F
:1032A0000FC00FB607FCF5CF808185FFF2CFA8894C
:1032B000B9898C9185FFEDCFCE010E94D218E7CF5E
:1032C000DF91CF91089580E090E0892B29F00E9452
:1032D000C81881110C940000089585ED8093BC00FE
:1032E0008091BC0084FDFCCF109291040895409120
:1032F000C805262F30E0240F311D21323105DCF4C2
:10330000209191042430C9F4FC0180E090E08617FC
:1033100058F43091C8052191DC01A855BA4FA30F8C
:10332000B11D2C930196F3CF8091C805680F60936F
:10333000C80580E0089581E0089582E00895089529
:1033400008950895E091950480919404E81730F46D
:10335000F0E0E857FA4F808190E008958FEF9FEFFB
:1033600008959091950480919404981750F4E92F52
:10337000F0E0E857FA4F208130E09F5F909395048A
:1033800002C02FEF3FEFC90108958091940490E0AF
:1033900020919504821B91090895CF92DF92EF92BC
:1033A000FF920F931F93CF93DF937C01CB018A0190
:1033B00020916904222389F0EB016B01C40ED51E14
:1033C000CC15DD0569F06991D701ED91FC91019073
:1033D000F081E02DC7010995F3CF642F0E94771982
:1033E000C801DF91CF911F910F91FF90EF90DF9077
:1033F000CF900895CF93DF931F92CDB7DEB7698347
:10340000209169042223D1F020919204203240F0CF
:1034100021E030E0FC013383228380E090E015C09E
:1034200080919304E82FF0E0E659FB4F9981908357
:103430008F5F809393048093920405C061E0CE0176
:1034400001960E94771981E090E00F90DF91CF9173
:1034500008950E94C12FDC01ED91FC910190F08153
:10346000E02D0994EF92FF920F931F93CF93DF9378
:103470008C017B01C0E0D0E0F701EC0FFD1F6491EF
:10348000662361F0D801ED91FC910190F081E02D6F
:10349000C8010995892B11F02196EECFCE01DF915D
:1034A000CF911F910F91FF90EF90089561157105D5
:1034B00079F0FB0101900020E9F73197AF01461B3D
:1034C000570BDC01ED91FC910280F381E02D099412
:1034D00080E090E008958F929F92AF92BF92EF921A
:1034E000FF920F931F93CF93DF93CDB7DEB7A197D2
:1034F0000FB6F894DEBF0FBECDBF7C01FA01CB0141
:1035000019A2223008F42AE08E010F5D1F4F822E8F
:10351000912CA12CB12CBF01A50194010E94442F34
:10352000F901CA01015011096A3014F4605D01C04B
:10353000695CD8016C93232B242B252B61F7B801F0
:10354000C7010E94561AA1960FB6F894DEBF0FBEAF
:10355000CDBFDF91CF911F910F91FF90EF90BF9062
:10356000AF909F908F9008957F928F929F92AF928D
:10357000BF92CF92DF92EF92FF920F931F93CF9360
:10358000DF938C016A017B01722E9A01AB01C701A6
:10359000B6010E941F2F882319F06FEC73E027C03B
:1035A00046015701E894B7F82FEF3FEF4FE75FE789
:1035B000C501B4010E941F2F81110DC02FEF3FEFF5
:1035C0004FE75FE7C501B4010E944E2D18161CF4A9
:1035D00063ED73E00CC02FEF3FEF4FE75FE4C701EF
:1035E000B6010E94AD2E181694F467ED73E0C80181
:1035F000DF91CF911F910F91FF90EF90DF90CF90CF
:10360000BF90AF909F908F907F900C94561A2FEFA1
:103610003FEF4FE75FECC701B6010E944E2D87FDDB
:10362000E4CF20E030E0A901C701B6010E944E2D91
:1036300087FF0AC06DE2C8010E942B1AEC01F7FA5D
:10364000F094F7F8F09402C0C0E0D0E0B12C60E054
:1036500070E080E09FE37B1441F020E030E040E246
:1036600051E40E94532DB394F6CFA70196010E9416
:10367000E22C6B017C010E94CC2D4B015C012AE005
:10368000AB01BC01C8010E946B1AC80FD91F77207B
:10369000C1F1C501B4010E94FB2D9B01AC01C70122
:1036A000B6010E94E12C6B017C016EE2C8010E9410
:1036B0002B1AC80FD91F20E030E040E251E4C701C7
:1036C000B6010E94B22E4B015C010E94CC2D6B0111
:1036D000E12CF12C2AE0B701A601C8010E946B1A67
:1036E000C80FD91FC701B6010E94FB2D9B01AC0179
:1036F000C501B4010E94E12C6B017C017A94711028
:10370000DACFCE01DF91CF911F910F91FF90EF9013
:10371000DF90CF90BF90AF909F908F907F90089553
:103720000C94561A1F920F920FB60F9211242F93DA
:103730003F934F935F936F937F938F939F93AF9339
:10374000BF93EF93FF9386E994E00E94D218FF9114
:10375000EF91BF91AF919F918F917F916F915F9109
:103760004F913F912F910F900FBE0F901F90189582
:103770001F920F920FB60F9211242F938F939F9346
:10378000EF93FF93E091A604F091A7048081E0916C
:10379000AC04F091AD0482FD12C090818091AF0421
:1037A0008F5F8F732091B004821751F0E091AF04C6
:1037B000F0E0EA56FB4F958F8093AF0401C0808103
:1037C000FF91EF919F918F912F910F900FBE0F90CE
:1037D0001F9018951F920F920FB60F9211242F93DE
:1037E0003F934F935F936F937F938F939F93AF9389
:1037F000BF93EF93FF938091B900887F803609F4DF
:103800009CC068F5883209F45BC090F4803109F4FB
:1038100054C038F4882309F4F6C0883009F44DC048
:10382000F6C0883109F44CC0803209F45DC0EFC0A5
:10383000803409F468C048F4803309F455C08833F3
:1038400009F0E5C080936804D8C0803509F44FC002
:10385000883509F45DC0883409F0D9C0D6C08839EC
:1038600009F4C7C0A8F4883709F467C038F488366B
:1038700009F463C0803709F460C0C9C0883809F40E
:10388000B8C0803909F45FC0803809F0C0C05BC09F
:10389000803B09F486C038F4803A09F466C0883A5F
:1038A00009F47FC0B4C0803C09F4A7C0883C09F487
:1038B000A4C0883B09F48AC0AAC08091450410C006
:1038C0009091670480916604981770F5E091670401
:1038D00081E08E0F80936704F0E0EA5BFB4F80810C
:1038E0008093BB0085EC86C0809368048EC0E09115
:1038F000670481E08E0F809367048091BB00F0E045
:10390000EA5BFB4F808390916704809166046EC0F0
:10391000E091670481E08E0F809367048091BB0083
:10392000F0E0EA5BFB4F80838091900481116DC0D1
:1039300081E080938F0484EA61C083E080939104E6
:103940001092EA05CFCF8091EA05803208F051C08D
:10395000E091EA0581E08E0F8093EA058091BB003B
:10396000F0E0E653FA4F8083BDCF85EC8093BC0036
:10397000109291048091EA05803230F4E091EA05DA
:10398000F0E0E653FA4F10826091EA0570E0E091B2
:103990008B04F0918C048AEC95E009951092EA056D
:1039A00036C084E0809391041092C9051092C80536
:1039B000E0918D04F0918E0409958091C8058111E4
:1039C00005C081E08093C8051092A805E091C90563
:1039D00081E08E0F8093C905F0E0E855FA4F8081B1
:1039E0008093BB009091C9058091C805981708F491
:1039F00079CF85E88093BC000AC085EC8093BC0039
:103A00001092910404C0109268040E946D19FF91F5
:103A1000EF91BF91AF919F918F917F916F915F9146
:103A20004F913F912F910F900FBE0F901F901895BF
:103A30000C94D32C0C94CB2C1F920F920FB60F9298
:103A400011242F933F938F939F93AF93BF938091B4
:103A50003D0490913E04A0913F04B0914004309108
:103A6000EB0523E0230F2D3720F40196A11DB11D96
:103A700005C026E8230F0296A11DB11D2093EB057A
:103A800080933D0490933E04A0933F04B093400480
:103A90008091410490914204A0914304B091440468
:103AA0000196A11DB11D8093410490934204A093FF
:103AB0004304B0934404BF91AF919F918F913F9184
:103AC0002F910F900FBE0F901F901895CF93DF93FB
:103AD000CDB7DEB761970FB6F894DEBF0FBECDBF8E
:103AE000789484B5826084BD84B5816084BD85B5D9
:103AF000826085BD85B5816085BD80916E008160E5
:103B000080936E001092810080918100826080938A
:103B1000810080918100816080938100809180008C
:103B20008160809380008091B10084608093B100B7
:103B30008091B00081608093B00080917A008460B1
:103B400080937A0080917A00826080937A008091DD
:103B50007A00816080937A0080917A0080688093F7
:103B60007A001092C100E091A604F091A70482E0CF
:103B70008083E091A204F091A3041082E091A40458
:103B8000F091A50480E180831092AE04E091AA0434
:103B9000F091AB0486E08083E091A804F091A90441
:103BA000808180618083E091A804F091A9048081E4
:103BB00088608083E091A804F091A90480818068E6
:103BC0008083E091A804F091A90480818F7D808397
:103BD00064EF71E080E090E00E94F2130E940B130A
:103BE00082E00E943D130E94F81160E171E080E0E4
:103BF0000E94231268E071E081E00E94231260E0DD
:103C000071E082E00E94231261E081E10E94B6131C
:103C100060E081E10E94BE1260E085E00E94B61380
:103C200061E08AE00E94B61361E08AE00E94BE1261
:103C30000E94D90F0E94391582EB94E09093DD0326
:103C40008093DC038091E2039091E303A091E4036D
:103C5000B091E5038093DE039093DF03A093E0032C
:103C6000B093E1030E9458038CE291E0A0E0B0E041
:103C70008093180190931901A0931A01B0931B012E
:103C80008091E2039091E303A091E403B091E503F6
:103C9000845D9E4FAF4FBF4F8093DE039093DF0351
:103CA000A093E003B093E1030E9458038091E603E0
:103CB0009091E7030297F9F00E94F8116CE171E02E
:103CC0008BE395E00E94901B8CE191E00E944612EC
:103CD00060EA7FE080E090E00E94F21381E0809350
:103CE0001F048BE090E09093F0038093EF03109219
:103CF000F1030E94EA090E948315E0915805F091B2
:103D00005905138615861486DF011B9633961E927D
:103D1000EA17FB07E1F71092570501E0BE01665F65
:103D20007F4F80915805909159050E9488078823FC
:103D300009F45BC067E0CE010A960E94CD0699891E
:103D40008913ECCF80915305811127C080915805CC
:103D5000909159050E945107BE01665F7F4F809187
:103D60005805909159050E940E0740E064EB809140
:103D70005805909159050E94DA0680915805909156
:103D800059050E942D07182F8091580590915905CB
:103D90000E945107112309F4E1C5BE016F5F7F4FF7
:103DA000CE010A960E946711109154058A858031D0
:103DB00011F40C94242BCE010A960E94BC11811799
:103DC00018F48091540509C08A85803111F48CE083
:103DD00004C0CE010A960E94BC11809354058091C4
:103DE00057058F5F8093570599CF0E94100898E27E
:103DF00088E10FB6F894A895809360000FBE909369
:103E00006000A89568EEC62E63E0D62EE12CF12C5A
:103E100022242A94322C80911F048111F6C28091B1
:103E20002604811134C248EB5BE05093C3014093F8
:103E3000C2010E942C1400912204109123042091AD
:103E4000240430912504DC01CB01801B910BA20BD3
:103E5000B30B883B9B40A105B10508F4D6C20E9474
:103E60002C14609322047093230480932404909371
:103E700025048091200490912104019690932104BF
:103E8000809320048130910509F444C01CF4892BEF
:103E900049F0BBC28230910509F4C3C0039709F40D
:103EA00030C1B3C260E080E00E9400120E94F714AB
:103EB00061E080E00E940012809006049090070468
:103EC000A0900804B090090420E030E048EC52ECE7
:103ED000C501B4010E94AD2E18169CF421E0B50175
:103EE000A4018BE395E00E94B41A60E08BE395E0B7
:103EF0000E94E40962EA70E08BE395E00E94321AC6
:103F00007EC263EA71E08BE395E00E94901B61EA58
:103F100071E071C261E080E00E94001220E030E0B8
:103F2000A9016091FC037091FD038091FE039091C3
:103F3000FF030E944E2D81110FC063EA71E08BE3F5
:103F400095E00E94901B61EA71E08BE395E00E948E
:103F5000901B64EE71E00EC06091FB038BE395E073
:103F60000E9499126FE971E08BE395E00E94901B2B
:103F70006AE072E08BE395E00E94901B8090FC0366
:103F80009090FD03A090FE03B090FF0320E030E08E
:103F90004AE754E4C501B4010E944E2D87FF19C0C1
:103FA00020E030E0A901C501B4010E94AD2E181631
:103FB00084F422E0B501A4018BE395E00E94B41AD9
:103FC0006AE072E08BE395E00E94901B6CE971E07F
:103FD00017C020E030E04AE754E4C501B4010E9474
:103FE000532DAB01BC0122E08BE395E00E94B41A93
:103FF0006AE072E08BE395E00E94901B68E971E053
:104000008BE395E00E94901B64EE71E08BE395E0FA
:104010000E94901B60E080E00E9400120E94F71452
:10402000F4C160E080E00E9400120E94F71461E099
:1040300080E00E9400120E9458030E947706E091DF
:10404000EB038E2F90E0FC013197E730F10508F08B
:1040500055C0EC5CFF4F60E971E08BE395E00C9498
:10406000852F0E94901B6AE072E08BE395E00E942E
:10407000901B69E871E0BFC10E94901B6AE072E08A
:104080008BE395E00E94901B61E871E0B4C10E944F
:10409000901B6AE072E08BE395E00E94901B6BE757
:1040A00071E0A9C10E94901B6AE072E08BE395E089
:1040B0000E94901B64E771E09EC10E94901B6AE021
:1040C00072E08BE395E00E94901B6CE671E093C177
:1040D0000E94901B6AE072E08BE395E00E94901BC7
:1040E00066E671E088C10E94901B6AE072E08BE393
:1040F00095E00E94901B6FE571E07DC164E571E081
:104100007AC160E080E00E94001263E471E08BE31A
:1041100095E00E94901B64EE71E08BE395E00E94B5
:10412000901B61E08EE00E94001264EE71E08BE370
:1041300095E00E94901B61E080E00E940012809157
:104140000302823019F460E471E008C06EE371E0AC
:104150008BE395E00E94901B6EE371E08BE395E0AA
:104160000E94901B61E082E00E9400128091020296
:10417000823019F46BE371E008C06EE371E08BE309
:1041800095E00E94901B6EE371E08BE395E00E9446
:10419000901B61E084E00E94001280910102823055
:1041A00019F468E371E008C06EE371E08BE395E019
:1041B0000E94901B6EE371E08BE395E00E94901BE0
:1041C00061E086E00E94001280910002823019F4C2
:1041D00065E371E008C06EE371E08BE395E00E9457
:1041E000901B6EE371E08BE395E00E94901B61E011
:1041F00088E00E9400128091FF01823019F462E38E
:1042000071E008C06EE371E08BE395E00E94901BC3
:104210006EE371E08BE395E00E94901B61E08AE021
:104220000E9400128091FE01823019F46FE271E069
:1042300008C06EE371E08BE395E00E94901B6EE393
:1042400071E08BE395E00E94901B61E08CE00E949E
:1042500000128091FD01823019F46CE271E008C017
:104260006EE371E08BE395E00E94901B6EE371E0DA
:104270008BE395E00E94901B64EE71E08BE395E088
:104280000E94901B3092210420922004BEC088EE30
:1042900093E09093C3018093C2010E942C1400917B
:1042A0002204109123042091240430912504DC0180
:1042B000CB01801B910BA20BB30B883E9340A10551
:1042C000B10508F4A2C00E942C14609322047093DC
:1042D0002304809324049093250460E080E00E94EE
:1042E00000126CE072E08BE395E00E94901B6AE0A4
:1042F00072E08BE395E00E94901B80911502882369
:1043000019F06EEB71E002C065EB71E08BE395E0B4
:104310000E94901B64EE71E08BE395E00E94901B7D
:1043200061E080E00E94001269EB71E08BE395E0B0
:104330000E94901B6AE072E08BE395E00E94901B64
:10434000409112045091130460911404709115046B
:1043500080910E0490910F04A0911004B09111046B
:10436000840F951FA61FB71F0091370510913805C0
:104370002091390530913A05BC01CD01601B710BCC
:10438000820B930BA70196010E94442FBA01A90149
:104390008BE395E00E94551263EB71E08BE395E0AF
:1043A0000E94901B60913305709134058091350512
:1043B00090913605A70196010E94442F49015A01A8
:1043C00060910204709103048091040490910504AB
:1043D000A70196010E94442FD501C401821B930BB3
:1043E000A40BB50BAC01BD012AE08BE395E00E9464
:1043F0006B1A6FEA71E08BE395E00E94901B64EE0C
:1044000071E08BE395E00E94901B0E94831590E47D
:1044100090937C0080917A00806480937A008091F0
:104420007A0086FDFCCF809178002091790090E0A1
:10443000922B823391059CF0833C91050CF44AC485
:104440008C37A1E09A070CF4C2C28B32B2E09B0712
:104450000CF4A0C5863193400CF483C221C060E9FE
:1044600071E080E090E00E94F2138DED91E00E94F7
:1044700046128091DB019091DC018B30910509F4AB
:10448000D6C58530910509F4DCC28330910509F465
:10449000D6C58130910509F4D8C5892B09F4DBC54F
:1044A00080912704882309F4A2C060911E0482E051
:1044B00090E00E94181D60911D0483E090E00E942E
:1044C000181D6091F40384E090E00E94181D609133
:1044D0001B0485E090E00E94181D60911A0486E09C
:1044E00090E00E94181D6091F30387E090E00E9425
:1044F000181D6091180488E090E00E94181D6091DA
:10450000170489E090E00E94181D6091F2038AE090
:1045100090E00E94181D60910D048BE090E00E94D5
:10452000181D60910C048CE090E00E94181D6091B1
:104530000B048DE090E00E94181D60910A0480E158
:1045400090E00E94181D6091030284E190E00E94B7
:10455000181D6091020285E190E00E94181D609193
:10456000010286E190E00E94181D6091000287E13F
:1045700090E00E94181D6091FF0188E190E00E9488
:10458000181D6091FE0189E190E00E94181D609164
:10459000FD018AE190E00E94181D85EF91E00E94E4
:1045A0004612109227040E94121260E080E00E94DE
:1045B000001265EF71E08BE395E00E94901B64EEC2
:1045C00071E08BE395E00E94901B61E080E00E9427
:1045D000001264EE71E08BE395E00E94901B60EDA9
:1045E00077E080E090E00E94F2130E947A148091BC
:1045F0001F048111AFC10E94AD0690930902809300
:1046000008020E94A50690930702809306020E946A
:104610009B06805D974090930502809304020E9460
:10462000C5069093FA038093F9030E94BD06909308
:10463000F8038093F7030E94B5069093F6038093E6
:10464000F5030E9410086091FC037091FD038091B6
:10465000FE039091FF030E94C52D9B01AC012858D9
:10466000334141095109ACE9BFEF0E94A82F24EB67
:104670003CEE4FEF5FEF0E94662FDA01C9018C59C3
:104680009F4FAF4FBF4F843608F084E68093FB0303
:104690000E945014882361F180910A04823041F510
:1046A00080910B04813021F5B090FB0357E25B153C
:1046B00060F080911C048111D5C48091190481118E
:1046C000D1C4809116048111CDC41091FB0388EDF3
:1046D000810F843108F417C51091FB0384EC810F1E
:1046E000843108F46BC51091FB03103508F0BBC58D
:1046F0000E945014882309F45EC080910B0482301C
:1047000009F059C080910A04813009F054C08090AA
:10471000060490900704A0900804B090090420E0DB
:1047200030E040E252E4C501B4010E94AD2E87FDA5
:104730000CC080911C048111E5C580911904811180
:10474000E1C5809116048111DDC58090060490902A
:104750000704A0900804B090090420E030E040EF86
:1047600051E4C501B4010E94AD2E87FF26C680909A
:10477000060490900704A0900804B090090420E07B
:1047800030E040EA51E4C501B4010E94AD2E87FF3C
:1047900083C68090060490900704A0900804B0900F
:1047A000090420E030E040EA50E4C501B4010E9471
:1047B000AD2E87FFDAC680912604882309F47BC0DA
:1047C0000E942C1460933705709338058093390547
:1047D00090933A0510911502612F81E10E94BE125B
:1047E0008091370590913805A0913905B0913A052F
:1047F00040911204509113046091140470911504B7
:10480000841B950BA60BB70B40910E0450910F041F
:10481000609110047091110484179507A607B707DB
:1048200008F44DC0112351F020910D04A8EEB3E01F
:104830002A9FC0012B9F900D112409C020910C04C8
:1048400048EE53E0249FC001259F900D1124092EAE
:10485000000CAA0BBB0B80930E0490930F04A09343
:104860001004B09311046CE072E086E994E00E94B9
:10487000901B6AE072E086E994E00E94901B8091B0
:10488000150290E00E9487129091150281E089271D
:10489000809315028091370590913805A0913905D4
:1048A000B0913A058093120490931304A0931404DA
:1048B000B093150404C060E081E10E94BE120E9422
:1048C000C50620911E0430E08217930789F40E94E8
:1048D000BD0620911D0430E08217930749F40E9421
:1048E000B50605972CF480911C04882309F4A0C612
:1048F0000E94C50620911B0430E08217930789F4BB
:104900000E94BD0620911A0430E08217930749F4F3
:104910000E94B50605972CF480911904882309F4A8
:104920008BC60E94C5062091180430E082179307B9
:1049300089F40E94BD062091170430E08217930786
:1049400049F40E94B50605972CF48091160488233B
:1049500009F476C6A8950E9463195DCA00935305B1
:104960001CCA64EC71E086E994E00E94901B80917F
:10497000EF039091F0030E94871281E080931F045F
:104980008091EF030E94EA098091EF039091F00378
:104990008230910540F09C01277F2330310519F0CA
:1049A0008530910521F41092F1030E94EA0980916B
:1049B000EF039091F00301969093F0038093EF033F
:1049C00060E273E080E090E00E94F21369CD68EC51
:1049D00070E080E090E00E94F21389EC91E00E9488
:1049E00046128091DB019091DC019C012C50310931
:1049F0002230310578F410921F04109227040E948F
:104A000012123092DC012092DB011092F00310921E
:104A1000EF0346CD8B30910509F076C08091F1030C
:104A2000811121C080910802909109028230910584
:104A3000A4F44FE150E050930902409308028BE048
:104A400009C08091F1038F3F09F4C7C281E08093D0
:104A5000F10385E00E94EA0923CD019790930902B2
:104A600080930802ECCF813081F48091060290910E
:104A70000702823091053CF48CE090E090930702AD
:104A800080930602DCCF0197F9CF8230A1F48091A8
:104A9000040290910502833191053CF4A2E3B0E059
:104AA000B0930502A0930402CACF01979093050228
:104AB00080930402C4CF8330A1F48091F9039091D4
:104AC000FA03181619063CF047E150E05093FA0338
:104AD0004093F903B4CF01979093FA038093F903BD
:104AE000AECF843009F0DCCC8091F7039091F803CD
:104AF000181619061CF08BE390E001C00197909303
:104B0000F8038093F7039BCF8A30910551F480918D
:104B10000A04813011F08AE09DCF82E080930A047C
:104B2000FACF8930910551F480910B04813011F056
:104B300089E090CF82E080930B04FACF8830910512
:104B400059F480910C04811105C08AEF80930C0404
:104B500088E080CF8150FACF8730910559F4809159
:104B60000D04811105C08AEF80930D0487E072CF98
:104B70008150FACF8630910559F48091F203863046
:104B800028F48AEF8093F20386E064CF8550FACF51
:104B900085309105D9F48091F10381110AC080918B
:104BA0001804811102C087E101C08150809318046C
:104BB00050CF813009F074CC80911704811102C06C
:104BC0008BE301C081508093170443CF843091055B
:104BD00059F48091F303863028F48AEF8093F3032D
:104BE00084E038CF8550FACF83309105E1F480918D
:104BF000F10381110BC080911B04811102C087E178
:104C000001C0815080931B0483E024CF813009F0E0
:104C100047CC80911A04811102C08BE301C08150FE
:104C200080931A04F1CF8230910559F48091F403F6
:104C3000863028F48AEF8093F40382E00BCF85500E
:104C4000FACF81309105E1F48091F10381110BC01D
:104C500080911E04811102C087E101C081508093C0
:104C60001E0481E0F7CE813009F01ACC80911D043A
:104C7000811102C08BE301C0815080931D04F1CFEC
:104C8000892B09F00DCC8091F103811103C01092A2
:104C90000302E0CE813021F41092020280E0DACEED
:104CA000823019F410920102F9CF833019F4109276
:104CB0000002F4CF843019F41092FF01EFCF853059
:104CC00019F41092FE01EACF863009F0E9CB109278
:104CD000FD01E4CF68EC70E080E090E00E94F21308
:104CE0008EEC91E00E9446128091DB019091DC01F4
:104CF0008D30910521F481E08093270482CE8C30A1
:104D0000910539F58FEF9FEF9093DC018093DB01E4
:104D10000E94AC2B0E94D90F1092F6031092F5035B
:104D20001092F8031092F7031092FA031092F9030D
:104D300081E090E09093090280930802909307022B
:104D40008093060282E190E0909305028093040232
:104D50004CCC8B30910509F04DC08091F10381114D
:104D60000CC080910802909109028F3191051CF0CE
:104D700041E050E060CE019671CE813061F48091C7
:104D80000602909107028C3091051CF081E090E0C2
:104D900075CE019673CE823061F4809104029091B9
:104DA0000502823391051CF0A2E1B0E079CE0196B4
:104DB0007DCE833071F48091F9039091FA038731AD
:104DC00091052CF01092FA031092F90338CE019657
:104DD00083CE843009F064CB8091F7039091F8037F
:104DE0008B3391052CF01092F8031092F70327CE25
:104DF000019685CE8A30910539F480910A0482307B
:104E000009F089CE81E08ACE8930910539F480910C
:104E10000B04823009F08CCE81E08DCE8830910574
:104E200049F480910C048A3F18F010920C0490CE43
:104E30008F5F8CCE8730910549F480910D048A3FB5
:104E400018F010920D0492CE8F5F8ECE86309105B1
:104E500041F48091F2038A3F10F085E093CE8B5F9E
:104E600091CE85309105C9F48091F103811109C07B
:104E700080911804873118F010921804EACD8F5FE2
:104E800095CE813009F00CCB809117048B3318F04C
:104E900010921704DECD8F5F96CE8430910541F4D9
:104EA0008091F3038A3F10F085E098CE8B5F96CE19
:104EB00083309105C9F48091F103811109C080917B
:104EC0001B04873118F010921B049ECE8F5F9ACE80
:104ED000813009F0E5CA80911A048B3318F01092E2
:104EE0001A0492CE8F5F9CCE8230910541F480915E
:104EF000F4038A3F10F085E09ECE8B5F9CCE81301C
:104F00009105C9F48091F103811109C080911E04BB
:104F1000873118F010921E04A4CE8F5FA0CE81308E
:104F200009F0BECA80911D048B3318F010921D0445
:104F300098CE8F5FA2CE892B09F0B2CA8091F1037F
:104F4000811104C082E080930302A8CE813021F455
:104F500082E080930202A2CE823019F48093010293
:104F60009DCE833021F482E08093000297CE84307E
:104F700021F482E08093FF0191CE853021F482E01C
:104F80008093FE018BCE863009F08ACA82E080933E
:104F9000FD0184CE60E971E080E090E00E94F213B0
:104FA00085ED91E00E9446128091DB019091DC0139
:104FB0008B30910551F48091F103815019F0809369
:104FC000F1033DCD1092F1033ACD8530910541F4C6
:104FD0008091F103815009F03ACD1092F10339CD5F
:104FE0008330910551F48091F103815019F0809341
:104FF000F1030ACE1092F10307CE8130910551F4EE
:105000008091F103815019F08093F1032ACE109220
:10501000F10327CE892B09F043CA8091F103815017
:1050200019F08093F1033ACE1092F10337CE8091BC
:10503000F1038F5F843008F4C2CF84E0C0CF809149
:10504000F1038F3FB9F281E0D2CF8091F1038F3F1E
:10505000F1F281E0D9CF8091F1038F5F863008F3C0
:1050600086E0DFCF81E0809326040E942C146093B9
:105070003305709334058093350590933605A70169
:1050800096010E94442F29013A01009100041091D9
:1050900001046091020470910304809104049091D2
:1050A0000504A70196010E94442FD301C201821B6F
:1050B000930BA40BB50B980136952795020F131F80
:1050C00020E030E080179107A207B30708F4FDCA7B
:1050D000409202045092030460920404709205040A
:1050E00010921C04109219041092160410922604B7
:1050F0004B2D50E060E070E081E190E00E94BD0F38
:105100000E944C14E2CA80911C04811109C0809154
:105110001904811105C080911604882309F4DCCAA2
:1051200081E0809326040E942C14609333057093D1
:1051300034058093350590933605A70196010E94AA
:10514000442F49015A016091020470910304809137
:10515000040490910504A70196010E94442FD501F3
:10516000C401821B930BA40BB50BAC01BD01809154
:10517000000490910104A0E0B0E0481759076A07C5
:105180007B0708F4A9CA8092020490920304A092BB
:105190000404B092050410921C0410921904109299
:1051A000160410922604412F50E060E070E081E187
:1051B00090E00E94BD0F0E944C148ECA80911C0486
:1051C000811105C080911904882309F48CCA81E0FB
:1051D000809326040E942C14609333057093340549
:1051E0008093350590933605A70196010E94442FC0
:1051F00049015A01609102047091030480910404F2
:1052000090910504A70196010E94442FD501C40185
:10521000821B930BA40BB50BAC01BD018091000464
:1052200090910104A0E0B0E0481759076A077B0796
:1052300008F459CA8092020490920304A0920404D4
:10524000B092050410921C041092190410922604C6
:10525000412F50E060E070E081E190E00E94BD0FDE
:105260000E944C1440CA80911C04882309F440CA4F
:1052700081E0809326040E942C1460933305709380
:1052800034058093350590933605A70196010E9459
:10529000442F49015A0160910204709103048091E6
:1052A000040490910504A70196010E94442FD501A2
:1052B000C401821B930BA40BB50BAC01BD01809103
:1052C000000490910104A0E0B0E0481759076A0774
:1052D0007B0708F40DCA8092020490920304A09206
:1052E0000404B092050410921C0410922604412F6D
:1052F00050E060E070E081E190E00E94BD0F0E940C
:105300004C14F6C981E0809326040E942C1460930B
:105310003305709334058093350590933605A701C6
:1053200096010E94442F29013A0100910004109136
:10533000010460910204709103048091040490912F
:105340000504A70196010E94442FD301C201821BCC
:10535000930BA40BB50B980136952795020F131FDD
:1053600020E030E080179107A207B30708F4EDC9E9
:105370004092020450920304609204047092050467
:1053800010921C0410921904109216041092260414
:1053900020E030E04AE754E4C501B4010E94B22E97
:1053A0000E94C52DAB01770F660B770B8EE090E066
:1053B0000E94BD0F0E944C14C8C920E030E040E2BA
:1053C00052E4C501B4010E944E2D87FFD0C98091DF
:1053D0001C04811109C080911904811105C08091BC
:1053E0001604882309F4C3C981E0809326040E942F
:1053F0002C14609333057093340580933505909396
:105400003605A70196010E94442F29013A016091B7
:105410000204709103048091040490910504A70193
:1054200096010E94442FD301C201821B930BA40B4F
:10543000B50BAC01BD018091000490910104A0E086
:10544000B0E0481759076A077B0708F490C94092F3
:1054500002045092030460920404709205041092B6
:105460001C0410921904109216041092260420E0D5
:1054700030E04AE754E4C501B4010E94B22E0E9414
:10548000C52DAB01770F660B770B8EE090E00E9485
:10549000BD0F0E944C146BC920E030E040EF51E496
:1054A000C501B4010E944E2D87FF73C980911C0471
:1054B000811105C080911904882309F46AC981E02B
:1054C000809326040E942C14609333057093340556
:1054D0008093350590933605A70196010E94442FCD
:1054E00029013A016091020470910304809104043F
:1054F00090910504A70196010E94442FD301C20197
:10550000821B930BA40BB50BAC01BD018091000471
:1055100090910104A0E0B0E0481759076A077B07A3
:1055200008F437C9409202045092030460920404C4
:105530007092050410921C04109219041092260413
:1055400020E030E04AE754E4C501B4010E94B22EE5
:105550000E94C52DAB01770F660B770B8EE090E0B4
:105560000E94BD0F0E944C1414C920E030E040EAB4
:1055700051E4C501B4010E944E2D87FF1CC98091E2
:105580001C04882309F417C981E0809326040E9433
:105590002C146093330570933405809335059093F4
:1055A0003605A70196010E94442F29013A01609116
:1055B0000204709103048091040490910504A701F2
:1055C00096010E94442FD301C201821B930BA40BAE
:1055D000B50BAC01BD018091000490910104A0E0E5
:1055E000B0E0481759076A077B0708F4E9C84092FA
:1055F0000204509203046092040470920504109215
:105600001C041092260420E030E04AE754E4C5016F
:10561000B4010E94B22E0E94C52DAB01770F660B1C
:10562000770B8EE090E00E94BD0F0E944C14C3C81F
:1056300081E00E941D025CC982E00E941D0271C9C6
:1056400083E00E941D0286C91D3010F00C94E11EFB
:105650000C94E71E0F931F93CF938C0181E08093EE
:10566000690488E680938A0410929304109292044D
:1056700060E086E695E00E94FA19F8018081CAE0B0
:105680006C2F0E94242F692FF0E18F9F600D112451
:1056900086E695E00E94FA19F80181816C2F0E943C
:1056A000242F692FF0E18F9F600D112486E695E08D
:1056B0000E94FA19F80182816C2F0E94242F692F11
:1056C000F0E18F9F600D112486E695E00E94FA19A3
:1056D000F80183816C2F0E94242F692FF0E18F9FA6
:1056E000600D112486E695E00E94FA19F801848184
:1056F0006C2F0E94242F692FF0E18F9F600D1124E1
:1057000086E695E00E94FA19F80185816C2F0E94C7
:10571000242F692FF0E18F9F600D112486E695E01C
:105720000E94FA19F80186818E516C2F0E94242F55
:10573000692FF0E18F9F600D112486E695E00E94AD
:10574000FA1981E00E940B1191E0811190E0892FFC
:10575000CF911F910F910895CF93DF93C0E0D0E0D8
:1057600060E0CE010E94181D2196C11584E0D80783
:10577000B9F786E192E0DF91CF910C944612109236
:1057800099041092980488EE93E0A0E0B0E0809332
:105790009A0490939B04A0939C04B0939D0420EAE8
:1057A00033E0309397042093960425EC30E0309357
:1057B000A3042093A20424EC30E03093A5042093AA
:1057C000A40420EC30E03093A7042093A60421EC3D
:1057D00030E03093A9042093A80422EC30E0309309
:1057E000AB042093AA0426EC30E03093AD04209360
:1057F000AC041092AF041092B0041092B104109255
:10580000B204109269051092680580936A0590931E
:105810006B05A0936C05B0936D0582EB93E09093BC
:1058200067058093660560E080E10E94B613ECE0B6
:10583000F2E0E491E0937205E8EFF1E0E491F0E04A
:10584000EE0FFF1FE252FE4F8591949190937405E5
:105850008093730510927D0510927F0510927E054E
:10586000EDE7F5E085E795E012928E179F07E1F7E7
:1058700081EA99E1909365058093640582E795E05C
:10588000909359058093580510925705109253052F
:1058900089E08093540591E09093550590935605C7
:1058A00010923E0510923D0524EC33E030933C0508
:1058B00020933B0598E090933F059FEF9093400520
:1058C0008093410582E08093420583E08093430505
:1058D00086E08093440587E0809345051092460555
:1058E00010924705109248051092490561E088E042
:1058F0000E94B613809140058F3F19F061E00E942D
:10590000B61361E0809141050E94B61310924A05DA
:1059100081E00E943D130E942C1460933705709320
:1059200038058093390590933A050E942C146093B2
:1059300033057093340580933505909336050C94A8
:105940000B13CF9386E994E00E94BC18892B41F495
:105950006AE070E080E090E00E94F213A895F2CF38
:1059600086E994E00E949A18C0E08A3069F080537A
:105970008A3028F49AE0C99F800D1124C82F86E947
:1059800094E00E949A18F1CF86E994E00E944119B0
:105990008C2FCF910895F999FECF92BD81BDF89AD1
:1059A000992780B50895262FF999FECF1FBA92BD89
:1059B00081BD20BD0FB6F894FA9AF99A0FBE0196F0
:1059C00008955058BB27AA270E94F92C0C94732ED7
:1059D0000E94652E38F00E946C2E20F039F49F3F13
:1059E00019F426F40C94622E0EF4E095E7FB0C9467
:1059F0005C2EE92F0E94842E58F3BA1762077307B2
:105A00008407950720F079F4A6F50C94A62E0EF4E1
:105A1000E0950B2EBA2FA02D0B01B90190010C01BE
:105A2000CA01A0011124FF27591B99F0593F50F4D6
:105A3000503E68F11A16F040A22F232F342F44272E
:105A4000585FF3CF469537952795A795F040539526
:105A5000C9F77EF41F16BA0B620B730B840BBAF0F6
:105A60009150A1F0FF0FBB1F661F771F881FC2F761
:105A70000EC0BA0F621F731F841F48F48795779575
:105A80006795B795F7959E3F08F0B0CF9395880F2F
:105A900008F09927EE0F9795879508950E94382E64
:105AA00008F481E008950E94672D0C94732E0E94E3
:105AB0006C2E58F00E94652E40F029F45F3F29F0CB
:105AC0000C945C2E51110C94A72E0C94622E0E9403
:105AD000842E68F39923B1F3552391F3951B550B4D
