:100000000C9404020C942C020C942C020C942C02E0
:100010000C942C020C942C020C942C020C946B0A61
:100020000C942C020C942C020C942C020C942C0298
:100030000C942C020C94CF0A0C942C020C942C02DD
:100040000C9433170C942C020C9432160C940C164E
:100050000C942C020C942C020C942C020C942C0268
:100060000C947D170C942C023C023E038603C603BD
:10007000F90339046C04AC04F20433059105EF056F
:100080009306EA0638024D454E552000444F4C5524
:10009000004E41484F525500564C45564F00565061
:1000A0005241564F00454550524F4D206E6163748A
:1000B000656E69204F4B00454550524F4D20736D82
:1000C000617A616E6100005EBCE2613FDD83C29CCB
:1000D0007E20A3FD1F419DC3217FFCA2401E5F0126
:1000E000E3BD3E6082DC237D9FC1421CFEA0E1BFD8
:1000F0005D0380DE3C62BEE0025CDF81633D7C220A
:10010000C09E1D43A1FF4618FAA427799BC584DA37
:100110003866E5BB5907DB856739BAE406581947E5
:10012000A5FB7826C49A653BD987045AB8E6A7F997
:100130001B45C6987A24F8A6441A99C7257B3A64C9
:1001400086D85B05E7B98CD2306EEDB3510F4E10F7
:10015000F2AC2F7193CD114FADF3702ECC92D38DA5
:100160006F31B2EC0E50AFF1134DCE90722C6D3357
:10017000D18F0C52B0EE326C8ED0530DEFB1F0AE89
:100180004C1291CF2D73CA947628ABF517490856B7
:10019000B4EA6937D58B5709EBB536688AD495CB65
:1001A0002977F4AA4816E9B7550B88D6346A2B7517
:1001B00097C94A14F6A8742AC896154BA9F7B6E849
:1001C0000A54D7896B3543415331004341533200C0
:1001D0004341533300430000000000240027002A5D
:1001E0000000000000250028002B0000000008008F
:1001F00002010000030407000000000000000000EE
:100200000000002300260029000404040404040460
:1002100004020202020202030303030303010204B5
:100220000810204080010204081020010204081078
:10023000202A2A2A2A2A2A2A2A2A2A2A2A2A2A2A28
:100240002A2A2A2A2A2A2A00492056797073617498
:1002500020646174756D20612063617300482056CD
:100260007970736174207465706C6F7475004720C9
:10027000567970736174206672656B76656E63691A
:100280000046205469736B20454550524F4D004540
:1002900020536D617A617420454550524F4D0044A2
:1002A000204E6173746176697420646174756D2089
:1002B0006120636173004320537075737469742007
:1002C00070726F6772616D203300422053707573D6
:1002D0007469742070726F6772616D203200412002
:1002E000537075737469742070726F6772616D20DA
:1002F00031003F204E61706F76656461002A2A2AC2
:10030000204D454E55202A2A2A2A2A2A2A2A2A2AD4
:100310002A2A2A007777772E70696872742E636FA5
:100320006D202020003000454E44004E453A0053D9
:100330004F3A0050413A0043543A0053543A005562
:10034000543A00504F3A00506F736C65646E6956B2
:100350003A00526567756C566C686B6F7374693AD6
:1003600000506F736C65646E69543A00526567752E
:100370006C5465706C6F746F753A0043657270569B
:1003800059503A00436572705A41503A00436173C4
:10039000333A00436173323A00436173313A0020CB
:1003A00053656320302D35393A2000204D696E2089
:1003B000302D35393A200020486F6420302D3233FB
:1003C0003A2000204D657320312D31323A20002033
:1003D00044656E20312D33313A200020526F6B205E
:1003E00031382D39393A20005465706C6F74613A98
:1003F0000020566C686B6F73743A004672656B76BA
:10040000656E63653A00352D11241FBECFEFD8E02D
:10041000DEBFCDBF13E0A0E0B1E0E6E2F3E602C04C
:1004200005900D92A437B107D9F726E0A4E7B3E011
:1004300001C01D92AA32B207E1F712E0C4E0D2E097
:1004400004C02197FE010E944931C330D107C9F78A
:100450000E94A4220C9491310C94000090E08F3003
:10046000910508F017C5FC01EC5CFF4F0C94493175
:10047000109287031092860360E080E00E94ED19DD
:1004800068E972E084E295E00E940A1661E08EE07D
:100490000E94ED1969E571E084E295E00E940A1678
:1004A00066E972E084E295E00E940A1661E080E06D
:1004B0000E94ED1980915801823019F463E972E0CD
:1004C00008C061E972E084E295E00E940A1661E9E1
:1004D00072E084E295E00E940A1661E082E00E94E8
:1004E000ED1980915701823019F46EE872E008C06E
:1004F00061E972E084E295E00E940A1661E972E027
:1005000084E295E00E940A1661E084E00E94ED1901
:1005100080915601823019F46BE872E008C061E9FD
:1005200072E084E295E00E940A1661E972E084E2DA
:1005300095E00E940A1661E086E00E94ED19809124
:100540005501823019F468E872E008C061E972E090
:1005500084E295E00E940A1661E972E084E295E087
:100560000E940A1661E088E00E94ED198091540112
:10057000823019F465E872E008C061E972E084E253
:1005800095E00E940A1661E972E084E295E00E941B
:100590000A1661E08AE00E94ED19809153018230D1
:1005A00019F462E872E008C061E972E084E295E063
:1005B0000E940A1661E972E084E295E00E940A1640
:1005C00061E08CE00E94ED1980915201823019F4B3
:1005D0006FE772E008C061E972E084E295E00E9492
:1005E0000A1661E972E084E295E00E940A16109210
:1005F00038011092370180918803811105C061E0B4
:100600000E94ED190E94851A80918803813031F48F
:1006100061E082E00E94ED190E94851A80918803B2
:10062000823031F461E084E00E94ED190E94851A65
:1006300080918803833031F461E086E00E94ED19F7
:100640000E94851A80918803843031F461E088E04B
:100650000E94ED190E94851A80918803853031F43B
:1006600061E08AE00E94ED190E94851A809188035A
:10067000863009F00FC461E08CE008C460E080E0DF
:100680000E94ED196EE672E084E295E00E940A167F
:1006900061E080E00E94ED198091910390E00E945A
:1006A000681C6BE173E084E295E00E940A16809179
:1006B000900390E00E94681C69E571E084E295E097
:1006C0000E940A1666E672E084E295E00E940A162D
:1006D00069E371E084E295E00E940A1681E090E00F
:1006E000909338018093370180918803811106C06F
:1006F00061E081E00E94ED190E94851A80918803D3
:10070000813009F0C7C361E084E0C0C360E080E0ED
:100710000E94ED1965E572E084E295E00E940A16F8
:1007200061E080E00E94ED1980918F0390E00E94CB
:10073000681C69E571E084E295E00E940A1663E5B1
:1007400072E084E295E00E940A166DE472E084E2B1
:1007500095E00E940A1669E571E084E295E00E9446
:100760000A1669E472E084E295E00E940A1667E4E2
:1007700072E084E295E00E940A1669E371E084E287
:1007800095E00E940A1682E090E025C160E080E0DA
:100790000E94ED1966E372E084E295E00E940A1679
:1007A00061E080E00E94ED1980918E0390E00E944C
:1007B000681C6BE173E084E295E00E940A16809168
:1007C0008D0390E00E94681C69E571E084E295E089
:1007D0000E940A1666E672E084E295E00E940A161C
:1007E00069E371E084E295E00E940A1683E090E0FC
:1007F00077CF60E080E00E94ED1965E272E084E26C
:1008000095E00E940A1661E080E00E94ED19809157
:100810008C0390E00E94681C69E571E084E295E039
:100820000E940A1663E572E084E295E00E940A16CF
:100830006DE472E084E295E00E940A1669E571E0D9
:1008400084E295E00E940A1669E472E084E295E091
:100850000E940A1667E472E084E295E00E940A169C
:1008600069E371E084E295E00E940A1684E090E07A
:10087000B2C060E080E00E94ED1964E172E084E2C1
:1008800095E00E940A1661E080E00E94ED198091D7
:100890008B0390E00E94681C6BE173E084E295E0BA
:1008A0000E940A1680918A0390E00E94681C69E504
:1008B00071E084E295E00E940A1666E672E084E246
:1008C00095E00E940A1669E371E084E295E00E94D7
:1008D0000A1685E090E004CF60E080E00E94ED1908
:1008E00063E072E084E295E00E940A1661E080E035
:1008F0000E94ED198091890390E00E94681C69E5CF
:1009000071E084E295E00E940A1663E572E084E2F9
:1009100095E00E940A166DE472E084E295E00E9480
:100920000A1669E571E084E295E00E940A1669E41E
:1009300072E084E295E00E940A1667E472E084E2C5
:1009400095E00E940A1669E371E084E295E00E9456
:100950000A1686E090E03FC060E080E00E94ED195A
:1009600062EF71E084E295E00E940A1661E080E0A7
:100970000E94ED198091A90390E00E94681C69E52E
:1009800071E084E295E00E940A1663E572E084E279
:1009900095E00E940A166CEE71E084E295E00E94F8
:1009A0000A1669E571E084E295E00E940A1669E49E
:1009B00072E084E295E00E940A1667E472E084E245
:1009C00095E00E940A1669E371E084E295E00E94D6
:1009D0000A1687E090E0909338018093370161E038
:1009E00081E054C260E080E00E94ED196BED71E09F
:1009F00084E295E00E940A1661E080E00E94ED1911
:100A00006091A80384E295E00E947F2269E571E08D
:100A100084E295E00E940A1663E572E084E295E0C4
:100A20000E940A166CEE71E084E295E00E940A16BC
:100A300069E571E084E295E00E940A1669E472E0DB
:100A400084E295E00E940A1667E472E084E295E091
:100A50000E940A1669E371E084E295E00E940A169A
:100A600088E090E00DC260E080E00E94ED196AEC41
:100A700071E084E295E00E940A1661E080E00E9445
:100A8000ED198091A703823001F562EC71E084E2F8
:100A900095E00E940A1669E571E084E295E00E9403
:100AA0000A1663E572E084E295E00E940A1662E0AD
:100AB00084E295E00E94E52160EC71E084E295E03B
:100AC0000E940A166CEB71E01FC064EB71E084E2D7
:100AD00095E00E940A1669E571E084E295E00E94C3
:100AE0000A1663E572E084E295E00E940A1661E06E
:100AF00084E295E00E94E52160EC71E084E295E0FB
:100B00000E940A1660EB71E084E295E00E940A16EA
:100B100067E472E084E295E00E940A1689E090E0C2
:100B2000AFC160E080E00E94ED196FE971E084E2FE
:100B300095E00E940A1661E080E00E94ED19809124
:100B40009203823001F562EC71E084E295E00E944C
:100B50000A1669E571E084E295E00E940A1663E5F1
:100B600072E084E295E00E940A1662E084E295E079
:100B70000E94E52160EC71E084E295E00E940A1693
:100B80006CEB71E01FC064EB71E084E295E00E94C1
:100B90000A1669E571E084E295E00E940A1663E5B1
:100BA00072E084E295E00E940A1661E084E295E03A
:100BB0000E94E52160EC71E084E295E00E940A1653
:100BC00060EB71E084E295E00E940A1667E472E04F
:100BD00084E295E00E940A168AE090E051C160E04C
:100BE00080E00E94ED196EE871E084E295E00E94D9
:100BF0000A1661E080E00E94ED1969E371E084E289
:100C000095E00E940A1661E080E00E94ED19809153
:100C10003501909136010E94681C61E082E00E94DB
:100C2000ED1969E173E084E295E00E940A16809173
:100C30003301909134010E94681C69E371E084E201
:100C400095E00E940A1661E085E00E94ED1969E1D5
:100C500073E084E295E00E940A1680913101909140
:100C600032010E94681C69E371E084E295E00E9411
:100C70000A1661E08BE00E94ED198091800390914B
:100C800081030E94681C61E08DE00E94ED196BE118
:100C900073E084E295E00E940A16809182039091AD
:100CA00083030E94681C69E371E084E295E00E947E
:100CB0000A168BE090E090933801809337011092F0
:100CC00085031092840380918803811106C061E03E
:100CD00081E00E94ED190E94851A8091880381307D
:100CE00031F461E084E00E94ED190E94851A809140
:100CF0008803823031F461E087E00E94ED190E94A0
:100D0000851A80918803833031F461E08CE00E9481
:100D1000ED190E94851A80918803843009F0BAC0C9
:100D200061E08FE0B3C060E080E00E94ED196DE704
:100D300071E084E295E00E940A1661E080E00E9482
:100D4000ED1966E972E084E295E00E940A1669E511
:100D500071E084E295E00E940A1663E572E084E2A5
:100D600095E00E940A1662E084E295E00E94E52187
:100D700060EC71E084E295E00E940A1669E771E098
:100D800084E295E00E940A1669E571E084E295E04C
:100D90000E940A1661E084E295E00E94E52160EC81
:100DA00071E084E295E00E940A1666E771E084E251
:100DB00095E00E940A1667E472E084E295E00E94E2
:100DC0000A1669E371E084E295E00E940A168CE05D
:100DD00090E056C060E080E00E94ED1965E671E0A9
:100DE00084E295E00E940A1661E080E00E94ED191D
:100DF00066E972E084E295E00E940A1669E571E016
:100E000084E295E00E940A1663E572E084E295E0D0
:100E10000E940A1662E084E295E00E94E52160ECFF
:100E200071E084E295E00E940A1669E771E084E2CD
:100E300095E00E940A1669E571E084E295E00E945F
:100E40000A1661E084E295E00E94E52160EC71E021
:100E500084E295E00E940A1666E771E084E295E07C
:100E60000E940A1667E472E084E295E00E940A1686
:100E700069E371E084E295E00E940A168DE090E05B
:100E8000909338018093370161E080E00E94ED1972
:100E90000C94851A0895CF93DF93C0E0D0E060E012
:100EA000CE010E94AB182196C11584E0D807B9F78E
:100EB00087EB90E0DF91CF910C94391BCF9382E0C8
:100EC00090E00E94AD188093910383E090E00E942F
:100ED000AD188093900384E090E00E94AD18809359
:100EE0008F0385E090E00E94AD1880938E0386E02A
:100EF00090E00E94AD1880938D0387E090E00E94FF
:100F0000AD1880938C0388E090E00E94AD18809328
:100F10008B0389E090E00E94AD1880938A038AE0F9
:100F200090E00E94AD18809389038BE090E00E94CE
:100F3000AD188093A9038CE090E00E94AD188093D7
:100F4000A8038DE090E00E94AD188093A7038EE087
:100F500090E00E94AD18C82F8FE090E00E94AD187D
:100F600090E0A0E0B0E0BA2FA92F982F88278C0F2F
:100F7000911DA11DB11D8093260690932706A09375
:100F80002806B093290680E190E00E94AD18809376
:100F9000920381E190E00E94AD18C82F82E190E0B9
:100FA0000E94AD1890E0A0E0B0E0BA2FA92F982FD2
:100FB00088278C0F911DA11DB11D8093220690934F
:100FC0002306A0932406B093250684E190E00E94B6
:100FD000AD188093580185E190E00E94AD18809390
:100FE000570186E190E00E94AD188093560187E199
:100FF00090E00E94AD188093550188E190E00E9436
:10100000AD188093540189E190E00E94AD1880935F
:1010100053018AE190E00E94AD188093520185EA65
:1010200090E0CF910C94391BCF92DF92EF92FF9218
:10103000CF93DF93EC016A017B01642F0E94AB1810
:101040009927F7FC9A958F2D7E2D6D2DCE01019657
:10105000DF91CF91FF90EF90DF90CF900C94AB1881
:101060000E945E0780919103883138F066E082E04B
:1010700090E00E94AB1881E001C080E09091900365
:101080009C3330F060E083E090E00E94AB1881E098
:1010900090918F039550963F30F06EE184E090E0A0
:1010A0000E94AB1881E090918E03983130F062E19C
:1010B00085E090E00E94AB1881E090918D039C3315
:1010C00030F060E086E090E00E94AB1881E0909103
:1010D0008C039550963F30F06EE187E090E00E94DF
:1010E000AB1881E090918B03983130F069E088E093
:1010F00090E00E94AB1881E090918A039C3330F01D
:1011000060E089E090E00E94AB1881E09091890353
:101110009550963F30F06EE18AE090E00E94AB1867
:1011200081E09091A9039B3F30F065E08BE090E077
:101130000E94AB1881E09091A8039B3F30F064E1DE
:101140008CE090E00E94AB1881E09091A703915051
:10115000923030F061E08DE090E00E94AB1881E0C9
:101160004091260650912706609128067091290625
:1011700049355B416105710540F040E050E0BA013E
:101180008EE090E00E94140881E0909192039150CB
:10119000923030F061E080E190E00E94AB1881E095
:1011A00040912206509123066091240670912506F5
:1011B000453651056105710540F040E050E0BA0147
:1011C00081E190E00E94140881E0909158019330F1
:1011D00010F4913031F462E084E190E00E94AB18A9
:1011E00081E090915701933010F4913031F462E036
:1011F00085E190E00E94AB1881E090915601933018
:1012000010F4913031F462E086E190E00E94AB1876
:1012100081E090915501933010F4913031F462E007
:1012200087E190E00E94AB1881E0909154019330E7
:1012300010F4913031F462E088E190E00E94AB1844
:1012400081E090915301933010F4913031F462E0D9
:1012500089E190E00E94AB1881E0909152019330B7
:1012600010F4913031F462E08AE190E00E94AB1812
:1012700001C081110C945E0708950F931F93809114
:10128000B30381117AC08091B203882309F475C039
:1012900060E080E00E94ED196BE571E084E295E08A
:1012A0000E940A1669E571E084E295E00E940A1640
:1012B00080916401882319F06CEB71E002C060EB4F
:1012C00071E084E295E00E940A1669E371E084E22D
:1012D00095E00E940A1661E080E00E94ED1967EF38
:1012E00072E084E295E00E940A1669E571E084E20A
:1012F00095E00E940A164091AE035091AF036091B1
:10130000B0037091B1038091AA039091AB03A091B7
:10131000AC03B091AD03840F951FA61FB71F0091BA
:101320002005109121052091220530912305BC0153
:10133000CD01601B710B820B930B28EE33E040E074
:1013400050E00E940831BA01A90184E295E00E94B0
:10135000481B69E571E084E295E00E940A1669E4A1
:1013600072E084E295E00E940A1669E371E084E28B
:1013700095E01F910F910C940A161F910F910895FB
:1013800080ED91E00E94391B81E08093A0030E94D0
:1013900027176093AE037093AF038093B0039093CD
:1013A000B1031092AA031092AB031092AC031092F7
:1013B000AD030E94271760939C0370939D03809355
:1013C0009E0390939F034091890328EE33E0429F50
:1013D000C001439F900D1124092E000CAA0BBB0BDA
:1013E0008093980390939903A0939A03B0939B03DF
:1013F00008958BEC91E00E94391B81E08093A1035A
:101400000E9427176093AE037093AF038093B003DD
:101410009093B1031092AA031092AB031092AC0305
:101420001092AD030E94271760939C0370939D0355
:1014300080939E0390939F0340918C0328EE33E0AA
:10144000429FC001439F900D1124092E000CAA0B4E
:10145000BB0B8093980390939903A0939A03B09346
:101460009B03089586EC91E00E94391B81E08093F4
:10147000A2030E9427176093AE037093AF0380937B
:10148000B0039093B1031092AA031092AB03109291
:10149000AC031092AD030E94271760939C037093D6
:1014A0009D0380939E0390939F0340918F0328EEAA
:1014B00033E0429FC001439F900D1124092E000C80
:1014C000AA0BBB0B8093980390939903A0939A0364
:1014D000B0939B0308951F920F920FB60F921124A1
:1014E0002F933F934F935F936F937F938F939F932C
:1014F000AF93BF9340918400509185008091C003C9
:101500009091C103A091C203B091C3032091C40381
:101510003091C5032F5F3F4F3093C5032093C40321
:101520006091C6037091C7032617370748F1B09B37
:1015300004C04F3F510501F1F8F010928000109265
:1015400081001092B0001092B10010926F001092C2
:101550007000DC0199278827840F951FA11DB11DFC
:101560008093C8039093C903A093CA03B093CB039D
:1015700081E08093CC0304C00196A11DB11DDDCF95
:10158000BF91AF919F918F917F916F915F914F919B
:101590003F912F910F900FBE0F901F9018951F92A3
:1015A0000F920FB60F9211248F939F93AF93BF9317
:1015B0008091C0039091C103A091C203B091C30375
:1015C0000196A11DB11D8093C0039093C103A09308
:1015D000C203B093C303BF91AF919F918F910F90BE
:1015E0000FBE0F901F9018950F931F9360937A036F
:1015F00070937B0380937C0390937D03009118018B
:101600001091190120911A0130911B01DC01CB01CD
:10161000800F911FA21FB31F8093760390937703CF
:10162000A0937803B093790382E090E090937F03D6
:1016300080937E030E9427176093B9037093BA03C7
:101640008093BB039093BC031F910F910895CF9299
:10165000DF92EF92FF920F931F930E942717C09083
:10166000B903D090BA03E090BB03F090BC038B01A8
:101670009C010C191D092E093F0980917A03909154
:101680007B03A0917C03B0917D03083E13402105AC
:101690003105D0F00196A11DB11D80937A0390937E
:1016A0007B03A0937C03B0937D03B701A60148514F
:1016B0005C4F6F4F7F4F4093B9035093BA036093D1
:1016C000BB037093BC03C9CF40917603509177035D
:1016D000609178037091790384179507A607B7077F
:1016E000C8F1E0917403F0917503309799F1099571
:1016F000611571058105910519F00E94F40A2AC04F
:1017000040917A0350917B0360917C0370917D033B
:101710008091180190911901A0911A01B0911B01BB
:10172000840F951FA61FB71F8093760390937703AE
:10173000A0937803B093790381E090E020917E0339
:1017400030917F03232B11F480E090E090937F038E
:1017500080937E0360917A0370917B0380917C0378
:1017600090917D031F910F91FF90EF90DF90CF90AC
:1017700008952F923F924F925F926F927F928F9235
:101780009F92AF92BF92CF92DF92EF92FF920F9310
:101790001F93CF93DF93CDB7DEB72A970FB6F89498
:1017A000DEBF0FBECDBF9A8789870E94270B6B01D2
:1017B0007C01E985FA858285982F9F702EE0290F9C
:1017C0002F70233008F005C14681578160857185EF
:1017D000C416D506E606F70608F4FBC0923029F4D5
:1017E00082819381A481B58145C0933009F04EC0B8
:1017F000E985FA8582809380A480B5800E94270BBA
:1018000020E8422E21E5522E66246394712CA30118
:1018100092010E94083160E871E581E090E00E9449
:10182000D830DC01CB01880D991DAA1DBB1DE985AF
:10183000FA8582809380A480B580C816D906EA060E
:10184000FB06E8F0C701B601A30192010E9408312E
:101850002F5F3F4F4F4F5F4F60E871E581E090E0B1
:101860000E94D830DC01CB01880D991DAA1DBB1D3B
:10187000E985FA8586839783A087B187AAC0C701C7
:10188000B601A30192010E940831E6CF943009F01D
:101890009CC0E985FA8542805380648075800E94EF
:1018A000270B4B015C010E94270B69837A838B8392
:1018B0009C830E94270B6D837E838F839887480CBF
:1018C000591C6A1C7B1C80E8882E81E5982EAA246E
:1018D000A394B12C69817A818B819C81A5019401AB
:1018E0000E940831461A570A680A790A6D817E817A
:1018F0008F819885A50194010E940831CA01B90120
:101900006C5F7F4F8F4F9F4F27E030E040E050E00B
:101910000E9408319B01AC0160E871E581E090E034
:101920000E94D83093018201061B170B280B390B3C
:10193000E985FA8582819381A481B581C016D1069B
:10194000E206F30698F08058954CA64FBF4F2C0145
:101950003D014C0C5D1C6E1C7F1CC701B601A5012E
:1019600094010E940831530142010EC01601270163
:10197000280E391E4A1E5B1EC701B601A50194013F
:101980000E94083152014101861A970AA80AB90A31
:10199000CA01B9016C5F7F4F8F4F9F4F27E030E046
:1019A00040E050E00E9408319B01AC0160E871E525
:1019B00081E090E00E94D83095018401061B170B4E
:1019C000280B390BD901C80153CF8F7EE985FA85E1
:1019D0008287E985FA8582858F70813061F4828102
:1019E0009381A481B581C80ED91EEA1EFB1EC68252
:1019F000D782E086F1862A960FB6F894DEBF0FBE36
:101A0000CDBFDF91CF911F910F91FF90EF90DF90AD
:101A1000CF90BF90AF909F908F907F906F905F908E
:101A20004F903F902F9008954F925F926F927F92C8
:101A30008F929F92AF92BF92CF92DF92EF92FF92DE
:101A40000F931F93CF93DF93FC011681A12FB0E07A
:101A500020E833E341EE51E00E9465314B015C0127
:101A6000C2EBD7E09D0104E610E080E9E82EFF24F8
:101A7000F394CE01825B974082179307D4F4CE0192
:101A800083709927892B99F4CE01B8010E94F43014
:101A9000892B31F4CE01B7010E94F430892B39F43F
:101AA00080E8880E81E5981E81E0A81EB11C219671
:101AB000E0CF4580512C2E54384FC90164E670E0C8
:101AC0000E94F4307C01C90160E971E00E94F430A9
:101AD0006C0102E213E0C1E0D0E03901A3E06A2228
:101AE0007724C415D50534F5C230D10589F46114C5
:101AF000710471F4E114F10419F4C114D10441F436
:101B0000B0E88B0EBBE39B1EB6E2AB1EB11C0EC051
:101B1000D8018C91A82FB0E020E831E541E050E0F9
:101B20000E946531860E971EA81EB91E21960F5F72
:101B30001F4FD7CF4181228130E0A0E1BEE00E945B
:101B40004F316B017C01242F30E0ACE3B0E00E9408
:101B50004F31DC01CB018C0D9D1DAE1DBF1D2081C1
:101B60006C017D01C20ED11CE11CF11CA481B0E00E
:101B7000119720E831E541E050E00E947031DC012E
:101B8000CB018C0D9D1DAE1DBF1DBC01CD01680D8F
:101B9000791D8A1D9B1DDF91CF911F910F91FF90A1
:101BA000EF90DF90CF90BF90AF909F908F907F90FD
:101BB0006F905F904F9008956F927F928F929F9257
:101BC000AF92BF92CF92DF92EF92FF920F931F934B
:101BD000CF93DF936B017C01EA018CE3882E912C7B
:101BE000A12CB12CC701B601A50194010E940831B6
:101BF0006883CA01B901A50194010E940831698373
:101C0000C701B60120E13EE040E050E00E9408310B
:101C1000CA01B90128E130E040E050E00E940831FB
:101C20006A83C701B60120E831E541E050E00E9437
:101C3000083169017A01CA01B9016C5F7F4F8F4F8A
:101C40009F4F27E030E040E050E00E9408316F5F96
:101C50006B83812C912C540140E094E6692E712C09
:101C600000E911E0242F30E02E54384FF901E370E1
:101C7000FF27309789F4C901B3010E94F430892B02
:101C800031F4C901B8010E94F430892B29F48EE6A1
:101C900091E0A0E0B0E004C08DE691E0A0E0B0E00B
:101CA000880E991EAA1EBB1ED501C401AA27BB27F8
:101CB000C816D906EA06FB0610F04F5FD3CF4E8355
:101CC000309799F4C90164E670E00E94F430892BE2
:101CD00039F4C90160E971E00E94F430892B29F4DC
:101CE0008EE691E0A0E0B0E004C08DE691E0A0E0D7
:101CF000B0E0881A990AAA0ABB0AC818D908EA08E3
:101D0000FB08C90164E670E00E94F4308C01C9014F
:101D100060E971E00E94F430A2E2B3E020E02130FB
:101D200041F4309751F40115110529F4009729F475
:101D300002C04C9103C04DE101C04CE150E060E0B5
:101D400070E0C416D506E606F70640F0C41AD50AB8
:101D5000E60AF70A2F5F11962C3009F72F5F2D83C3
:101D6000C394CC82DF91CF911F910F91FF90EF90A0
:101D7000DF90CF90BF90AF909F908F907F906F90AB
:101D80000895CF92DF92EF92FF92C090B503D0906A
:101D9000B603E090B703F090B803C616D706E8067E
:101DA000F90671F06B017C014BE156E00E94DC0DFD
:101DB000C092B503D092B603E092B703F092B80395
:101DC000FF90EF90DF90CF900895CF92DF92EF9247
:101DD000FF928091B3038111F4C18091B20381110C
:101DE000F0C18091BE039091BF0301969093BF0311
:101DF0008093BE038130910509F444C01CF4892B03
:101E000049F0DFC18230910509F4B4C0039709F4A9
:101E100011C1D7C160E080E00E94ED190E947D1CD5
:101E200061E080E00E94ED19C090A303D090A4036C
:101E3000E090A503F090A60320E030E048EC52ECDF
:101E4000C701B6010E94613018169CF421E0B70169
:101E5000A60184E295E00E942E1560E084E295E000
:101E60000E94E52165ED71E084E295E00E94AC14EA
:101E700077C06BEE72E084E295E00E940A1666E994
:101E800072E06AC060E080E00E94ED190E947D1C53
:101E900061E080E00E94ED1920E030E0A90160914E
:101EA00094037091950380919603909197030E94FB
:101EB000022F811109C06BEE72E084E295E00E946E
:101EC0000A1666E972E00EC06091930384E295E021
:101ED0000E947F2269EE72E084E295E00E940A1679
:101EE00069E571E084E295E00E940A16C0909403CF
:101EF000D0909503E0909603F090970320E030E0B7
:101F00004AE754E4C701B6010E94022F87FF13C0BD
:101F100020E030E0A901C701B6010E946130181627
:101F200054F422E0B701A60184E295E00E942E1548
:101F300066EE72E011C020E030E04AE754E4C701E9
:101F4000B6010E94072FAB01BC0122E084E295E0BC
:101F50000E942E1562EE72E084E295E00E940A165D
:101F600069E371E084E295E0FF90EF90DF90CF901D
:101F70000C940A1660E080E00E94ED190E947D1C1E
:101F800061E080E00E94ED196AED72E084E295E084
:101F90000E940A1669E571E084E295E00E940A1643
:101FA0000E94270B0E94C10E80911E068093BD03E4
:101FB000823031F462ED72E084E295E00E940A160C
:101FC0008091BD03833031F46CEC72E084E295E0E3
:101FD0000E940A168091BD03843031F465EC72E0F2
:101FE00084E295E00E940A168091BD03853031F4A9
:101FF0006DEB72E084E295E00E940A168091BD03C9
:10200000863031F467EB72E084E295E00E940A16B4
:102010008091BD03873031F460EB72E084E295E09B
:102020000E940A168091BD03813009F099CF69EAB8
:1020300072E092CF60E080E00E94ED1968E972E002
:1020400084E295E00E940A1669E371E084E295E07B
:102050000E940A1661E08EE00E94ED1969E371E0CA
:1020600084E295E00E940A1661E080E00E94ED198A
:1020700080915801823019F463E972E008C061E987
:1020800072E084E295E00E940A1661E972E084E25F
:1020900095E00E940A1661E082E00E94ED198091AD
:1020A0005701823019F46EE872E008C061E972E00D
:1020B00084E295E00E940A1661E972E084E295E00C
:1020C0000E940A1661E084E00E94ED198091560199
:1020D000823019F46BE872E008C061E972E084E2D2
:1020E00095E00E940A1661E972E084E295E00E94A0
:1020F0000A1661E086E00E94ED1980915501823058
:1021000019F468E872E008C061E972E084E295E0E1
:102110000E940A1661E972E084E295E00E940A16C4
:1021200061E088E00E94ED1980915401823019F439
:1021300065E872E008C061E972E084E295E00E941F
:102140000A1661E972E084E295E00E940A1661E0F5
:102150008AE00E94ED1980915301823019F462E8FF
:1021600072E008C061E972E084E295E00E940A161C
:1021700061E972E084E295E00E940A1661E08CE079
:102180000E94ED1980915201823019F46FE772E0DC
:1021900008C061E972E084E295E00E940A1661E9F4
:1021A00072E084E295E00E940A1669E371E084E23D
:1021B00095E00E940A168FEF9FEF9093BF038093E4
:1021C000BE03FF90EF90DF90CF9008950E94270B01
:1021D0000E94C10E8091210690E08E54984F089580
:1021E000DC0180E0615040F09D91E82FE927F0E0AC
:1021F000EA53FF4F8491F6CF0895BF92CF92DF92BA
:10220000EF92FF920F931F93CF93DF93EC01D62EA3
:10221000C72E8D8581115BC0CE010E9418218111CE
:1022200004C01B861D861C8666C040E060EFCE01A0
:102230000E94C52001E0E12CB12C11E0CE010E94EA
:102240007220F82ECE010E94722091E0F91203C094
:102250008130B1F434C02E2D30E0F8121BC08B85D4
:10226000181738F4FE01E20FF31F8381802341F435
:1022700002C0181729F0F12C193058F41C8709C036
:10228000FE01EE0DF11D8381802B8383FF24F394E7
:1022900009C0B12EFE01E20FF31F9381802F8095BC
:1022A000892383836F2DCE010E9496201F5F000F2C
:1022B00011F4E39401E087E08E1508F0BFCF1134EC
:1022C00030F0BB86B11012C081E08D870FC01B8635
:1022D0001D861C8680E0DE011396ED2DFC2D2B96CD
:1022E0009D919193AC17BD07D9F705C08B818823C9
:1022F00071F381E0F0CFDF91CF911F910F91FF90AB
:10230000EF90DF90CF90BF900895CF92DF92EF9241
:10231000FF92CF93DF93CDB7DEB761970FB6F894F6
:10232000DEBF0FBECDBF8091B303811112C180917A
:102330004105909142050E94182140E06CEC80918B
:102340004105909142050E94C52040913C0564E4FE
:1023500080914105909142050E94C52080913E05E3
:102360008823A9F0E0913D05E950E33040F4F0E026
:10237000EE0FFF1FE25DFC4F6081718102C06EEEC7
:1023800072E0072E000C880B990B0E94ED16E0916D
:102390004105F0914205138615861486DF011B96D0
:1023A000CF0103961E928A179B07E1F7BE01665F75
:1023B0007F4FCF010E94FD10882349F067E0CE01D6
:1023C0000A960E94F0109989891709F46FC060E09D
:1023D00070E08EEF92EC6093A3037093A40380935C
:1023E000A5039093A6031092CC0384EF91E0909301
:1023F000C7038093C6031092C5031092C4031092C2
:10240000C0031092C1031092C2031092C303109232
:102410008000109281001092B0001092B10081E013
:1024200080936F0082E08093B0009CE79093B300AC
:102430008093700010928500109284001092B20078
:1024400083BD85E08093B10087E080938100809117
:10245000CC03811102C0A895FACF6091C803709196
:10246000C9038091CA039091CB030E94AF2F20E053
:1024700030E04AE754E40E9466306B017C016091D1
:10248000C6037091C70380E090E00E94AF2F9B01CC
:10249000AC01C701B6010E94072F609394037093AB
:1024A0009503809396039093970353C0BE016F5F8B
:1024B0007F4FCE010A960E945C19882341F068E0A4
:1024C000CE0101960E94F01099858917A1F060E86D
:1024D00074EE613854EE75070CF479CF072E000CBA
:1024E000880B990B0E94B12F20E030E040E05CE3C4
:1024F0000E94663070CF2A8130E0C901982F88276A
:10250000990F990F990F698128E0629FB0011124FA
:102510009C01262B372B8A858031C9F4688570E0B1
:102520008F81AB01481B5109CA019695982F8827C6
:10253000979587950E94F43060517109207F53E090
:10254000220F331F5A95E1F7620F731FC2CFB901F3
:10255000C0CF61960FB6F894DEBF0FBECDBFDF913E
:10256000CF91FF90EF90DF90CF900895CF92DF92C0
:10257000EF92FF920F931F93CF93DF936C017A0139
:102580008B01C0E0D0E0CE15DF0581F0D8016D9160
:102590008D01D601ED91FC910190F081E02DC601F5
:1025A0000995892B11F02196EECF7E01C701DF91AD
:1025B000CF911F910F91FF90EF90DF90CF900895F2
:1025C000FC01538D448D252F30E0842F90E0821B39
:1025D000930B541710F0CF96089501970895FC01BE
:1025E000918D828D981761F0828DDF01A80FB11D4A
:1025F0005D968C91928D9F5F9F73928F90E008956E
:102600008FEF9FEF0895FC01918D828D981731F027
:10261000828DE80FF11D858D90E008958FEF9FEF7B
:102620000895FC01918D228D892F90E0805C9F4F51
:10263000821B91098F73992708958FE794E00E9478
:10264000111321E0892B09F420E0822F0895FC0169
:10265000848DDF01A80FB11DA35ABF4F2C91848D2B
:1026600090E001968F739927848FA689B7892C9360
:10267000A089B1898C91837080648C93938D848DB3
:10268000981306C00288F389E02D80818F7D8083B6
:102690000895EF92FF920F931F93CF93DF93EC0176
:1026A00081E0888F9B8D8C8D981305C0E889F9890E
:1026B000808185FD26C0F62E0B8D10E00F5F1F4F29
:1026C0000F731127E02E8C8DE8120CC00FB607FC9B
:1026D000FACFE889F989808185FFF5CFCE010E9484
:1026E0002713F1CF8B8DFE01E80FF11DE35AFF4F49
:1026F000F0829FB7F8940B8FEA89FB898081806212
:102700000AC09FB7F894EE89FF896083E889F98948
:1027100080818370806480839FBF81E090E0DF913F
:10272000CF911F910F91FF90EF900895CF93DF937A
:10273000EC01888D8823C9F0EA89FB89808185FDB9
:1027400005C0A889B9898C9186FD0FC00FB607FC1A
:10275000F5CF808185FFF2CFA889B9898C9185FF5B
:10276000EDCFCE010E942713E7CFDF91CF910895DF
:1027700080E090E0892B29F00E941D1381110C94B8
:10278000000008953FB7F894809135049091360485
:10279000A0913704B091380426B5A89B05C02F3FFF
:1027A00019F00196A11DB11D3FBFBA2FA92F982F77
:1027B0008827820F911DA11DB11DBC01CD0142E0F2
:1027C000660F771F881F991F4A95D1F7089585EDE9
:1027D0008093BC008091BC0084FDFCCF1092FC056E
:1027E000089540910D04262F30E0240F311D213231
:1027F0003105DCF42091FC052430C9F4FC0180E0B3
:1028000090E0861758F430910D042191DC01A3511A
:10281000BC4FA30FB11D2C930196F3CF80910D04F3
:10282000680F60930D0480E0089581E0089582E0D0
:102830000895089508950895E09100068091FF0598
:10284000E81730F4F0E0E353FC4F808190E0089506
:102850008FEF9FEF0895909100068091FF059817E4
:1028600050F4E92FF0E0E353FC4F208130E09F5F0C
:102870009093000602C02FEF3FEFC90108958091A9
:10288000FF0590E020910006821B91090895CF92E8
:10289000DF92EF92FF920F931F93CF93DF937C0110
:1028A000CB018A0120915D04222389F0EB016B01A9
:1028B000C40ED51ECC15DD0569F06991D701ED91E7
:1028C000FC910190F081E02DC7010995F3CF642FB1
:1028D0000E94F113C801DF91CF911F910F91FF90DA
:1028E000EF90DF90CF900895CF93DF931F92CDB7F5
:1028F000DEB7698320915D042223D1F02091FD058C
:10290000203240F021E030E0FC013383228380E07C
:1029100090E015C08091FE05E82FF0E0E25AFB4FF1
:10292000998190838F5F8093FE058093FD0505C09C
:1029300061E0CE0101960E94F11381E090E00F90DA
:10294000DF91CF9108950E948C31DC01ED91FC91D3
:102950000190F081E02D0994EF92FF920F931F9365
:10296000CF93DF938C017B01C0E0D0E0F701EC0F47
:10297000FD1F6491662361F0D801ED91FC910190F7
:10298000F081E02DC8010995892B11F02196EECF39
:10299000CE01DF91CF911F910F91FF90EF9008959D
:1029A0006115710579F0FB0101900020E9F731977D
:1029B000AF01461B570BDC01ED91FC910280F381C6
:1029C000E02D099480E090E008958F929F92AF925D
:1029D000BF92EF92FF920F931F93CF93DF93CDB7E8
:1029E000DEB7A1970FB6F894DEBF0FBECDBF7C0156
:1029F000FA01CB0119A2223008F42AE08E010F5D02
:102A00001F4F822E912CA12CB12CBF01A501940146
:102A10000E940831F901CA01015011096A3014F409
:102A2000605D01C0695CD8016C93232B242B252B9E
:102A300061F7B801C7010E94D014A1960FB6F894AF
:102A4000DEBF0FBECDBFDF91CF911F910F91FF90E1
:102A5000EF90BF90AF909F908F9008957F928F924C
:102A60009F92AF92BF92CF92DF92EF92FF920F931D
:102A70001F93CF93DF938C016A017B01722E9A0121
:102A8000AB01C701B6010E94D330882319F064E678
:102A900073E027C046015701E894B7F82FEF3FEFE6
:102AA0004FE75FE7C501B4010E94D33081110DC02B
:102AB0002FEF3FEF4FE75FE7C501B4010E94022F00
:102AC00018161CF468E673E00CC02FEF3FEF4FE7D9
:102AD0005FE4C701B6010E946130181694F46CE6F9
:102AE00073E0C801DF91CF911F910F91FF90EF909C
:102AF000DF90CF90BF90AF909F908F907F900C947D
:102B0000D0142FEF3FEF4FE75FECC701B6010E94F3
:102B1000022F87FDE4CF20E030E0A901C701B60114
:102B20000E94022F87FF0AC06DE2C8010E94A5140F
:102B3000EC01F7FAF094F7F8F09402C0C0E0D0E0AE
:102B4000B12C60E070E080E09FE37B1441F020E076
:102B500030E040E251E40E94072FB394F6CFA70182
:102B600096010E94962E6B017C010E94802F4B01E2
:102B70005C012AE0AB01BC01C8010E94E514C80F4A
:102B8000D91F7720C1F1C501B4010E94AF2F9B016D
:102B9000AC01C701B6010E94952E6B017C016EE26B
:102BA000C8010E94A514C80FD91F20E030E040E200
:102BB00051E4C701B6010E9466304B015C010E94DE
:102BC000802F6B01E12CF12C2AE0B701A601C8018E
:102BD0000E94E514C80FD91FC701B6010E94AF2F8C
:102BE0009B01AC01C501B4010E94952E6B017C01D3
:102BF0007A947110DACFCE01DF91CF911F910F91AE
:102C0000FF90EF90DF90CF90BF90AF909F908F900C
:102C10007F9008950C94D0141F920F920FB60F92CC
:102C200011242F933F934F935F936F937F938F93D1
:102C30009F93AF93BF93EF93FF938FE794E00E942E
:102C40002713FF91EF91BF91AF919F918F917F914A
:102C50006F915F914F913F912F910F900FBE0F9009
:102C60001F9018951F920F920FB60F9211242F9359
:102C70008F939F93EF93FF93E0918F04F0919004D3
:102C80008081E0919504F091960482FD12C09081BC
:102C9000809198048F5F8F7320919904821751F06F
:102CA000E0919804F0E0E158FB4F958F80939804F1
:102CB00001C08081FF91EF919F918F912F910F9093
:102CC0000FBE0F901F90189590E0FC01E551FE4F4C
:102CD0002491FC01E35EFD4F3491FC01E75FFD4F61
:102CE000E491EE2309F43CC0222339F1233091F022
:102CF00038F42130A9F0223001F584B58F7D12C05F
:102D0000273091F02830A1F02430B9F48091800070
:102D10008F7D03C0809180008F77809380000DC0ED
:102D200084B58F7784BD09C08091B0008F7703C0D0
:102D30008091B0008F7D8093B000F0E0EE0FFF1F18
:102D4000EF51FE4FA591B4919FB7F894611104C063
:102D50008C913095382302C0EC913E2B3C939FBF61
:102D60000895CF93DF9390E0FC01E35EFD4F249143
:102D7000FC01E75FFD4F8491882361F190E0880FAB
:102D8000991FFC01E952FE4FC591D491FC01EF510E
:102D9000FE4FA591B491611109C09FB7F894888145
:102DA000209582238883EC912E230BC0623061F43E
:102DB0009FB7F8948881322F309583238883EC91D4
:102DC0002E2B2C939FBF06C08FB7F894E8812E2B33
:102DD00028838FBFDF91CF9108958F929F92AF92FA
:102DE000BF92CF92DF92EF92FF926B017C010E9423
:102DF000C2134B015C01C114D104E104F104F1F0F0
:102E00000E94C213DC01CB0188199909AA09BB09E8
:102E1000883E9340A105B10570F321E0C21AD108A4
:102E2000E108F10888EE880E83E0981EA11CB11C11
:102E3000C114D104E104F10419F7DDCFFF90EF9044
:102E4000DF90CF90BF90AF909F908F9008952FB755
:102E5000F894609131047091320480913304909120
:102E600034042FBF08951F920F920FB60F921124B2
:102E70002F933F938F939F93AF93BF938091310490
:102E800090913204A0913304B09134043091300415
:102E900023E0230F2D3720F40196A11DB11D05C09D
:102EA00026E8230F0296A11DB11D209330048093C4
:102EB000310490933204A0933304B093340480918E
:102EC000350490913604A0913704B09138040196EE
:102ED000A11DB11D8093350490933604A09337044F
:102EE000B0933804BF91AF919F918F913F912F91F3
:102EF0000F900FBE0F901F9018951F920F920FB654
:102F00000F9211242F933F934F935F936F937F936F
:102F10008F939F93AF93BF93EF93FF938091B900EB
:102F2000887F803609F49CC068F5883209F45BC05C
:102F300090F4803109F454C038F4882309F4F6C0C1
:102F4000883009F44DC0F6C0883109F44CC0803295
:102F500009F45DC0EFC0803409F468C048F48033E0
:102F600009F455C0883309F0E5C080935C04D8C0EB
:102F7000803509F44FC0883509F45DC0883409F004
:102F8000D9C0D6C0883909F4C7C0A8F4883709F475
:102F900067C038F4883609F463C0803709F460C02C
:102FA000C9C0883809F4B8C0803909F45FC08038D6
:102FB00009F0C0C05BC0803B09F486C038F4803A99
:102FC00009F466C0883A09F47FC0B4C0803C09F4B3
:102FD000A7C0883C09F4A4C0883B09F48AC0AAC0F1
:102FE0008091390410C090915B0480915A04981725
:102FF00070F5E0915B0481E08E0F80935B04F0E05C
:10300000E65CFB4F80818093BB0085EC86C080939B
:103010005C048EC0E0915B0481E08E0F80935B04C2
:103020008091BB00F0E0E65CFB4F808390915B04F5
:1030300080915A046EC0E0915B0481E08E0F809312
:103040005B048091BB00F0E0E65CFB4F80838091E5
:10305000FB0581116DC081E08093FA0584EA61C0AF
:1030600083E08093FC0510922F04CFCF80912F0432
:10307000803208F051C0E0912F0481E08E0F8093E0
:103080002F048091BB00F0E0E15FFB4F8083BDCF58
:1030900085EC8093BC001092FC0580912F04803257
:1030A00030F4E0912F04F0E0E15FFB4F108260917B
:1030B0002F0470E0E091F605F091F7058FE094E0C1
:1030C000099510922F0436C084E08093FC0510927D
:1030D0000E0410920D04E091F805F091F9050995A0
:1030E00080910D04811105C081E080930D04109240
:1030F000ED03E0910E0481E08E0F80930E04F0E06A
:10310000E351FC4F80818093BB0090910E0480912D
:103110000D04981708F479CF85E88093BC000AC0A5
:1031200085EC8093BC001092FC0504C010925C04F6
:103130000E94E713FF91EF91BF91AF919F918F9103
:103140007F916F915F914F913F912F910F900FBEA3
:103150000F901F9018950C94872E0C947F2ECF9271
:10316000DF92EF92FF928F3008F045C0482F50E079
:103170009BE0899FF0011124DF01A75ABA4F8C917F
:103180008F70C9F1E15BFA4FC280D380E480F58093
:10319000C114D104E104F10429F021E0808191817E
:1031A000892B09F420E03BE0349FC001359F900D4E
:1031B0001124FC01E75AFA4F308120FB34F93083A7
:1031C000CD28CE28CF2861F0815B9A4FFC01228563
:1031D00024FF06C0FF90EF90DF90CF900C94B90BC6
:1031E0008BE0849FF001859FF00D1124E75AFA4F80
:1031F00080818F7E8083FF90EF90DF90CF90089545
:10320000282F3091FD05313208F04AC08091FC052D
:103210008111FCCF90917E0442E04093FC05209305
:10322000FB052FEF20935C0410925B0430935A044B
:10323000EEE5F4E0AAE3B4E020E0321721F041919A
:103240004D932F5FFACF1092390420913904990FD2
:10325000922B909339049091FA05913061F4109279
:10326000FA05909139049093BB009091BC0093FDB6
:10327000F8CF95EC01C095EE9093BC009091FC05C1
:103280009230E1F390915C049F3F79F080915C046F
:10329000803241F080915C04803331F084E005C0DD
:1032A00081E003C082E001C083E01092FE0510922D
:1032B000FD0510925D040895AF92BF92CF92DF9208
:1032C000EF92FF920F931F93CF93DF93EC018B014B
:1032D00080914105909142050E9418218823A1F117
:1032E000BE0180914105909142050E94F92040E085
:1032F0006EEB80914105909142050E94C520E80146
:10330000680189E0C80ED11CA0904105B09042052B
:1033100088E0E82EF12C10E001E0C5010E94722047
:103320008111102B000F81E0E81AF108B1F7199311
:10333000CC16DD0649F780914105909142050E9427
:10334000182191E0813009F090E0892FDF91CF9131
:103350001F910F91FF90EF90DF90CF90BF90AF90B3
:103360000895CF93DF93CDB7DEB729970FB6F894C2
:10337000DEBF0FBECDBFBE016F5F7F4F0E945C19E5
:10338000882341F068E0CE0101960E94F0109985F3
:10339000891711F080E012C08D818F3311F48AE01B
:1033A0000DC0803420F48F31A9F789E007C08F3534
:1033B00021F08F3779F78CE001C08BE029960FB6AA
:1033C000F894DEBF0FBECDBFDF91CF91089540E0EE
:1033D000682F84E295E00C948621643008F063E065
:1033E00090913705691710F06FEF690FE62FF0E045
:1033F000EC5DFA4F9489890F80680C94E719CF939C
:10340000DF93823028F090913305986090933305D4
:10341000809337051092380580E48093390580E168
:1034200080933A0580E580933B058BE39DE001970F
:10343000F1F760E0809128050E94641660E08091B9
:103440002A050E946416809129058F3F19F060E0DB
:103450000E9464168091330584FD20C063E084E2FD
:1034600095E00E944F21CBE4D6E4CE010197F1F71D
:1034700063E084E295E00E944F212197F1F763E039
:1034800084E295E00E944F2183E592E00197F1F7F5
:1034900062E084E295E00E944F2115C080620E94A4
:1034A000E7198BE496E40197F1F780913305806288
:1034B0000E94E71983E592E00197F1F780913305C7
:1034C00080620E94E7198091330580620E94E719AB
:1034D00084E0809334058CE00E94E71981E00E942B
:1034E000E7198BE39FE10197F1F782E080933505BF
:1034F00086E0DF91CF910C94E719E4E2F5E0808952
:103500008E7F808B88600C94E719E4E2F5E0808977
:10351000982F9160908B89600C94E7190F931F93FB
:10352000CF93DF938B01877028E0829FC001112425
:1035300080640E94E719E801085F1F4F699184E2E7
:1035400095E00E94E521C017D107C1F7DF91CF9127
:103550001F910F9108958F929F92AF92BF92CF9239
:10356000DF92EF92FF920F931F93CF93DF938C0123
:103570007B016A010E94270B6115724E8F4D9140AD
:10358000A8F1C0E0D0E09BE09C9FF0019D9FF00D72
:103590001124DF01A75ABA4F8C918F7019F5E15BA6
:1035A000FA4FD182C0828C91807D83608C9320E120
:1035B0003EE0D8010E945E314B015C012CE330E01B
:1035C000D7010E945E31DC01CB01880D991DAA1D37
:1035D000BB1D82839383A483B5838C2F0E94AF1875
:1035E0008C2F05C02196CF30D10571F68FEFDF917A
:1035F000CF911F910F91FF90EF90DF90CF90BF90F0
:10360000AF909F908F9008950F931F93CF93DF9368
:10361000C0E0D0E03BE03C9FF0013D9FF00D112465
:10362000DF01A75ABA4F2C912F7099F48B019C019E
:10363000E15BFA4F518340838C91807D81608C9354
:1036400002831383248335838C2F0E94AF188C2F21
:1036500005C02196CF30D105F1F68FEFDF91CF91E4
:103660001F910F91089560E773E08FE794E00C9449
:10367000D014CF93DF93BC018FE794E00E94AC1489
:10368000EC010E94331B8C0F9D1FDF91CF91089599
:10369000CF92DF92EF92FF920F931F93CF93DF931E
:1036A00077FF1DC06A017B01EC016DE20E94A51449
:1036B0008C0144275527BA014C195D096E097F0911
:1036C0002AE0CE010E94E514800F911FDF91CF9177
:1036D0001F910F91FF90EF90DF90CF9008952AE017
:1036E000DF91CF911F910F91FF90EF90DF90CF90DE
:1036F0000C94E514CF938FE794E00E941113892B6B
:1037000041F46AE070E080E090E00E94ED16A89538
:10371000F2CF8FE794E00E94EF12C0E08A3069F0A8
:1037200080538A3028F49AE0C99F800D1124C82F55
:103730008FE794E00E94EF12F1CF8FE794E00E94B0
:1037400096138C2FCF910895CF93DF93EC010A97B6
:1037500028F460E38FE794E00E944913AE01DD0F87
:10376000660B770B8FE794E0DF91CF910C94481BA9
:1037700087E293E00C94391B0E94270B0E94C10E34
:1037800090911E0680915801823011F4923031F1EF
:1037900080915701823011F4933001F180915601EC
:1037A000823011F49430D1F080915501823011F4BF
:1037B0009530A1F080915401823011F4963071F06F
:1037C00080915301823011F4973041F08091520181
:1037D000823031F481E0913019F403C081E0089522
:1037E00080E00895CF93DF93CDB7DEB727970FB66C
:1037F000F894DEBF0FBECDBF8BE093E00E94952210
:1038000082E00E94E7198BE39FE10197F1F76BE0FB
:1038100073E084E295E00E940A1669E371E084E2B5
:1038200095E00E940A1661E080E00E94ED1969E3CC
:1038300071E084E295E00E940A1680913101909136
:103840003201609133015091350120918403309110
:10385000820340918003843691051CF0825B97407F
:1038600001C04E96809321066093200650931F0658
:1038700040931D0630931C0620931B068BE196E0B7
:103880000E94140D0E94F40A0E94270BAE014F5FA4
:103890005F4F0E94DC0D898180688983CE0101968B
:1038A0000E94EB2189818F778983CE0101960E9446
:1038B000EB2164E971E180E090E00E94ED1627962B
:1038C0000FB6F894DEBF0FBECDBFDF91CF91089544
:1038D000CF93DF93EC010A9730F465E273E084E262
:1038E00095E00E94AC14AE01DD0F660B770B84E20D
:1038F00095E0DF91CF910C94481BCF93DF9360E06C
:1039000080E00E94ED190E94270B0E94C10ECBE1BE
:10391000D6E08C8190E00E94681C69E173E084E24B
:1039200095E00E940A160E94270B0E94C10E8D810D
:1039300090E00E94681C69E173E084E295E00E94D7
:103940000A160E94E610AC01990F660B770B84E211
:1039500095E00E94481B69E571E084E295E00E94D1
:103960000A1669E571E084E295E00E940A1660E0BB
:103970008BE00E94ED190E94270B0E94C10E8A81E4
:1039800090E00E94681C6BE173E084E295E00E9485
:103990000A160E94270B0E94C10E898190E00E94A6
:1039A000681C69E571E084E295E0DF91CF910C94A9
:1039B0000A1660E080E00E94ED1964E173E084E2A1
:1039C00095E00E94AC1461E080E00E94ED196CEF7C
:1039D00072E084E295E00E940A168DEF92E00E9468
:1039E000391B82EF92E00E94391B8EED92E00E941B
:1039F000391B8AEC92E00E94391B86EB92E00E9410
:103A0000391B8FE992E00E94391B8FE892E00E94F7
:103A1000391B81E892E00E94391B8EE692E00E94F9
:103A2000391B8DE592E00E94391B88E492E00E94E8
:103A3000391B81E392E00E94391B60ED77E080E062
:103A400090E00C94ED16CF93DF938FE794E00E9403
:103A50001113181619060CF048C28FE794E00E9463
:103A6000EF12EC018134910519F40E94320AC0C0B2
:103A70008234910519F40E94F909BAC08334910582
:103A800019F40E94C00991C18434910509F08AC0DB
:103A90006DE173E08FE794E00E940A166BED73E02E
:103AA0008FE794E00E94AC140E947A1B90E0909300
:103AB0003201809331010E947A1B90E09093320191
:103AC000809331010E946D226DE173E08FE794E0F5
:103AD0000E940A166FEC73E08FE794E00E94AC142A
:103AE0000E947A1B90E090933601809335010E94EA
:103AF0006D226DE173E08FE794E00E940A1663EC9B
:103B000073E08FE794E00E94AC140E947A1B90E06F
:103B100090933401809333010E946D226DE173E034
:103B20008FE794E00E940A1667EB73E08FE794E05A
:103B30000E94AC140E947A1B90E0909381038093C2
:103B400080030E946D226DE173E08FE794E00E9494
:103B50000A166BEA73E08FE794E00E94AC140E94AF
:103B60007A1B90E090938303809382030E946D22DE
:103B70006DE173E08FE794E00E940A166FE973E04D
:103B80008FE794E00E94AC140E947A1B90E090931F
:103B90008503809384030E946D220E94F21B0E9481
:103BA000F21B27C18534910519F50E944B070E942D
:103BB00030081092850310928403109283031092B0
:103BC0008203109281031092800381E090E0909331
:103BD000360180933501909334018093330182E163
:103BE00090E090933201809331010E94F21B77C1E3
:103BF000C634D10509F0D9C00E945E0769E973E0B7
:103C00008FE794E00E94AC14609191038FE794E0F9
:103C10000E947F22609190038FE794E00E947F22B0
:103C200080918F030E94862263E973E08FE794E01E
:103C30000E94AC1460918E038FE794E00E947F2273
:103C400060918D038FE794E00E947F2280918C0326
:103C50000E9486226DE873E08FE794E00E94AC1426
:103C600060918B038FE794E00E947F2260918A032A
:103C70008FE794E00E947F22809189030E94862230
:103C800064E873E08FE794E00E94AC148091A9038C
:103C90000E9486226BE773E08FE794E00E94AC14E9
:103CA0008091A8030E9486226CE673E08FE794E07F
:103CB0000E94AC148091A7030E94862261E673E003
:103CC0008FE794E00E94AC1440912606509127069D
:103CD00060912806709129068FE794E00E94481BA6
:103CE0000E94331B62E573E08FE794E00E94AC14FE
:103CF000809192030E94862267E473E08FE794E04C
:103D00000E94AC1440912206509123066091240633
:103D1000709125068FE794E00E94481B0E94331B98
:103D200063E473E08FE794E00E94AC148091580143
:103D30000E9486226FE373E08FE794E00E94AC1448
:103D4000809157010E9486226BE373E08FE794E035
:103D50000E94AC14809156010E94862267E373E0B2
:103D60008FE794E00E94AC14809155010E94862256
:103D700063E373E08FE794E00E94AC1480915401F8
:103D80000E9486226FE273E08FE794E00E94AC14F9
:103D9000809153010E9486226BE273E08FE794E0EA
:103DA0000E94AC148091520120C0C734D10509F59E
:103DB0000E9485116BEF73E08FE794E00E94AC14D2
:103DC00040919403509195036091960370919703ED
:103DD00022E08FE794E00E942E1561EF73E08FE7F9
:103DE00094E00E94AC1480919303DF91CF910C94E6
:103DF0008622C834D105B1F40E94851168EE73E0C3
:103E00008FE794E00E94AC144091A3035091A40367
:103E10006091A5037091A60322E08FE794E00E94D1
:103E20002E1559C0C934D10509F059C00E94270B7D
:103E30000E94C10E80911D0690E00E94A41B6BE1C0
:103E400073E08FE794E00E940A160E94270B0E94FD
:103E5000C10E80911C0690E00E94A41B6BE173E0F0
:103E60008FE794E00E940A160E94270B0E94C10E61
:103E700080911B0690E00E94A41B69E571E08FE72A
:103E800094E00E940A160E94270B0E94C10E8091A6
:103E90001F0690E00E94A41B69E173E08FE794E0A5
:103EA0000E940A160E94270B0E94C10E80912006D4
:103EB00090E00E94A41B69E173E08FE794E00E9408
:103EC0000A160E94E610AC01990F660B770B8FE77C
:103ED00094E00E94481BDF91CF910C94331BEF9725
:103EE00021F4DF91CF910C94D91CDF91CF910895EB
:103EF000089580E090E00895CF93DF93EC0160E0B7
:103F00008E810E94641661E08E810E94641660E0DA
:103F10008E810E9464168BE891E00197F1F7DF91A2
:103F2000CF9108951F93CF93DF93CDB7DEB7279737
:103F30000FB6F894DEBF0FBECDBF81E080935D0465
:103F400088E680937E041092FE051092FD0560E0E5
:103F500081E096E00E94741481E00E9400198111B2
:103F6000B4C08091FC058111FCCF81E08093FC05F9
:103F70008093FB059FEF90935C0410925B0496E0A6
:103F800090935A048093390480913904806D809312
:103F900039048091FA05813061F41092FA0580911C
:103FA00039048093BB008091BC0083FDF8CF85EC81
:103FB00001C085EE8093BC008091FC058130E1F367
:103FC00080915B04873018F490915B0401C097E006
:103FD000AAE3B4E0EDECF3E080E0891721F02D9145
:103FE00021938F5FFACF109200068093FF0590E037
:103FF00007970CF46AC081E096E00E942B14182FFA
:104000008695869586958E70982F990F990F890FB2
:10401000912F9F70890F898381E096E00E942B1475
:10402000982F92959F708F702AE0929F800D112497
:104030008A8381E096E00E942B14982F969596959E
:1040400096959670292F220F220F920F8F70890F4D
:104050008B8381E096E00E942B14982F92959F709D
:104060008F702AE0929F800D11248C8381E096E06E
:104070000E942B14982F92959F708F702AE0929F28
:10408000800D11248D8381E096E00E942B14982FDF
:1040900092959F708F702AE0929F800D11248E83DD
:1040A00081E096E00E942B14982F9F70925E82957B
:1040B0008F702AE0829F900D11249F8317FD05C009
:1040C000CE0101960E94140D03C060E070E0CB01A8
:1040D00027960FB6F894DEBF0FBECDBFDF91CF910C
:1040E0001F910895FC0190810180F281E02DF894E8
:1040F0008181892B81832281892F809528232283A6
:10410000A7E0B0E01197F1F7218182238183A3E238
:10411000B0E01197F1F780817894EFECF0E03197FF
:10412000F1F7982381E009F480E00895FC01908183
:104130000180F281E02D892F809560FF12C0F894F4
:104140002281822382838181892B8183A3E2B0E053
:104150001197F1F78281982B9283789487ED90E004
:1041600011C0F8942281822382838181892B8183EB
:10417000AFEFB0E01197F1F78281982B928378949A
:104180008FE090E00197F1F70895DF92EF92FF92B0
:104190000F931F93CF93DF93EC01D62EE42E08E00C
:1041A00010E0FF24F39461E08D2D8F2109F460E08D
:1041B000CE010E949620FF0C01501109A1F7E110D9
:1041C00010C0F894E981FA819181888180958923D2
:1041D0008183E981FA819281888180958923828314
:1041E0007894DF91CF911F910F91FF90EF90DF9026
:1041F0000895EF92FF920F931F93CF93DF938C015B
:104200007B0140E065E50E94C520E70188E0E80EFB
:10421000F11C699140E0C8010E94C520CE15DF0560
:10422000C1F7DF91CF911F910F91FF90EF9008950B
:10423000DC012C911196ED91FC911297F8948181FB
:10424000922F90958923818378948DE743E050E005
:10425000815021F1DA011197F1F730813223C1F356
:10426000F8948281892382838181822B818378944F
:10427000ABE7B7E01197F1F7F89481819823918328
:1042800083E191E00197F1F78081282381E009F033
:1042900080E07894E3E6F6E03197F1F70895AF9285
:1042A000BF92CF92DF92EF92FF920F931F93CF9323
:1042B000DF935C017C0187E0E80EF11CC0E0D0E0F8
:1042C000062F10E0670161E0F70181917F010E94F4
:1042D000B116B8010C2E02C0759567950A94E2F7E5
:1042E0006170F60180810E9464162196C430D10568
:1042F00049F7C501DF91CF911F910F91FF90EF908A
:10430000DF90CF90BF90AF900C947C1FAF92BF9284
:10431000CF92DF92EF92FF920F931F93CF93DF9391
:10432000EC01F62E642F8C810E9464168D818F3FE4
:1043300019F060E00E9464168F850F2D10E084FF55
:104340002DC05E0187E0A80EB11CE12CF12C6501A7
:1043500061E0F50181915F010E94B116B8010E2C58
:1043600002C0759567950A94E2F76170F601808145
:104370000E946416FFEFEF1AFF0A88E0E816F104C6
:1043800031F7CE01DF91CF911F910F91FF90EF9008
:10439000DF90CF90BF90AF900C947C1FB80184E069
:1043A000759567958A95E1F7CE010E944F216F2D93
:1043B000CE01DF91CF911F910F91FF90EF90DF9091
:1043C000CF90BF90AF900C944F2141E00E94862186
:1043D00081E090E008950F931F93CF938C0181E0CB
:1043E00080935D0488E680937E041092FE0510920F
:1043F000FD0560E081E096E00E947414F801808180
:10440000CAE06C2F0E94E830692FF0E18F9F600DA9
:10441000112481E096E00E947414F80181816C2FD0
:104420000E94E830692FF0E18F9F600D112481E038
:1044300096E00E947414F80182816C2F0E94E8308B
:10444000692FF0E18F9F600D112481E096E00E94BA
:104450007414F80183816C2F0E94E830692FF0E119
:104460008F9F600D112481E096E00E947414F80182
:1044700084816C2F0E94E830692FF0E18F9F600DDE
:10448000112481E096E00E947414F80185816C2F5C
:104490000E94E830692FF0E18F9F600D112481E0C8
:1044A00096E00E947414F80186818E516C2F0E9450
:1044B000E830692FF0E18F9F600D112481E096E0D4
:1044C0000E94741481E00E94001991E0811190E033
:1044D000892FCF911F910F910895CF93DF93AC0156
:1044E000990F660B770B8FE794E00E94481BEC0155
:1044F0000E94331B8C0F9D1FDF91CF910895462F93
:1045000050E060E070E02AE00C94E514CF93DF9374
:10451000682F8FE794E00E947F22EC010E94331BFA
:104520008C0F9D1FDF91CF910895CF93DF93BC0136
:104530008FE794E00E94D014EC010E94331B8C0F93
:104540009D1FDF91CF910895CF93DF93CDB7DEB755
:1045500061970FB6F894DEBF0FBECDBF789484B5D7
:10456000826084BD84B5816084BD85B5826085BD6F
:1045700085B5816085BD80916E00816080936E00FD
:1045800010928100809181008260809381008091EF
:1045900081008160809381008091800081608093A0
:1045A00080008091B10084608093B1008091B00060
:1045B00081608093B00080917A00846080937A005B
:1045C00080917A00826080937A0080917A00816085
:1045D00080937A0080917A00806880937A001092AC
:1045E000C100E0918F04F091900482E08083E0911B
:1045F0008B04F0918C041082E0918D04F0918E0474
:1046000080E1808310929704E0919304F0919404E8
:1046100086E08083E0919104F09192048081806132
:104620008083E0919104F09192048081886080837E
:10463000E0919104F0919204808180688083E09100
:104640009104F091920480818F7D808364EF71E00A
:1046500080E090E00E94ED1682E00E94FF1960E188
:1046600071E080E00E948E1A68E071E081E00E94B3
:104670008E1A60E071E082E00E948E1A61E081E1B2
:104680000E94B11660E081E10E94641660E085E05E
:104690000E94B11661E08AE00E94B11661E08AE0F2
:1046A0000E9464160E9430080E94D91C0E94231D9B
:1046B00082E99FE1909375038093740380917A035C
:1046C00090917B03A0917C03B0917D03809376034E
:1046D00090937703A0937803B09379030E94270BFC
:1046E00080E891E5A1E0B0E0809318019093190172
:1046F000A0931A01B0931B0180917A0390917B03E0
:10470000A0917C03B0917D0380589E4AAE4FBF4F6D
:104710008093760390937703A0937803B093790303
:104720000E94270B80917E0390917F03029789F06E
:104730008CE191E00E94952281E08093B3038DE0AB
:1047400090E09093870380938603109288030E94E1
:104750002E02E0914105F0914205138615861486DC
:10476000DF011B9633961E92AE17BF07E1F710923A
:10477000400501E0BE01665F7F4F80914105909149
:1047800042050E94FD10882309F45BC067E0CE015A
:104790000A960E94F01099898913ECCF80913C050C
:1047A000811127C080914105909142050E941821F6
:1047B000BE01665F7F4F80914105909142050E9446
:1047C000F92040E064EB80914105909142050E9400
:1047D000C52080914105909142050E947220182FBA
:1047E00080914105909142050E941821112309F4FE
:1047F00000C3BE016F5F7F4FCE010A960E945C1915
:1048000010913D058A85803111F40C942F2DCE0135
:104810000A960E94B119811718F480913D0509C0CC
:104820008A85803111F48CE004C0CE010A960E9482
:10483000B11980933D05809140058F5F80934005BD
:1048400099CF0E9485114DE359E061E070E080E06E
:1048500090E00E94041B45EE5EE063E070E080E0C3
:1048600090E00E94041B45E851E165E070E080E0C3
:1048700090E00E94041B6091900370E0809191038E
:1048800042E35AE090E00E94AB1A60918D0370E021
:1048900080918E0349EF59E090E00E94AB1A60913D
:1048A0008A0370E080918B0340EC59E090E00E9415
:1048B000AB1A60ED77E080E090E00E94ED1698E2A0
:1048C00088E10FB6F894A895809360000FBE90938E
:1048D0006000A89501E010E022242A94322C0E9466
:1048E000231D80E480937C0080917A008064809313
:1048F0007A0080917A0086FDFCCF8091780020912B
:10490000790090E0922B823391059CF0833C9105D5
:104910000CF472C28C3721E092070CF4EDC38B3299
:1049200042E094070CF498C4863193400CF404C51B
:1049300021C060E971E080E090E00E94ED168EE910
:1049400090E00E94391B80913701909138018B30A3
:10495000910509F4D0C48530910509F4D4C483309D
:10496000910509F4D6C48130910509F4D8C4892B86
:1049700009F4DBC48091B403882309F4A3C06091D7
:10498000910382E090E00E94AB186091900383E075
:1049900090E00E94AB1860918F0384E090E00E9449
:1049A000AB1860918E0385E090E00E94AB18609197
:1049B0008D0386E090E00E94AB1860918C0387E045
:1049C00090E00E94AB1860918B0388E090E00E9419
:1049D000AB1860918A0389E090E00E94AB18609167
:1049E00089038AE090E00E94AB186091A9038BE0F4
:1049F00090E00E94AB186091A8038CE090E00E94C8
:104A0000AB186091A7038DE090E00E94AB18609115
:104A1000920380E190E00E94AB186091580184E11C
:104A200090E00E94AB186091570185E190E00E94F0
:104A3000AB186091560186E190E00E94AB1860913E
:104A4000550187E190E00E94AB186091540188E124
:104A500090E00E94AB186091530189E190E00E94C0
:104A6000AB18609152018AE190E00E94AB188AE491
:104A700091E00E9495221092B4030E947D1A60E09A
:104A800080E00E94ED196AE471E084E295E00E9402
:104A90000A1669E371E084E295E00E940A1661E07B
:104AA00080E00E94ED1969E371E084E295E00E94E4
:104AB0000A1660ED77E080E090E00E94ED160E941B
:104AC000F21B93C10E9427172B013C019924939458
:104AD0000E942717DC01CB0184199509A609B709A3
:104AE0000297A105B10508F045C08091F405811138
:104AF000EFCF9092F4051092F505E091F505EF30B7
:104B0000B0F55BE05E9FF0011124E75AFA4F808117
:104B100084FF27C00E94270B4091F505242F30E029
:104B2000EBE0E29FD001E39FB00D1124FD01E15BBA
:104B3000FA4FC680D780E084F1846C157D058E0520
:104B40009F0578F0A080B180A75ABA4F9C9195FF3D
:104B5000F5C44F3008F4EDC4A114B10411F0F5010F
:104B600009958091F5058F5F8093F505C6CF10926A
:104B7000F405AECF8091B303811137C160919403E6
:104B80007091950380919603909197030E94792FDD
:104B90009B01AC012858334141095109ACE9BFEFF1
:104BA0000E94733124EB3CEE4FEF5FEF0E942A31FD
:104BB000DA01C9018C599F4FAF4FBF4F843608F0BF
:104BC00084E6809393030E94BC1B882351F180915B
:104BD0009203823031F5D090930357E25D1560F077
:104BE0008091A2038111D3C48091A1038111CFC40C
:104BF0008091A0038111CBC4D090930388ED8D0DDB
:104C0000843108F40CC5D090930384EC8D0D84316D
:104C100008F44EC5D0909303FFE45F2E5D1408F4B2
:104C20008AC50E94BC1B882309F459C08091A70340
:104C3000823009F054C08090A3039090A403A09008
:104C4000A503B090A60320E030E040E252E4C501A5
:104C5000B4010E94613087FD0CC08091A2038111D4
:104C6000A7C58091A1038111A3C58091A0038111E3
:104C70009FC58090A3039090A403A090A503B0903B
:104C8000A60320E030E040EF51E4C501B4010E94EA
:104C9000613087FFDFC58090A3039090A403A090AC
:104CA000A503B090A60320E030E040EA51E4C5013E
:104CB000B4010E94613087FF2AC68090A3039090C0
:104CC000A403A090A503B090A60320E030E040EA42
:104CD00050E4C501B4010E94613087FF6FC6809126
:104CE000B203882309F47DC00E9427176093200532
:104CF000709321058093220590932305D090640141
:104D00006D2D81E10E94641680912005909121050E
:104D1000A0912205B09123054091AE035091AF03BD
:104D20006091B0037091B103841B950BA60BB70B78
:104D30004091AA035091AB036091AC037091AD0315
:104D400084179507A607B70708F44FC0DD2061F068
:104D50002091A90388EEE82E83E0F82E2E9DC00155
:104D60002F9D900D112409C02091A80348EE53E017
:104D7000249FC001259F900D1124092E000CAA0B21
:104D8000BB0B8093AA039093AB03A093AC03B093A7
:104D9000AD036BE571E08FE794E00E940A1669E5C8
:104DA00071E08FE794E00E940A168091640190E020
:104DB0000E946D229091640181E0892780936401B3
:104DC0008091200590912105A0912205B0912305A5
:104DD0008093AE039093AF03A093B003B093B1035D
:104DE00004C060E081E10E946416A8950E94B81397
:104DF00076CD00933C05FDCC68EC70E080E090E05F
:104E00000E94ED1681E990E00E94391B80913701E4
:104E1000909138018D30910521F481E08093B403A5
:104E200085C18C30910529F53092380120923701E7
:104E30000E944B070E943008109285031092840351
:104E400010928303109282031092810310928003C8
:104E50001093360100933501109334010093330110
:104E600082E190E090933201809331010E94F21B25
:104E700081CD8B30910509F056C080918803811156
:104E80000FC080913501909136018F31910534F03A
:104E900010933601009335018BE02BC1019650C170
:104EA000813071F480913301909134018C309105FF
:104EB0002CF01093340100933301EECF019646C1DC
:104EC000823081F4809131019091320182339105D9
:104ED0003CF0E2E1F0E0F0933201E0933101DCCF0D
:104EE00001963AC1833071F48091800390918103DF
:104EF000873191052CF01092810310928003CCCF62
:104F0000019630C1843009F035CD809182039091B3
:104F100083038B3391052CF010928303109282034C
:104F2000BBCF019625C18A30910549F48091920347
:104F3000823019F481E0809392038AE0DAC08930EC
:104F4000910549F48091A703823019F481E08093A0
:104F5000A70389E0CEC08830910561F48091A80351
:104F60008A3F18F01092A80303C08F5F8093A803B4
:104F700088E0BFC08730910561F48091A9038A3F22
:104F800018F01092A90303C08F5F8093A90387E0F4
:104F9000B0C08630910559F4809189038A3F10F0A2
:104FA00085E001C08B5F8093890386E0A2C08530D5
:104FB0009105D1F48091880381110AC080918B03FF
:104FC000873120F010928B0385E093C08F5FF9C08A
:104FD000813009F0CFCC80918A038B3318F0109286
:104FE0008A03F2CF8F5FF8C08430910559F4809125
:104FF0008C038A3F10F085E001C08B5F80938C03A7
:1050000084E077C083309105D1F4809188038111C9
:105010000AC080918E03873120F010928E0383E0C6
:1050200068C08F5FECC0813009F0A4CC80918D0303
:105030008B3318F010928D03F2CF8F5FEBC082306C
:10504000910559F480918F038A3F10F085E001C0EB
:105050008B5F80938F0382E04CC081309105D1F447
:105060008091880381110AC080919103873120F0DB
:105070001092910381E03DC08F5FE0C0813009F064
:1050800079CC809190038B3318F010929003F2CF7B
:105090008F5FDFC0892B09F06DCC8091880381116F
:1050A00004C082E08093580123C0813021F482E063
:1050B000809357011DC0823019F48093560118C0A7
:1050C000833021F482E08093550112C0843021F4B2
:1050D00082E0809354010CC0853021F482E08093FB
:1050E000530106C0863009F045CC82E0809352011E
:1050F00080E00E942E023ECC68EC70E080E090E000
:105100000E94ED168CE890E00E94391B80913701D7
:10511000909138019C012C5031092230310568F5FD
:105120001092B3031092B4030E947D1A309238019A
:105130002092370110928703109286031BCC0197AF
:105140009093360180933501A7CE01979093340157
:1051500080933301A1CE0197909332018093310166
:105160009BCE0197909381038093800395CE019706
:1051700090938303809382038FCE8B30910509F443
:1051800011C18A30910509F469C18930910509F48A
:105190006CC18830910509F46FC18730910509F41D
:1051A00073C18630910509F477C185309105B9F452
:1051B00080918803811108C080918B03811174C193
:1051C00087E180938B0300CF813009F0D3CB8091AE
:1051D0008A0381116BC18BE380938A03F5CE8430FF
:1051E000910509F465C183309105B9F48091880374
:1051F000811108C080918E03811162C187E1809383
:105200008E030DCF813009F0B5CB80918D038111D4
:1052100059C18BE380938D0302CF8230910509F44D
:1052200053C18130910509F05BC1809188038111E0
:1052300008C08091910381114FC187E18093910350
:1052400019CF813009F096CB80919003811146C12E
:105250008BE3809390030ECF60E971E080E090E0F3
:105260000E94ED1688E990E00E94391B8091370179
:10527000909138018B30910551F4809188038150D1
:1052800019F08093880308CE1092880305CE8530EC
:10529000910551F480918803815019F0809388031F
:1052A00093CE1092880390CE8330910551F4809173
:1052B0008803815019F080938803B1CE109288033F
:1052C000AECE8130910551F480918803815019F060
:1052D00080938803CFCE10928803CCCE892B09F01F
:1052E00049CB80918803815019F08093880300CFC7
:1052F00010928803FDCE809188038F5F843008F47C
:10530000C0CF84E0BECF809188038F3F51F281E00F
:10531000C5CF809188038F3F89F281E0CCCF809107
:1053200088038F3FC1F281E0D3CF809188038F5FE4
:105330008630D8F286E0D9CF66E870E08FE794E057
:105340000E94AC1480918603909187030E946D2285
:1053500081E08093B303809186030E942E028091A6
:105360008603909187038230910540F09C01277F4E
:105370002330310519F08530910521F4109288030E
:105380000E942E028091860390918703019690934C
:1053900087038093860360E273E080E090E00E94E0
:1053A000ED16E8CA80918803811110C08091350103
:1053B00090913601823091050CF0C1CE3FE1432E31
:1053C000512C509236014092350166CD813081F4E6
:1053D0008091330190913401823091050CF0B5CE6B
:1053E0002CE0622E712C709234016092330154CD06
:1053F000823081F4809131019091320183319105A5
:105400000CF0A9CE92E3C92ED12CD0923201C092D9
:10541000310142CD833081F48091800390918103EA
:10542000181619060CF49DCE87E1E82EF12CF092A7
:105430008103E092800330CD843009F09BCA8091D3
:10544000820390918303181619060CF490CE4BE357
:1054500050E050938303409382031ECD80919203CA
:10546000813009F06ACD82E066CD8091A70381305A
:1054700009F06FCD82E06BCD8091A803811102C04D
:105480008AEF74CD815072CD8091A903811102C041
:105490008AEF7BCD815079CD80918903863010F4DD
:1054A0008AEF81CD85507FCD81508BCE815094CEB7
:1054B00080918C03863010F48AEFA0CD85509ECD6C
:1054C00081509DCE8150A6CE80918F03863010F4FE
:1054D0008AEFBFCD8550BDCD8150B0CE8150B9CEC1
:1054E000892B09F047CA80918803811103C010926B
:1054F0005801FFCD813019F410925701F9CD823057
:1055000019F410925601F4CD833019F4109255011C
:10551000EFCD843019F410925401EACD853019F49E
:1055200010925301E5CD863009F024CA1092520141
:10553000DFCD892F8F7009F40FCB1CC0828193813E
:10554000A481B581892B8A2B8B2B39F0828584FF2E
:1055500004C0CF010E94B90BFFCABBE0CB2EC29E94
:10556000F001C39EF00D1124E75AFA4F80818F7E1F
:105570008083F2CA907E9C931182108212821382E1
:10558000148215821682178210861186E5CA81E080
:105590008093B2030E9427172091980330919903BA
:1055A00040919A0350919B0380909C0390909D039F
:1055B000A0909E03B0909F032B013C01481859080E
:1055C0006A087B085301420129013A0176946794E5
:1055D00057944794420E531E641E751E84149504FE
:1055E000A604B70408F408CB60939C0370939D0352
:1055F00080939E0390939F031092A2031092A103A5
:105600001092A0031092B2034D2D50E060E070E0C4
:1056100081E190E00E9414080E94B81BEDCA8091BD
:10562000A203811109C08091A103811105C080915D
:10563000A003882309F4E7CA81E08093B2030E94A3
:10564000271780909C0390909D03A0909E03B0909C
:105650009F032B013C01481859086A087B08809079
:10566000980390909903A0909A03B0909B034814DC
:1056700059046A047B0408F4C6CA60939C037093BF
:105680009D0380939E0390939F031092A203109218
:10569000A1031092A0031092B2034D2D50E060E0E0
:1056A00070E081E190E00E9414080E94B81BABCA30
:1056B0008091A203811105C08091A103882309F480
:1056C000A9CA81E08093B2030E94271780909C03AF
:1056D00090909D03A0909E03B0909F032B013C01EE
:1056E000481859086A087B0880909803909099039D
:1056F000A0909A03B0909B03481459046A047B0459
:1057000008F488CA60939C0370939D0380939E0362
:1057100090939F031092A2031092A1031092B203E0
:105720004D2D50E060E070E081E190E00E941408AF
:105730000E94B81B6FCA8091A203882309F471CA22
:1057400081E08093B2030E94271780909C03909081
:105750009D03A0909E03B0909F032B013C0148182D
:1057600059086A087B088090980390909903A0904C
:105770009A03B0909B03481459046A047B0408F40C
:1057800050CA60939C0370939D0380939E039093F3
:105790009F031092A2031092B2034D2D50E060E0DF
:1057A00070E081E190E00E9414080E94B81B39CAA1
:1057B00081E08093B2030E942717209198033091D3
:1057C000990340919A0350919B0340909C03509001
:1057D0009D0360909E0370909F036B017C01C41831
:1057E000D508E608F7082601370169017A01F69421
:1057F000E794D794C794C20ED31EE41EF51E4C1432
:105800005D046E047F0408F434CA60939C037093B3
:105810009D0380939E0390939F031092A203109286
:10582000A1031092A0031092B20320E030E04AE7F7
:1058300054E4C501B4010E9466300E94792FAB0187
:10584000770F660B770B8EE090E00E9414080E94A1
:10585000B81B0FCA20E030E040E252E4C501B401B9
:105860000E94022F87FF17CA8091A203811109C0ED
:105870008091A103811105C08091A003882309F4C0
:105880000ACA81E08093B2030E94271740909C03CC
:1058900050909D0360909E0370909F039B01AC010C
:1058A00024193509460957094090980350909903E7
:1058B00060909A0370909B032415350546055705A3
:1058C00008F4E9C960939C0370939D0380939E0341
:1058D00090939F031092A2031092A1031092A00331
:1058E0001092B20320E030E04AE754E4C501B4016D
:1058F0000E9466300E94792FAB01770F660B770B01
:105900008EE090E00E9414080E94B81BC4C920E0F9
:1059100030E040EF51E4C501B4010E94022F87FF3F
:10592000CCC98091A203811105C08091A103882375
:1059300009F4C3C981E08093B2030E942717409005
:105940009C0350909D0360909E0370909F039B0169
:10595000AC01241935094609570940909803509025
:10596000990360909A0370909B03241535054605B2
:10597000570508F4A2C960939C0370939D0380931C
:105980009E0390939F031092A2031092A103109282
:10599000B20320E030E04AE754E4C501B4010E94BC
:1059A00066300E94792FAB01770F660B770B8EE084
:1059B00090E00E9414080E94B81B7FC920E030E0EC
:1059C00040EA51E4C501B4010E94022F87FF87C954
:1059D0008091A203882309F482C981E08093B203F5
:1059E0000E94271740909C0350909D0360909E0357
:1059F00070909F039B01AC01241935094609570992
:105A0000409098035090990360909A0370909B0384
:105A1000241535054605570508F466C960939C03AF
:105A200070939D0380939E0390939F031092A20313
:105A30001092B20320E030E04AE754E4C501B4011B
:105A40000E9466300E94792FAB01770F660B770BAF
:105A50008EE090E00E9414080E94B81B40C91D30DF
:105A600010F00C940D240C941324109282041092C4
:105A7000810488EE93E0A0E0B0E0809383049093EB
:105A80008404A0938504B093860428E333E0309324
:105A9000800420937F0425EC30E030938C04209325
:105AA0008B0424EC30E030938E0420938D0420ECA2
:105AB00030E03093900420938F0421EC30E0309359
:105AC00092042093910422EC30E0309394042093CC
:105AD000930426EC30E030939604209395041092C2
