:100000000C9403020C942B020C942B020C942B02E4
:100010000C942B020C942B020C942B020C940904CC
:100020000C942B020C942B020C942B020C942B029C
:100030000C942B020C946D040C942B020C942B0248
:100040000C94AE160C942B020C94AD150C948715E1
:100050000C942B020C942B020C942B020C942B026C
:100060000C94F8160C942B02300B320C7A0CBA0C50
:10007000ED0C2D0D600DA00DE60D270E850EE30E87
:10008000870FDE0F2C0B4D454E552000444F4C552D
:10009000004E41484F525500564C45564F00565061
:1000A0005241564F004341533100434153320043C4
:1000B000415333004300454550524F4D206E61631C
:1000C00074656E69204F4B00454550524F4D20736B
:1000D0006D617A616E610000000000240027002A33
:1000E0000000000000250028002B00000000080090
:1000F00002010000030407000000000000000000EF
:100100000000002300260029000404040404040461
:1001100004020202020202030303030303010204B6
:100120000810204080010204081020010204081079
:1001300020005EBCE2613FDD83C29C7E20A3FD1FE8
:10014000419DC3217FFCA2401E5F01E3BD3E608252
:10015000DC237D9FC1421CFEA0E1BF5D0380DE3C2D
:1001600062BEE0025CDF81633D7C22C09E1D43A134
:10017000FF4618FAA427799BC584DA3866E5BB598F
:1001800007DB856739BAE406581947A5FB7826C40A
:100190009A653BD987045AB8E6A7F91B45C6987AF1
:1001A00024F8A6441A99C7257B3A6486D85B05E7EC
:1001B000B98CD2306EEDB3510F4E10F2AC2F71935B
:1001C000CD114FADF3702ECC92D38D6F31B2EC0EBA
:1001D00050AFF1134DCE90722C6D33D18F0C52B0C5
:1001E000EE326C8ED0530DEFB1F0AE4C1291CF2D9C
:1001F00073CA947628ABF517490856B4EA6937D51F
:100200008B5709EBB536688AD495CB2977F4AA4881
:1002100016E9B7550B88D6346A2B7597C94A14F678
:10022000A8742AC896154BA9F7B6E80A54D7896B63
:10023000352A2A2A2A2A2A2A2A2A2A2A2A2A2A2A13
:100240002A2A2A2A2A2A2A00492056797073617498
:1002500020646174756D20612063617300482056CD
:100260007970736174207465706C6F7475004720C9
:10027000567970736174206672656B76656E63691A
:100280000046205469736B20454550524F4D004540
:1002900020536D617A617420454550524F4D0044A2
:1002A000204E6173746176697420646174756D2089
:1002B0006120636173004320537075737469742007
:1002C00070726F6772616D203300422053707573D6
:1002D0007469742070726F6772616D203200412002
:1002E000537075737469742070726F6772616D20DA
:1002F00031003F204E61706F76656461002A2A2AC2
:10030000204D454E55202A2A2A2A2A2A2A2A2A2AD4
:100310002A2A2A007777772E70696872742E636FA5
:100320006D20202000454E44004E453A00534F3A80
:100330000050413A0043543A0053543A0055543A5D
:1003400000504F3A00506F736C65646E69563A0006
:10035000526567756C566C686B6F7374693A0050C0
:100360006F736C65646E69543A00526567756C54BE
:1003700065706C6F746F753A0043657270565950B2
:100380003A00436572705A41503A00436173333A00
:1003900000436173323A00436173313A0020536580
:1003A0006320302D35393A2000204D696E20302DE4
:1003B00035393A200020486F6420302D32333A20FE
:1003C00000204D657320312D31323A2000204465E4
:1003D0006E20312D33313A200020526F6B2031389E
:1003E0002D39393A20005465706C6F74613A0020E1
:1003F000566C686B6F73743A004672656B76656E07
:1004000063653A005A2D11241FBECFEFD8E0DEBF3E
:10041000CDBF13E0A0E0B1E0E0E7F3E602C0059055
:100420000D92A437B107D9F726E0A4E7B3E001C0E5
:100430001D92AA32B207E1F712E0C3E0D2E004C095
:100440002197FE010E946E31C230D107C9F70E9488
:10045000D7220C94B6310C940000CF92DF92EF9229
:10046000FF92CF93DF93CDB7DEB761970FB6F894C5
:10047000DEBF0FBECDBF8091B303811112C1809149
:100480003D0590913E050E94C61C40E06CEC8091B9
:100490003D0590913E050E944F1C4091380564E453
:1004A00080913D0590913E050E944F1C80913A0538
:1004B0008823A9F0E0913905E950E33040F4F0E0F9
:1004C000EE0FFF1FE25DFC4F6081718102C06EEE96
:1004D00072E0072E000C880B990B0E946816E091C1
:1004E0003D05F0913E05138615861486DF011B96A7
:1004F000CF0103961E928A179B07E1F7BE01665F44
:100500007F4FCF010E94FD1C882349F067E0CE0198
:100510000A960E94421C9989891709F46FC060E00D
:1005200070E08EEF92EC6093A3037093A40380932A
:10053000A5039093A6031092C80384EF91E09093D3
:10054000C3038093C2031092C1031092C0031092A0
:10055000BC031092BD031092BE031092BF03109211
:100560008000109281001092B0001092B10081E0E2
:1005700080936F0082E08093B0009CE79093B3007B
:100580008093700010928500109284001092B20047
:1005900083BD85E08093B10087E0809381008091E6
:1005A000C803811102C0A895FACF6091C40370916D
:1005B000C5038091C6039091C7030E94D42F20E009
:1005C00030E04AE754E40E948B306B017C0160917B
:1005D000C2037091C30380E090E00E94D42F9B017E
:1005E000AC01C701B6010E942C2F60939403709355
:1005F0009503809396039093970353C0BE016F5F5A
:100600007F4FCE010A960E94D718882341F068E0F8
:10061000CE0101960E94421C99858917A1F060E8DD
:1006200074EE613854EE75070CF479CF072E000C88
:10063000880B990B0E94D62F20E030E040E05CE36D
:100640000E948B3070CF2A8130E0C901982F882713
:10065000990F990F990F698128E0629FB0011124C9
:100660009C01262B372B8A858031C9F4688570E080
:100670008F81AB01481B5109CA019695982F882795
:10068000979587950E94193160517109207F53E039
:10069000220F331F5A95E1F7620F731FC2CFB901C2
:1006A000C0CF61960FB6F894DEBF0FBECDBFDF910D
:1006B000CF91FF90EF90DF90CF9008958FEA90E078
:1006C0000E94B41A81E08093A0030E94A216609356
:1006D000AE037093AF038093B0039093B103109275
:1006E000AA031092AB031092AC031092AD030E94C8
:1006F000A21660939C0370939D0380939E03909336
:100700009F034091890328EE33E0429FC001439F3D
:10071000900D1124092E000CAA0BBB0B809398039B
:1007200090939903A0939A03B0939B0308958AEA48
:1007300090E00E94B41A81E08093A1030E94A21667
:100740006093AE037093AF038093B0039093B103B3
:100750001092AA031092AB031092AC031092AD0357
:100760000E94A21660939C0370939D0380939E0346
:1007700090939F0340918C0328EE33E0429FC00189
:10078000439F900D1124092E000CAA0BBB0B8093E4
:10079000980390939903A0939A03B0939B030895B1
:1007A00085EA90E00E94B41A81E08093A2030E943F
:1007B000A2166093AE037093AF038093B00390933F
:1007C000B1031092AA031092AB031092AC031092E3
:1007D000AD030E94A21660939C0370939D038093C7
:1007E0009E0390939F0340918F0328EE33E0429F36
:1007F000C001439F900D1124092E000CAA0BBB0BC6
:100800008093980390939903A0939A03B0939B03CA
:1008100008951F920F920FB60F9211242F933F93BA
:100820004F935F936F937F938F939F93AF93BF93F8
:1008300040918400509185008091BC039091BD034C
:10084000A091BE03B091BF032091C0033091C103BA
:100850002F5F3F4F3093C1032093C0036091C203C9
:100860007091C3032617370748F1B09B04C04F3F70
:10087000510501F1F8F01092800010928100109261
:10088000B0001092B10010926F0010927000DC0165
:1008900099278827840F951FA11DB11D8093C4033C
:1008A0009093C503A093C603B093C70381E08093E0
:1008B000C80304C00196A11DB11DDDCFBF91AF914A
:1008C0009F918F917F916F915F914F913F912F9168
:1008D0000F900FBE0F901F9018951F920F920FB69A
:1008E0000F9211248F939F93AF93BF938091BC037A
:1008F0009091BD03A091BE03B091BF030196A11DCD
:10090000B11D8093BC039093BD03A093BE03B0932D
:10091000BF03BF91AF919F918F910F900FBE0F902A
:100920001F9018950F931F9360937A0370937B0326
:1009300080937C0390937D0300911801109119011D
:1009400020911A0130911B01DC01CB01800F911F16
:10095000A21FB31F8093760390937703A09378032D
:10096000B093790382E090E090937F0380937E03BD
:100970000E94A2166093B5037093B6038093B703E9
:100980009093B8031F910F910895CF92DF92EF9249
:10099000FF920F931F930E94A216C090B503D090B0
:1009A000B603E090B703F090B8038B019C010C19DB
:1009B0001D092E093F0980917A0390917B03A09134
:1009C0007C03B0917D03083E134021053105D0F032
:1009D0000196A11DB11D80937A0390937B03A09390
:1009E0007C03B0937D03B701A60148515C4F6F4F64
:1009F0007F4F4093B5035093B6036093B703709352
:100A0000B803C9CF40917603509177036091780382
:100A10007091790384179507A607B707C8F1E0918D
:100A20007403F0917503309799F10995611571057B
:100A30008105910519F00E9492042AC040917A0321
:100A400050917B0360917C0370917D03809118012C
:100A500090911901A0911A01B0911B01840F951F6B
:100A6000A61FB71F8093760390937703A093780314
:100A7000B093790381E090E020917E0330917F0371
:100A8000232B11F480E090E090937F0380937E030A
:100A900060917A0370917B0380917C0390917D0338
:100AA0001F910F91FF90EF90DF90CF900895CF921C
:100AB000DF92EF92FF928091B3038111ACC28091DB
:100AC000BA039091BB0301969093BB038093BA0342
:100AD0008130910509F457C01CF4892B49F09BC261
:100AE0008230910509F4BAC0039709F46CC193C22E
:100AF0000E94A51F61E080E00E9468198091B20306
:100B00008111B7C0C090A303D090A403E090A503C7
:100B1000F090A60320E030E048EC52ECC701B601AB
:100B20000E94863018169CF421E0B701A60180E2ED
:100B300095E00E94A91460E080E295E00E941B1EEF
:100B400064EB70E080E295E00E9427140CC065EA37
:100B500071E080E295E00E94851567EE72E080E228
:100B600095E00E94851569E371E080E295E00E94BE
:100B7000851569E371E080E295E0FF90EF90DF90EA
:100B8000CF900C9485150E94A51F61E080E00E9423
:100B900068198091B20381116CC020E030E0A90196
:100BA00060919403709195038091960390919703BF
:100BB0000E94272F811109C065EA71E080E295E06B
:100BC0000E94851567EE72E00EC06091930380E28B
:100BD00095E00E94B22263EA71E080E295E00E9413
:100BE000851569E173E080E295E00E948515C0906B
:100BF0009403D0909503E0909603F090970320E043
:100C000030E04AE754E4C701B6010E94272F87FF6E
:100C100013C020E030E0A901C701B6010E94863070
:100C2000181654F422E0B701A60180E295E00E9474
:100C3000A91460EA71E099CF20E030E04AE754E47B
:100C4000C701B6010E942C2FAB01BC0122E080E25B
:100C500095E00E94A9146CE971E087CF0E94A51F5E
:100C600061E080E00E9468198091B203882309F452
:100C700050C080916201882319F06DE072E002C0DB
:100C800061E072E080E295E00E94851569E173E021
:100C900080E295E00E94851561EB71E080E295E0CD
:100CA0000E94851569E173E080E295E00E94851558
:100CB0004091AE035091AF036091B0037091B103C6
:100CC0008091AA039091AB03A091AC03B091AD03C6
:100CD000840F951FA61FB71FC0901C05D0901D053F
:100CE000E0901E05F0901F05BC01CD016C197D0937
:100CF0008E099F0928EE33E040E050E00E942D313C
:100D0000BA01A90180E295E00E94C31A6AE972E083
:100D100026CF61E080E00E94681964E971E080E21A
:100D200095E00E94851569E173E080E295E00E94FC
:100D300085150E94C5040E941E1C80911E0680938A
:100D4000B903823031F46CE871E080E295E00E94F2
:100D500085158091B903833031F466E871E080E253
:100D600095E00E9485158091B903843031F46FE7D6
:100D700071E080E295E00E9485158091B90385308D
:100D800031F467E771E080E295E00E94851580917B
:100D9000B903863031F461E771E080E295E00E94AA
:100DA00085158091B903873031F46AE671E080E2FD
:100DB00095E00E9485158091B903813009F0D9CE64
:100DC00063E671E0D2CE0E94A51F61E080E00E9440
:100DD00068198091B203882309F456C0809162019A
:100DE000882319F06DE072E002C061E072E080E2F9
:100DF00095E00E94851569E173E080E295E00E942C
:100E0000851561EB71E080E295E00E94851569E14E
:100E100073E080E295E00E9485154091AE03509109
:100E2000AF036091B0037091B1038091AA039091D8
:100E3000AB03A091AC03B091AD03840F951FA61F27
:100E4000B71FC0901C05D0901D05E0901E05F090C6
:100E50001F05BC01CD016C197D098E099F0928EE83
:100E600033E040E050E00E942D31BA01A90180E258
:100E700095E00E94C31A6AE972E080E295E00E9460
:100E8000851569E371E0B7C060E080E00E946819F1
:100E900069EE72E080E295E00E94851569E371E0F9
:100EA00080E295E00E94851561E08EE00E9468195D
:100EB00069E371E080E295E00E94851561E080E0E1
:100EC0000E94681980915801823019F464EE72E032
:100ED00008C062EE72E080E295E00E94851562EE45
:100EE00072E080E295E00E94851561E082E00E9458
:100EF000681980915701823019F46FED72E008C0D3
:100F000062EE72E080E295E00E94851562EE72E08A
:100F100080E295E00E94851561E084E00E946819F6
:100F200080915601823019F46CED72E008C062EED7
:100F300072E080E295E00E94851562EE72E080E248
:100F400095E00E94851561E086E00E946819809115
:100F50005501823019F469ED72E008C062EE72E06A
:100F600080E295E00E94851562EE72E080E295E0F5
:100F70000E94851561E088E00E9468198091540103
:100F8000823019F466ED72E008C062EE72E080E231
:100F900095E00E94851562EE72E080E295E00E9485
:100FA000851561E08AE00E946819809153018230C2
:100FB00019F463ED72E008C062EE72E080E295E041
:100FC0000E94851562EE72E080E295E00E94851530
:100FD00061E08CE00E94681980915201823019F41E
:100FE00060ED72E008C062EE72E080E295E00E947F
:100FF000851562EE72E080E295E00E94851569E356
:1010000071E080E295E00E9485158FEF9FEF90934D
:10101000BB038093BA03FF90EF90DF90CF900895C9
:101020002F923F924F925F926F927F928F929F92F8
:10103000AF92BF92CF92DF92EF92FF920F931F93E6
:10104000CF93DF93CDB7DEB72A970FB6F894DEBF04
:101050000FBECDBF9A8789870E94C5046B017C01B2
:10106000E985FA858285982F9F702EE0290F2F70D1
:10107000233008F005C14681578160857185C4160B
:10108000D506E606F70608F4FBC0923029F4828103
:101090009381A481B58145C0933009F04EC0E985A4
:1010A000FA8582809380A480B5800E94C50420E8E0
:1010B000422E21E5522E66246394712CA3019201E5
:1010C0000E942D3160E871E581E090E00E94FD30E2
:1010D000DC01CB01880D991DAA1DBB1DE985FA8590
:1010E00082809380A480B580C816D906EA06FB06E4
:1010F000E8F0C701B601A30192010E942D312F5FD4
:101100003F4F4F4F5F4F60E871E581E090E00E94F4
:10111000FD30DC01CB01880D991DAA1DBB1DE985A1
:10112000FA8586839783A087B187AAC0C701B601D5
:10113000A30192010E942D31E6CF943009F09CC0AA
:10114000E985FA8542805380648075800E94C504D9
:101150004B015C010E94C50469837A838B839C8365
:101160000E94C5046D837E838F839887480C591C29
:101170006A1C7B1C80E8882E81E5982EAA24A39403
:10118000B12C69817A818B819C81A50194010E9497
:101190002D31461A570A680A790A6D817E818F813E
:1011A0009885A50194010E942D31CA01B9016C5F97
:1011B0007F4F8F4F9F4F27E030E040E050E00E948C
:1011C0002D319B01AC0160E871E581E090E00E9467
:1011D000FD3093018201061B170B280B390BE985A3
:1011E000FA8582819381A481B581C016D106E20679
:1011F000F30698F08058954CA64FBF4F2C013D0147
:101200004C0C5D1C6E1C7F1CC701B601A50194012E
:101210000E942D31530142010EC016012701280EF4
:10122000391E4A1E5B1EC701B601A50194010E942A
:101230002D3152014101861A970AA80AB90ACA013A
:10124000B9016C5F7F4F8F4F9F4F27E030E040E048
:1012500050E00E942D319B01AC0160E871E581E016
:1012600090E00E94FD3095018401061B170B280BAE
:10127000390BD901C80153CF8F7EE985FA85828762
:10128000E985FA8582858F70813061F4828193814E
:10129000A481B581C80ED91EEA1EFB1EC682D78264
:1012A000E086F1862A960FB6F894DEBF0FBECDBF5A
:1012B000DF91CF911F910F91FF90EF90DF90CF9032
:1012C000BF90AF909F908F907F906F905F904F9066
:1012D0003F902F9008954F925F926F927F928F92DE
:1012E0009F92AF92BF92CF92DF92EF92FF920F93B5
:1012F0001F93CF93DF93FC011681A12FB0E020E86C
:1013000033E341EE51E00E948A314B015C01C2EBB4
:10131000D7E09D0104E610E080E9E82EFF24F39475
:10132000CE01825B974082179307D4F4CE0183707D
:101330009927892B99F4CE01B8010E941931892B84
:1013400031F4CE01B7010E941931892B39F480E8BC
:10135000880E81E5981E81E0A81EB11C2196E0CF81
:101360004580512C2E54384FC90164E670E00E942C
:1013700019317C01C90160E971E00E9419316C01E9
:1013800002E213E0C1E0D0E03901A3E06A22772451
:10139000C415D50534F5C230D10589F46114710442
:1013A00071F4E114F10419F4C114D10441F4B0E86A
:1013B0008B0EBBE39B1EB6E2AB1EB11C0EC0D80168
:1013C0008C91A82FB0E020E831E541E050E00E9488
:1013D0008A31860E971EA81EB91E21960F5F1F4FD9
:1013E000D7CF4181228130E0A0E1BEE00E9474317C
:1013F0006B017C01242F30E0ACE3B0E00E9474313B
:10140000DC01CB018C0D9D1DAE1DBF1D20816C012B
:101410007D01C20ED11CE11CF11CA481B0E011972A
:1014200020E831E541E050E00E949531DC01CB013C
:101430008C0D9D1DAE1DBF1DBC01CD01680D791D1C
:101440008A1D9B1DDF91CF911F910F91FF90EF900F
:10145000DF90CF90BF90AF909F908F907F906F90D4
:101460005F904F9008956F927F928F929F92AF926C
:10147000BF92CF92DF92EF92FF920F931F93CF9381
:10148000DF936B017C01EA018CE3882E912CA12C67
:10149000B12CC701B601A50194010E942D316883CA
:1014A000CA01B901A50194010E942D316983C701C8
:1014B000B60120E13EE040E050E00E942D31CA013B
:1014C000B90128E130E040E050E00E942D316A830C
:1014D000C701B60120E831E541E050E00E942D311E
:1014E00069017A01CA01B9016C5F7F4F8F4F9F4F2D
:1014F00027E030E040E050E00E942D316F5F6B83C9
:10150000812C912C540140E094E6692E712C00E965
:1015100011E0242F30E02E54384FF901E370FF27FB
:10152000309789F4C901B3010E941931892B31F434
:10153000C901B8010E941931892B29F48EE691E086
:10154000A0E0B0E004C08DE691E0A0E0B0E0880E3D
:10155000991EAA1EBB1ED501C401AA27BB27C81607
:10156000D906EA06FB0610F04F5FD3CF4E833097C3
:1015700099F4C90164E670E00E941931892B39F4AD
:10158000C90160E971E00E941931892B29F48EE6C6
:1015900091E0A0E0B0E004C08DE691E0A0E0B0E012
:1015A000881A990AAA0ABB0AC818D908EA08FB08C7
:1015B000C90164E670E00E9419318C01C90160E93B
:1015C00071E00E941931A2E2B3E020E0213041F441
:1015D000309751F40115110529F4009729F402C040
:1015E0004C9103C04DE101C04CE150E060E070E07F
:1015F000C416D506E606F70640F0C41AD50AE60A70
:10160000F70A2F5F11962C3009F72F5F2D83C394B3
:10161000CC82DF91CF911F910F91FF90EF90DF90DF
:10162000CF90BF90AF909F908F907F906F900895D4
:101630000E94C5040E941E1C8091210690E08E54D9
:10164000984F089590E08F30910508F017C5FC0180
:10165000EC5CFF4F0C946E3110928703109286035E
:1016600060E080E00E94681969EE72E080E295E037
:101670000E94851561E08EE00E94681969E173E0BF
:1016800080E295E00E94851567EE72E080E295E0C9
:101690000E94851561E080E00E94681980915801E0
:1016A000823019F464EE72E008C062EE72E080E20B
:1016B00095E00E94851562EE72E080E295E00E945E
:1016C000851561E082E00E9468198091570182309F
:1016D00019F46FED72E008C062EE72E080E295E00E
:1016E0000E94851562EE72E080E295E00E94851509
:1016F00061E084E00E94681980915601823019F4FB
:101700006CED72E008C062EE72E080E295E00E944B
:10171000851562EE72E080E295E00E94851561E039
:1017200086E00E94681980915501823019F469EDB4
:1017300072E008C062EE72E080E295E00E948515DA
:1017400062EE72E080E295E00E94851561E088E03B
:101750000E94681980915401823019F466ED72E09C
:1017600008C062EE72E080E295E00E94851562EEAC
:1017700072E080E295E00E94851561E08AE00E94B7
:10178000681980915301823019F463ED72E008C04A
:1017900062EE72E080E295E00E94851562EE72E0F2
:1017A00080E295E00E94851561E08CE00E94681956
:1017B00080915201823019F460ED72E008C062EE4F
:1017C00072E080E295E00E94851562EE72E080E2B0
:1017D00095E00E9485151092380110923701809192
:1017E0008803811105C061E00E9468190E94001AF7
:1017F00080918803813031F461E082E00E946819B1
:101800000E94001A80918803823031F461E084E004
:101810000E9468190E94001A80918803833031F475
:1018200061E086E00E9468190E94001A8091880396
:10183000843031F461E088E00E9468190E94001A47
:1018400080918803853031F461E08AE00E94681954
:101850000E94001A80918803863009F00FC461E06D
:101860008CE008C460E080E00E9468196FEB72E0D1
:1018700080E295E00E94851561E080E00E94681991
:101880008091910390E00E94911F6BE173E080E2F0
:1018900095E00E9485158091900390E00E94911F31
:1018A00069E173E080E295E00E94851567EB72E0E4
:1018B00080E295E00E94851569E371E080E295E0A1
:1018C0000E94851581E090E0909338018093370164
:1018D00080918803811106C061E081E00E9468194F
:1018E0000E94001A80918803813009F0C7C361E02B
:1018F00084E0C0C360E080E00E94681966EA72E09C
:1019000080E295E00E94851561E080E00E94681900
:1019100080918F0390E00E94911F69E173E080E263
:1019200095E00E94851564EA72E080E295E00E94ED
:1019300085156EE972E080E295E00E94851569E107
:1019400073E080E295E00E9485156AE972E080E22A
:1019500095E00E94851568E972E080E295E00E94BA
:10196000851569E371E080E295E00E94851582E0CB
:1019700090E025C160E080E00E94681967E872E0AD
:1019800080E295E00E94851561E080E00E94681980
:1019900080918E0390E00E94911F6BE173E080E2E2
:1019A00095E00E94851580918D0390E00E94911F23
:1019B00069E173E080E295E00E94851567EB72E0D3
:1019C00080E295E00E94851569E371E080E295E090
:1019D0000E94851583E090E077CF60E080E00E9470
:1019E000681966E772E080E295E00E94851561E083
:1019F00080E00E94681980918C0390E00E94911F02
:101A000069E173E080E295E00E94851564EA72E086
:101A100080E295E00E9485156EE972E080E295E033
:101A20000E94851569E173E080E295E00E948515CA
:101A30006AE972E080E295E00E94851568E972E04B
:101A400080E295E00E94851569E371E080E295E00F
:101A50000E94851584E090E0B2C060E080E00E94C2
:101A6000681965E672E080E295E00E94851561E004
:101A700080E00E94681980918B0390E00E94911F82
:101A80006BE173E080E295E00E94851580918A0306
:101A900090E00E94911F69E173E080E295E00E946E
:101AA000851567EB72E080E295E00E94851569E399
:101AB00071E080E295E00E94851585E090E004CF1A
:101AC00060E080E00E94681964E572E080E295E0E1
:101AD0000E94851561E080E00E9468198091890369
:101AE00090E00E94911F69E173E080E295E00E941E
:101AF000851564EA72E080E295E00E9485156EE942
:101B000072E080E295E00E94851569E173E080E271
:101B100095E00E9485156AE972E080E295E00E94F6
:101B2000851568E972E080E295E00E94851569E319
:101B300071E080E295E00E94851586E090E03FC06C
:101B400060E080E00E94681963E472E080E295E062
:101B50000E94851561E080E00E9468198091A903C8
:101B600090E00E94911F69E173E080E295E00E949D
:101B7000851564EA72E080E295E00E9485156DE3C8
:101B800072E080E295E00E94851569E173E080E2F1
:101B900095E00E9485156AE972E080E295E00E9476
:101BA000851568E972E080E295E00E94851569E399
:101BB00071E080E295E00E94851587E090E09093C7
:101BC00038018093370161E081E054C260E080E039
:101BD0000E9468196CE272E080E295E00E9485152F
:101BE00061E080E00E9468196091A80380E295E0BE
:101BF0000E94B22269E173E080E295E00E948515BF
:101C000064EA72E080E295E00E9485156DE372E07F
:101C100080E295E00E94851569E173E080E295E03D
:101C20000E9485156AE972E080E295E00E948515C0
:101C300068E972E080E295E00E94851569E371E051
:101C400080E295E00E94851588E090E00DC260E09A
:101C500080E00E9468196BE172E080E295E00E94EA
:101C6000851561E080E00E9468198091A7038230A9
:101C700001F563E172E080E295E00E94851569E17B
:101C800073E080E295E00E94851564EA72E080E2EC
:101C900095E00E94851562E080E295E00E941B1E9F
:101CA00061E172E080E295E00E9485156DE072E0EE
:101CB0001FC065E072E080E295E00E94851569E151
:101CC00073E080E295E00E94851564EA72E080E2AC
:101CD00095E00E94851561E080E295E00E941B1E60
:101CE00061E172E080E295E00E94851561E072E0BA
:101CF00080E295E00E94851568E972E080E295E057
:101D00000E94851589E090E0AFC160E080E00E940C
:101D1000681960EF71E080E295E00E94851561E04E
:101D200080E00E94681980919203823001F563E19E
:101D300072E080E295E00E94851569E173E080E23F
:101D400095E00E94851564EA72E080E295E00E94C9
:101D5000851562E080E295E00E941B1E61E172E061
:101D600080E295E00E9485156DE072E01FC065E09D
:101D700072E080E295E00E94851569E173E080E2FF
:101D800095E00E94851564EA72E080E295E00E9489
:101D9000851561E080E295E00E941B1E61E172E022
:101DA00080E295E00E94851561E072E080E295E0B6
:101DB0000E94851568E972E080E295E00E94851531
:101DC0008AE090E051C160E080E00E9468196FED08
:101DD00071E080E295E00E94851561E080E00E945C
:101DE000681969E371E080E295E00E94851561E081
:101DF00080E00E94681980913501909136010E941F
:101E0000911F61E082E00E94681967E173E080E25F
:101E100095E00E94851580913301909134010E94D4
:101E2000911F69E371E080E295E00E94851561E011
:101E300085E00E94681967E173E080E295E00E9406
:101E4000851580913101909132010E94911F69E3C3
:101E500071E080E295E00E94851561E08BE00E94D0
:101E6000681980918003909181030E94911F61E025
:101E70008DE00E9468196BE173E080E295E00E94BA
:101E8000851580918203909183030E94911F69E3DD
:101E900071E080E295E00E9485158BE090E09093E0
:101EA000380180933701109285031092840380914A
:101EB0008803811106C061E081E00E9468190E94D8
:101EC000001A80918803813031F461E084E00E943F
:101ED00068190E94001A80918803823031F461E011
:101EE00087E00E9468190E94001A8091880383305D
:101EF00031F461E08CE00E9468190E94001A809120
:101F00008803843009F0BAC061E08FE0B3C060E0BC
:101F100080E00E9468196EEC71E080E295E00E941A
:101F2000851561E080E00E94681967EE72E080E24A
:101F300095E00E94851569E173E080E295E00E94DA
:101F4000851564EA72E080E295E00E94851562E002
:101F500080E295E00E941B1E61E172E080E295E064
:101F60000E9485156AEC71E080E295E00E9485157B
:101F700069E173E080E295E00E94851561E080E20E
:101F800095E00E941B1E61E172E080E295E00E94F4
:101F9000851567EC71E080E295E00E94851568E99F
:101FA00072E080E295E00E94851569E371E080E2CD
:101FB00095E00E9485158CE090E056C060E080E0DE
:101FC0000E94681966EB71E080E295E00E94851539
:101FD00061E080E00E94681967EE72E080E295E0BF
:101FE0000E94851569E173E080E295E00E94851505
:101FF00064EA72E080E295E00E94851562E080E28A
:1020000095E00E941B1E61E172E080E295E00E9473
:1020100085156AEC71E080E295E00E94851569E122
:1020200073E080E295E00E94851561E080E295E032
:102030000E941B1E61E172E080E295E00E9485151E
:1020400067EC71E080E295E00E94851568E972E036
:1020500080E295E00E94851569E371E080E295E0F9
:102060000E9485158DE090E09093380180933701B0
:1020700061E080E00E9468190C94001A0895CF93E3
:10208000DF93C0E0D0E060E0CE010E9426182196E8
:10209000C11584E0D807B9F788EC90E0DF91CF91C3
:1020A0000C94B41ACF9382E090E00E942818809399
:1020B000910383E090E00E9428188093900384E0CD
:1020C00090E00E94281880938F0385E090E00E94A2
:1020D000281880938E0386E090E00E942818809351
:1020E0008D0387E090E00E94281880938C0388E09D
:1020F00090E00E94281880938B0389E090E00E9472
:10210000281880938A038AE090E00E942818809320
:1021100089038BE090E00E9428188093A9038CE04B
:1021200090E00E9428188093A8038DE090E00E9420
:1021300028188093A7038EE090E00E942818C82FEB
:102140008FE090E00E94281890E0A0E0B0E0BA2F65
:10215000A92F982F88278C0F911DA11DB11D809349
:10216000260690932706A0932806B093290680E1BF
:1021700090E00E9428188093920381E190E00E94F1
:102180002818C82F82E190E00E94281890E0A0E073
:10219000B0E0BA2FA92F982F88278C0F911DA11D71
:1021A000B11D8093220690932306A0932406B0933A
:1021B000250684E190E00E9428188093580185E16B
:1021C00090E00E9428188093570186E190E00E94D9
:1021D00028188093560187E190E00E942818809388
:1021E000550188E190E00E9428188093540189E10C
:1021F00090E00E942818809353018AE190E00E94A9
:1022000028188093520186EB90E0CF910C94B41A79
:10221000CF92DF92EF92FF92CF93DF93EC016A01AE
:102220007B01642F0E9426189927F7FC9A958F2D21
:102230007E2D6D2DCE010196DF91CF91FF90EF9015
:10224000DF90CF900C9426180E9452108091910339
:10225000883138F066E082E090E00E94261881E044
:1022600001C080E0909190039C3330F060E083E007
:1022700090E00E94261881E090918F039550963F40
:1022800030F06EE184E090E00E94261881E09091A9
:102290008E03983130F062E185E090E00E942618CC
:1022A00081E090918D039C3330F060E086E090E017
:1022B0000E94261881E090918C039550963F30F053
:1022C0006EE187E090E00E94261881E090918B03F8
:1022D000983130F069E088E090E00E94261881E0B3
:1022E00090918A039C3330F060E089E090E00E9496
:1022F000261881E0909189039550963F30F06EE169
:102300008AE090E00E94261881E09091A9039B3F0B
:1023100030F065E08BE090E00E94261881E090911B
:10232000A8039B3F30F064E18CE090E00E94261807
:1023300081E09091A7039150923030F061E08DE000
:1023400090E00E94261881E04091260650912706D1
:10235000609128067091290649355B416105710538
:1023600040F040E050E0BA018EE090E00E94081199
:1023700081E0909192039150923030F061E080E1E1
:1023800090E00E94261881E0409122065091230699
:102390006091240670912506453651056105710549
:1023A00040F040E050E0BA0181E190E00E94081165
:1023B00081E090915801933010F4913031F462E053
:1023C00084E190E00E94261881E0909157019330BB
:1023D00010F4913031F462E085E190E00E9426181B
:1023E00081E090915601933010F4913031F462E025
:1023F00086E190E00E94261881E09091550193308B
:1024000010F4913031F462E087E190E00E942618E8
:1024100081E090915401933010F4913031F462E0F6
:1024200088E190E00E94261881E09091530193305A
:1024300010F4913031F462E089E190E00E942618B6
:1024400081E090915201933010F4913031F462E0C8
:102450008AE190E00E94261801C081110C9452106C
:102460000895CF92DF92EF92FF920F931F93CF9335
:10247000DF936C017A018B01C0E0D0E0CE15DF055F
:1024800081F0D8016D918D01D601ED91FC91019003
:10249000F081E02DC6010995892B11F02196EECF30
:1024A0007E01C701DF91CF911F910F91FF90EF90B7
:1024B000DF90CF900895FC01538D448D252F30E09F
:1024C000842F90E0821B930B541710F0CF96089541
:1024D00001970895FC01918D828D981761F0828D8E
:1024E000DF01A80FB11D5D968C91928D9F5F9F7348
:1024F000928F90E008958FEF9FEF0895FC01918DEA
:10250000828D981731F0828DE80FF11D858D90E056
:1025100008958FEF9FEF0895FC01918D228D892FF3
:1025200090E0805C9F4F821B91098F7399270895DB
:102530008BE794E00E948C1221E0892B09F420E0C3
:10254000822F0895FC01848DDF01A80FB11DA35ACD
:10255000BF4F2C91848D90E001968F739927848FC3
:10256000A689B7892C93A089B1898C9183708064E6
:102570008C93938D848D981306C00288F389E02D87
:1025800080818F7D80830895EF92FF920F931F9338
:10259000CF93DF93EC0181E0888F9B8D8C8D981316
:1025A00005C0E889F989808185FD26C0F62E0B8D4E
:1025B00010E00F5F1F4F0F731127E02E8C8DE81274
:1025C0000CC00FB607FCFACFE889F989808185FF36
:1025D000F5CFCE010E94A212F1CF8B8DFE01E80F44
:1025E000F11DE35AFF4FF0829FB7F8940B8FEA89F1
:1025F000FB89808180620AC09FB7F894EE89FF89C9
:102600006083E889F98980818370806480839FBFBB
:1026100081E090E0DF91CF911F910F91FF90EF90BB
:102620000895CF93DF93EC01888D8823C9F0EA8960
:10263000FB89808185FD05C0A889B9898C9186FDBB
:102640000FC00FB607FCF5CF808185FFF2CFA889B8
:10265000B9898C9185FFEDCFCE010E94A212E7CF00
:10266000DF91CF91089580E090E0892B29F00E94BE
:10267000981281110C94000008953FB7F89480914E
:10268000310490913204A0913304B091340426B502
:10269000A89B05C02F3F19F00196A11DB11D3FBF9A
:1026A000BA2FA92F982F8827820F911DA11DB11D28
:1026B000BC01CD0142E0660F771F881F991F4A9524
:1026C000D1F7089585ED8093BC008091BC0084FD16
:1026D000FCCF1092F805089540910904262F30E0B0
:1026E000240F311D21323105DCF42091F80524300E
:1026F000C9F4FC0180E090E0861758F43091090499
:102700002191DC01A751BC4FA30FB11D2C93019661
:10271000F3CF80910904680F6093090480E0089565
:1027200081E0089582E00895089508950895E09164
:10273000FC058091FB05E81730F4F0E0E753FC4F0F
:10274000808190E008958FEF9FEF08959091FC05B0
:102750008091FB05981750F4E92FF0E0E753FC4F08
:10276000208130E09F5F9093FC0502C02FEF3FEF88
:10277000C90108958091FB0590E02091FC05821B22
:1027800091090895CF92DF92EF92FF920F931F93DA
:10279000CF93DF937C01CB018A012091590422233E
:1027A00089F0EB016B01C40ED51ECC15DD0569F077
:1027B0006991D701ED91FC910190F081E02DC70165
:1027C0000995F3CF642F0E946C13C801DF91CF915C
:1027D0001F910F91FF90EF90DF90CF900895CF93CE
:1027E000DF931F92CDB7DEB769832091590422236E
:1027F000D1F02091F905203240F021E030E0FC01D9
:102800003383228380E090E015C08091FA05E82FA1
:10281000F0E0E65AFB4F998190838F5F8093FA0531
:102820008093F90505C061E0CE0101960E946C130A
:1028300081E090E00F90DF91CF9108950E94B13137
:10284000DC01ED91FC910190F081E02D0994EF9273
:10285000FF920F931F93CF93DF938C017B01C0E016
:10286000D0E0F701EC0FFD1F6491662361F0D80101
:10287000ED91FC910190F081E02DC8010995892B23
:1028800011F02196EECFCE01DF91CF911F910F91E4
:10289000FF90EF9008956115710579F0FB010190AB
:1028A0000020E9F73197AF01461B570BDC01ED9192
:1028B000FC910280F381E02D099480E090E008957E
:1028C0008F929F92AF92BF92EF92FF920F931F93BE
:1028D000CF93DF93CDB7DEB7A1970FB6F894DEBFE5
:1028E0000FBECDBF7C01FA01CB0119A2223008F442
:1028F0002AE08E010F5D1F4F822E912CA12CB12C4E
:10290000BF01A50194010E942D31F901CA010150B6
:1029100011096A3014F4605D01C0695CD8016C93E0
:10292000232B242B252B61F7B801C7010E944B14E0
:10293000A1960FB6F894DEBF0FBECDBFDF91CF9149
:102940001F910F91FF90EF90BF90AF909F908F904D
:1029500008957F928F929F92AF92BF92CF92DF9213
:10296000EF92FF920F931F93CF93DF938C016A0135
:102970007B01722E9A01AB01C701B6010E94F830AB
:10298000882319F064E673E027C046015701E894F4
:10299000B7F82FEF3FEF4FE75FE7C501B4010E94A3
:1029A000F83081110DC02FEF3FEF4FE75FE7C50112
:1029B000B4010E94272F18161CF468E673E00CC0BF
:1029C0002FEF3FEF4FE75FE4C701B6010E9486306B
:1029D000181694F46CE673E0C801DF91CF911F9153
:1029E0000F91FF90EF90DF90CF90BF90AF909F90AE
:1029F0008F907F900C944B142FEF3FEF4FE75FECDD
:102A0000C701B6010E94272F87FDE4CF20E030E008
:102A1000A901C701B6010E94272F87FF0AC06DE2F6
:102A2000C8010E942014EC01F7FAF094F7F8F09432
:102A300002C0C0E0D0E0B12C60E070E080E09FE335
:102A40007B1441F020E030E040E251E40E942C2F62
:102A5000B394F6CFA70196010E94BB2E6B017C01B7
:102A60000E94A52F4B015C012AE0AB01BC01C8010B
:102A70000E946014C80FD91F7720C1F1C501B401AD
:102A80000E94D42F9B01AC01C701B6010E94BA2E4F
:102A90006B017C016EE2C8010E942014C80FD91F8F
:102AA00020E030E040E251E4C701B6010E948B30E3
:102AB0004B015C010E94A52F6B01E12CF12C2AE057
:102AC000B701A601C8010E946014C80FD91FC70131
:102AD000B6010E94D42F9B01AC01C501B4010E9434
:102AE000BA2E6B017C017A947110DACFCE01DF919E
:102AF000CF911F910F91FF90EF90DF90CF90BF90FB
:102B0000AF909F908F907F9008950C944B141F92DC
:102B10000F920FB60F9211242F933F934F935F9311
:102B20006F937F938F939F93AF93BF93EF93FF9395
:102B30008BE794E00E94A212FF91EF91BF91AF91B9
:102B40009F918F917F916F915F914F913F912F91C5
:102B50000F900FBE0F901F9018951F920F920FB6F7
:102B60000F9211242F938F939F93EF93FF93E091F4
:102B70008B04F0918C048081E0919104F091920497
:102B800082FD12C09081809194048F5F8F73209199
:102B90009504821751F0E0919404F0E0E558FB4F62
:102BA000958F8093940401C08081FF91EF919F9154
:102BB0008F912F910F900FBE0F901F90189590E05E
:102BC000FC01E551FF4F2491FC01E35EFE4F34917F
:102BD000FC01E75FFE4FE491EE2309F43CC02223A1
:102BE00039F1233091F038F42130A9F0223001F589
:102BF00084B58F7D12C0273091F02830A1F02430A9
:102C0000B9F4809180008F7D03C0809180008F7720
:102C1000809380000DC084B58F7784BD09C08091FA
:102C2000B0008F7703C08091B0008F7D8093B0009B
:102C3000F0E0EE0FFF1FEF51FF4FA591B4919FB74A
:102C4000F894611104C08C913095382302C0EC9146
:102C50003E2B3C939FBF0895CF93DF9390E0FC0100
:102C6000E35EFE4F2491FC01E75FFE4F84918823D1
:102C700061F190E0880F991FFC01E952FF4FC59167
:102C8000D491FC01EF51FF4FA591B491611109C09E
:102C90009FB7F8948881209582238883EC912E2316
:102CA0000BC0623061F49FB7F8948881322F309561
:102CB00083238883EC912E2B2C939FBF06C08FB764
:102CC000F894E8812E2B28838FBFDF91CF91089550
:102CD0008F929F92AF92BF92CF92DF92EF92FF922C
:102CE0006B017C010E943D134B015C01C114D104B6
:102CF000E104F104F1F00E943D13DC01CB018819DD
:102D00009909AA09BB09883E9340A105B10570F352
:102D100021E0C21AD108E108F10888EE880E83E0AC
:102D2000981EA11CB11CC114D104E104F10419F7CF
:102D3000DDCFFF90EF90DF90CF90BF90AF909F904E
:102D40008F9008952FB7F89460912D0470912E0400
:102D500080912F04909130042FBF08951F920F92FD
:102D60000FB60F9211242F933F938F939F93AF939E
:102D7000BF9380912D0490912E04A0912F04B091C7
:102D8000300430912C0423E0230F2D3720F40196DA
:102D9000A11DB11D05C026E8230F0296A11DB11D7E
:102DA00020932C0480932D0490932E04A0932F0441
:102DB000B09330048091310490913204A091330497
:102DC000B09134040196A11DB11D809331049093FC
:102DD0003204A0933304B0933404BF91AF919F9118
:102DE0008F913F912F910F900FBE0F901F901895CC
:102DF0001F920F920FB60F9211242F933F934F9370
:102E00005F936F937F938F939F93AF93BF93EF9352
:102E1000FF938091B900887F803609F49CC068F5E3
:102E2000883209F45BC090F4803109F454C038F45E
:102E3000882309F4F6C0883009F44DC0F6C0883103
:102E400009F44CC0803209F45DC0EFC0803409F44D
:102E500068C048F4803309F455C0883309F0E5C0F0
:102E600080935804D8C0803509F44FC0883509F4E0
:102E70005DC0883409F0D9C0D6C0883909F4C7C00C
:102E8000A8F4883709F467C038F4883609F463C0B9
:102E9000803709F460C0C9C0883809F4B8C08039E7
:102EA00009F45FC0803809F0C0C05BC0803B09F402
:102EB00086C038F4803A09F466C0883A09F47FC0C5
:102EC000B4C0803C09F4A7C0883C09F4A4C0883B86
:102ED00009F48AC0AAC08091350410C090915704AB
:102EE00080915604981770F5E091570481E08E0F99
:102EF00080935704F0E0EA5CFB4F80818093BB0035
:102F000085EC86C0809358048EC0E091570481E020
:102F10008E0F809357048091BB00F0E0EA5CFB4F7A
:102F2000808390915704809156046EC0E0915704BD
:102F300081E08E0F809357048091BB00F0E0EA5C43
:102F4000FB4F80838091F70581116DC081E08093F4
:102F5000F60584EA61C083E08093F80510922B04A3
:102F6000CFCF80912B04803208F051C0E0912B0428
:102F700081E08E0F80932B048091BB00F0E0E55F31
:102F8000FB4F8083BDCF85EC8093BC001092F80589
:102F900080912B04803230F4E0912B04F0E0E55F67
:102FA000FB4F108260912B0470E0E091F205F091EC
:102FB000F3058BE094E0099510922B0436C084E071
:102FC0008093F80510920A0410920904E091F40528
:102FD000F091F505099580910904811105C081E002
:102FE000809309041092E903E0910A0481E08E0FB6
:102FF00080930A04F0E0E751FC4F80818093BB008E
:1030000090910A0480910904981708F479CF85E813
:103010008093BC000AC085EC8093BC001092F80538
:1030200004C0109258040E946213FF91EF91BF9167
:10303000AF919F918F917F916F915F914F913F9150
:103040002F910F900FBE0F901F9018950C94AC2EDF
:103050000C94A42ECF92DF92EF92FF928F3008F063
:1030600045C0482F50E09BE0899FF0011124DF010B
:10307000AB5ABA4F8C918F70C9F1E55BFA4FC280A1
:10308000D380E480F580C114D104E104F10429F077
:1030900021E080819181892B09F420E03BE0349F7D
:1030A000C001359F900D1124FC01EB5AFA4F30817D
:1030B00020FB34F93083CD28CE28CF2861F0855B02
:1030C0009A4FFC01228524FF06C0FF90EF90DF900D
:1030D000CF900C9410088BE0849FF001859FF00D39
:1030E0001124EB5AFA4F80818F7E8083FF90EF90FE
:1030F000DF90CF900895282F3091F905313208F0F4
:103100004AC08091F8058111FCCF90917A0442E089
:103110004093F8052093F7052FEF20935804109261
:10312000570430935604EAE5F4E0A6E3B4E020E067
:10313000321721F041914D932F5FFACF1092350451
:1031400020913504990F922B909335049091F605B8
:10315000913061F41092F605909135049093BB0084
:103160009091BC0093FDF8CF95EC01C095EE909343
:10317000BC009091F8059230E1F3909158049F3F84
:1031800079F080915804803241F080915804803366
:1031900031F084E005C081E003C082E001C083E03B
:1031A0001092FA051092F905109259040895AF9201
:1031B000BF92CF92DF92EF92FF920F931F93CF9324
:1031C000DF93EC018B0180913D0590913E050E94BB
:1031D000C61C8823A1F1BE0180913D0590913E055A
:1031E0000E94831C40E06EEB80913D0590913E056E
:1031F0000E944F1CE801680189E0C80ED11CA09014
:103200003D05B0903E0588E0E82EF12C10E001E08D
:10321000C5010E94A21C8111102B000F81E0E81A49
:10322000F108B1F71993CC16DD0649F780913D05F9
:1032300090913E050E94C61C91E0813009F090E01B
:10324000892FDF91CF911F910F91FF90EF90DF9029
:10325000CF90BF90AF900895CF93DF93CDB7DEB7F7
:1032600029970FB6F894DEBF0FBECDBFBE016F5FCA
:103270007F4F0E94D718882341F068E0CE01019665
:103280000E94421C9985891711F080E012C08D813F
:103290008F3311F48AE00DC0803420F48F31A9F708
:1032A00089E007C08F3521F08F3779F78CE001C0B6
:1032B0008BE029960FB6F894DEBF0FBECDBFDF912D
:1032C000CF91089540E0682F80E295E00C94BC1DFA
:1032D000643008F063E090913305691710F06FEFE8
:1032E000690FE62FF0E0E05EFA4F9489890F80685D
:1032F0000C946219CF93DF93823028F090912F05C0
:10330000986090932F05809333051092340580E4E4
:103310008093350580E18093360580E580933705FD
:103320008BE39DE00197F1F760E0809124050E9416
:10333000DF1560E0809126050E94DF15809125054C
:103340008F3F19F060E00E94DF1580912F0584FD0A
:1033500020C063E080E295E00E94851DCBE4D6E4C6
:10336000CE010197F1F763E080E295E00E94851DB0
:103370002197F1F763E080E295E00E94851D83E5E7
:1033800092E00197F1F762E080E295E00E94851DEE
:1033900015C080620E9462198BE496E40197F1F7F0
:1033A00080912F0580620E94621983E592E0019767
:1033B000F1F780912F0580620E94621980912F059C
:1033C00080620E94621984E0809330058CE00E9444
:1033D000621981E00E9462198BE39FE10197F1F786
:1033E00082E08093310586E0DF91CF910C946219E1
:1033F000E0E2F5E080898E7F808B88600C94621912
:10340000E0E2F5E08089982F9160908B89600C94C0
:1034100062190F931F93CF93DF938B01877028E07E
:10342000829FC001112480640E946219E801085F34
:103430001F4F699180E295E00E941B1EC017D107C3
:10344000C1F7DF91CF911F910F9108958F929F92B5
:10345000AF92BF92CF92DF92EF92FF920F931F93A2
:10346000CF93DF938C017B016A010E94C504611533
:10347000724E8F4D9140A8F1C0E0D0E09BE09C9F40
:10348000F0019D9FF00D1124DF01AB5ABA4F8C91D2
:103490008F7019F5E55BFA4FD182C0828C91807DE7
:1034A00083608C9320E13EE0D8010E9483314B0180
:1034B0005C012CE330E0D7010E948331DC01CB01B9
:1034C000880D991DAA1DBB1D82839383A483B58398
:1034D0008C2F0E942A188C2F05C02196CF30D10541
:1034E00071F68FEFDF91CF911F910F91FF90EF90C9
:1034F000DF90CF90BF90AF909F908F9008950F93E3
:103500001F93CF93DF93C0E0D0E03BE03C9FF001FE
:103510003D9FF00D1124DF01AB5ABA4F2C912F7053
:1035200099F48B019C01E55BFA4F518340838C91A8
:10353000807D81608C9302831383248335838C2F59
:103540000E942A188C2F05C02196CF30D105F1F6A4
:103550008FEFDF91CF911F910F91089560E773E096
:103560008BE794E00C944B14CF93DF93BC018BE773
:1035700094E00E942714EC010E94AE1A8C0F9D1F4C
:10358000DF91CF910895CF92DF92EF92FF920F9348
:103590001F93CF93DF9377FF1DC06A017B01EC017E
:1035A0006DE20E9420148C0144275527BA014C1962
:1035B0005D096E097F092AE0CE010E946014800F28
:1035C000911FDF91CF911F910F91FF90EF90DF90AE
:1035D000CF9008952AE0DF91CF911F910F91FF9036
:1035E000EF90DF90CF900C946014FC0190810180EB
:1035F000F281E02D892F809560FF12C0F89422811E
:10360000822382838181892B8183A3E2B0E0119799
:10361000F1F78281982B9283789487ED90E011C026
:10362000F8942281822382838181892B8183AFEF69
:10363000B0E01197F1F78281982B928378948FE014
:1036400090E00197F1F70895089580E090E00895E3
:10365000CF93DF93EC0160E08E810E94DF1561E083
:103660008E810E94DF1560E08E810E94DF158BE85D
:1036700091E00197F1F7DF91CF9108951F93CF93D8
:10368000DF93CDB7DEB727970FB6F894DEBF0FBE36
:10369000CDBF81E08093590488E680937A0410922C
:1036A000FA051092F90560E08DEF95E00E94EF13A6
:1036B00081E00E947B188111B4C08091F8058111CE
:1036C000FCCF81E08093F8058093F7059FEF9093FE
:1036D00058041092570496E0909356048093350452
:1036E00080913504806D809335048091F60581309A
:1036F00061F41092F605809135048093BB008091AF
:10370000BC0083FDF8CF85EC01C085EE8093BC0042
:103710008091F8058130E1F380915704873018F4E7
:103720009091570401C097E0A6E3B4E0E9ECF3E020
:1037300080E0891721F02D9121938F5FFACF1092AD
:10374000FC058093FB0590E007970CF46AC08DEFB1
:1037500095E00E94A613182F8695869586958E7003
:10376000982F990F990F890F912F9F70890F898337
:103770008DEF95E00E94A613982F92959F708F7001
:103780002AE0929F800D11248A838DEF95E00E949C
:10379000A613982F9695969596959670292F220F99
:1037A000220F920F8F70890F8B838DEF95E00E940F
:1037B000A613982F92959F708F702AE0929F800D8C
:1037C00011248C838DEF95E00E94A613982F92957B
:1037D0009F708F702AE0929F800D11248D838DEF52
:1037E00095E00E94A613982F92959F708F702AE003
:1037F000929F800D11248E838DEF95E00E94A61379
:10380000982F9F70925E82958F702AE0829F900D14
:1038100011249F8317FD05C0CE0101960E946B09FC
:1038200003C060E070E0CB0127960FB6F894DEBFCE
:103830000FBECDBFDF91CF911F910895CF92DF9240
:10384000EF92FF92C0901706D0901806E0901906EC
:10385000F0901A06C616D706E806F90671F06B0155
:103860007C014BE156E00E94330AC0921706D092C9
:103870001806E0921906F0921A06FF90EF90DF907A
:10388000CF900895DC0180E0615040F09D91E82FD9
:10389000E927F0E0EF5CFE4F8491F6CF0895DF92C8
:1038A000EF92FF920F931F93CF93DF93EC01D62EED
:1038B000E42E08E010E0FF24F39461E08D2D8F21C9
:1038C00009F460E0CE010E94F51AFF0C01501109C5
:1038D000A1F7E11010C0F894E981FA819181888103
:1038E000809589238183E981FA81928188818095FD
:1038F000892382837894DF91CF911F910F91FF905C
:10390000EF90DF900895EF92FF920F931F93CF9364
:10391000DF938C017B0140E065E50E944F1CE701CD
:1039200088E0E80EF11C699140E0C8010E944F1C3C
:10393000CE15DF05C1F7DF91CF911F910F91FF9059
:10394000EF900895FC0190810180F281E02DF894C0
:103950008181892B81832281892F8095282322834D
:10396000A7E0B0E01197F1F7218182238183A3E2E0
:10397000B0E01197F1F780817894EFECF0E03197A7
:10398000F1F7982381E009F480E00895DC012C919F
:103990001196ED91FC911297F8948181922F909558
:1039A0008923818378948DE743E050E0815021F1B1
:1039B000DA011197F1F730813223C1F3F894828153
:1039C000892382838181822B81837894ABE7B7E05E
:1039D0001197F1F7F89481819823918383E191E025
:1039E0000197F1F78081282381E009F080E0789445
:1039F000E3E6F6E03197F1F70895BF92CF92DF92B8
:103A0000EF92FF920F931F93CF93DF93EC01D62E8B
:103A1000C72E8D8581115BC0CE010E94C61C81110D
:103A200004C01B861D861C8666C040E060EFCE0188
:103A30000E944F1C01E0E12CB12C11E0CE010E944C
:103A4000A21CF82ECE010E94A21C91E0F91203C024
:103A50008130B1F434C02E2D30E0F8121BC08B85BC
:103A6000181738F4FE01E20FF31F8381802341F41D
:103A700002C0181729F0F12C193058F41C8709C01E
:103A8000FE01EE0DF11D8381802B8383FF24F394CF
:103A900009C0B12EFE01E20FF31F9381802F8095A4
:103AA000892383836F2DCE010E94F51A1F5F000FBB
:103AB00011F4E39401E087E08E1508F0BFCF1134D4
:103AC00030F0BB86B11012C081E08D870FC01B861D
:103AD0001D861C8680E0DE011396ED2DFC2D2B96B5
:103AE0009D919193AC17BD07D9F705C08B818823B1
:103AF00071F381E0F0CFDF91CF911F910F91FF9093
:103B0000EF90DF90CF90BF900895AF92BF92CF9289
:103B1000DF92EF92FF920F931F93CF93DF935C019D
:103B20007C0187E0E80EF11CC0E0D0E0062F10E039
:103B3000670161E0F70181917F010E942C16B801B5
:103B40000C2E02C0759567950A94E2F76170F60134
:103B500080810E94DF152196C430D10549F7C50147
:103B6000DF91CF911F910F91FF90EF90DF90CF9059
:103B7000BF90AF900C94281BAF92BF92CF92DF9270
:103B8000EF92FF920F931F93CF93DF93EC01F62EEA
:103B9000642F8C810E94DF158D818F3F19F060E0CA
:103BA0000E94DF158F850F2D10E084FF2DC05E0170
:103BB00087E0A80EB11CE12CF12C650161E0F50154
:103BC00081915F010E942C16B8010E2C02C07595E0
:103BD00067950A94E2F76170F60180810E94DF1513
:103BE000FFEFEF1AFF0A88E0E816F10431F7CE0183
:103BF000DF91CF911F910F91FF90EF90DF90CF90C9
:103C0000BF90AF900C94281BB80184E07595679520
:103C10008A95E1F7CE010E94851D6F2DCE01DF91BF
:103C2000CF911F910F91FF90EF90DF90CF90BF90B9
:103C3000AF900C94851D41E00E94BC1D81E090E096
:103C400008950F931F93CF938C0181E080935904C3
:103C500088E680937A041092FA051092F90560E0E4
:103C60008DEF95E00E94EF13F8018081CAE06C2F80
:103C70000E940D31692FF0E18F9F600D11248DEFAF
:103C800095E00E94EF13F80181816C2F0E940D31A5
:103C9000692FF0E18F9F600D11248DEF95E00E9458
:103CA000EF13F80182816C2F0E940D31692FF0E132
:103CB0008F9F600D11248DEF95E00E94EF13F801A6
:103CC00083816C2F0E940D31692FF0E18F9F600D71
:103CD00011248DEF95E00E94EF13F80184816C2F81
:103CE0000E940D31692FF0E18F9F600D11248DEF3F
:103CF00095E00E94EF13F80185816C2F0E940D3131
:103D0000692FF0E18F9F600D11248DEF95E00E94E7
:103D1000EF13F80186818E516C2F0E940D31692FAF
:103D2000F0E18F9F600D11248DEF95E00E94EF135D
:103D300081E00E947B1891E0811190E0892FCF9162
:103D40001F910F910895CF938BE794E00E948C12FE
:103D5000892B41F46AE070E080E090E00E946816F0
:103D6000A895F2CF8BE794E00E946A12C0E08A30F7
:103D700069F080538A3028F49AE0C99F800D11249D
:103D8000C82F8BE794E00E946A12F1CF8BE794E092
:103D90000E9411138C2FCF910895CF93DF93EC01E4
:103DA0000A9728F460E38BE794E00E94C412AE0106
:103DB000DD0F660B770B8BE794E0DF91CF910C94CE
:103DC000C31A85E293E00C94B41A0E94C5040E94C1
:103DD0001E1C90911E0680915801823011F4923081
:103DE00031F180915701823011F4933001F18091CB
:103DF0005601823011F49430D1F080915501823017
:103E000011F49530A1F080915401823011F4963074
:103E100071F080915301823011F4973041F080911C
:103E20005201823031F481E0913019F403C081E015
:103E3000089580E00895CF93DF93CDB7DEB727973D
:103E40000FB6F894DEBF0FBECDBF89E093E00E94AD
:103E5000C82282E00E9462198BE39FE10197F1F78B
:103E600069E073E080E295E00E94851569E371E006
:103E700080E295E00E94851561E080E00E9468196B
:103E800069E371E080E295E00E948515809131013F
:103E9000909132016091330150913501209184035A
:103EA0003091820340918003843691051CF0825B3F
:103EB000974001C04E968093210660932006509350
:103EC0001F0640931D0630931C0620931B068BE1B2
:103ED00096E00E946B090E9492040E94C504AE0104
:103EE0004F5F5F4F0E94330A898180688983CE01CA
:103EF00001960E94211E89818F778983CE010196C8
:103F00000E94211E64E971E180E090E00E94681641
:103F100027960FB6F894DEBF0FBECDBFDF91CF91CD
:103F20000895CF93DF93EC010A9728F460E380E2D1
:103F300095E00E941B1EAE01DD0F660B770B80E241
:103F400095E0DF91CF910C94C31ACF93DF9360E09B
:103F500080E00E9468190E94C5040E941E1CCBE1EB
:103F6000D6E08C8190E00E94911F67E173E080E2CF
:103F700095E00E9485150E94C5040E941E1C8D813B
:103F800090E00E94911F67E173E080E295E00E945B
:103F900085150E94180BAC01990F660B770B80E218
:103FA00095E00E94C31A69E173E080E295E00E9407
:103FB000851569E173E080E295E00E94851560E077
:103FC0008BE00E9468190E94C5040E941E1C8A8111
:103FD00090E00E94911F6BE173E080E295E00E9407
:103FE00085150E94C5040E941E1C898190E00E94D4
:103FF000911F69E173E080E295E0DF91CF910C942D
:10400000851560E080E00E94681964E173E080E259
:1040100095E00E94271461E080E00E9468196AEF31
:1040200072E080E295E00E9485158DEF92E00E949B
:10403000B41A82EF92E00E94B41A8EED92E00E94D0
:10404000B41A8AEC92E00E94B41A86EB92E00E94C5
:10405000B41A8FE992E00E94B41A8FE892E00E94AD
:10406000B41A81E892E00E94B41A8EE692E00E94AF
:10407000B41A8DE592E00E94B41A88E492E00E949E
:10408000B41A81E392E00E94B41A60ED77E080E018
:1040900090E00C946816CF93DF938BE794E00E9436
:1040A0008C12181619060CF048C28BE794E00E9497
:1040B0006A12EC018134910519F40E94D003C0C04A
:1040C0008234910519F40E949703BAC08334910594
:1040D00019F40E945E0391C18434910509F08AC0ED
:1040E0006DE173E08BE794E00E94851569ED73E064
:1040F0008BE794E00E9427140E94A31E90E0909307
:104100003201809331010E94A31E90E0909332010E
:10411000809331010E94A0226DE173E08BE794E06F
:104120000E9485156DEC73E08BE794E00E942714E4
:104130000E94A31E90E090933601809335010E9467
:10414000A0226DE173E08BE794E00E94851561EC9D
:1041500073E08BE794E00E9427140E94A31E90E076
:1041600090933401809333010E94A0226DE173E0AB
:104170008BE794E00E94851565EB73E08BE794E094
:104180000E9427140E94A31E90E0909381038093C5
:1041900080030E94A0226DE173E08BE794E00E940F
:1041A000851569EA73E08BE794E00E9427140E946A
:1041B000A31E90E090938303809382030E94A02229
:1041C0006DE173E08BE794E00E9485156DE973E083
:1041D0008BE794E00E9427140E94A31E90E0909326
:1041E0008503809384030E94A0220E941B1F0E94CB
:1041F0001B1F27C18534910519F50E943F100E94AD
:10420000241110928503109284031092830310925C
:104210008203109281031092800381E090E09093DA
:10422000360180933501909334018093330182E10C
:1042300090E090933201809331010E941B1F77C15F
:10424000C634D10509F0D9C00E94521067E973E065
:104250008BE794E00E942714609191038BE794E030
:104260000E94B222609190038BE794E00E94B222F8
:1042700080918F030E94B92261E973E08BE794E09B
:104280000E94271460918E038BE794E00E94B22273
:1042900060918D038BE794E00E94B22280918C03A1
:1042A0000E94B9226BE873E08BE794E00E94271428
:1042B00060918B038BE794E00E94B22260918A03A5
:1042C0008BE794E00E94B222809189030E94B92278
:1042D00062E873E08BE794E00E9427148091A903C1
:1042E0000E94B92269E773E08BE794E00E942714EB
:1042F0008091A8030E94B9226AE673E08BE794E0FC
:104300000E9427148091A7030E94B9226FE573E0F1
:104310008BE794E00E9427144091260650912706CF
:1043200060912806709129068BE794E00E94C31AD9
:104330000E94AE1A60E573E08BE794E00E942714B8
:10434000809192030E94B92265E473E08BE794E0C8
:104350000E94271440912206509123066091240662
:10436000709125068BE794E00E94C31A0E94AE1A52
:1043700061E473E08BE794E00E9427148091580178
:104380000E94B9226DE373E08BE794E00E9427144A
:10439000809157010E94B92269E373E08BE794E0B2
:1043A0000E942714809156010E94B92265E373E0B0
:1043B0008BE794E00E942714809155010E94B92256
:1043C00061E373E08BE794E00E942714809154012D
:1043D0000E94B9226DE273E08BE794E00E942714FB
:1043E000809153010E94B92269E273E08BE794E067
:1043F0000E9427148091520120C0C734D10509F5CD
:104400000E942D0269EF73E08BE794E00E9427146D
:104410004091940350919503609196037091970396
:1044200022E08BE794E00E94A9146FEE73E08BE723
:1044300094E00E94271480919303DF91CF910C9414
:10444000B922C834D105B1F40E942D0266EE73E0A2
:104450008BE794E00E9427144091A3035091A4039A
:104460006091A5037091A60322E08BE794E00E947F
:10447000A91459C0C934D10509F059C00E94C50416
:104480000E941E1C80911D0690E00E94CD1E6BE1D3
:1044900073E08BE794E00E9485150E94C5040E949A
:1044A0001E1C80911C0690E00E94CD1E6BE173E003
:1044B0008BE794E00E9485150E94C5040E941E1C93
:1044C00080911B0690E00E94CD1E69E173E08BE7AE
:1044D00094E00E9485150E94C5040E941E1C8091D4
:1044E0001F0690E00E94CD1E67E173E08BE794E029
:1044F0000E9485150E94C5040E941E1C8091200602
:1045000090E00E94CD1E67E173E08BE794E00E948B
:1045100085150E94180BAC01990F660B770B8BE782
:1045200094E00E94C31ADF91CF910C94AE1AEF97DA
:1045300021F4DF91CF910C940120DF91CF91089568
:10454000CF93DF93AC01990F660B770B8BE794E069
:104550000E94C31AEC010E94AE1A8C0F9D1FDF91BE
:10456000CF910895462F50E060E070E02AE00C946F
:104570006014CF93DF93682F8BE794E00E94B22200
:10458000EC010E94AE1A8C0F9D1FDF91CF91089510
:10459000CF93DF93BC018BE794E00E944B14EC01B6
:1045A0000E94AE1A8C0F9D1FDF91CF910895CF937B
:1045B000DF93CDB7DEB761970FB6F894DEBF0FBEBD
:1045C000CDBF789484B5826084BD84B5816084BD9C
:1045D00085B5826085BD85B5816085BD80916E00A1
:1045E000816080936E0010928100809181008260D2
:1045F000809381008091810081608093810080910F
:1046000080008160809380008091B10084608093FD
:10461000B1008091B00081608093B00080917A00F9
:10462000846080937A0080917A00826080937A001F
:1046300080917A00816080937A0080917A0080680E
:1046400080937A001092C100E0918B04F0918C0469
:1046500082E08083E0918704F09188041082E091E9
:104660008904F0918A0480E1808310929304E091A0
:104670008F04F091900486E08083E0918D04F091A6
:104680008E04808180618083E0918D04F0918E049E
:10469000808188608083E0918D04F0918E04808118
:1046A00080688083E0918D04F0918E0480818F7DFD
:1046B000808364EF71E080E090E00E94681682E001
:1046C0000E947A1960E171E080E00E94091A68E0B6
:1046D00071E081E00E94091A60E071E082E00E94CE
:1046E000091A61E081E10E942C1660E081E10E94DC
:1046F000DF1560E085E00E942C1661E08AE00E94F0
:104700002C1661E08AE00E94DF150E9424110E94AD
:1047100001200E944B208EE39BE1909375038093D0
:10472000740380917A0390917B03A0917C03B091F4
:104730007D038093760390937703A0937803B093DF
:1047400079030E94C50480E891E5A1E0B0E0809380
:10475000180190931901A0931A01B0931B01809145
:104760007A0390917B03A0917C03B0917D038058E4
:104770009E4AAE4FBF4F8093760390937703A093EA
:104780007803B09379030E94C50480917E039091D1
:104790007F03029789F08CE191E00E94C82281E0BA
:1047A0008093B3038DE090E090938703809386031A
:1047B000109288030E94220BE0913D05F0913E0586
:1047C000138615861486DF011B9633961E92AE174C
:1047D000BF07E1F710923C0501E0BE01665F7F4F25
:1047E00080913D0590913E050E94FD1C882309F4AF
:1047F0005BC067E0CE010A960E94421C998989132A
:10480000ECCF80913805811127C080913D059091B2
:104810003E050E94C61CBE01665F7F4F80913D052C
:1048200090913E050E94831C40E064EB80913D0521
:1048300090913E050E944F1C80913D0590913E0550
:104840000E94A21C182F80913D0590913E050E9468
:10485000C61C112309F4F2C2BE016F5F7F4FCE0167
:104860000A960E94D718109139058A85803111F473
:104870000C94542DCE010A960E942C19811718F41D
:104880008091390509C08A85803111F48CE004C01B
:10489000CE010A960E942C198093390580913C051F
:1048A0008F5F80933C0599CF0E942D0247E555E02C
:1048B00063E070E080E090E00E947F1A4DE252E0F9
:1048C00065E070E080E090E00E947F1A60919003C4
:1048D00070E08091910340ED53E090E00E94261A31
:1048E00060918D0370E080918E0347E953E090E082
:1048F0000E94261A60918A0370E080918B034EE536
:1049000053E090E00E94261A60ED77E080E090E0AE
:104910000E94681698E288E10FB6F894A8958093F3
:1049200060000FBE90936000A89501E010E0222483
:104930002A94322C0E944B2080E480937C0080914A
:104940007A00806480937A0080917A0086FDFCCFA3
:10495000809178002091790090E0922B823391052C
:104960009CF0833C91050CF46CC28C3721E09207DB
:104970000CF4E7C38B3242E094070CF492C4863106
:1049800093400CF4FEC421C060E971E080E090E047
:104990000E9468168EE990E00E94B41A8091370157
:1049A000909138018B30910509F4CAC48530910586
:1049B00009F4CEC48330910509F4D0C48130910547
:1049C00009F4D2C4892B09F4D5C48091B403882397
:1049D00009F4A3C06091910382E090E00E94261840
:1049E0006091900383E090E00E94261860918F030D
:1049F00084E090E00E94261860918E0385E090E0AC
:104A00000E94261860918D0386E090E00E9426188F
:104A100060918C0387E090E00E94261860918B03E0
:104A200088E090E00E94261860918A0389E090E077
:104A30000E942618609189038AE090E00E9426185F
:104A40006091A9038BE090E00E9426186091A80372
:104A50008CE090E00E9426186091A7038DE090E022
:104A60000E9426186091920380E190E00E9426182F
:104A70006091580184E190E00E94261860915701EE
:104A800085E190E00E9426186091560186E190E051
:104A90000E9426186091550187E190E00E94261837
:104AA0006091540188E190E00E94261860915301C2
:104AB00089E190E00E942618609152018AE190E01D
:104AC0000E9426188AE491E00E94C8221092B40342
:104AD0000E94F81960E080E00E9468196AE471E0C1
:104AE00080E295E00E94851569E371E080E295E03F
:104AF0000E94851561E080E00E94681969E371E019
:104B000080E295E00E94851560ED77E080E090E01E
:104B10000E9468160E941B1F8DC10E94A2162B01C5
:104B20003C01992493940E94A216DC01CB018419C4
:104B30009509A609B7090297A105B10508F045C076
:104B40008091F0058111EFCF9092F0051092F10560
:104B5000E091F105EF30B0F55BE05E9FF0011124CC
:104B6000EB5AFA4F808184FF27C00E94C504409110
:104B7000F105242F30E0EBE0E29FD001E39FB00D80
:104B80001124FD01E55BFA4FC680D780E084F184F3
:104B90006C157D058E059F0578F0A080B180AB5A1D
:104BA000BA4F9C9195FFEFC44F3008F4E7C4A114AD
:104BB000B10411F0F50109958091F1058F5F8093A3
:104BC000F105C6CF1092F005AECF8091B3038111ED
:104BD00031C16091940370919503809196039091F7
:104BE00097030E949E2F9B01AC0128583341410935
:104BF0005109ACE9BFEF0E94983124EB3CEE4FEF36
:104C00005FEF0E944F31DA01C9018C599F4FAF4FBE
:104C1000BF4F843608F084E6809393030E94E51E1C
:104C2000882351F180919203823031F5D090930323
:104C300057E25D1560F08091A2038111CDC480918F
:104C4000A1038111C9C48091A0038111C5C4D09072
:104C5000930388ED8D0D843108F406C5D09093033D
:104C600084EC8D0D843108F448C5D0909303FFE4A3
:104C70005F2E5D1408F484C50E94E51E882309F4A4
:104C800059C08091A703823009F054C08090A303DB
:104C90009090A403A090A503B090A60320E030E07C
:104CA00040E252E4C501B4010E94863087FD0CC089
:104CB0008091A2038111A1C58091A10381119DC59D
:104CC0008091A003811199C58090A3039090A403C3
:104CD000A090A503B090A60320E030E040EF51E49F
:104CE000C501B4010E94863087FFD9C58090A30317
:104CF0009090A403A090A503B090A60320E030E01C
:104D000040EA51E4C501B4010E94863087FF24C601
:104D10008090A3039090A403A090A503B090A60355
:104D200020E030E040EA50E4C501B4010E94863042
:104D300087FF69C68091B203882309F477C00E9477
:104D4000A21660931C0570931D0580931E05909319
:104D50001F05D09062016D2D81E10E94DF158091C9
:104D60001C0590911D05A0911E05B0911F05409155
:104D7000AE035091AF036091B0037091B103841BF7
:104D8000950BA60BB70B4091AA035091AB03609112
:104D9000AC037091AD0384179507A607B70708F415
:104DA00049C0DD2061F02091A90388EEE82E83E060
:104DB000F82E2E9DC0012F9D900D112409C0209129
:104DC000A80348EE53E0249FC001259F900D1124B5
:104DD000092E000CAA0BBB0B8093AA039093AB0384
:104DE000A093AC03B093AD0369E571E08BE794E069
:104DF0000E9485158091620190E00E94A02290910E
:104E0000620181E089278093620180911C05909165
:104E10001D05A0911E05B0911F058093AE039093D0
:104E2000AF03A093B003B093B10304C060E081E18D
:104E30000E94DF15A8950E9433137CCD009338059E
:104E40000BCD68EC70E080E090E00E94681681E98C
:104E500090E00E94B41A80913701909138018D3012
:104E6000910521F481E08093B40385C18C309105D4
:104E700029F530923801209237010E943F100E949C
:104E800024111092850310928403109283031092D0
:104E900082031092810310928003109336010093D5
:104EA0003501109334010093330182E190E0909337
:104EB0003201809331010E941B1F87CD8B309105F9
:104EC00009F056C08091880381110FC0809135018F
:104ED000909136018F31910534F010933601009393
:104EE00035018BE02BC1019650C1813071F4809166
:104EF0003301909134018C3091052CF010933401E2
:104F000000933301EECF019646C1823081F4809147
:104F1000310190913201823391053CF0E2E1F0E001
:104F2000F0933201E0933101DCCF01963AC1833036
:104F300071F48091800390918103873191052CF069
:104F40001092810310928003CCCF019630C184303F
:104F500009F03BCD80918203909183038B339105BF
:104F60002CF01092830310928203BBCF019625C1CF
:104F70008A30910549F480919203823019F481E0DE
:104F8000809392038AE0DAC08930910549F48091D8
:104F9000A703823019F481E08093A70389E0CEC093
:104FA0008830910561F48091A8038A3F18F010922F
:104FB000A80303C08F5F8093A80388E0BFC0873039
:104FC000910561F48091A9038A3F18F01092A9031A
:104FD00003C08F5F8093A90387E0B0C0863091053E
:104FE00059F4809189038A3F10F085E001C08B5FFE
:104FF0008093890386E0A2C085309105D1F4809129
:10500000880381110AC080918B03873120F01092B0
:105010008B0385E093C08F5FF9C0813009F0D5CC58
:1050200080918A038B3318F010928A03F2CF8F5F3E
:10503000F8C08430910559F480918C038A3F10F0B8
:1050400085E001C08B5F80938C0384E077C0833060
:105050009105D1F48091880381110AC080918E035B
:10506000873120F010928E0383E068C08F5FECC020
:10507000813009F0AACC80918D038B3318F0109207
:105080008D03F2CF8F5FEBC08230910559F4809190
:105090008F038A3F10F085E001C08B5F80938F0300
:1050A00082E04CC081309105D1F480918803811158
:1050B0000AC080919103873120F01092910381E022
:1050C0003DC08F5FE0C0813009F07FCC80919003BC
:1050D0008B3318F010929003F2CF8F5FDFC0892BD3
:1050E00009F073CC80918803811104C082E0809321
:1050F000580123C0813021F482E0809357011DC004
:10510000823019F48093560118C0833021F482E074
:105110008093550112C0843021F482E080935401C1
:105120000CC0853021F482E08093530106C08630A4
:1051300009F04BCC82E08093520180E00E94220B68
:1051400044CC68EC70E080E090E00E9468168CE847
:1051500090E00E94B41A80913701909138019C012F
:105160002C5031092230310568F51092B3031092AA
:10517000B4030E94F819309238012092370110923E
:1051800087031092860321CC019790933601809378
:105190003501A7CE01979093340180933301A1CEBE
:1051A000019790933201809331019BCE01979093A8
:1051B00081038093800395CE01979093830380931E
:1051C00082038FCE8B30910509F411C18A3091058D
:1051D00009F469C18930910509F46CC188309105E1
:1051E00009F46FC18730910509F473C186309105C8
:1051F00009F477C185309105B9F480918803811154
:1052000008C080918B03811174C187E180938B0367
:1052100000CF813009F0D9CB80918A0381116BC115
:105220008BE380938A03F5CE8430910509F465C140
:1052300083309105B9F480918803811108C0809171
:105240008E03811162C187E180938E030DCF81307F
:1052500009F0BBCB80918D03811159C18BE3809301
:105260008D0302CF8230910509F453C1813091053D
:1052700009F05BC180918803811108C0809191037E
:1052800081114FC187E18093910319CF813009F0DB
:105290009CCB80919003811146C18BE38093900356
:1052A0000ECF60E971E080E090E00E94681688E926
:1052B00090E00E94B41A80913701909138018B30B0
:1052C000910551F480918803815019F080938803EF
:1052D00008CE1092880305CE8530910551F4809157
:1052E0008803815019F08093880393CE109288032D
:1052F00090CE8330910551F480918803815019F04C
:1053000080938803B1CE10928803AECE8130910590
:1053100051F480918803815019F080938803CFCE97
:1053200010928803CCCE892B09F04FCB8091880353
:10533000815019F08093880300CF10928803FDCE2E
:10534000809188038F5F843008F4C0CF84E0BECFA3
:10535000809188038F3F51F281E0C5CF809188030F
:105360008F3F89F281E0CCCF809188038F3FC1F2DB
:1053700081E0D3CF809188038F5F8630D8F286E0BA
:10538000D9CF66E870E08BE794E00E942714809103
:105390008603909187030E94A02281E08093B3034B
:1053A000809186030E94220B80918603909187034F
:1053B0008230910540F09C01277F2330310519F0A0
:1053C0008530910521F4109288030E94220B809170
:1053D00086039091870301969093870380938603B9
:1053E00060E273E080E090E00E946816EECA80916F
:1053F0008803811110C0809135019091360182306F
:1054000091050CF0C1CE3FE1432E512C5092360154
:105410004092350166CD813081F4809133019091C5
:105420003401823091050CF0B5CE2CE0622E712C47
:10543000709234016092330154CD823081F48091B6
:10544000310190913201833191050CF0A9CE92E3A4
:10545000C92ED12CD0923201C092310142CD83307D
:1054600081F48091800390918103181619060CF441
:105470009DCE87E1E82EF12CF0928103E09280032B
:1054800030CD843009F0A1CA8091820390918303CA
:10549000181619060CF490CE4BE350E0509383039A
:1054A000409382031ECD80919203813009F06ACD32
:1054B00082E066CD8091A703813009F06FCD82E054
:1054C0006BCD8091A803811102C08AEF74CD815009
:1054D00072CD8091A903811102C08AEF7BCD8150EA
:1054E00079CD80918903863010F48AEF81CD855083
:1054F0007FCD81508BCE815094CE80918C038630AD
:1055000010F48AEFA0CD85509ECD81509DCE815064
:10551000A6CE80918F03863010F48AEFBFCD8550E0
:10552000BDCD8150B0CE8150B9CE892B09F04DCA86
:1055300080918803811103C010925801FFCD813002
:1055400019F410925701F9CD823019F410925601D6
:10555000F4CD833019F410925501EFCD843019F455
:1055600010925401EACD853019F410925301E5CD23
:10557000863009F02ACA10925201DFCD892F8F7030
:1055800009F415CB1CC082819381A481B581892B3C
:105590008A2B8B2B39F0828584FF04C0CF010E94B7
:1055A000100805CBBBE0CB2EC29EF001C39EF00DD0
:1055B0001124EB5AFA4F80818F7E8083F8CA907E47
:1055C0009C93118210821282138214821582168299
:1055D000178210861186EBCA81E08093B2030E9485
:1055E000A216209198033091990340919A0350910B
:1055F0009B0380909C0390909D03A0909E03B0908D
:105600009F032B013C01481859086A087B08530185
:10561000420129013A017694679457944794420EC7
:10562000531E641E751E84149504A604B70408F462
:105630000ECB60939C0370939D0380939E03909385
:105640009F031092A2031092A1031092A003109244
:10565000B2034D2D50E060E070E081E190E00E94E7
:1056600008110E94E11EF3CA8091A203811109C0B2
:105670008091A103811105C08091A003882309F4C2
:10568000EDCA81E08093B2030E94A21680909C0331
:1056900090909D03A0909E03B0909F032B013C012E
:1056A000481859086A087B088090980390909903DD
:1056B000A0909A03B0909B03481459046A047B0499
:1056C00008F4CCCA60939C0370939D0380939E035F
:1056D00090939F031092A2031092A1031092A00333
:1056E0001092B2034D2D50E060E070E081E190E057
:1056F0000E9408110E94E11EB1CA8091A20381118B
:1057000005C08091A103882309F4AFCA81E080938A
:10571000B2030E94A21680909C0390909D03A090DB
:105720009E03B0909F032B013C01481859086A085A
:105730007B088090980390909903A0909A03B09072
:105740009B03481459046A047B0408F48ECA6093CE
:105750009C0370939D0380939E0390939F031092EC
:10576000A2031092A1031092B2034D2D50E060E00D
:1057700070E081E190E00E9408110E94E11E75CA6C
:105780008091A203882309F477CA81E08093B20351
:105790000E94A21680909C0390909D03A0909E036F
:1057A000B0909F032B013C01481859086A087B08F8
:1057B0008090980390909903A0909A03B0909B03D7
:1057C000481459046A047B0408F456CA60939C0385
:1057D00070939D0380939E0390939F031092A20366
:1057E0001092B2034D2D50E060E070E081E190E056
:1057F0000E9408110E94E11E3FCA81E08093B2031B
:105800000E94A216209198033091990340919A0327
:1058100050919B0340909C0350909D0360909E0389
:1058200070909F036B017C01C418D508E608F70847
:105830002601370169017A01F694E794D794C79459
:10584000C20ED31EE41EF51E4C145D046E047F04CC
:1058500008F43ACA60939C0370939D0380939E035F
:1058600090939F031092A2031092A1031092A003A1
:105870001092B20320E030E04AE754E4C501B401DD
:105880000E948B300E949E2FAB01770F660B770B27
:105890008EE090E00E9408110E94E11E15CA20E0EF
:1058A00030E040E252E4C501B4010E94272F87FF97
:1058B0001DCA8091A203811109C08091A1038111A9
:1058C00005C08091A003882309F410CA81E0809369
:1058D000B2030E94A21640909C0350909D036090DA
:1058E0009E0370909F039B01AC0124193509460962
:1058F0005709409098035090990360909A037090D4
:105900009B03241535054605570508F4EFC9609338
:105910009C0370939D0380939E0390939F0310922A
:10592000A2031092A1031092A0031092B20320E0F0
:1059300030E04AE754E4C501B4010E948B300E9474
:105940009E2FAB01770F660B770B8EE090E00E94E5
:1059500008110E94E11ECAC920E030E040EF51E486
:10596000C501B4010E94272F87FFD2C98091A203ED
:10597000811105C08091A103882309F4C9C981E080
:105980008093B2030E94A21640909C0350909D0306
:1059900060909E0370909F039B01AC012419350910
:1059A00046095709409098035090990360909A03D4
:1059B00070909B03241535054605570508F4A8C9C2
:1059C00060939C0370939D0380939E0390939F0329
:1059D0001092A2031092A1031092B20320E030E0D3
:1059E0004AE754E4C501B4010E948B300E949E2F07
:1059F000AB01770F660B770B8EE090E00E940811E9
:105A00000E94E11E85C920E030E040EA51E4C50172
:105A1000B4010E94272F87FF8DC98091A20388239C
:105A200009F488C981E08093B2030E94A2164090D5
:105A30009C0350909D0360909E0370909F039B0178
:105A4000AC01241935094609570940909803509034
:105A5000990360909A0370909B03241535054605C1
:105A6000570508F46CC960939C0370939D03809361
:105A70009E0390939F031092A2031092B20320E022
:105A800030E04AE754E4C501B4010E948B300E9423
:105A90009E2FAB01770F660B770B8EE090E00E9494
:105AA00008110E94E11E46C91D3010F00C944024DC
:105AB0000C94462410927E0410927D0488EE93E0AC
:105AC000A0E0B0E080937F0490938004A0938104D1
:105AD000B093820428E333E030937C0420937B046A
