:100000000C94AA010C94D2010C94D2010C94D2014C
:100010000C94D2010C94D2010C94D2010C94EC02F9
:100020000C94D2010C94D2010C94D2010C94D20104
:100030000C94D2010C9450030C94D2010C94D20174
:100040000C945C1D0C94D2010C94F81B0C94D21BE4
:100050000C94D2010C94D2010C94D2010C94D201D4
:100060000C942A1C0C94D20163206E2079208420E9
:100070008F209A20A5203B0A3D0B850BC50BF80B62
:10008000380C6B0CAB0CF10C320D900DEE0D920E8A
:10009000E90E370AA514A814AB14AE14B114B414A5
:1000A000B7144300005EBCE2613FDD83C29C7E204A
:1000B000A3FD1F419DC3217FFCA2401E5F01E3BD44
:1000C0003E6082DC237D9FC1421CFEA0E1BF5D0338
:1000D00080DE3C62BEE0025CDF81633D7C22C09E2C
:1000E0001D43A1FF4618FAA427799BC584DA386618
:1000F000E5BB5907DB856739BAE406581947A5FB04
:100100007826C49A653BD987045AB8E6A7F91B45F7
:10011000C6987A24F8A6441A99C7257B3A6486D8EB
:100120005B05E7B98CD2306EEDB3510F4E10F2ACD7
:100130002F7193CD114FADF3702ECC92D38D6F31C3
:10014000B2EC0E50AFF1134DCE90722C6D33D18FB7
:100150000C52B0EE326C8ED0530DEFB1F0AE4C12AB
:1001600091CF2D73CA947628ABF517490856B4EA97
:100170006937D58B5709EBB536688AD495CB297783
:10018000F4AA4816E9B7550B88D6346A2B7597C977
:100190004A14F6A8742AC896154BA9F7B6E80A546B
:1001A000D7896B35454550524F4D206E616374655C
:1001B0006E69204F4B0000000000240027002A0039
:1001C00000000000250028002B00000000080002AD
:1001D0000100000304070000000000000000000010
:1001E000000023002600290004040404040404047D
:1001F00002020202020203030303030301020408D2
:100200001020408001020408102001020408102080
:100210002A2A2A2A2A2A2A2A2A2A2A2A2A2A2A2A3E
:100220002A2A2A2A2A2A00492056797073617420C2
:10023000646174756D206120636173004820567994
:1002400070736174207465706C6F7475004720560C
:100250007970736174206672656B76656E63690090
:1002600046205469736B20454550524F4D00452040
:10027000536D617A617420454550524F4D004420C2
:100280004E6173746176697420646174756D206168
:100290002063617300432053707573746974207018
:1002A000726F6772616D20330042205370757374F2
:1002B00069742070726F6772616D20320041205343
:1002C0007075737469742070726F6772616D20311C
:1002D000003F204E61706F76656461002A2A2A20F3
:1002E0004D454E55202A2A2A2A2A2A2A2A2A2A2AEB
:1002F0002A2A007777772E70696872742E636F6D83
:100300000030002D002D002D002053656320302D7E
:1003100035393A2000204D696E20302D35393A208C
:100320000020486F6420302D32333A2000204D6584
:100330007320312D31323A20002044656E20312D5A
:1003400033313A200020526F6B2031382D39393A41
:100350002000452B11241FBECFEFD8E0DEBFCDBF5C
:1003600013E0A0E0B1E0ECE8FEE502C005900D92DC
:10037000A63DB107D9F725E0A6EDB3E001C01D9277
:10038000A83EB207E1F711E0CAEAD1E004C0219724
:10039000FE010E94032FC93AD107C9F70E94A61D8A
:1003A0000C94442F0C940000FC0190810180F28198
:1003B000E02D892F809560FF12C0F894228182235E
:1003C00082838181892B8183A3E2B0E01197F1F7C9
:1003D0008281982B9283789487ED90E011C0F894F5
:1003E0002281822382838181892B8183AFEFB0E0D8
:1003F0001197F1F78281982B928378948FE090E0A7
:100400000197F1F70895089580E090E00895CF9363
:10041000DF93EC0160E08E810E94011361E08E8128
:100420000E94011360E08E810E9401138BE891E02D
:100430000197F1F7DF91CF9108956CE773E082E9BE
:1004400094E00E94D01B65E072E082E994E00E9493
:10045000D01B84E793E00E94CD1281E080930304D7
:100460000E946F146093110470931204809313041C
:100470009093140410920D0410920E0410920F0425
:10048000109210040E946F146093FF037093000495
:1004900080930104909302044091EC0328EE33E032
:1004A000429FC001439F900D1124092E000CAA0BFE
:1004B000BB0B8093FB039093FC03A093FD03B093CD
:1004C000FE0308956CE773E082E994E00E94D01B7C
:1004D00065E072E082E994E00E94D01B86E793E039
:1004E0000E94CD1281E0809304040E946F146093F7
:1004F00011047093120480931304909314041092C7
:100500000D0410920E0410920F04109210040E9419
:100510006F146093FF037093000480930104909321
:1005200002044091ED0328EE33E0429FC001439F57
:10053000900D1124092E000CAA0BBB0B8093FB031A
:100540009093FC03A093FD03B093FE0308956CE722
:1005500073E082E994E00E94D01B65E072E082E9DA
:1005600094E00E94D01B8AE793E00E94CD1281E0C4
:10057000809305040E946F14609311047093120419
:10058000809313049093140410920D0410920E049F
:1005900010920F04109210040E946F146093FF03D6
:1005A0007093000480930104909302044091EE0341
:1005B00028EE33E0429FC001439F900D1124092E85
:1005C000000CAA0BBB0B8093FB039093FC03A0933E
:1005D000FD03B093FE0308951F920F920FB60F9282
:1005E00011242F933F934F935F936F937F938F9338
:1005F0009F93AF93BF934091840050918500809169
:100600002C0490912D04A0912E04B0912F042091E0
:100610003004309131042F5F3F4F309331042093E9
:10062000300460913204709133042617370748F183
:10063000B09B04C04F3F510501F1F8F010928000CB
:10064000109281001092B0001092B10010926F00D1
:1006500010927000DC0199278827840F951FA11D37
:10066000B11D8093340490933504A0933604B09365
:10067000370481E08093380404C00196A11DB11DA8
:10068000DDCFBF91AF919F918F917F916F915F91DE
:100690004F913F912F910F900FBE0F901F90189583
:1006A0001F920F920FB60F9211248F939F93AF93C7
:1006B000BF9380912C0490912D04A0912E04B091B1
:1006C0002F040196A11DB11D80932C0490932D043D
:1006D000A0932E04B0932F04BF91AF919F918F915F
:1006E0000F900FBE0F901F9018950F931F9360935C
:1006F000DC037093DD038093DE039093DF030091AE
:1007000018011091190120911A0130911B01DC018F
:10071000CB01800F911FA21FB31F8093D80390932A
:10072000D903A093DA03B093DB0382E090E09093C7
:10073000E1038093E0030E946F1460932804709398
:10074000290480932A0490932B041F910F910895FC
:10075000CF92DF92EF92FF920F931F930E946F143C
:10076000C0902804D0902904E0902A04F0902B0433
:100770008B019C010C191D092E093F098091DC0396
:100780009091DD03A091DE03B091DF03083E13409A
:1007900021053105D0F00196A11DB11D8093DC0328
:1007A0009093DD03A093DE03B093DF03B701A601AE
:1007B00048515C4F6F4F7F4F40932804509329045A
:1007C00060932A0470932B04C9CF4091D8035091B1
:1007D000D9036091DA037091DB0384179507A607AC
:1007E000B707C8F1E091D603F091D703309799F19C
:1007F0000995611571058105910519F00E94750330
:100800002AC04091DC035091DD036091DE037091BA
:10081000DF038091180190911901A0911A01B09104
:100820001B01840F951FA61FB71F8093D8039093B9
:10083000D903A093DA03B093DB0381E090E0209129
:10084000E0033091E103232B11F480E090E09093DA
:10085000E1038093E0036091DC037091DD038091FC
:10086000DE039091DF031F910F91FF90EF90DF90D7
:10087000CF9008954F925F926F927F928F929F9246
:10088000AF92BF92CF92DF92EF92FF920F931F939E
:10089000CF93DF93FC011681A12FB0E020E833E372
:1008A00041EE51E00E94182F4B015C01C2EBD7E0F2
:1008B0009D0104E610E080E9E82EFF24F394CE01C8
:1008C000825B974082179307D4F4CE0183709927F7
:1008D000892B99F4CE01B8010E94AE2E892B31F4F8
:1008E000CE01B7010E94AE2E892B39F480E8880E24
:1008F00081E5981E81E0A81EB11C2196E0CF4580BD
:10090000512C2E54384FC90164E670E00E94AE2E7F
:100910007C01C90160E971E00E94AE2E6C0105E81E
:1009200013E0C1E0D0E03901A3E06A227724C415C6
:10093000D50534F5C230D10589F46114710471F420
:10094000E114F10419F4C114D10441F4B0E88B0EA0
:10095000BBE39B1EB6E2AB1EB11C0EC0D8018C914E
:10096000A82FB0E020E831E541E050E00E94182FC8
:10097000860E971EA81EB91E21960F5F1F4FD7CF58
:100980004181228130E0A0E1BEE00E94092F6B018D
:100990007C01242F30E0ACE3B0E00E94092FDC01A1
:1009A000CB018C0D9D1DAE1DBF1D20816C017D01F5
:1009B000C20ED11CE11CF11CA481B0E0119720E80B
:1009C00031E541E050E00E94232FDC01CB018C0D8A
:1009D0009D1DAE1DBF1DBC01CD01680D791D8A1D79
:1009E0009B1DDF91CF911F910F91FF90EF90DF90B2
:1009F000CF90BF90AF909F908F907F906F905F90BF
:100A00004F9008951F93CF93DF93CDB7DEB727970D
:100A10000FB6F894DEBF0FBECDBF81E080936504B2
:100A200088E68093860410928F0410928E0460E012
:100A300082E695E00E943A1A81E00E944E118111EF
:100A4000B4C080918D048111FCCF81E080938D042E
:100A500080938C049FEF909364041092630496E05B
:100A6000909362048093410480914104806D80934F
:100A7000410480918B04813061F410928B04809149
:100A800041048093BB008091BC0083FDF8CF85ECCE
:100A900001C085EE8093BC0080918D048130E1F32C
:100AA00080916304873018F49091630401C097E04B
:100AB000A2E4B4E0E4E8F5E080E0891721F02D91AC
:100AC00021938F5FFACF109291048093900490E06D
:100AD00007970CF46AC082E695E00E94F119182F7E
:100AE0008695869586958E70982F990F990F890F08
:100AF000912F9F70890F898382E695E00E94F119FA
:100B0000982F92959F708F702AE0929F800D1124EC
:100B10008A8382E695E00E94F119982F9695969522
:100B200096959670292F220F220F920F8F70890FA2
:100B30008B8382E695E00E94F119982F92959F7021
:100B40008F702AE0929F800D11248C8382E695E0BD
:100B50000E94F119982F92959F708F702AE0929FB2
:100B6000800D11248D8382E695E00E94F119982F63
:100B700092959F708F702AE0929F800D11248E8332
:100B800082E695E00E94F119982F9F70925E8295FF
:100B90008F702AE0829F900D11249F8317FD05C05E
:100BA000CE0101960E943A0403C060E070E0CB01E0
:100BB00027960FB6F894DEBF0FBECDBFDF91CF9161
:100BC0001F9108956F927F928F929F92AF92BF92E2
:100BD000CF92DF92EF92FF920F931F93CF93DF9309
:100BE0006B017C01EA018CE3882E912CA12CB12CA5
:100BF000C701B601A50194010E94C22E6883CA01F3
:100C0000B901A50194010E94C22E6983C701B601F2
:100C100020E13EE040E050E00E94C22ECA01B9014E
:100C200028E130E040E050E00E94C22E6A83C70114
:100C3000B60120E831E541E050E00E94C22E690192
:100C40007A01CA01B9016C5F7F4F8F4F9F4F27E038
:100C500030E040E050E00E94C22E6F5F6B83812C39
:100C6000912C540140E094E6692E712C00E911E0CA
:100C7000242F30E02E54384FF901E370FF273097CE
:100C800089F4C901B3010E94AE2E892B31F4C90148
:100C9000B8010E94AE2E892B29F48EE691E0A0E0E7
:100CA000B0E004C08DE691E0A0E0B0E0880E991EAF
:100CB000AA1EBB1ED501C401AA27BB27C816D90688
:100CC000EA06FB0610F04F5FD3CF4E83309799F4BE
:100CD000C90164E670E00E94AE2E892B39F4C90187
:100CE00060E971E00E94AE2E892B29F48EE691E036
:100CF000A0E0B0E004C08DE691E0A0E0B0E0881A8A
:100D0000990AAA0ABB0AC818D908EA08FB08C90147
:100D100064E670E00E94AE2E8C01C90160E971E0CA
:100D20000E94AE2EA5E8B3E020E0213041F43097D8
:100D300051F40115110529F4009729F402C04C91D2
:100D400003C04DE101C04CE150E060E070E0C4162A
:100D5000D506E606F70640F0C41AD50AE60AF70AF1
:100D60002F5F11962C3009F72F5F2D83C394CC820F
:100D7000DF91CF911F910F91FF90EF90DF90CF9077
:100D8000BF90AF909F908F907F906F900895CF927B
:100D9000DF92EF92FF92C0902404D0902504E0905F
:100DA0002604F0902704C616D706E806F90671F067
:100DB0006B017C0142EE53E00E94E205C0922404E4
:100DC000D0922504E0922604F0922704FF90EF9041
:100DD000DF90CF9008950E94A8030E94C7068091DB
:100DE000E80390E08E54984F08950E94A8030E9453
:100DF000C7068091E70390E008950E94A8030E942F
:100E0000C7068091E60390E008950E94A8030E941F
:100E1000C7068091E20390E008950E94A8030E9413
:100E2000C7068091E30390E008950E94A8030E9402
:100E3000C7068091E40390E00895DC0180E06150F2
:100E400040F09D91E82FE927F0E0EC55FF4F8491A9
:100E5000F6CF0895DF92EF92FF920F931F93CF93F7
:100E6000DF93EC01D62EE42E08E010E0FF24F3948B
:100E700061E08D2D8F2109F460E0CE010E94D40144
:100E8000FF0C01501109A1F7E11010C0F894E9819D
:100E9000FA8191818881809589238183E981FA8112
:100EA000928188818095892382837894DF91CF9184
:100EB0001F910F91FF90EF90DF900895EF92FF92B6
:100EC0000F931F93CF93DF938C017B0140E065E587
:100ED0000E942A07E70188E0E80EF11C699140E0D2
:100EE000C8010E942A07CE15DF05C1F7DF91CF9117
:100EF0001F910F91FF90EF900895FC019081018068
:100F0000F281E02DF8948181892B81832281892FC0
:100F1000809528232283A7E0B0E01197F1F7218183
:100F200082238183A3E2B0E01197F1F78081789466
:100F3000EFECF0E03197F1F7982381E009F480E0DD
:100F40000895DC012C911196ED91FC911297F89483
:100F50008181922F90958923818378948DE743E056
:100F600050E0815021F1DA011197F1F730813223FD
:100F7000C1F3F8948281892382838181822B8183CA
:100F80007894ABE7B7E01197F1F7F8948181982353
:100F9000918383E191E00197F1F78081282381E03B
:100FA00009F080E07894E3E6F6E03197F1F70895F0
:100FB000BF92CF92DF92EF92FF920F931F93CF9346
:100FC000DF93EC01D62EC72E8D8581115BC0CE013B
:100FD0000E94A107811104C01B861D861C8666C065
:100FE00040E060EFCE010E942A0701E0E12CB12C25
:100FF00011E0CE010E947D07F82ECE010E947D07F0
:1010000091E0F91203C08130B1F434C02E2D30E0EC
:10101000F8121BC08B85181738F4FE01E20FF31F7E
:101020008381802341F402C0181729F0F12C193074
:1010300058F41C8709C0FE01EE0DF11D8381802B41
:101040008383FF24F39409C0B12EFE01E20FF31F46
:101050009381802F8095892383836F2DCE010E94F9
:10106000D4011F5F000F11F4E39401E087E08E15B7
:1010700008F0BFCF113430F0BB86B11012C081E050
:101080008D870FC01B861D861C8680E0DE011396AF
:10109000ED2DFC2D2B969D919193AC17BD07D9F7A3
:1010A00005C08B81882371F381E0F0CFDF91CF9170
:1010B0001F910F91FF90EF90DF90CF90BF90089518
:1010C000CF92DF92EF92FF92CF93DF93CDB7DEB74F
:1010D00061970FB6F894DEBF0FBECDBF80911B04A1
:1010E000811112C180915405909155050E94A1076C
:1010F00040E06CEC80915405909155050E942A07C0
:1011000040914F0564E480915405909155050E94EB
:101110002A07809151058823A9F0E0915005E950F4
:10112000E33040F4F0E0EE0FFF1FEF56FC4F60811C
:10113000718102C06EEE72E0072E000C880B990BD5
:101140000E943514E0915405F091550513861586DB
:101150001486DF011B96CF0103961E928A179B0708
:10116000E1F7BE01665F7F4FCF010E94D807882359
:1011700049F067E0CE010A960E941D0799898917F8
:1011800009F46FC060E070E08EEF92EC60930604AB
:101190007093070480930804909309041092380414
:1011A00084EF91E0909333048093320410923104E1
:1011B0001092300410922C0410922D0410922E04E0
:1011C00010922F0410928000109281001092B000B3
:1011D0001092B10081E080936F0082E08093B000B4
:1011E0009CE79093B300809370001092850010925A
:1011F00084001092B20083BD85E08093B10087E047
:101200008093810080913804811102C0A895FACFA3
:1012100060913404709135048091360490913704C4
:101220000E94792D20E030E04AE754E40E94302EFD
:101230006B017C01609132047091330480E090E096
:101240000E94792D9B01AC01C701B6010E94D12CEF
:101250006093F7037093F8038093F9039093FA0374
:1012600053C0BE016F5F7F4FCE010A960E94AA1144
:10127000882341F068E0CE0101960E941D07998500
:101280008917A1F060E874EE613854EE75070CF42C
:1012900079CF072E000C880B990B0E947B2D20E044
:1012A00030E040E05CE30E94302E70CF2A8130E0D5
:1012B000C901982F8827990F990F990F698128E004
:1012C000629FB00111249C01262B372B8A85803127
:1012D000C9F4688570E08F81AB01481B5109CA01D0
:1012E0009695982F8827979587950E94AE2E6051E6
:1012F0007109207F53E0220F331F5A95E1F7620FE7
:10130000731FC2CFB901C0CF61960FB6F894DEBF8C
:101310000FBECDBFDF91CF91FF90EF90DF90CF90C8
:101320000895AF92BF92CF92DF92EF92FF920F9308
:101330001F93CF93DF935C017C0187E0E80EF11CE3
:10134000C0E0D0E0062F10E0670161E0F701819175
:101350007F010E94F913B8010C2E02C075956795A4
:101360000A94E2F76170F60180810E9401132196D0
:10137000C430D10549F7C501DF91CF911F910F917D
:10138000FF90EF90DF90CF90BF90AF900C9407024A
:10139000AF92BF92CF92DF92EF92FF920F931F9383
:1013A000CF93DF93EC01F62E642F8C810E94011302
:1013B0008D818F3F19F060E00E9401138F850F2D02
:1013C00010E084FF2DC05E0187E0A80EB11CE12C67
:1013D000F12C650161E0F50181915F010E94F91333
:1013E000B8010E2C02C0759567950A94E2F76170FA
:1013F000F60180810E940113FFEFEF1AFF0A88E0D7
:10140000E816F10431F7CE01DF91CF911F910F91D2
:10141000FF90EF90DF90CF90BF90AF900C940702B9
:10142000B80184E0759567958A95E1F7CE010E9431
:1014300091096F2DCE01DF91CF911F910F91FF90F8
:10144000EF90DF90CF90BF90AF900C94910941E066
:101450000E94C80981E090E0089590E08F309105E6
:1014600008F017C5FC01E55CFF4F0C94032F1092A8
:10147000EA031092E90360E080E00E94431263E413
:1014800071E087E395E00E94D01B61E08EE00E944E
:10149000431265E072E087E395E00E94D01B6EE99D
:1014A00071E087E395E00E94D01B61E080E00E943C
:1014B00043128091FE01823019F460E471E008C0AB
:1014C0006EE371E087E395E00E94D01B6EE371E06C
:1014D00087E395E00E94D01B61E082E00E94431206
:1014E0008091FD01823019F46BE371E008C06EE376
:1014F00071E087E395E00E94D01B6EE371E087E323
:1015000095E00E94D01B61E084E00E94431280912C
:10151000FC01823019F468E371E008C06EE371E009
:1015200087E395E00E94D01B6EE371E087E395E0CE
:101530000E94D01B61E086E00E9443128091FB0173
:10154000823019F465E371E008C06EE371E087E36F
:1015500095E00E94D01B6EE371E087E395E00E9466
:10156000D01B61E088E00E9443128091FA01823032
:1015700019F462E371E008C06EE371E087E395E07F
:101580000E94D01B6EE371E087E395E00E94D01BC0
:1015900061E08AE00E9443128091F901823019F4DF
:1015A0006FE271E008C06EE371E087E395E00E94AE
:1015B000D01B6EE371E087E395E00E94D01B61E0F1
:1015C0008CE00E9443128091F801823019F46CE2A1
:1015D00071E008C06EE371E087E395E00E94D01BE4
:1015E0006EE371E087E395E00E94D01B1092D70173
:1015F0001092D6018091EB03811105C061E00E9439
:1016000043120E945D128091EB03813031F461E05E
:1016100082E00E9443120E945D128091EB038230AF
:1016200031F461E084E00E9443120E945D128091D7
:10163000EB03833031F461E086E00E9443120E94A4
:101640005D128091EB03843031F461E088E00E9408
:1016500043120E945D128091EB03853031F461E00A
:101660008AE00E9443120E945D128091EB03863053
:1016700009F00FC461E08CE008C460E080E00E94E3
:1016800043126BEF72E087E395E00E94D01B61E0AC
:1016900080E00E94431280911A0490E00E94251578
:1016A00068E773E087E395E00E94D01B80911904FE
:1016B00090E00E94251565E072E087E395E00E94C6
:1016C000D01B63EF72E087E395E00E94D01B6FEDC3
:1016D00071E087E395E00E94D01B81E090E0909359
:1016E000D7018093D6018091EB03811106C061E0A0
:1016F00081E00E9443120E945D128091EB038130D1
:1017000009F0C7C361E084E0C0C360E080E00E94EC
:10171000431262EE72E087E395E00E94D01B61E025
:1017200080E00E9443128091EE0390E00E94251514
:1017300065E072E087E395E00E94D01B60EE72E006
:1017400087E395E00E94D01B6AED72E087E395E0A5
:101750000E94D01B65E072E087E395E00E94D01BF9
:101760006CEA71E087E395E00E94D01B68ED72E0BF
:1017700087E395E00E94D01B6FED71E087E395E071
:101780000E94D01B82E090E025C160E080E00E94D2
:10179000431267EC72E087E395E00E94D01B61E0A2
:1017A00080E00E9443128091180490E00E94251569
:1017B00068E773E087E395E00E94D01B80911704EF
:1017C00090E00E94251565E072E087E395E00E94B5
:1017D000D01B63EF72E087E395E00E94D01B6FEDB2
:1017E00071E087E395E00E94D01B83E090E077CF23
:1017F00060E080E00E94431266EB72E087E395E0D0
:101800000E94D01B61E080E00E9443128091ED03B2
:1018100090E00E94251565E072E087E395E00E9464
:10182000D01B60EE72E087E395E00E94D01B6AED6A
:1018300072E087E395E00E94D01B65E072E087E3E9
:1018400095E00E94D01B6CEA71E087E395E00E946E
:10185000D01B68ED72E087E395E00E94D01B6FED2E
:1018600071E087E395E00E94D01B84E090E0B2C075
:1018700060E080E00E94431265EA72E087E395E051
:101880000E94D01B61E080E00E9443128091160408
:1018900090E00E94251568E773E087E395E00E94D9
:1018A000D01B8091150490E00E94251565E072E040
:1018B00087E395E00E94D01B63EF72E087E395E039
:1018C0000E94D01B6FED71E087E395E00E94D01B72
:1018D00085E090E004CF60E080E00E94431264E97C
:1018E00072E087E395E00E94D01B61E080E00E94F7
:1018F00043128091EC0390E00E94251565E072E0B0
:1019000087E395E00E94D01B60EE72E087E395E0EC
:101910000E94D01B6AED72E087E395E00E94D01B25
:1019200065E072E087E395E00E94D01B6CEA71E00D
:1019300087E395E00E94D01B68ED72E087E395E0B5
:101940000E94D01B6FED71E087E395E00E94D01BF1
:1019500086E090E03FC060E080E00E94431263E8D0
:1019600072E087E395E00E94D01B61E080E00E9476
:10197000431280910C0490E00E94251565E072E00E
:1019800087E395E00E94D01B60EE72E087E395E06C
:101990000E94D01B6DE772E087E395E00E94D01BA8
:1019A00065E072E087E395E00E94D01B6CEA71E08D
:1019B00087E395E00E94D01B68ED72E087E395E035
:1019C0000E94D01B6FED71E087E395E00E94D01B71
:1019D00087E090E09093D7018093D60161E081E0A9
:1019E00054C260E080E00E9443126CE672E087E33C
:1019F00095E00E94D01B61E080E00E94431260915C
:101A00000B0487E395E00E94EB1265E072E087E348
:101A100095E00E94D01B60EE72E087E395E00E94A3
:101A2000D01B6DE772E087E395E00E94D01B65E074
:101A300072E087E395E00E94D01B6CEA71E087E3D7
:101A400095E00E94D01B68ED72E087E395E00E946C
:101A5000D01B6FED71E087E395E00E94D01B88E01A
:101A600090E00DC260E080E00E94431263E673E004
:101A700087E395E00E94D01B61E080E00E94431262
:101A800080910A04823001F564E672E087E395E014
:101A90000E94D01B65E072E087E395E00E94D01BB6
:101AA00060EE72E087E395E00E94D01B62E087E37E
:101AB00095E00E94270A62E672E087E395E00E94C3
:101AC000D01B69EB71E01FC06AE572E087E395E027
:101AD0000E94D01B65E072E087E395E00E94D01B76
:101AE00060EE72E087E395E00E94D01B61E087E33F
:101AF00095E00E94270A62E672E087E395E00E9483
:101B0000D01B60EB71E087E395E00E94D01B68ED8D
:101B100072E087E395E00E94D01B89E090E0AFC1BE
:101B200060E080E00E94431262E473E087E395E0A6
:101B30000E94D01B61E080E00E9443128091F50377
:101B4000823001F564E672E087E395E00E94D01BE5
:101B500065E072E087E395E00E94D01B60EE72E0E2
:101B600087E395E00E94D01B62E087E395E00E9446
:101B7000270A62E672E087E395E00E94D01B69EBDA
:101B800071E01FC06AE572E087E395E00E94D01B18
:101B900065E072E087E395E00E94D01B60EE72E0A2
:101BA00087E395E00E94D01B61E087E395E00E9407
:101BB000270A62E672E087E395E00E94D01B60EBA3
:101BC00071E087E395E00E94D01B68ED72E087E347
:101BD00095E00E94D01B8AE090E051C160E080E077
:101BE0000E94431269E472E087E395E00E94D01BF3
:101BF00061E080E00E9443126FED71E087E395E0C1
:101C00000E94D01B61E080E00E9443128091030299
:101C1000909104020E94251561E082E00E94431227
:101C20006FE273E087E395E00E94D01B8091010290
:101C3000909102020E9425156FED71E087E395E017
:101C40000E94D01B61E085E00E9443126FE273E0C6
:101C500087E395E00E94D01B8091FF0190910002E4
:101C60000E9425156FED71E087E395E00E94D01B7F
:101C700061E08BE00E9443128091F3039091F403A2
:101C80000E94251561E08DE00E94431268E773E031
:101C900087E395E00E94D01B8091F1039091F203BD
:101CA0000E9425156FED71E087E395E00E94D01B3F
:101CB0008BE090E09093D7018093D6011092F003CF
:101CC0001092EF038091EB03811106C061E081E087
:101CD0000E9443120E945D128091EB03813031F427
:101CE00061E084E00E9443120E945D128091EB0348
:101CF000823031F461E087E00E9443120E945D125D
:101D00008091EB03833031F461E08CE00E94431258
:101D10000E945D128091EB03843009F0BAC061E04B
:101D20008FE0B3C060E080E00E94431268E372E09D
:101D300087E395E00E94D01B61E080E00E9443129F
:101D40006EE971E087E395E00E94D01B65E072E0E8
:101D500087E395E00E94D01B60EE72E087E395E098
:101D60000E94D01B62E087E395E00E94270A62E6AA
:101D700072E087E395E00E94D01B64E372E087E3A2
:101D800095E00E94D01B65E072E087E395E00E9439
:101D9000D01B61E087E395E00E94270A62E672E0CB
:101DA00087E395E00E94D01B61E372E087E395E052
:101DB0000E94D01B68ED72E087E395E00E94D01B83
:101DC0006FED71E087E395E00E94D01B8CE090E01E
:101DD00056C060E080E00E94431260E272E087E358
:101DE00095E00E94D01B61E080E00E9443126EE902
:101DF00071E087E395E00E94D01B65E072E087E325
:101E000095E00E94D01B60EE72E087E395E00E94AF
:101E1000D01B62E087E395E00E94270A62E672E049
:101E200087E395E00E94D01B64E372E087E395E0CE
:101E30000E94D01B65E072E087E395E00E94D01B12
:101E400061E087E395E00E94270A62E672E087E39B
:101E500095E00E94D01B61E372E087E395E00E9469
:101E6000D01B68ED72E087E395E00E94D01B6FED18
:101E700071E087E395E00E94D01B8DE090E09093A5
:101E8000D7018093D60161E080E00E9443120C9458
:101E90005D120895CF9382E090E00E945A1D8093D6
:101EA0001A0483E090E00E945A1D8093190484E094
:101EB00090E00E945A1D8093EE0385E090E00E941E
:101EC0005A1D8093180486E090E00E945A1D80936A
:101ED000170487E090E00E945A1D8093ED0388E08C
:101EE00090E00E945A1D8093160489E090E00E94C1
:101EF0005A1D809315048AE090E00E945A1D809339
:101F0000EC038BE090E00E945A1D80930C048CE05F
:101F100090E00E945A1D80930B048DE090E00E9497
:101F20005A1D80930A048EE090E00E945A1DC82F2B
:101F30008FE090E00E945A1D90E0A0E0B0E0BA2F40
:101F4000A92F982F88278C0F911DA11DB11D80935B
:101F5000800590938105A0938205B093830580E16D
:101F600090E00E945A1D8093F50381E190E00E9469
:101F70005A1DC82F82E190E00E945A1D90E0A0E017
:101F8000B0E0BA2FA92F982F88278C0F911DA11D83
:101F9000B11D80937C0590937D05A0937E05B09341
:101FA0007F0584E190E00E945A1D8093FE0185E147
:101FB00090E00E945A1D8093FD0186E190E00E940E
:101FC0005A1D8093FC0187E190E00E945A1D809386
:101FD000FB0188E190E00E945A1D8093FA0189E19B
:101FE00090E00E945A1D8093F9018AE190E00E94DE
:101FF0005A1D8093F80184EA91E0CF910C94DC1291
:10200000CF92DF92EF92FF92CF93DF93EC016A01C0
:102010007B01642F0E94581D9927F7FC9A958F2DFC
:102020007E2D6D2DCE010196DF91CF91FF90EF9027
:10203000DF90CF900C94581D0E944A0F80911A0493
:10204000883138F066E082E090E00E94581D81E01F
:1020500001C080E0909119049C3330F060E083E08F
:1020600090E00E94581D81E09091EE039550963FBC
:1020700030F06EE184E090E00E94581D81E0909184
:102080001804983130F062E185E090E00E94581D1C
:1020900081E0909117049C3330F060E086E090E09E
:1020A0000E94581D81E09091ED039550963F30F0CD
:1020B0006EE187E090E00E94581D81E09091160447
:1020C000983130F069E088E090E00E94581D81E08E
:1020D000909115049C3330F060E089E090E00E941C
:1020E000581D81E09091EC039550963F30F06EE1E1
:1020F0008AE090E00E94581D81E090910C049B3F83
:1021000030F065E08BE090E00E94581D81E09091F6
:102110000B049B3F30F064E18CE090E00E94581D7E
:1021200081E090910A049150923030F061E08DE0AE
:1021300090E00E94581D81E04091800550918105FA
:10214000609182057091830549355B416105710598
:1021500040F040E050E0BA018EE090E00E940010B4
:1021600081E09091F5039150923030F061E080E190
:1021700090E00E94581D81E040917C0550917D05C2
:1021800060917E0570917F054536510561057105A9
:1021900040F040E050E0BA0181E190E00E94001080
:1021A00081E09091FE01933010F4913031F462E0BF
:1021B00084E190E00E94581D81E09091FD019330F0
:1021C00010F4913031F462E085E190E00E94581DF6
:1021D00081E09091FC01933010F4913031F462E091
:1021E00086E190E00E94581D81E09091FB019330C0
:1021F00010F4913031F462E087E190E00E94581DC4
:1022000081E09091FA01933010F4913031F462E062
:1022100088E190E00E94581D81E09091F90193308F
:1022200010F4913031F462E089E190E00E94581D91
:1022300081E09091F801933010F4913031F462E034
:102240008AE190E00E94581D01C081110C944A0F50
:1022500008953FB7F89480913D0490913E04A09179
:102260003F04B091400426B5A89B05C02F3F19F04C
:102270000196A11DB11D3FBFBA2FA92F982F882706
:10228000820F911DA11DB11DBC01CD0142E0660F61
:10229000771F881F991F4A95D1F70895282F3091ED
:1022A0008E04313208F04AC080918D048111FCCF38
:1022B0009091860442E040938D0420938C042FEF8C
:1022C000209364041092630430936204E6E6F4E021
:1022D000A2E4B4E020E0321721F041914D932F5F4A
:1022E000FACF1092410420914104990F922B9093C0
:1022F000410490918B04913061F410928B04909181
:1023000041049093BB009091BC0093FDF8CF95ECF5
:1023100001C095EE9093BC0090918D049230E1F352
:10232000909164049F3F79F080916404803241F081
:1023300080916404803331F084E005C081E003C003
:1023400082E001C083E010928F0410928E041092FC
:1023500065040895AF92BF92CF92DF92EF92FF9201
:102360000F931F93CF93DF93EC018B018091540562
:10237000909155050E94A1078823A1F1BE0180918B
:102380005405909155050E945E0740E06EEB8091E8
:102390005405909155050E942A07E801680189E0DB
:1023A000C80ED11CA0905405B090550588E0E82EC9
:1023B000F12C10E001E0C5010E947D078111102B76
:1023C000000F81E0E81AF108B1F71993CC16DD0689
:1023D00049F780915405909155050E94A10791E01D
:1023E000813009F090E0892FDF91CF911F910F91FB
:1023F000FF90EF90DF90CF90BF90AF900895CF9374
:10240000DF93CDB7DEB729970FB6F894DEBF0FBEC6
:10241000CDBFBE016F5F7F4F0E94AA11882341F09C
:1024200068E0CE0101960E941D079985891711F079
:1024300080E012C08D818F3311F48AE00DC08034AA
:1024400020F48F31A9F789E007C08F3521F08F374D
:1024500079F78CE001C08BE029960FB6F894DEBFC7
:102460000FBECDBFDF91CF91089540E0682F87E385
:1024700095E00C94C80981E00E9435128BE39FE13E
:102480000197F1F70895643008F063E090914A05F0
:10249000691710F06FEF690FE62FF0E0E95CFA4F73
:1024A0009489890F80680C943512E7E3F5E0808900
:1024B0008E7F808B88600C943512E7E3F5E080898D
:1024C000982F9160908B89600C9435120F931F9315
:1024D000CF93DF938B01877028E0829FC001112486
:1024E00080640E943512E801085F1F4F699187E3FD
:1024F00095E00E94270AC017D107C1F7DF91CF915D
:102500001F910F91089567EC73E082E994E00C94B9
:10251000961ACF92DF92EF92FF920F931F93CF9371
:10252000DF9377FF1DC06A017B01EC016DE20E9421
:102530006B1A8C0144275527BA014C195D096E09A5
:102540007F092AE0CE010E94AB1A800F911FDF9114
:10255000CF911F910F91FF90EF90DF90CF90089552
:102560002AE0DF91CF911F910F91FF90EF90DF90C4
:10257000CF900C94AB1ACF93DF93AC01990F660BFD
:10258000770B82E994E00E948912EC010E94831289
:102590008C0F9D1FDF91CF910895CF93DF93BC01E6
:1025A00082E994E00E94961AEC010E9483128C0F3B
:1025B0009D1FDF91CF910895CF93DF93BC0182E9F6
:1025C00094E00E94721AEC010E9483128C0F9D1FEE
:1025D000DF91CF910895462F50E060E070E02AE04F
:1025E0000C94AB1ACF93DF93682F82E994E00E949A
:1025F000EB12EC010E9483128C0F9D1FDF91CF9193
:10260000089590E0FC01E653FE4F2491FC01E45054
:10261000FE4F3491FC01E851FE4FE491EE2309F4A2
:102620003CC0222339F1233091F038F42130A9F055
:10263000223001F584B58F7D12C0273091F028300B
:10264000A1F02430B9F4809180008F7D03C0809187
:1026500080008F77809380000DC084B58F7784BD14
:1026600009C08091B0008F7703C08091B0008F7D4A
:102670008093B000F0E0EE0FFF1FE054FE4FA591F5
:10268000B4919FB7F894611104C08C9130953823B0
:1026900002C0EC913E2B3C939FBF08951092910491
:1026A0001092900410928F0410928E0410928D0458
:1026B00081E080938C0410928B0461E082E10E949F
:1026C000011361E083E10E940113E9EBF0E08081F6
:1026D0008E7F808380818D7F808388E48093B800A3
:1026E00085E48093BC008FED99E190938A048093F8
:1026F000890480EE99E1909388048093870408957B
:10270000CF93DF93823028F09091460598609093A4
:10271000460580934A0510924B0580E480934C0552
:1027200080E180934D0580E580934E058BE39DE02D
:102730000197F1F760E080913B050E94011360E092
:1027400080913D050E94011380913C058F3F19F057
:1027500060E00E9401138091460584FD20C063E083
:1027600087E395E00E949109CBE4D6E4CE0101977E
:10277000F1F763E087E395E00E9491092197F1F773
:1027800063E087E395E00E94910983E592E0019779
:10279000F1F762E087E395E00E94910915C080623D
:1027A0000E9435128BE496E40197F1F7809146057B
:1027B00080620E94351283E592E00197F1F78091E3
:1027C000460580620E9435128091460580620E9413
:1027D000351284E0809347058CE00E9435120E94F8
:1027E0003B1282E08093480586E0DF91CF910C9404
:1027F0003512CF93DF9390E0FC01E450FE4F24911B
:10280000FC01E851FE4F8491882361F190E0880F2C
:10281000991FFC01EA54FE4FC591D491FC01E0548C
:10282000FE4FA591B491611109C09FB7F8948881BA
:10283000209582238883EC912E230BC0623061F4B3
:102840009FB7F8948881322F309583238883EC9149
:102850002E2B2C939FBF06C08FB7F894E8812E2BA8
:1028600028838FBFDF91CF9108958F929F92AF926F
:10287000BF92CF92DF92EF92FF926B017C010E9498
:1028800029114B015C01C114D104E104F104F1F000
:102890000E942911DC01CB0188199909AA09BB09F9
:1028A000883E9340A105B10570F321E0C21AD1081A
:1028B000E108F10888EE880E83E0981EA11CB11C87
:1028C000C114D104E104F10419F7DDCFFF90EF90BA
:1028D000DF90CF90BF90AF909F908F9008952FB7CB
:1028E000F8946091390470913A0480913B0490917E
:1028F0003C042FBF0895CF93DF93EC010A9728F48F
:1029000060E382E994E00E943419AE01DD0F660BAA
:10291000770B82E994E0DF91CF910C94891289E2E0
:1029200093E00C94CD120E94A8030E94C706E09188
:10293000E5038E2F90E0FC013197E730F105D8F4E4
:10294000E65BFF4F81E00C94032F9091F80111C0DA
:102950009091FE010EC09091FD010BC09091FC0181
:1029600008C09091FB0105C09091FA0102C09091BE
:10297000F901923009F080E00895CF93DF93CDB74D
:10298000DEB727970FB6F894DEBF0FBECDBF8BE141
:1029900093E00E94CD1282E00E9435128BE39FE10A
:1029A0000197F1F76BE173E087E395E00E94D01B9C
:1029B0006FED71E087E395E00E94D01B61E080E05D
:1029C0000E9443126FED71E087E395E00E94D01BF7
:1029D0008091FF01909100026091010250910302E9
:1029E0002091EF033091F1034091F3038436910578
:1029F0001CF0825B974001C04E968093E803609381
:102A0000E7035093E6034093E4033093E3032093FA
:102A1000E20382EE93E00E943A040E9475030E9452
:102A2000A803AE014F5F5F4F0E94E2058981806875
:102A30008983CE0101960E94B02A89818F7789838C
:102A4000CE0101960E94B02AFFCFCF93DF93EC0115
:102A50000A9730F461E073E087E395E00E94721A10
:102A6000AE01DD0F660B770B87E395E0DF91CF9129
:102A70000C9489120E94FD060E9425156FE273E0F6
:102A800087E395E00E94D01B0E94F5060E94251561
:102A90006FE273E087E395E00E94D01B0E94EB0693
:102AA000AC01990F660B770B87E395E00E948912C2
:102AB00065E072E087E395E00E94D01B65E072E07C
:102AC00087E395E00E94D01B60E08BE00E944312F8
:102AD0000E9415070E94251568E773E087E395E0DB
:102AE0000E94D01B0E940D070E94251565E072E030
:102AF00087E395E00C94D01B60E080E00E944312D5
:102B000063EF72E087E395E00E94721A61E080E073
:102B10000E9443126CE073E087E395E00E94D01BB3
:102B20008CED92E00E94DC1281ED92E00E94DC12BA
:102B30008DEB92E00E94DC1289EA92E00E94DC12A6
:102B400085E992E00E94DC128EE792E00E94DC129E
:102B50008EE692E00E94DC1280E692E00E94DC1297
:102B60008DE492E00E94DC128CE392E00E94DC1281
:102B700087E292E00E94DC1280E192E00E94DC1287
:102B800060ED77E080E090E00C943514CF93DF9314
:102B900082E994E00E94FC18181619060CF0CEC2C7
:102BA00082E994E00E94DA18EC018134910519F46D
:102BB0000E94A702BBC08234910519F40E946202F0
:102BC00060C28334910519F40E941D026DC28434E1
:102BD000910509F086C060E873E082E994E00E9404
:102BE000D01B65E473E082E994E00E94721A0E94AF
:102BF0001F2C90E0909300028093FF010E941F2CF5
:102C000090E0909300028093FF010E94BB1260E865
:102C100073E082E994E00E94D01B69E373E082E9EB
:102C200094E00E94721A0E941F2C90E0909304027C
:102C3000809303020E94BB1260E873E082E994E093
:102C40000E94D01B6DE273E082E994E00E94721A48
:102C50000E941F2C90E090930202809301020E9438
:102C6000BB1260E873E082E994E00E94D01B61E24D
:102C700073E082E994E00E94721A0E941F2C90E097
:102C80009093F4038093F3030E94BB1260E873E017
:102C900082E994E00E94D01B65E173E082E994E050
:102CA0000E94721A0E941F2C90E09093F20380936E
:102CB000F1030E94BB1260E873E082E994E00E9495
:102CC000D01B69E073E082E994E00E94721A0E94CE
:102CD0001F2C90E09093F0038093EF030E94BB12AF
:102CE00023C08534910511F50E94322B0E941C10DF
:102CF0001092F0031092EF031092F2031092F1037E
:102D00001092F4031092F30381E090E09093040298
:102D100080930302909302028093010282E190E08B
:102D2000909300028093FF010E94BD14C634D10528
:102D300009F089C10E944A0F6CE773E082E994E0D0
:102D40000E94D01B6AE773E082E994E00E94D01BE6
:102D500065E072E082E994E00E94D01B60911A0461
:102D600082E994E00E94EB1268E773E082E994E064
:102D70000E94D01B6091190482E994E00E94EB123A
:102D800067E073E082E994E00E94721A8091EE039A
:102D90000E94F2126CE773E082E994E00E94D01B7B
:102DA00066E773E082E994E00E94D01B65E072E080
:102DB00082E994E00E94D01B6091180482E994E0BB
:102DC0000E94EB1268E773E082E994E00E94D01B56
:102DD0006091170482E994E00E94EB1265E073E0D1
:102DE00082E994E00E94721A8091ED030E94F2122F
:102DF0006CE773E082E994E00E94D01B64E773E023
:102E000082E994E00E94D01B65E072E082E994E0E0
:102E10000E94D01B6091160482E994E00E94EB129C
:102E200068E773E082E994E00E94D01B609115048A
:102E300082E994E00E94EB1263E073E082E994E09F
:102E40000E94721A8091EC030E94F21267E072E015
:102E500082E994E00E94D01B65E072E082E994E090
:102E60000E94D01B60EB71E082E994E00E94D01BCD
:102E700065E072E082E994E00E94D01B80910C042E
:102E80000E94F21267E072E082E994E00E94D01B97
:102E900065E072E082E994E00E94D01B69EB71E08A
:102EA00082E994E00E94D01B65E072E082E994E040
:102EB0000E94D01B80910B040E94F21263E673E023
:102EC00082E994E00E94D01B65E072E082E994E020
:102ED0000E94D01B80910A040E94F21263E573E005
:102EE00082E994E00E94D01B65E072E082E994E000
:102EF0000E94D01B40918005509181056091820510
:102F00007091830582E994E00E9489120E948312E5
:102F100062E473E082E994E00E94D01B65E072E015
:102F200082E994E00E94D01B8091F5030E94F21286
:102F300061E373E082E994E00E94D01B65E072E0F7
:102F400082E994E00E94D01B40917C0550917D0560
:102F500060917E0570917F0582E994E00E9489125C
:102F60000E94831260E471E082E994E00E94D01B29
:102F700065E072E082E994E00E94D01B8091FE013E
:102F80000E94F2126BE371E082E994E00E94D01B90
:102F900065E072E082E994E00E94D01B8091FD011F
:102FA0000E94F21268E371E082E994E00E94D01B73
:102FB00065E072E082E994E00E94D01B8091FC0100
:102FC0000E94F21265E371E082E994E00E94D01B56
:102FD00065E072E082E994E00E94D01B8091FB01E1
:102FE0000E94F21262E371E082E994E00E94D01B39
:102FF00065E072E082E994E00E94D01B8091FA01C2
:103000000E94F2126FE271E082E994E00E94D01B0C
:1030100065E072E082E994E00E94D01B8091F901A2
:103020000E94F2126CE271E082E994E00E94D01BEF
:1030300065E072E082E994E00E94D01B8091F80183
:103040000E94F21275C0C734D105D9F40E946008FD
:103050004091F7035091F8036091F9037091FA03DE
:1030600022E082E994E00E94F41A65E072E082E9CD
:1030700094E00E94D01B8091F603DF91CF910C94D5
:10308000F212C834D10581F40E9460084091060410
:1030900050910704609108047091090422E082E9CC
:1030A00094E00E94F41A40C0C934D10509F040C030
:1030B0000E9415070E947B1468E773E082E994E0A0
:1030C0000E94D01B0E940D070E947B1468E773E0EA
:1030D00082E994E00E94D01B0E9405070E947B14A5
:1030E00065E072E082E994E00E94D01B0E94FD0638
:1030F0000E947B146FE273E082E994E00E94D01B8F
:103100000E94F5060E947B146FE273E082E994E06E
:103110000E94D01B0E94EB06AC01990F660B770B47
:1031200082E994E00E948912DF91CF910C9483127E
:10313000EF9721F4DF91CF910C947C15DF91CF9123
:103140000895CF92DF92EF92FF920F931F93CF9348
:10315000DF936C017A018B01C0E0D0E0CE15DF0572
:1031600081F0D8016D918D01D601ED91FC91019016
:10317000F081E02DC6010995892B11F02196EECF43
:103180007E01C701DF91CF911F910F91FF90EF90CA
:10319000DF90CF900895FC01538D448D252F30E0B2
:1031A000842F90E0821B930B541710F0CF96089554
:1031B00001970895FC01918D828D981761F0828DA1
:1031C000DF01A80FB11D5D968C91928D9F5F9F735B
:1031D000928F90E008958FEF9FEF0895FC01918DFD
:1031E000828D981731F0828DE80FF11D858D90E06A
:1031F00008958FEF9FEF0895FC01918D228D892F07
:1032000090E0805C9F4F821B91098F7399270895EE
:1032100082E994E00E94FC1821E0892B09F420E067
:10322000822F0895FC01848DDF01A80FB11DA35AE0
:10323000BF4F2C91848D90E001968F739927848FD6
:10324000A689B7892C93A089B1898C9183708064F9
:103250008C93938D848D981306C00288F389E02D9A
:1032600080818F7D80830895EF92FF920F931F934B
:10327000CF93DF93EC0181E0888F9B8D8C8D981329
:1032800005C0E889F989808185FD26C0F62E0B8D61
:1032900010E00F5F1F4F0F731127E02E8C8DE81287
:1032A0000CC00FB607FCFACFE889F989808185FF49
:1032B000F5CFCE010E941219F1CF8B8DFE01E80FE0
:1032C000F11DE35AFF4FF0829FB7F8940B8FEA8904
:1032D000FB89808180620AC09FB7F894EE89FF89DC
:1032E0006083E889F98980818370806480839FBFCF
:1032F00081E090E0DF91CF911F910F91FF90EF90CF
:103300000895CF93DF93EC01888D8823C9F0EA8973
:10331000FB89808185FD05C0A889B9898C9186FDCE
:103320000FC00FB607FCF5CF808185FFF2CFA889CB
:10333000B9898C9185FFEDCFCE010E941219E7CF9C
:10334000DF91CF91089580E090E0892B29F00E94D1
:10335000081981110C940000089585ED8093BC003C
:103360008091BC0084FDFCCF10928D0408954091A3
:10337000C405262F30E0240F311D21323105DCF445
:1033800020918D042430C9F4FC0180E090E0861780
:1033900058F43091C4052191DC01AC55BA4FA30F0C
:1033A000B11D2C930196F3CF8091C405680F6093F3
:1033B000C40580E0089581E0089582E008950895AD
:1033C00008950895E091910480919004E81730F4F5
:1033D000F0E0EC57FA4F808190E008958FEF9FEF77
:1033E00008959091910480919004981750F4E92FDA
:1033F000F0E0EC57FA4F208130E09F5F909391040A
:1034000002C02FEF3FEFC90108958091900490E032
:1034100020919104821B91090895CF92DF92EF923F
:10342000FF920F931F93CF93DF937C01CB018A010F
:1034300020916504222389F0EB016B01C40ED51E97
:10344000CC15DD0569F06991D701ED91FC910190F2
:10345000F081E02DC7010995F3CF642F0E94B719C1
:10346000C801DF91CF911F910F91FF90EF90DF90F6
:10347000CF900895CF93DF931F92CDB7DEB76983C6
:10348000209165042223D1F020918E04203240F057
:1034900021E030E0FC013383228380E090E015C01E
:1034A00080918F04E82FF0E0EA59FB4F99819083D7
:1034B0008F5F80938F0480938E0405C061E0CE01FE
:1034C00001960E94B71981E090E00F90DF91CF91B3
:1034D00008950E943F2FDC01ED91FC910190F08155
:1034E000E02D0994EF92FF920F931F93CF93DF93F8
:1034F0008C017B01C0E0D0E0F701EC0FFD1F64916F
:10350000662361F0D801ED91FC910190F081E02DEE
:10351000C8010995892B11F02196EECFCE01DF91DC
:10352000CF911F910F91FF90EF9008956115710554
:1035300079F0FB0101900020E9F73197AF01461BBC
:10354000570BDC01ED91FC910280F381E02D099491
:1035500080E090E008958F929F92AF92BF92EF9299
:10356000FF920F931F93CF93DF93CDB7DEB7A19751
:103570000FB6F894DEBF0FBECDBF7C01FA01CB01C0
:1035800019A2223008F42AE08E010F5D1F4F822E0F
:10359000912CA12CB12CBF01A50194010E94C22E37
:1035A000F901CA01015011096A3014F4605D01C0CB
:1035B000695CD8016C93232B242B252B61F7B80170
:1035C000C7010E94961AA1960FB6F894DEBF0FBEEF
:1035D000CDBFDF91CF911F910F91FF90EF90BF90E2
:1035E000AF909F908F9008957F928F929F92AF920D
:1035F000BF92CF92DF92EF92FF920F931F93CF93E0
:10360000DF938C016A017B01722E9A01AB01C70125
:10361000B6010E949D2E882319F06AEC73E027C042
:1036200046015701E894B7F82FEF3FEF4FE75FE708
:10363000C501B4010E949D2E81110DC02FEF3FEFF7
:103640004FE75FE7C501B4010E94CC2C18161CF4AB
:103650006EEC73E00CC02FEF3FEF4FE75FE4C70164
:10366000B6010E942B2E181694F462ED73E0C80187
:10367000DF91CF911F910F91FF90EF90DF90CF904E
:10368000BF90AF909F908F907F900C94961A2FEFE1
:103690003FEF4FE75FECC701B6010E94CC2C87FDDE
:1036A000E4CF20E030E0A901C701B6010E94CC2C94
:1036B00087FF0AC06DE2C8010E946B1AEC01F7FA9D
:1036C000F094F7F8F09402C0C0E0D0E0B12C60E0D4
:1036D00070E080E09FE37B1441F020E030E040E2C6
:1036E00051E40E94D12CB394F6CFA70196010E9419
:1036F000602C6B017C010E944A2D4B015C012AE089
:10370000AB01BC01C8010E94AB1AC80FD91F7720BA
:10371000C1F1C501B4010E94792D9B01AC01C70123
:10372000B6010E945F2C6B017C016EE2C8010E9411
:103730006B1AC80FD91F20E030E040E251E4C70106
:10374000B6010E94302E4B015C010E944A2D6B0194
:10375000E12CF12C2AE0B701A601C8010E94AB1AA6
:10376000C80FD91FC701B6010E94792D9B01AC017A
:10377000C501B4010E945F2C6B017C017A94711029
:10378000DACFCE01DF91CF911F910F91FF90EF9093
:10379000DF90CF90BF90AF909F908F907F900895D3
:1037A0000C94961A1F920F920FB60F9211242F931A
:1037B0003F934F935F936F937F938F939F93AF93B9
:1037C000BF93EF93FF9382E994E00E941219FF9157
:1037D000EF91BF91AF919F918F917F916F915F9189
:1037E0004F913F912F910F900FBE0F901F90189502
:1037F0001F920F920FB60F9211242F938F939F93C6
:10380000EF93FF93E091A204F091A3048081E091F3
:10381000A804F091A90482FD12C090818091AB04AC
:103820008F5F8F732091AC04821751F0E091AB044D
:10383000F0E0EE56FB4F958F8093AB0401C0808182
:10384000FF91EF919F918F912F910F900FBE0F904D
:103850001F9018951F920F920FB60F9211242F935D
:103860003F934F935F936F937F938F939F93AF9308
:10387000BF93EF93FF938091B900887F803609F45E
:103880009CC068F5883209F45BC090F4803109F47B
:1038900054C038F4882309F4F6C0883009F44DC0C8
:1038A000F6C0883109F44CC0803209F45DC0EFC025
:1038B000803409F468C048F4803309F455C0883373
:1038C00009F0E5C080936404D8C0803509F44FC086
:1038D000883509F45DC0883409F0D9C0D6C088396C
:1038E00009F4C7C0A8F4883709F467C038F48836EB
:1038F00009F463C0803709F460C0C9C0883809F48E
:10390000B8C0803909F45FC0803809F0C0C05BC01E
:10391000803B09F486C038F4803A09F466C0883ADE
:1039200009F47FC0B4C0803C09F4A7C0883C09F406
:10393000A4C0883B09F48AC0AAC08091410410C089
:103940009091630480916204981770F5E09163048C
:1039500081E08E0F80936304F0E0EE5BFB4F80818B
:103960008093BB0085EC86C0809364048EC0E09198
:10397000630481E08E0F809363048091BB00F0E0CC
:10398000EE5BFB4F808390916304809162046EC074
:10399000E091630481E08E0F809363048091BB000B
:1039A000F0E0EE5BFB4F808380918C0481116DC051
:1039B00081E080938B0484EA61C083E080938D046E
:1039C0001092E605CFCF8091E605803208F051C015
:1039D000E091E60581E08E0F8093E6058091BB00C3
:1039E000F0E0EA53FA4F8083BDCF85EC8093BC00B2
:1039F00010928D048091E605803230F4E091E60566
:103A0000F0E0EA53FA4F10826091E60570E0E09131
:103A10008704F091880486EC95E009951092E605FC
:103A200036C084E080938D041092C5051092C405C1
:103A3000E0918904F0918A0409958091C40581116F
:103A400005C081E08093C4051092A405E091C505EE
:103A500081E08E0F8093C505F0E0EC55FA4F808130
:103A60008093BB009091C5058091C405981708F418
:103A700079CF85E88093BC000AC085EC8093BC00B8
:103A800010928D0404C0109264040E94AD19FF913D
:103A9000EF91BF91AF919F918F917F916F915F91C6
:103AA0004F913F912F910F900FBE0F901F9018953F
:103AB0000C94512C0C94492C1F920F920FB60F921C
:103AC00011242F933F938F939F93AF93BF93809134
:103AD000390490913A04A0913B04B0913C04309198
:103AE000E70523E0230F2D3720F40196A11DB11D1A
:103AF00005C026E8230F0296A11DB11D2093E705FE
:103B00008093390490933A04A0933B04B0933C040F
:103B100080913D0490913E04A0913F04B0914004F7
:103B20000196A11DB11D80933D0490933E04A09386
:103B30003F04B0934004BF91AF919F918F913F910B
:103B40002F910F900FBE0F901F901895CF93DF937A
:103B5000CDB7DEB769970FB6F894DEBF0FBECDBF05
:103B6000789484B5826084BD84B5816084BD85B558
:103B7000826085BD85B5816085BD80916E00816064
:103B800080936E001092810080918100826080930A
:103B9000810080918100816080938100809180000C
:103BA0008160809380008091B10084608093B10037
:103BB0008091B00081608093B00080917A00846031
:103BC00080937A0080917A00826080937A0080915D
:103BD0007A00816080937A0080917A008068809377
:103BE0007A001092C100E091A204F091A30482E057
:103BF0008083E0919E04F0919F041082E091A004E4
:103C0000F091A10480E180831092AA04E091A604BF
:103C1000F091A70486E08083E091A404F091A504CC
:103C2000808180618083E091A404F091A50480816B
:103C300088608083E091A404F091A504808180686D
:103C40008083E091A404F091A50480818F7D80831E
:103C500064EF71E080E090E00E9435140E944E1302
:103C600082E00E9480130E943B1260E171E080E0DC
:103C70000E94661268E071E081E00E94661260E0D6
:103C800071E082E00E94661261E081E10E94F91316
:103C900060E081E10E94011360E085E00E94F91379
:103CA00061E08AE00E94F91361E08AE00E9401135A
:103CB0000E941C100E947C1582E095E09093D7032F
:103CC0008093D6038091DC039091DD03A091DE0305
:103CD000B091DF038093D8039093D903A093DA03C4
:103CE000B093DB030E94A8038CE291E0A0E0B0E077
:103CF0008093180190931901A0931A01B0931B01AE
:103D00008091DC039091DD03A091DE03B091DF038D
:103D1000845D9E4FAF4FBF4F8093D8039093D903DC
:103D2000A093DA03B093DB030E94A8038091E00321
:103D30009091E1030297F9F00E943B126CE171E06F
:103D400087E395E00E94D01B8CE191E00E94CD12A8
:103D500060EA7FE080E090E00E94351481E080938B
:103D60001B048BE090E09093EA038093E9031092A8
:103D7000EB030E942D0A0E94C615E0915405F091B4
:103D80005505138615861486DF011B9633961E9201
:103D9000EA17FB07E1F71092530501E0BE01665FE9
:103DA0007F4F80915405909155050E94D807882334
:103DB00009F45BC067E0CE010A960E941D0799894D
:103DC0008913ECCF80914F05811127C08091540554
:103DD000909155050E94A107BE01665F7F4F8091BB
:103DE0005405909155050E945E0740E064EB809178
:103DF0005405909155050E942A0780915405909191
:103E000055050E947D07182F809154059091550506
:103E10000E94A107112309F48FC5BE016F5F7F4F78
:103E2000CE010A960E94AA11109150058A85803110
:103E300011F40C94AA2ACE010A960E94FF11811750
:103E400018F48091500509C08A85803111F48CE006
:103E500004C0CE010A960E94FF1180935005809104
:103E600053058F5F8093530599CF0E94600898E2B5
:103E700088E10FB6F894A895809360000FBE9093E8
:103E80006000A89588EEC82E83E0D82E22242394C3
:103E9000312C80911B048111C5C2809122048111B3
:103EA0002AC208EB802E0BE0902E9092BE018092E9
:103EB000BD010E946F1400911E0410911F042091F7
:103EC000200430912104DC01CB01801B910BA20B5B
:103ED000B30B883B9B40A105B10508F4A3C20E9427
:103EE0006F1460931E0470931F04809320049093BA
:103EF000210480911C0490911D04019690931D044F
:103F000080931C048130910509F444C01CF4892B72
:103F100049F088C28230910509F4B5C0039709F4CD
:103F200022C180C260E080E00E9443120E943A15E4
:103F300061E080E00E944312409006045090070424
:103F4000609008047090090420E030E048EC52ECE6
:103F5000C301B2010E942B2E18169CF421E0B3017C
:103F6000A20187E395E00E94F41A60E087E395E000
:103F70000E94270A62EA70E087E395E00E94721AC5
:103F80004BC260EA71E087E395E00E94D01B6EE9C6
:103F900071E03EC261E080E00E94431220E030E028
:103FA000A9016091F7037091F8038091F903909152
:103FB000FA030E94CC2C81110FC060EA71E087E304
:103FC00095E00E94D01B6EE971E087E395E00E94C6
:103FD000D01B6FED71E00EC06091F60387E395E0B2
:103FE0000E94EB126CE971E087E395E00E94D01B20
:103FF00065E072E087E395E00E94D01B4090F703F4
:104000005090F8036090F9037090FA0320E030E0DC
:104010004AE754E4C301B2010E94CC2C87FF11C0CF
:1040200020E030E0A901C301B2010E942B2E181636
:1040300044F422E0B301A20187E395E00E94F41A60
:1040400015C020E030E04AE754E4C301B2010E9409
:10405000D12CAB01BC0122E087E395E00E94F41A69
:1040600068E971E087E395E00E94D01B6FED71E095
:1040700087E395E00E94D01B60E080E00E9443123D
:104080000E943A15CFC160E080E00E9443120E9476
:104090003A1561E080E00E9443120E94A8030E944A
:1040A000C706E091E5038E2F90E0FC013197E730E1
:1040B000F10508F055C0EC5CFF4F60E971E087E363
:1040C00095E00C94032F0E94D01B65E072E087E31B
:1040D00095E00E94D01B69E871E09AC10E94D01B54
:1040E00065E072E087E395E00E94D01B61E871E033
:1040F0008FC10E94D01B65E072E087E395E00E94CB
:10410000D01B6BE771E084C10E94D01B65E072E0B8
:1041100087E395E00E94D01B64E771E079C10E94BB
:10412000D01B65E072E087E395E00E94D01B6CE64F
:1041300071E06EC10E94D01B65E072E087E395E0FC
:104140000E94D01B66E671E063C10E94D01B65E04F
:1041500072E087E395E00E94D01B6FE571E058C1E3
:1041600064E571E055C160E080E00E94431263E4C1
:1041700071E087E395E00E94D01B6FED71E087E36B
:1041800095E00E94D01B61E08EE00E9443126FED2B
:1041900071E087E395E00E94D01B61E080E00E941F
:1041A00043128091FE01823019F460E471E008C08E
:1041B0006EE371E087E395E00E94D01B6EE371E04F
:1041C00087E395E00E94D01B61E082E00E944312E9
:1041D0008091FD01823019F46BE371E008C06EE359
:1041E00071E087E395E00E94D01B6EE371E087E306
:1041F00095E00E94D01B61E084E00E944312809110
:10420000FC01823019F468E371E008C06EE371E0EC
:1042100087E395E00E94D01B6EE371E087E395E0B1
:104220000E94D01B61E086E00E9443128091FB0156
:10423000823019F465E371E008C06EE371E087E352
:1042400095E00E94D01B6EE371E087E395E00E9449
:10425000D01B61E088E00E9443128091FA01823015
:1042600019F462E371E008C06EE371E087E395E062
:104270000E94D01B6EE371E087E395E00E94D01BA3
:1042800061E08AE00E9443128091F901823019F4C2
:104290006FE271E008C06EE371E087E395E00E9491
:1042A000D01B6EE371E087E395E00E94D01B61E0D4
:1042B0008CE00E9443128091F801823019F46CE284
:1042C00071E008C06EE371E087E395E00E94D01BC7
:1042D0006EE371E087E395E00E94D01B6FED71E023
:1042E00087E395E00E94D01B2FEF3FEF30931D0432
:1042F00020931C0497C0D092BE01C092BD010E94C1
:104300006F1400911E0410911F042091200430911D
:104310002104DC01CB01801B910BA20BB30B883E67
:104320009340A105B10508F47DC00E946F1460930D
:104330001E0470931F04809320049093210460E076
:1043400080E00E94431267E072E087E395E00E94FC
:10435000D01B65E072E087E395E00E94D01B80915E
:104360001002882319F069EB71E002C060EB71E084
:1043700087E395E00E94D01B6FED71E087E395E045
:104380000E94D01B61E080E00E94431264EB71E068
:1043900087E395E00E94D01B65E072E087E395E03B
:1043A0000E94D01B4091110450911204609113049B
:1043B0007091140480910D0490910E04A0910F044B
:1043C000B0911004840F951FA61FB71F00913305ED
:1043D000109134052091350530913605BC01CD0191
:1043E000601B710B820B930B28EE33E040E050E032
:1043F0000E94C22EBA01A90187E395E00E948912AA
:1044000065E072E087E395E00E94D01B6CEA71E002
:1044100087E395E00E94D01B6FED71E087E395E0A4
:104420000E94D01B0E94C61540E440937C008091FE
:104430007A00806480937A0080917A0086FDFCCFB8
:10444000809178002091790090E0922B8233910541
:104450009CF0833C91050CF438C48C3751E09507EF
:104460000CF4A3C28B3202E090070CF49CC5863199
:1044700093400CF464C221C060E971E080E090E0F8
:104480000E94351488ED91E00E94CD128091D601F2
:104490009091D7018B30910509F4D2C585309105F3
:1044A00009F4C0C28330910509F4D2C58130910569
:1044B00009F4D4C5892B09F4D7C580912304882336
:1044C00009F4A2C060911A0482E090E00E94581D95
:1044D0006091190483E090E00E94581D6091EE0302
:1044E00084E090E00E94581D6091180485E090E0FF
:1044F0000E94581D6091170486E090E00E94581DAC
:104500006091ED0387E090E00E94581D60911604D1
:1045100088E090E00E94581D6091150489E090E0C9
:104520000E94581D6091EC038AE090E00E94581DA3
:1045300060910C048BE090E00E94581D60910B0488
:104540008CE090E00E94581D60910A048DE090E09C
:104550000E94581D6091F50380E190E00E94581D73
:104560006091FE0184E190E00E94581D6091FD0180
:1045700085E190E00E94581D6091FC0186E190E089
:104580000E94581D6091FB0187E190E00E94581D38
:104590006091FA0188E190E00E94581D6091F90154
:1045A00089E190E00E94581D6091F8018AE190E055
:1045B0000E94581D80EF91E00E94CD1210922304BA
:1045C0000E94551260E080E00E94431260EF71E0AB
:1045D00087E395E00E94D01B6FED71E087E395E0E3
:1045E0000E94D01B61E080E00E9443126FED71E0F9
:1045F00087E395E00E94D01B60ED77E080E090E0DB
:104600000E9435140E94BD1480911B04811190C139
:104610000E94FD0690930402809303020E94F50617
:1046200090930202809301020E94EB06805D974006
:10463000909300028093FF010E9415079093F4036A
:104640008093F3030E940D079093F2038093F1038C
:104650000E9405079093F0038093EF030E94600887
:104660006091F7037091F8038091F9039091FA0338
:104670000E94432D9B01AC01285833414109510947
:10468000ACE9BFEF0E94262F24EB3CEE4FEF5FEF2B
:104690000E94E42EDA01C9018C599F4FAF4FBF4FE2
:1046A000843608F084E68093F6030E9493148823EE
:1046B00039F18091F503823019F51091F603183223
:1046C00060F4809105048111D6C4809104048111A5
:1046D000D2C4809103048111CEC41091F60388EDF9
:1046E000810F843108F40FC51091F60384EC810F1B
:1046F000843108F451C51091F603103508F08FC5C8
:104700000E949314882309F459C080910A048230CE
:1047100009F054C0409006045090070460900804CB
:104720007090090420E030E040E252E4C301B2019D
:104730000E942B2E87FD0CC0809105048111ACC511
:10474000809104048111A8C5809103048111A4C53E
:10475000409006045090070460900804709009048B
:1047600020E030E040EF51E4C301B2010E942B2E63
:1047700087FFE2C54090060450900704609008044B
:104780007090090420E030E040EA51E4C301B20136
:104790000E942B2E87FF2DC64090060450900704E0
:1047A000609008047090090420E030E040EA50E492
:1047B000C301B2010E942B2E87FF72C68091220492
:1047C000882309F472C00E946F14609333057093BC
:1047D0003405809335059093360510911002612FB2
:1047E00081E10E9401138091330590913405A091DD
:1047F0003505B09136054091110450911204609135
:10480000130470911404841B950BA60BB70B4091F5
:104810000D0450910E0460910F04709110048417E0
:104820009507A607B70708F444C0112319F0209193
:104830000C0402C020910B042C9DC0012D9D900DF5
:104840001124092E000CAA0BBB0B80930D0490932E
:104850000E04A0930F04B093100467E072E082E9A5
:1048600094E00E94D01B65E072E082E994E00E942F
:10487000D01B8091100290E00E94BB129091100218
:1048800081E089278093100280913305909134054F
:10489000A0913505B09136058093110490931204D0
:1048A000A0931304B093140404C060E081E10E945B
:1048B00001130E94150720911A0430E08217930714
:1048C00069F40E940D072091190430E082179307C4
:1048D00029F40E940507892B09F433C60E941507A5
:1048E0002091180430E08217930769F40E940D07A5
:1048F0002091170430E08217930729F40E940507DE
:10490000892B09F421C60E9415072091160430E076
:104910008217930769F40E940D072091150430E077
:104920008217930729F40E940507892B09F40FC603
:10493000A8950E94A319ADCA00934F056ECA6FEBEC
:1049400071E082E994E00E94D01B8091E90390918C
:10495000EA030E94BB1281E080931B048091E9036B
:104960000E942D0A8091E9039091EA03823091051B
:1049700040F09C01277F2330310519F085309105E7
:1049800021F41092EB030E942D0A8091E90390918B
:10499000EA0301969093EA038093E90360E273E0EF
:1049A00080E090E00E94351488CD68EC70E080E0F3
:1049B00090E00E94351484EC91E00E94CD12809129
:1049C000D6019091D7019C012C503109223031053C
:1049D00088F410921B04109223040E9455128FEF4A
:1049E0009FEF9093D7018093D6011092EA03109223
:1049F000E90363CD8B30910509F081C08091EB0311
:104A0000811122C0809103029091040282309105AD
:104A1000ACF41FE1812E912C90920402809203024B
:104A20008BE009C08091EB038F3F09F4DFC281E086
:104A30008093EB0385E00E942D0A3FCD0197909370
:104A4000040280930302ECCF8130A9F4809101022B
:104A5000909102028230910544F4BCE0AB2EB12C5F
:104A6000B0920202A0920102DBCF01979093020262
:104A700080930102D5CF8230A9F48091FF019091FB
:104A800000028331910544F4A2E3EA2EF12CF09266
:104A90000002E092FF01C4CF01979093000280933F
:104AA000FF01BECF8330A1F48091F3039091F40312
:104AB000181619063CF007E110E01093F403009378
:104AC000F303AECF01979093F4038093F303A8CF41
:104AD000843009F0F2CC8091F1039091F203181622
:104AE00019063CF02BE330E03093F2032093F103FE
:104AF00097CF01979093F2038093F10391CF8A307F
:104B0000910551F48091F503813011F08AE093CF43
:104B100082E08093F503FACF8930910551F48091BA
:104B20000A04813011F089E086CF82E080930A0484
:104B3000FACF8830910559F480910B04811105C09A
:104B40008AEF80930B0488E076CF8150FACF8730CC
:104B5000910559F480910C04811105C08AEF80936E
:104B60000C0487E068CF8150FACF8630910559F464
:104B70008091EC03863028F48AEF8093EC0386E082
:104B80005ACF8550FACF85309105D9F48091EB0347
:104B900081110AC080911604811102C087E101C011
:104BA00081508093160446CF813009F086CC8091E5
:104BB0001504811102C08BE301C08150809315045C
:104BC00039CF8430910559F48091ED03863028F473
:104BD0008AEF8093ED0384E02ECF8550FACF8330A7
:104BE0009105E1F48091EB0381110BC080911804D1
:104BF000811102C087E101C081508093180483E0D5
:104C00001ACF813009F059CC80911704811102C06C
:104C10008BE301C0815080931704F1CF823091055E
:104C200059F48091EE03863028F48AEF8093EE03E6
:104C300082E001CF8550FACF81309105E1F4809177
:104C4000EB0381110BC080911A04811102C087E12E
:104C500001C0815080931A0481E0EDCE813009F0CB
:104C60002CCC80911904811102C08BE301C08150CA
:104C700080931904F1CF892B09F01FCC8091EB03AD
:104C8000811103C01092FE01D6CE813021F4109222
:104C9000FD0180E0D0CE823019F41092FC01F9CFF2
:104CA000833019F41092FB01F4CF843019F4109280
:104CB000FA01EFCF853019F41092F901EACF86306E
:104CC00009F0FBCB1092F801E4CF68EC70E080E0D3
:104CD00090E00E94351489EC91E00E94CD12809101
:104CE000D6019091D7018D30910551F481E08093E8
:104CF00023042FEF3FEF3093D7012093D60175CED9
:104D00008C30910539F58FEF9FEF9093D701809309
:104D1000D6010E94322B0E941C101092F0031092B8
:104D2000EF031092F2031092F1031092F403109229
:104D3000F30381E090E09093040280930302909348
:104D400002028093010282E190E09093000280933E
:104D5000FF0158CC8B30910509F055C08091EB03D1
:104D600081110EC080910302909104028F31910550
:104D70002CF0309204022092030252CE01965FCEB4
:104D8000813071F480910102909102028C30910582
:104D90002CF0309202022092010242CE019666CEA1
:104DA000823081F48091FF0190910002823391055D
:104DB0003CF042E150E0509300024093FF0130CEBE
:104DC00001966BCE833071F48091F3039091F403DC
:104DD000873191052CF01092F4031092F30320CE4A
:104DE000019671CE843009F068CB8091F1039091E7
:104DF000F2038B3391052CF01092F2031092F10321
:104E00000FCE019677CE8A30910539F48091F50363
:104E1000823009F07BCE81E07CCE8930910539F477
:104E200080910A04823009F07ECE81E07FCE883006
:104E3000910549F480910B048A3F18F010920B04FD
:104E400082CE8F5F7ECE8730910549F480910C042D
:104E50008A3F18F010920C0484CE8F5F80CE86308B
:104E6000910541F48091EC038A3F10F085E085CEF6
:104E70008B5F83CE85309105C9F48091EB0381115E
:104E800009C080911604873118F010921604D2CD13
:104E90008F5F87CE813009F010CB809115048B3362
:104EA00018F010921504C6CD8F5F88CE843091051E
:104EB00041F48091ED038A3F10F085E08ACE8B5F4C
:104EC00088CE83309105C9F48091EB03811109C02C
:104ED00080911804873118F01092180490CE8F5FDB
:104EE0008CCE813009F0E9CA809117048B3318F019
:104EF0001092170484CE8F5F8ECE8230910541F4DC
:104F00008091EE038A3F10F085E090CE8B5F8ECECD
:104F100081309105C9F48091EB03811109C0809122
:104F20001A04873118F010921A0496CE8F5F92CE31
:104F3000813009F0C2CA809119048B3318F01092A5
:104F400019048ACE8F5F94CE892B09F0B6CA80915E
:104F5000EB03811104C082E08093FE019ACE813080
:104F600021F482E08093FD0194CE823019F4809385
:104F7000FC018FCE833021F482E08093FB0189CE47
:104F8000843021F482E08093FA0183CE853021F4CD
:104F900082E08093F9017DCE863009F08ECA82E0EE
:104FA0008093F80176CE60E971E080E090E00E94A5
:104FB000351480ED91E00E94CD128091D601909140
:104FC000D7018B30910551F48091EB03815019F09A
:104FD0008093EB0325CD1092EB0322CD8530910514
:104FE00041F48091EB03815009F022CD1092EB0344
:104FF00021CD8330910551F48091EB03815019F05C
:105000008093EB03FCCD1092EB03F9CD8130910539
:1050100051F48091EB03815019F08093EB031CCE87
:105020001092EB0319CE892B09F047CA8091EB034C
:10503000815019F08093EB032CCE1092EB0329CE14
:105040008091EB038F5F843008F4C2CF84E0C0CF3F
:105050008091EB038F3FB9F281E0D2CF8091EB03D7
:105060008F3FF1F281E0D9CF8091EB038F5F8630E3
:1050700008F386E0DFCF81E0809322040E946F1462
:105080008090FB039090FC03A090FD03B090FE0382
:105090004090FF035090000460900104709002045F
:1050A0009B01AC01241935094609570929013A0128
:1050B000A50194015695479537952795820E931E25
:1050C000A41EB51E481459046A047B0408F405CBD9
:1050D0006093FF0370930004809301049093020493
:1050E00010920504109204041092030410922204FA
:1050F000412F50E060E070E081E190E00E940010FC
:105100000E948F14EACA80910504811109C0809120
:105110000404811105C080910304882309F4E4CAC2
:1051200081E0809322040E946F144090FF0350900E
:10513000000460900104709002044B015C0184182B
:105140009508A608B7084090FB035090FC036090B8
:10515000FD037090FE0384149504A604B70408F4BC
:10516000C3CA6093FF03709300048093010490937B
:105170000204109205041092040410920304109289
:105180002204412F50E060E070E081E190E00E9455
:1051900000100E948F14A8CA80910504811105C0D7
:1051A00080910404882309F4A6CA81E08093220434
:1051B0000E946F144090FF0350900004609001041F
:1051C000709002044B015C0184189508A608B7088A
:1051D0004090FB035090FC036090FD037090FE0331
:1051E00084149504A604B70408F485CA6093FF03E9
:1051F00070930004809301049093020410920504BC
:105200001092040410922204412F50E060E070E0FC
:1052100081E190E00E9400100E948F146CCA80917E
:105220000504882309F46CCA81E0809322040E945B
:105230006F144090FF035090000460900104709040
:1052400002044B015C0184189508A608B708409039
:10525000FB035090FC036090FD037090FE038414E8
:105260009504A604B70408F44BCA6093FF03709337
:10527000000480930104909302041092050410929C
:105280002204412F50E060E070E081E190E00E9454
:1052900000100E948F1434CA81E0809322040E947F
:1052A0006F148090FB039090FC03A090FD03B090DE
:1052B000FE03E090FF03F0900004009101041091C0
:1052C00002049B01AC012E193F09400B510B8501D3
:1052D000740116950795F794E7948E0C9F1CA01EF9
:1052E000B11E281539054A055B0508F431CA6093DB
:1052F000FF037093000480930104909302041092C2
:10530000050410920404109203041092220420E079
:1053100030E04AE754E4C301B2010E94302E0E94FB
:10532000432DAB01770F660B770B8EE090E00E9468
:1053300000100E948F140CCA20E030E040E252E4DA
:10534000C301B2010E94CC2C87FF14CA80910504CE
:10535000811109C080910404811105C0809103046A
:10536000882309F407CA81E0809322040E946F1405
:105370000091FF0310910004209101043091020478
:105380004B015C01801A910AA20AB30A0091FB0347
:105390001091FC032091FD033091FE0380169106CD
:1053A000A206B30608F4E6C96093FF0370930004F5
:1053B0008093010490930204109205041092040457
:1053C000109203041092220420E030E04AE754E4F3
:1053D000C301B2010E94302E0E94432DAB01770F12
:1053E000660B770B8EE090E00E9400100E948F14F5
:1053F000C1C920E030E040EF51E4C301B2010E9496
:10540000CC2C87FFC9C980910504811105C080910A
:105410000404882309F4C0C981E0809322040E9417
:105420006F140091FF03109100042091010430914A
:1054300002044B015C01801A910AA20AB30A00918E
:10544000FB031091FC032091FD033091FE038016B5
:105450009106A206B30608F49FC96093FF037093F8
:1054600000048093010490930204109205041092AA
:1054700004041092220420E030E04AE754E4C3011F
:10548000B2010E94302E0E94432DAB01770F660BB4
:10549000770B8EE090E00E9400100E948F147CC970
:1054A00020E030E040EA51E4C301B2010E94CC2C7C
:1054B00087FF84C980910504882309F47FC981E0AE
:1054C000809322040E946F140091FF031091000446
:1054D00020910104309102044B015C01801A910A71
:1054E000A20AB30A0091FB031091FC032091FD0373
:1054F0003091FE0380169106A206B30608F463C934
:105500006093FF037093000480930104909302045E
:10551000109205041092220420E030E04AE754E49F
:10552000C301B2010E94302E0E94432DAB01770FC0
:10553000660B770B8EE090E00E9400100E948F14A3
:105540003DC90E94A702CAC90E946202DCC90E942A
:105550001D02EEC91D3010F00C94211F0C94271F62
:105560000F931F93CF938C0181E08093650488E6AD
:105570008093860410928F0410928E0460E082E67D
:1055800095E00E943A1AF8018081CAE06C2F0E94CF
:10559000A22E692FF0E18F9F600D112482E695E025
:1055A0000E943A1AF80181816C2F0E94A22E692F65
:1055B000F0E18F9F600D112482E695E00E943A1A77
:1055C000F80182816C2F0E94A22E692FF0E18F9F3B
:1055D000600D112482E695E00E943A1AF801838159
:1055E0006C2F0E94A22E692FF0E18F9F600D112475
:1055F00082E695E00E943A1AF80184816C2F0E949D
:10560000A22E692FF0E18F9F600D112482E695E0B4
:105610000E943A1AF80185816C2F0E94A22E692FF0
:10562000F0E18F9F600D112482E695E00E943A1A06
:10563000F80186818E516C2F0E94A22E692FF0E115
:105640008F9F600D112482E695E00E943A1A81E056
:105650000E944E1191E0811190E0892FCF911F910E
:105660000F910895CF93DF93C0E0D0E060E0CE01CA
:105670000E94581D2196C11584E0D807B9F781E131
:1056800092E0DF91CF910C94CD121092950410927C
:10569000940488EE93E0A0E0B0E0809396049093A9
:1056A0009704A0939804B09399042BE933E03093C6
:1056B00093042093920425EC30E030939F042093D0
:1056C0009E0424EC30E03093A1042093A00420EC4D
:1056D00030E03093A3042093A20421EC30E0309317
:1056E000A5042093A40422EC30E03093A704209377
:1056F000A60426EC30E03093A9042093A80410926D
:10570000AB041092AC041092AD041092AE0410924F
:105710006505109264058093660590936705A093D4
:105720006805B09369058DEA93E0909363058093D3
:10573000620560E080E10E94F913ECE0F2E0E491A0
:10574000E0936E05E8EFF1E0E491F0E0EE0FFF1F6B
:10575000E252FE4F859194919093700580936F056E
:105760001092790510927B0510927A05E9E7F5E031
:1057700081E795E012928E179F07E1F781EE99E19C
:1057800090936105809360058EE695E090935505B2
:10579000809354051092530510924F0589E0809331
:1057A000500591E0909351059093520510923A055F
:1057B000109239052FEB33E03093380520933705ED
:1057C00098E090933B059FEF90933C0580933D05B7
:1057D00082E080933E0583E080933F0586E08093DE
:1057E000400587E0809341051092420510924305E1
:1057F000109244051092450561E088E00E94F9137B
:1058000080913C058F3F19F061E00E94F91361E03F
:1058100080913D050E94F9131092460581E00E9497
:1058200080130E946F146093330570933405809346
:105830003505909336050E946F140C944E13CF9348
:1058400082E994E00E94FC18892B41F46AE070E040
:1058500080E090E00E943514A895F2CF82E994E0B0
:105860000E94DA18C0E08A3069F080538A3028F448
:105870009AE0C99F800D1124C82F82E994E00E940C
:10588000DA18F1CF82E994E00E9481198C2FCF9130
:105890000895F999FECF92BD81BDF89A992780B5F8
:1058A0000895262FF999FECF1FBA92BD81BD20BD64
:1058B0000FB6F894FA9AF99A0FBE019608955058C7
:1058C000BB27AA270E94772C0C94F12D0E94E32D70
:1058D00038F00E94EA2D20F039F49F3F19F426F4A5
:1058E0000C94E02D0EF4E095E7FB0C94DA2DE92FF3
:1058F0000E94022E58F3BA176207730784079507B0
:1059000020F079F4A6F50C94242E0EF4E0950B2EDD
:10591000BA2FA02D0B01B90190010C01CA01A00101
:105920001124FF27591B99F0593F50F4503E68F15C
:105930001A16F040A22F232F342F4427585FF3CF9D
:10594000469537952795A795F0405395C9F77EF46E
:105950001F16BA0B620B730B840BBAF09150A1F0B7
:10596000FF0FBB1F661F771F881FC2F70EC0BA0F3D
:10597000621F731F841F48F4879577956795B795C5
:10598000F7959E3F08F0B0CF9395880F08F09927C0
:10599000EE0F9795879508950E94B62D08F481E043
:1059A00008950E94E52C0C94F12D0E94EA2D58F0E8
:1059B0000E94E32D40F029F45F3F29F00C94DA2D8A
:1059C00051110C94252E0C94E02D0E94022E68F3A8
:1059D0009923B1F3552391F3951B550BBB27AA27A8
:1059E00062177307840738F09F5F5F4F220F331FE2
:1059F000441FAA1FA9F335D00E2E3AF0E0E832D0AA
:105A000091505040E695001CCAF72BD0FE2F29D0AC
:105A1000660F771F881FBB1F261737074807AB077E
:105A2000B0E809F0BB0B802DBF01FF2793585F4FF3
:105A30003AF09E3F510578F00C94DA2D0C94252E07
:105A40005F3FE4F3983ED4F3869577956795B795D5
:105A5000F7959F5FC9F7880F911D9695879597F9E0
:105A60000895E1E0660F771F881FBB1F6217730759
:105A70008407BA0720F0621B730B840BBA0BEE1F6E
:105A800088F7E09508950E944A2D6894B1110C940E
:105A9000252E08950E940A2E88F09F5798F0B92F5E
:105AA0009927B751B0F0E1F0660F771F881F991F53
:105AB0001AF0BA95C9F714C0B13091F00E94242EA3
:105AC000B1E008950C94242E672F782F8827B85FB3
:105AD00039F0B93FCCF3869577956795B395D9F7AB
