:100000000C94EA020C9412030C9412030C94120345
:100010000C9412030C9412030C9412030C94F80326
:100020000C9412030C9412030C9412030C941203FC
:100030000C9412030C9412030C9412030C941203EC
:100040000C94571E0C9412030C94F31C0C94CD1CAE
:100050000C9412030C9412030C9412030C941203CC
:100060000C94251D0C9412031B21262131213C21C7
:10007000472152215D21BF0AC10B090C490C7C0CA0
:10008000BC0CEF0C2F0D750DB60D140E720E160F65
:100090006D0FBB0A341537153A153D15401543153C
:1000A0004615434153204E454E4153544156454E0B
:1000B00021004E6500536F0050610043740053747B
:1000C000005574002D00506F005A61766C616861B4
:1000D00020766520646E656368004348594241207C
:1000E0005254432100736F626F74610070617465D4
:1000F0006B006374767274656B007374726564610F
:1001000000757465727900706F6E64656C69006E5D
:100110006564656C6500446E6573206A6500560011
:1001200025003F004368796261206369646C610067
:100130004300736563002F005A415000646F626191
:1001400000565950004D454E5500444F4C55004EF9
:1001500041484F525500564C45564F00565052415B
:10016000564F00202020202020202020202020204A
:1001700020202000554C4F5A454E4F00200043454B
:10018000525041444C4F00005EBCE2613FDD83C2EF
:100190009C7E20A3FD1F419DC3217FFCA2401E5FCA
:1001A00001E3BD3E6082DC237D9FC1421CFEA0E1D5
:1001B000BF5D0380DE3C62BEE0025CDF81633D7CAC
:1001C00022C09E1D43A1FF4618FAA427799BC5842F
:1001D000DA3866E5BB5907DB856739BAE406581992
:1001E00047A5FB7826C49A653BD987045AB8E6A789
:1001F000F91B45C6987A24F8A6441A99C7257B3A74
:100200006486D85B05E7B98CD2306EEDB3510F4EE2
:1002100010F2AC2F7193CD114FADF3702ECC92D361
:100220008D6F31B2EC0E50AFF1134DCE90722C6D3C
:1002300033D18F0C52B0EE326C8ED0530DEFB1F043
:10024000AE4C1291CF2D73CA947628ABF51749089E
:1002500056B4EA6937D58B5709EBB536688AD49519
:10026000CB2977F4AA4816E9B7550B88D6346A2B00
:100270007597C94A14F6A8742AC896154BA9F7B6FB
:10028000E80A54D7896B35454550524F4D206E6171
:100290006374656E69204F4B00454550524F4D20A9
:1002A000736D617A616E6100554C4F5A4954206EEE
:1002B0006173746176656E69004E4500414E4F0072
:1002C000534D415A4154206E6173746176656E6975
:1002D00000446174756D20612063617320202020CB
:1002E00020005659504E55544F003D005A41504E33
:1002F00055544F0043656B6174207679706E757448
:100300007920202000302D32353000436572702076
:100310007679706E6F7574207A612000426568206E
:1003200070726F6772616D752033202000436173B6
:100330002070726F6772616D7520332020004265F6
:10034000682070726F6772616D75203220200043E3
:1003500061732070726F6772616D752032202000AA
:10036000352D323530004265682070726F677261DA
:100370006D752031202000686F643A6D696E00430E
:1003800061732070726F6772616D7520312020007B
:1003900000000000240027002A00000000002500C3
:1003A00028002B00000000080002010000030407E1
:1003B00000000000000000000000000023002600F4
:1003C00029000404040404040404020202020202D8
:1003D0000303030303030102040810204080010209
:1003E00004081020010204081020566F6C6E612072
:1003F00052414D2070616D65743A002A2A2A2A2ADA
:100400002A2A2A2A2A2A2A2A2A2A2A2A2A2A2A2A4C
:100410002A00492056797073617420646174756D87
:1004200020612063617300482056797073617420E5
:100430007465706C6F7475004720567970736174C1
:10044000206E6170657469207A6520736F6E6479BF
:100450000046205469736B20454550524F4D00456E
:1004600020536D617A617420454550524F4D0044D0
:10047000204E6173746176697420646174756D20B7
:100480006120636173004320537075737469742035
:1004900070726F6772616D20330042205370757304
:1004A0007469742070726F6772616D203200412030
:1004B000537075737469742070726F6772616D2008
:1004C00031003F204E61706F76656461002A2A2AF0
:1004D000204D454E55202A2A2A2A2A2A2A2A2A2A03
:1004E0002A2A2A007777772E70696872742E636FD4
:1004F0006D00300052455354415254554A492053DF
:1005000045004B6F6E6563002E00416E676C69633A
:1005100074696E610043657374696E61004A617A43
:10052000796B00506F736C65646E6920766C686BD4
:100530006F737400526567756C756A20766C686BB2
:100540006F73746900506F736C65646E69207465B5
:10055000706C6F746100526567756C756A207465A4
:10056000706C6F746F75002D0033002D0032002DFC
:10057000003A003100434153002053656320302D81
:1005800035393A2000204D696E20302D35393A201A
:100590000020486F6420302D32333A2000204D6512
:1005A0007320312D31323A20002044656E20312DE8
:1005B00033313A200020526F6B2031392D39393ACE
:1005C0002000566C6F7A005D00302D3130323300E0
:1005D0005B009E2C11241FBECFEFD8E0DEBFCDBF45
:1005E00011E0A0E0B1E0ECE5F1E602C005900D926B
:1005F000AE38B107D9F723E0AEE8B1E001C01D92F3
:10060000A839B207E1F712E0CAEED2E004C02197A0
:10061000FE010E946430C93ED107C9F70E94A11EA5
:100620000C94AC300C940000FC0190810180F281AC
:10063000E02D892F809560FF12C0F89422818223DB
:1006400082838181892B8183A3E2B0E01197F1F746
:100650008281982B9283789487ED90E011C0F89472
:100660002281822382838181892B8183AFEFB0E055
:100670001197F1F78281982B928378948FE090E024
:100680000197F1F70895089580E090E00895CF93E1
:10069000DF93EC0160E08E810E947C1361E08E812B
:1006A0000E947C1360E08E810E947C138BE891E0B5
:1006B0000197F1F7DF91CF910895CF92DF92EF92FA
:1006C000FF92CF93DF93EC016A017B01642F0E94BC
:1006D000531E9927F7FC9A958F2D7E2D6D2DCE01F7
:1006E0000196DF91CF91FF90EF90DF90CF900C9427
:1006F000531ECF93C82F65E775E08CE392E00E940C
:10070000CB1C6CE771E08CE392E00E94CB1C6C2F59
:100710008CE392E00E9457136CE771E08CE392E067
:100720000E94CB1CC13051F48091AB0190E09093BA
:10073000B4018093B301C093CF011AC0C23059F401
:100740008091AA0190E09093B4018093B30181E07D
:100750008093CC010DC0C33009F048C08091A9013D
:1007600090E09093B4018093B30181E08093C9013C
:100770000E9401156093C5017093C6018093C70163
:100780009093C8011092C1011092C2011092C3014E
:100790001092C4010E9401156093B5017093B601D7
:1007A0008093B7019093B8016CE371E08CE392E021
:1007B0000E94CB1C6CE771E08CE392E00E94CB1CA2
:1007C0004091B3015091B40160E070E02AE08CE305
:1007D00092E00E94A61B6CE771E08CE392E00E941D
:1007E000CB1C82E391E0CF910C940113CF9108953B
:1007F0001F920F920FB60F9211240F900FBE0F9001
:100800001F9018950F931F93609394017093950117
:10081000809396019093970100911801109119010E
:1008200020911A0130911B01DC01CB01800F911F37
:10083000A21FB31F8093900190939101A093920106
:10084000B093930182E090E0909399018093980196
:100850000E9401156093DF017093E0018093E10134
:100860009093E2011F910F910895CF92DF92EF9242
:10087000FF920F931F930E940115C090DF01D0904B
:10088000E001E090E101F090E2018B019C010C1984
:100890001D092E093F098091940190919501A09125
:1008A0009601B0919701083E134021053105D0F023
:1008B0000196A11DB11D8093940190939501A09381
:1008C0009601B0939701B701A60148515C4F6F4F55
:1008D0007F4F4093DF015093E0016093E1017093FB
:1008E000E201C9CF40919001509191016091920134
:1008F0007091930184179507A607B707C8F1E09197
:100900008E01F0918F01309799F10995611571056C
:100910008105910519F00E9402042AC040919401BA
:100920005091950160919601709197018091180105
:1009300090911901A0911A01B0911B01840F951F8C
:10094000A61FB71F8093900190939101A0939201ED
:10095000B093930181E090E020919801309199014A
:10096000232B11F480E090E09093990180939801FB
:1009700060919401709195018091960190919701F9
:100980001F910F91FF90EF90DF90CF9008954F92BD
:100990005F926F927F928F929F92AF92BF92CF920F
:1009A000DF92EF92FF920F931F93CF93DF93FC019F
:1009B0001681A12FB0E020E833E341EE51E00E9420
:1009C00080304B015C01C2EBD7E09D0104E610E0F2
:1009D00080E9E82EFF24F394CE01825B97408217D2
:1009E0009307D4F4CE0183709927892B99F4CE0113
:1009F000B8010E940F30892B31F4CE01B7010E945B
:100A00000F30892B39F480E8880E81E5981E81E04B
:100A1000A81EB11C2196E0CF4580512C2E54384F92
:100A2000C90164E670E00E940F307C01C90160E9F1
:100A300071E00E940F306C010DE311E0C1E0D0E0E5
:100A40003901A3E06A227724C415D50534F5C230F4
:100A5000D10589F46114710471F4E114F10419F4FD
:100A6000C114D10441F4B0E88B0EBBE39B1EB6E287
:100A7000AB1EB11C0EC0D8018C91A82FB0E020E8AD
:100A800031E541E050E00E948030860E971EA81E9E
:100A9000B91E21960F5F1F4FD7CF4181228130E0D1
:100AA000A0E1BEE00E946A306B017C01242F30E09F
:100AB000ACE3B0E00E946A30DC01CB018C0D9D1DDF
:100AC000AE1DBF1D20816C017D01C20ED11CE11C39
:100AD000F11CA481B0E0119720E831E541E050E03D
:100AE0000E948B30DC01CB018C0D9D1DAE1DBF1D06
:100AF000BC01CD01680D791D8A1D9B1DDF91CF9131
:100B00001F910F91FF90EF90DF90CF90BF90AF902B
:100B10009F908F907F906F905F904F9008951F935C
:100B2000CF93DF93CDB7DEB727970FB6F894DEBF2C
:100B30000FBECDBF81E080930F0288E68093300224
:100B4000109239021092380260E08CE093E00E942B
:100B5000351B81E00E94C6118111B4C0809137021B
:100B60008111FCCF81E080933702809336029FEFA2
:100B700090930E0210920D0296E090930C028093D7
:100B8000EB018091EB01806D8093EB018091350248
:100B9000813061F4109235028091EB018093BB00AB
:100BA0008091BC0083FDF8CF85EC01C085EE809379
:100BB000BC00809137028130E1F380910D028730D3
:100BC00018F490910D0201C097E0ACEEB1E0E0E3C3
:100BD000F3E080E0891721F02D9121938F5FFACF08
:100BE00010923B0280933A0290E007970CF46AC09F
:100BF0008CE093E00E94EC1A182F869586958695D6
:100C00008E70982F990F990F890F912F9F70890FD0
:100C100089838CE093E00E94EC1A982F92959F7044
:100C20008F702AE0929F800D11248A838CE093E0DC
:100C30000E94EC1A982F9695969596959670292F66
:100C4000220F220F920F8F70890F8B838CE093E01D
:100C50000E94EC1A982F92959F708F702AE0929FB5
:100C6000800D11248C838CE093E00E94EC1A982F65
:100C700092959F708F702AE0929F800D11248D8332
:100C80008CE093E00E94EC1A982F92959F708F70E1
:100C90002AE0929F800D11248E838CE093E00E94C5
:100CA000EC1A982F9F70925E82958F702AE0829F37
:100CB000900D11249F8317FD05C0CE0101960E945F
:100CC000C70403C060E070E0CB0127960FB6F8942C
:100CD000DEBF0FBECDBFDF91CF911F9108956F9200
:100CE0007F928F929F92AF92BF92CF92DF92EF92BC
:100CF000FF920F931F93CF93DF936B017C01EA0167
:100D00008CE3882E912CA12CB12CC701B601A50132
:100D100094010E9423306883CA01B901A50194019E
:100D20000E9423306983C701B60120E13EE040E024
:100D300050E00E942330CA01B90128E130E040E0D0
:100D400050E00E9423306A83C701B60120E831E5F4
:100D500041E050E00E94233069017A01CA01B901E3
:100D60006C5F7F4F8F4F9F4F27E030E040E050E0B7
:100D70000E9423306F5F6B83812C912C540140E0E3
:100D800094E6692E712C00E911E0242F30E02E54F6
:100D9000384FF901E370FF27309789F4C901B30197
:100DA0000E940F30892B31F4C901B8010E940F3025
:100DB000892B29F48EE691E0A0E0B0E004C08DE636
:100DC00091E0A0E0B0E0880E991EAA1EBB1ED501DE
:100DD000C401AA27BB27C816D906EA06FB0610F0ED
:100DE0004F5FD3CF4E83309799F4C90164E670E02A
:100DF0000E940F30892B39F4C90160E971E00E942B
:100E00000F30892B29F48EE691E0A0E0B0E004C019
:100E10008DE691E0A0E0B0E0881A990AAA0ABB0A20
:100E2000C818D908EA08FB08C90164E670E00E9406
:100E30000F308C01C90160E971E00E940F30ADE311
:100E4000B1E020E0213041F4309751F40115110553
:100E500029F4009729F402C04C9103C04DE101C070
:100E60004CE150E060E070E0C416D506E606F706F7
:100E700040F0C41AD50AE60AF70A2F5F11962C3003
:100E800009F72F5F2D83C394CC82DF91CF911F91FF
:100E90000F91FF90EF90DF90CF90BF90AF909F9019
:100EA0008F907F906F900895CF92DF92EF92FF9294
:100EB000C090DB01D090DC01E090DD01F090DE011C
:100EC000C616D706E806F90671F06B017C014AE9FF
:100ED00051E00E946F06C092DB01D092DC01E092EB
:100EE000DD01F092DE01FF90EF90DF90CF9008954A
:100EF0000E9435040E9454078091A00190E08E5416
:100F0000984F08950E9435040E94540780919F01D4
:100F100090E008950E9435040E94540780919E013C
:100F200090E008950E9435040E94540780919A0130
:100F300090E008950E9435040E94540780919B011F
:100F400090E008950E9435040E94540780919C010E
:100F500090E00895DC0180E0615040F09D91E82F21
:100F6000E927F0E0E957FE4F8491F6CF0895DF922C
:100F7000EF92FF920F931F93CF93DF93EC01D62E46
:100F8000E42E08E010E0FF24F39461E08D2D8F2122
:100F900009F460E0CE010E941403FF0C0150110916
:100FA000A1F7E11010C0F894E981FA81918188815C
:100FB000809589238183E981FA8192818881809556
:100FC000892382837894DF91CF911F910F91FF90B5
:100FD000EF90DF900895EF92FF920F931F93CF93BE
:100FE000DF938C017B0140E065E50E94B707E701D4
:100FF00088E0E80EF11C699140E0C8010E94B70743
:10100000CE15DF05C1F7DF91CF911F910F91FF90B2
:10101000EF900895FC0190810180F281E02DF89419
:101020008181892B81832281892F809528232283A6
:10103000A7E0B0E01197F1F7218182238183A3E239
:10104000B0E01197F1F780817894EFECF0E0319700
:10105000F1F7982381E009F480E00895DC012C91F8
:101060001196ED91FC911297F8948181922F9095B1
:101070008923818378948DE743E050E0815021F10A
:10108000DA011197F1F730813223C1F3F8948281AC
:10109000892382838181822B81837894ABE7B7E0B7
:1010A0001197F1F7F89481819823918383E191E07E
:1010B0000197F1F78081282381E009F080E078949E
:1010C000E3E6F6E03197F1F70895BF92CF92DF9211
:1010D000EF92FF920F931F93CF93DF93EC01D62EE5
:1010E000C72E8D8581115BC0CE010E942E08811113
:1010F00004C01B861D861C8666C040E060EFCE01E2
:101100000E94B70701E0E12CB12C11E0CE010E9452
:101110000A08F82ECE010E940A0891E0F91203C0D5
:101120008130B1F434C02E2D30E0F8121BC08B8515
:10113000181738F4FE01E20FF31F8381802341F476
:1011400002C0181729F0F12C193058F41C8709C077
:10115000FE01EE0DF11D8381802B8383FF24F39428
:1011600009C0B12EFE01E20FF31F9381802F8095FD
:10117000892383836F2DCE010E9414031F5F000F0C
:1011800011F4E39401E087E08E1508F0BFCF11342D
:1011900030F0BB86B11012C081E08D870FC01B8676
:1011A0001D861C8680E0DE011396ED2DFC2D2B960E
:1011B0009D919193AC17BD07D9F705C08B8188230A
:1011C00071F381E0F0CFDF91CF911F910F91FF90EC
:1011D000EF90DF90CF90BF900895CF93DF93CDB77E
:1011E000DEB761970FB6F894DEBF0FBECDBF80911A
:1011F000D2018111DAC08091CF018111D6C08091D6
:10120000CC018111D2C08091C9018111CEC08091E1
:10121000FE029091FF020E942E0840E06CEC80914B
:10122000FE029091FF020E94B7074091F90264E428
:101230008091FE029091FF020E94B7078091FB020D
:101240008823A9F0E091FA02E950E33040F4F0E09D
:10125000EE0FFF1FE75BFE4F6081718102C06EEEF3
:1012600072E0072E000C880B990B0E94C714E091C6
:10127000FE02F091FF02138615861486DF011B968D
:10128000CF0103961E928A179B07E1F7BE01665FA6
:101290007F4FCF010E946508882309F4BCC067E036
:1012A000CE010A960E94AA0799898913B4C0BE018B
:1012B0006F5F7F4FCE010A960E942212882309F4A5
:1012C000B1C068E0CE0101960E94AA0799858913F2
:1012D000A9C02A8130E0C901982F8827990F990F5A
:1012E000990F698128E0629FB00111249C01262B8F
:1012F000372B8A85803109F093C0688570E08F8133
:10130000AB01481B5109CA019695982F88279795DC
:1013100087950E940F3060517109207F53E0220FA2
:10132000331F5A95E1F7620F731F613854EE75074A
:101330000CF471C0072E000C880B990B0E94DC2E58
:1013400020E030E040E05CE30E94912F6093B9011F
:101350007093BA018093BB019093BC018FE00E940F
:10136000B01490932F0380932E03BC01990F880B28
:10137000990B0E94DC2E20E030E040EA50E40E940D
:10138000912F20E030E040E85AE30E94912F6093D3
:10139000A1017093A2018093A3019093A40161E045
:1013A00070E080E090E00E94C714A0912E03B091FD
:1013B0002F032AE431E00E9479302FEF33E040E040
:1013C00050E00E944530DA01C90186509F4FAF4F6F
:1013D000BF4F90932F0380932E03ACE9BFEF0E9481
:1013E0008E302AE431E040E050E00E944530DA01DE
:1013F000C9018C599F4FAF4FBF4F843608F084E628
:101400008093B20161960FB6F894DEBF0FBECDBFD8
:10141000DF91CF91089560E070E08EEF92EC96CF6F
:10142000B90183CF60E874EE80CFAF92BF92CF92C4
:10143000DF92EF92FF920F931F93CF93DF935C01A4
:101440007C0187E0E80EF11CC0E0D0E0062F10E040
:10145000670161E0F70181917F010E947414B80176
:101460000C2E02C0759567950A94E2F76170F6013B
:1014700080810E947C132196C430D10549F7C501B3
:10148000DF91CF911F910F91FF90EF90DF90CF9060
:10149000BF90AF900C944703AF92BF92CF92DF9270
:1014A000EF92FF920F931F93CF93DF93EC01F62EF1
:1014B000642F8C810E947C138D818F3F19F060E036
:1014C0000E947C138F850F2D10E084FF2DC05E01DC
:1014D00087E0A80EB11CE12CF12C650161E0F5015B
:1014E00081915F010E947414B8010E2C02C07595A1
:1014F00067950A94E2F76170F60180810E947C137F
:10150000FFEFEF1AFF0A88E0E816F10431F7CE0189
:10151000DF91CF911F910F91FF90EF90DF90CF90CF
:10152000BF90AF900C944703B80184E07595679520
:101530008A95E1F7CE010E94150A6F2DCE01DF9149
:10154000CF911F910F91FF90EF90DF90CF90BF90C0
:10155000AF900C94150A41E00E944C0A81E090E0A3
:10156000089590E08F30910508F017C5FC01E55C07
:10157000FF4F0C9464301092A6011092A50160E018
:1015800080E00E94BB1269EC70E081EE92E00E9464
:10159000CB1C61E08EE00E94BB126CE771E081EE33
:1015A00092E00E94CB1C62E271E081EE92E00E9428
:1015B000CB1C61E080E00E94BB128091260182304A
:1015C00019F466EC70E008C064EC70E081EE92E023
:1015D0000E94CB1C64EC70E081EE92E00E94CB1C78
:1015E00061E082E00E94BB1280912501823019F4F3
:1015F00061EC70E008C064EC70E081EE92E00E9463
:10160000CB1C64EC70E081EE92E00E94CB1C61E0A8
:1016100084E00E94BB1280912401823019F46EEBA9
:1016200070E008C064EC70E081EE92E00E94CB1C98
:1016300064EC70E081EE92E00E94CB1C61E086E0F9
:101640000E94BB1280912301823019F46BEB70E091
:1016500008C064EC70E081EE92E00E94CB1C64EC68
:1016600070E081EE92E00E94CB1C61E088E00E9475
:10167000BB1280912201823019F468EB70E008C03F
:1016800064EC70E081EE92E00E94CB1C64EC70E0B0
:1016900081EE92E00E94CB1C61E08AE00E94BB12C6
:1016A00080912101823019F465EB70E008C064EC90
:1016B00070E081EE92E00E94CB1C64EC70E081EE61
:1016C00092E00E94CB1C61E08CE00E94BB128091F2
:1016D0002001823019F462EB70E008C064EC70E025
:1016E00081EE92E00E94CB1C64EC70E081EE92E00F
:1016F0000E94CB1C10921F0110921E018091A70125
:10170000811105C061E00E94BB120E94D512809138
:10171000A701813031F461E082E00E94BB120E9497
:10172000D5128091A701823031F461E084E00E94FB
:10173000BB120E94D5128091A701833031F461E081
:1017400086E00E94BB120E94D5128091A7018430CE
:1017500031F461E088E00E94BB120E94D5128091B2
:10176000A701853031F461E08AE00E94BB120E943B
:10177000D5128091A701863009F00FC461E08CE09A
:1017800008C460E080E00E94BB126FE773E081EE66
:1017900092E00E94CB1C61E080E00E94BB1280912D
:1017A000D10190E00E94B41561E775E081EE92E00E
:1017B0000E94CB1C8091D00190E00E94B4156CE790
:1017C00071E081EE92E00E94CB1C67E773E081EE4E
:1017D00092E00E94CB1C63E671E081EE92E00E94F1
:1017E000CB1C81E090E090931F0180931E018091BB
:1017F000A701811106C061E081E00E94BB120E9436
:10180000D5128091A701813009F0C7C361E084E05F
:10181000C0C360E080E00E94BB1266E673E081EE28
:1018200092E00E94CB1C61E080E00E94BB1280919C
:10183000AB0190E00E94B4156CE771E081EE92E09C
:101840000E94CB1C60ED75E081EE92E00E94CB1C03
:1018500060E673E081EE92E00E94CB1C6CE771E0E1
:1018600081EE92E00E94CB1C62E371E081EE92E097
:101870000E94CB1C67EC75E081EE92E00E94CB1CCD
:1018800063E671E081EE92E00E94CB1C82E090E082
:1018900025C160E080E00E94BB126FE473E081EE3E
:1018A00092E00E94CB1C61E080E00E94BB1280911C
:1018B000CE0190E00E94B41561E775E081EE92E000
:1018C0000E94CB1C8091CD0190E00E94B4156CE782
:1018D00071E081EE92E00E94CB1C67E773E081EE3D
:1018E00092E00E94CB1C63E671E081EE92E00E94E0
:1018F000CB1C83E090E077CF60E080E00E94BB12D9
:101900006EE373E081EE92E00E94CB1C61E080E028
:101910000E94BB128091AA0190E00E94B4156CE76E
:1019200071E081EE92E00E94CB1C60ED75E081EEEB
:1019300092E00E94CB1C60E673E081EE92E00E9490
:10194000CB1C6CE771E081EE92E00E94CB1C62E35D
:1019500071E081EE92E00E94CB1C67EC75E081EEB5
:1019600092E00E94CB1C63E671E081EE92E00E945F
:10197000CB1C84E090E0B2C060E080E00E94BB122B
:101980006DE273E081EE92E00E94CB1C61E080E0AA
:101990000E94BB128091CB0190E00E94B41561E7D8
:1019A00075E081EE92E00E94CB1C8091CA0190E02C
:1019B0000E94B4156CE771E081EE92E00E94CB1CAE
:1019C00067E773E081EE92E00E94CB1C63E671E072
:1019D00081EE92E00E94CB1C85E090E004CF60E0B5
:1019E00080E00E94BB126CE173E081EE92E00E9405
:1019F000CB1C61E080E00E94BB128091A90190E0C5
:101A00000E94B4156CE771E081EE92E00E94CB1C5D
:101A100060ED75E081EE92E00E94CB1C60E673E021
:101A200081EE92E00E94CB1C6CE771E081EE92E0C7
:101A30000E94CB1C62E371E081EE92E00E94CB1C1D
:101A400067EC75E081EE92E00E94CB1C63E671E0EA
:101A500081EE92E00E94CB1C86E090E03FC060E007
:101A600080E00E94BB126BE073E081EE92E00E9486
:101A7000CB1C61E080E00E94BB128091C00190E02D
:101A80000E94B4156CE771E081EE92E00E94CB1CDD
:101A900060ED75E081EE92E00E94CB1C65E073E0A2
:101AA00081EE92E00E94CB1C6CE771E081EE92E047
:101AB0000E94CB1C62E371E081EE92E00E94CB1C9D
:101AC00067EC75E081EE92E00E94CB1C63E671E06A
:101AD00081EE92E00E94CB1C87E090E090931F0182
:101AE00080931E0161E081E054C260E080E00E94CA
:101AF000BB1264EF72E081EE92E00E94CB1C61E0C9
:101B000080E00E94BB126091BF0181EE92E00E94D2
:101B100057136CE771E081EE92E00E94CB1C60ED00
:101B200075E081EE92E00E94CB1C65E073E081EEEF
:101B300092E00E94CB1C6CE771E081EE92E00E9483
:101B4000CB1C62E371E081EE92E00E94CB1C67EC5B
:101B500075E081EE92E00E94CB1C63E671E081EEBD
:101B600092E00E94CB1C88E090E00DC260E080E033
:101B70000E94BB1266E575E081EE92E00E94CB1CEC
:101B800061E080E00E94BB128091BE01823001F5CD
:101B90006CEE72E081EE92E00E94CB1C6CE771E08B
:101BA00081EE92E00E94CB1C60ED75E081EE92E048
:101BB0000E94CB1C62E081EE92E00E94AB0A6AEECA
:101BC00072E081EE92E00E94CB1C61E471E01FC0E4
:101BD00062EE72E081EE92E00E94CB1C6CE771E055
:101BE00081EE92E00E94CB1C60ED75E081EE92E008
:101BF0000E94CB1C61E081EE92E00E94AB0A6AEE8B
:101C000072E081EE92E00E94CB1C68E371E081EE0D
:101C100092E00E94CB1C67EC75E081EE92E00E949E
:101C2000CB1C89E090E0AFC160E080E00E94BB1275
:101C300064E375E081EE92E00E94CB1C61E080E0FD
:101C40000E94BB128091BD01823001F56CEE72E002
:101C500081EE92E00E94CB1C6CE771E081EE92E095
:101C60000E94CB1C60ED75E081EE92E00E94CB1CDF
:101C700062E081EE92E00E94AB0A6AEE72E081EED1
:101C800092E00E94CB1C61E471E01FC062EE72E042
:101C900081EE92E00E94CB1C6CE771E081EE92E055
:101CA0000E94CB1C60ED75E081EE92E00E94CB1C9F
:101CB00061E081EE92E00E94AB0A6AEE72E081EE92
:101CC00092E00E94CB1C68E371E081EE92E00E94FA
:101CD000CB1C67EC75E081EE92E00E94CB1C8AE0A1
:101CE00090E051C160E080E00E94BB1261ED72E0C3
:101CF00081EE92E00E94CB1C61E080E00E94BB126A
:101D000063E671E081EE92E00E94CB1C61E080E02E
:101D10000E94BB1280912B0190912C010E94B4155E
:101D200061E082E00E94BB1268E075E081EE92E023
:101D30000E94CB1C8091290190912A010E94B41528
:101D400063E671E081EE92E00E94CB1C61E085E0E9
:101D50000E94BB1268E075E081EE92E00E94CB1C0D
:101D600080912701909128010E94B41563E671E0EB
:101D700081EE92E00E94CB1C61E08BE00E94BB12DE
:101D80008091B0019091B1010E94B41561E08DE0A5
:101D90000E94BB1261E775E081EE92E00E94CB1CCD
:101DA0008091AE019091AF010E94B41563E671E09D
:101DB00081EE92E00E94CB1C8BE090E090931F019B
:101DC00080931E011092AD011092AC018091A70189
:101DD000811106C061E081E00E94BB120E94D51211
:101DE0008091A701813031F461E084E00E94BB1250
:101DF0000E94D5128091A701823031F461E087E022
:101E00000E94BB120E94D5128091A701833031F449
:101E100061E08CE00E94BB120E94D5128091A70164
:101E2000843009F0BAC061E08FE0B3C060E080E0C8
:101E30000E94BB1260EC72E081EE92E00E94CB1C2B
:101E400061E080E00E94BB1262E271E081EE92E00C
:101E50000E94CB1C6CE771E081EE92E00E94CB1CEB
:101E600060ED75E081EE92E00E94CB1C62E081EEB5
:101E700092E00E94AB0A6AEE72E081EE92E00E946C
:101E8000CB1C6CEB72E081EE92E00E94CB1C6CE705
:101E900071E081EE92E00E94CB1C61E081EE92E065
:101EA0000E94AB0A6AEE72E081EE92E00E94CB1CC7
:101EB00069EB72E081EE92E00E94CB1C67EC75E06A
:101EC00081EE92E00E94CB1C63E671E081EE92E02D
:101ED0000E94CB1C8CE090E056C060E080E00E9445
:101EE000BB1268EA72E081EE92E00E94CB1C61E0D6
:101EF00080E00E94BB1262E271E081EE92E00E94FB
:101F0000CB1C6CE771E081EE92E00E94CB1C60ED8F
:101F100075E081EE92E00E94CB1C62E081EE92E0DF
:101F20000E94AB0A6AEE72E081EE92E00E94CB1C46
:101F30006CEB72E081EE92E00E94CB1C6CE771E0EA
:101F400081EE92E00E94CB1C61E081EE92E00E9463
:101F5000AB0A6AEE72E081EE92E00E94CB1C69EB64
:101F600072E081EE92E00E94CB1C67EC75E081EE9E
:101F700092E00E94CB1C63E671E081EE92E00E9449
:101F8000CB1C8DE090E090931F0180931E0161E0D7
:101F900080E00E94BB120C94D5120895CF9382E08A
:101FA00090E00E94551E8093D10183E090E00E9452
:101FB000551E8093D00184E090E00E94551E8093CE
:101FC000AB0185E090E00E94551E8093CE0186E033
:101FD00090E00E94551E8093CD0187E090E00E9422
:101FE000551E8093AA0188E090E00E94551E8093C0
:101FF000CB0189E090E00E94551E8093CA018AE0DF
:1020000090E00E94551E8093A9018BE090E00E9411
:10201000551E8093C0018CE090E00E94551E809375
:10202000BF018DE090E00E94551E8093BE018EE0BE
:1020300090E00E94551EC82F8FE090E00E94551E30
:1020400090E0A0E0B0E0BA2FA92F982F88278C0F3E
:10205000911DA11DB11D80932A0390932B03A09382
:102060002C03B0932D0380E190E00E94551E8093D5
:10207000BD0181E190E00E94551EC82F82E190E0F1
:102080000E94551E90E0A0E0B0E0BA2FA92F982F33
:1020900088278C0F911DA11DB11D8093260390935D
:1020A0002703A0932803B093290384E190E00E94C2
:1020B000551E8093260185E190E00E94551E809375
:1020C000250186E190E00E94551E8093240187E15E
:1020D00090E00E94551E8093230188E190E00E94C9
:1020E000551E8093220189E190E00E94551E809345
:1020F00021018AE190E00E94551E8093200182E137
:1021000090E00E94551E8093A80187E892E0CF914D
:102110000C945E130E94CE0F8091D101883138F06B
:1021200066E082E090E00E94531E81E001C080E002
:102130009091D0019C3330F060E083E090E00E9409
:10214000531E81E09091AB019550963F30F06EE1C7
:1021500084E090E00E94531E81E09091CE0198317E
:1021600030F062E185E090E00E94531E81E09091A2
:10217000CD019C3330F060E086E090E00E94531E79
:1021800081E09091AA019550963F30F06EE187E092
:1021900090E00E94531E81E09091CB01983130F085
:1021A00069E088E090E00E94531E81E09091CA01AE
:1021B0009C3330F060E089E090E00E94531E81E0A3
:1021C0009091A9019550963F30F06EE18AE090E041
:1021D0000E94531E81E09091C0019B3F30F065E06A
:1021E0008BE090E00E94531E81E09091BF019B3FE5
:1021F00030F064E18CE090E00E94531E81E0909109
:10220000BE019150923030F061E08DE090E00E948C
:10221000531E81E040912A0350912B0360912C03BF
:1022200070912D0349355B416105710540F040E037
:1022300050E0BA018EE090E00E945D0381E0909151
:10224000BD019150923030F061E080E190E00E9459
:10225000531E81E04091260350912703609128038B
:1022600070912903453651056105710540F040E044
:1022700050E0BA0181E190E00E945D0381E090911D
:102280002601933010F4913031F462E084E190E063
:102290000E94531E81E090912501933010F49130FB
:1022A00031F462E085E190E00E94531E81E090915C
:1022B0002401933010F4913031F462E086E190E033
:1022C0000E94531E81E090912301933010F49130CD
:1022D00031F462E087E190E00E94531E81E090912A
:1022E0002201933010F4913031F462E088E190E003
:1022F0000E94531E81E090912101933010F491309F
:1023000031F462E089E190E00E94531E81E09091F7
:102310002001933010F4913031F462E08AE190E0D2
:102320000E94531E81E09091A801923030F060E04D
:1023300082E190E00E94531E01C081110C94CE0FE7
:1023400008953FB7F8948091E7019091E801A0913A
:10235000E901B091EA0126B5A89B05C02F3F19F00D
:102360000196A11DB11D3FBFBA2FA92F982F882715
:10237000820F911DA11DB11DBC01CD0142E0660F70
:10238000771F881F991F4A95D1F70895282F3091FC
:102390003802313208F04AC0809137028111FCCFF7
:1023A0009091300242E040933702209336022FEFA3
:1023B00020930E0210920D0230930C02E0E1F2E045
:1023C000ACEEB1E020E0321721F041914D932F5F48
:1023D000FACF1092EB012091EB01990F922B909381
:1023E000EB0190913502913061F410923502909199
:1023F000EB019093BB009091BC0093FDF8CF95EC5E
:1024000001C095EE9093BC00909137029230E1F3B9
:1024100090910E029F3F79F080910E02803241F040
:1024200080910E02803331F084E005C081E003C06A
:1024300082E001C083E010923902109238021092BB
:102440000F020895AF92BF92CF92DF92EF92FF9268
:102450000F931F93CF93DF93EC018B018091FE02CA
:102460009091FF020E942E088823A1F1BE01809165
:10247000FE029091FF020E94EB0740E06EEB80911C
:10248000FE029091FF020E94B707E801680189E00F
:10249000C80ED11CA090FE02B090FF0288E0E82E8A
:1024A000F12C10E001E0C5010E940A088111102BF7
:1024B000000F81E0E81AF108B1F71993CC16DD0698
:1024C00049F78091FE029091FF020E942E0891E050
:1024D000813009F090E0892FDF91CF911F910F910A
:1024E000FF90EF90DF90CF90BF90AF900895CF9383
:1024F000DF93CDB7DEB729970FB6F894DEBF0FBED6
:10250000CDBFBE016F5F7F4F0E942212882341F032
:1025100068E0CE0101960E94AA079985891711F0FB
:1025200080E012C08D818F3311F48AE00DC08034B9
:1025300020F48F31A9F789E007C08F3521F08F375C
:1025400079F78CE001C08BE029960FB6F894DEBFD6
:102550000FBECDBFDF91CF91089540E0682F81EE8F
:1025600092E00C944C0A81E00E94AD128BE39FE153
:102570000197F1F70895643008F063E09091F40258
:10258000691710F06FEF690FE62FF0E0EF51FD4F84
:102590009489890F80680C94AD12E1EEF2E0808995
:1025A0008E7F808B88600C94AD12E1EEF2E0808922
:1025B000982F9160908B89600C94AD120F931F93AC
:1025C000CF93DF938B01877028E0829FC001112495
:1025D00080640E94AD12E801085F1F4F699181EE8F
:1025E00092E00E94AB0AC017D107C1F7DF91CF91EB
:1025F0001F910F9108956FE771E08CE392E00C94C6
:10260000911BCF93DF93BC018CE392E00E94911B5E
:10261000EC010E94FB128C0F9D1FDF91CF9108955A
:10262000CF92DF92EF92FF920F931F93CF93DF939E
:1026300077FF1DC06A017B01EC016DE20E94661B01
:102640008C0144275527BA014C195D096E097F0991
:102650002AE0CE010E94A61B800F911FDF91CF912F
:102660001F910F91FF90EF90DF90CF9008952AE097
:10267000DF91CF911F910F91FF90EF90DF90CF905E
:102680000C94A61BAB01770F660B770B0C94101301
:10269000CF93DF93BC018CE392E00E944213EC01E4
:1026A0000E94FB128C0F9D1FDF91CF910895462F42
:1026B00050E060E070E02AE00C94A61BCF93DF931B
:1026C000BC018CE392E00E946D1BEC010E94FB12A6
:1026D0008C0F9D1FDF91CF910895CF93DF93682FCB
:1026E0008CE392E00E945713EC010E94FB128C0FC6
:1026F0009D1FDF91CF91089590E0FC01EC55FC4FB8
:102700002491FC01EA52FC4F3491FC01EE53FC4F42
:10271000E491EE2309F43CC0222339F1233091F0F7
:1027200038F42130A9F0223001F584B58F7D12C034
:10273000273091F02830A1F02430B9F48091800046
:102740008F7D03C0809180008F77809380000DC0C3
:1027500084B58F7784BD09C08091B0008F7703C0A6
:102760008091B0008F7D8093B000F0E0EE0FFF1FEE
:10277000E656FC4FA591B4919FB7F894611104C03F
:102780008C913095382302C0EC913E2B3C939FBF37
:10279000089510923B0210923A0210923902109260
:1027A00038021092370281E080933602109235028F
:1027B00061E082E10E947C1361E083E10E947C136E
:1027C000E9EBF0E080818E7F808380818D7F808344
:1027D00088E48093B80085E48093BC008AED9AE198
:1027E00090933402809333028BED9AE190933202FE
:1027F000809331020895CF93DF93823028F0909137
:10280000F00298609093F0028093F4021092F50227
:1028100080E48093F60280E18093F70280E5809364
:10282000F8028BE39DE00197F1F760E08091E5020B
:102830000E947C1360E08091E7020E947C138091EB
:10284000E6028F3F19F060E00E947C138091F00255
:1028500084FD20C063E081EE92E00E94150ACBE483
:10286000D6E4CE010197F1F763E081EE92E00E9499
:10287000150A2197F1F763E081EE92E00E94150AB4
:1028800083E592E00197F1F762E081EE92E00E9429
:10289000150A15C080620E94AD128BE496E4019780
:1028A000F1F78091F00280620E94AD1283E592E020
:1028B0000197F1F78091F00280620E94AD12809141
:1028C000F00280620E94AD1284E08093F1028CE0FD
:1028D0000E94AD120E94B31282E08093F20286E061
:1028E000DF91CF910C94AD12CF93DF9390E0FC0178
:1028F000EA52FC4F2491FC01EE53FC4F8491882353
:1029000061F190E0880F991FFC01E057FC4FC591E1
:10291000D491FC01E656FC4FA591B491611109C018
:102920009FB7F8948881209582238883EC912E2389
:102930000BC0623061F49FB7F8948881322F3095D4
:1029400083238883EC912E2B2C939FBF06C08FB7D7
:10295000F894E8812E2B28838FBFDF91CF910895C3
:102960008E3008F08E508770806480937C00809158
:102970007A00806480937A0080917A0086FDFCCF93
:10298000809178002091790090E0922B08958F92A9
:102990009F92AF92BF92CF92DF92EF92FF926B0124
:1029A0007C010E94A1114B015C01C114D104E1041E
:1029B000F104F1F00E94A111DC01CB018819990901
:1029C000AA09BB09883E9340A105B10570F321E037
:1029D000C21AD108E108F10888EE880E83E0981E3B
:1029E000A11CB11CC114D104E104F10419F7DDCF1D
:1029F000FF90EF90DF90CF90BF90AF909F908F901F
:102A000008952FB7F8946091E3017091E4018091EB
:102A1000E5019091E6012FBF0895CF93DF93EC017C
:102A20000A9728F460E38CE392E00E942F1ABE011B
:102A30008CE392E0DF91CF910C94421382E095E019
:102A40000C9401130E9435040E945407E0919D01EB
:102A50008E2F90E0FC013197E730F105D8F4E65B6A
:102A6000FF4F81E00C9464309091200111C090914F
:102A700026010EC0909125010BC09091240108C041
:102A80009091230105C09091220102C090912101F3
:102A9000923009F080E00895CF93DF93CDB7DEB791
:102AA00027970FB6F894DEBF0FBECDBF84EF94E03A
:102AB0000E94011382E00E94AD128BE39FE1019717
:102AC000F1F764EF74E081EE92E00E94CB1C63E6C4
:102AD00071E081EE92E00E94CB1C61E080E00E94F8
:102AE000BB1263E671E081EE92E00E94CB1C809104
:102AF0002701909128016091290150912B0120918B
:102B0000AC013091AE014091B001843691051CF0CA
:102B1000825B974001C04E968093A00160939F0115
:102B200050939E0140939C0130939B0120939A0106
:102B30008AE991E00E94C7040E9402040E943504C1
:102B4000AE014F5F5F4F0E946F0689818068898365
:102B5000CE0101960E94092C89818F778983CE014D
:102B600001960E94092CFFCFCF93DF93EC010A97C7
:102B700030F462EF74E081EE92E00E946D1BBE01C2
:102B800081EE92E0DF91CF910C9442130E948A076C
:102B90000E94B41568E075E081EE92E00E94CB1CC3
:102BA0000E9482070E94B41568E075E081EE92E011
:102BB0000E94CB1C0E947807BC0181EE92E00E942B
:102BC00042136CE771E081EE92E00E94CB1C6CE74F
:102BD00071E081EE92E00E94CB1C60E08BE00E94ED
:102BE000BB120E94A2070E94B41561E775E081EE56
:102BF00092E00E94CB1C0E949A070E94B4156CE7D9
:102C000071E081EE92E00C94CB1CCF93DF9300D067
:102C1000CDB7DEB760E080E00E94BB1264EE74E0E6
:102C200081EE92E00E946D1B61E080E00E94BB1289
:102C30006EE271E081EE92E00E94CB1C8DEC94E09C
:102C40000E945E1382EC94E00E945E138EEA94E090
:102C50000E945E138AE994E00E945E1386E894E085
:102C60000E945E138FE694E00E945E138FE594E06D
:102C70000E945E1381E594E00E945E1388E394E075
:102C80000E945E1387E294E00E945E1382E194E06A
:102C90000E945E138BEF93E00E945E136AEE73E076
:102CA0008CE392E00E946D1B209194033091950378
:102CB0002115310511F428E933E0CE010196821B7C
:102CC000930B0E94481360ED77E080E090E00E9453
:102CD000C7140F900F90DF91CF910895CF93DF939A
:102CE0008CE392E00E94F719181619060CF021C324
:102CF0008CE392E00E94D519EC018134910521F416
:102D000081E00E947903BDC08234910521F482E004
:102D10000E947903B5C28334910521F483E00E94B7
:102D20007903C1C28434910509F086C062EC75E074
:102D30008CE392E00E94CB1C65EB75E08CE392E0A3
:102D40000E946D1B0E94802D90E09093280180933B
:102D500027010E94802D90E0909328018093270105
:102D60000E94481362EC75E08CE392E00E94CB1C59
:102D700069EA75E08CE392E00E946D1B0E94802D51
:102D800090E090932C0180932B010E94481362ECF9
:102D900075E08CE392E00E94CB1C6DE975E08CE35A
:102DA00092E00E946D1B0E94802D90E090932A017A
:102DB000809329010E94481362EC75E08CE392E055
:102DC0000E94CB1C61E975E08CE392E00E946D1BD0
:102DD0000E94802D90E09093B1018093B0010E94F9
:102DE000481362EC75E08CE392E00E94CB1C65E82E
:102DF00075E08CE392E00E946D1B0E94802D90E0B4
:102E00009093AF018093AE010E94481362EC75E08D
:102E10008CE392E00E94CB1C69E775E08CE392E0C2
:102E20000E946D1B0E94802D90E09093AD018093D5
:102E3000AC010E94481323C08534910511F50E940E
:102E40008B2C0E948A101092AD011092AC0110924E
:102E5000AF011092AE011092B1011092B00181E069
:102E600090E090932C0180932B0190932A01809302
:102E7000290182E190E090932801809327010E942C
:102E80004C15C634D10509F0B2C10E94CE0F65E7DA
:102E900075E08CE392E00E94CB1C63E775E08CE365
:102EA00092E00E94CB1C6CE771E08CE392E00E9400
:102EB000CB1C6091D1018CE392E00E94571361E733
:102EC00075E08CE392E00E94CB1C6091D0018CE312
:102ED00092E00E9457136FE675E08CE392E00E9447
:102EE0006D1B8091AB010E946D1365E775E08CE36B
:102EF00092E00E94CB1C6DE675E08CE392E00E94AC
:102F0000CB1C6CE771E08CE392E00E94CB1C6091DB
:102F1000CE018CE392E00E94571361E775E08CE3E9
:102F200092E00E94CB1C6091CD018CE392E00E9464
:102F300057136BE675E08CE392E00E946D1B809165
:102F4000AA010E946D1365E775E08CE392E00E9490
:102F5000CB1C69E675E08CE392E00E94CB1C6CE729
:102F600071E08CE392E00E94CB1C6091CB018CE37A
:102F700092E00E94571361E775E08CE392E00E94B3
:102F8000CB1C6091CA018CE392E00E94571367E664
:102F900075E08CE392E00E946D1B8091A9010E9474
:102FA0006D136EE771E08CE392E00E94CB1C6CE73E
:102FB00071E08CE392E00E94CB1C68E371E08CE34B
:102FC00092E00E94CB1C6CE771E08CE392E00E94DF
:102FD000CB1C8091C0010E946D136EE771E08CE301
:102FE00092E00E94CB1C6CE771E08CE392E00E94BF
:102FF000CB1C61E471E08CE392E00E94CB1C6CE797
:1030000071E08CE392E00E94CB1C8091BF010E9492
:103010006D1366E575E08CE392E00E94CB1C6CE7D3
:1030200071E08CE392E00E94CB1C8091BE010E9473
:103030006D1365E475E08CE392E00E94CB1C6CE7B5
:1030400071E08CE392E00E94CB1C40912A035091E6
:103050002B0360912C0370912D038CE392E00E946E
:1030600010130E94FB1264E375E08CE392E00E946F
:10307000CB1C6CE771E08CE392E00E94CB1C80914A
:10308000BD010E946D1363E275E08CE392E00E9443
:10309000CB1C6CE771E08CE392E00E94CB1C40916A
:1030A00026035091270360912803709129038CE334
:1030B00092E00E9410130E94FB1266EC70E08CE319
:1030C00092E00E94CB1C6CE771E08CE392E00E94DE
:1030D000CB1C809126010E946D1361EC70E08CE3A3
:1030E00092E00E94CB1C6CE771E08CE392E00E94BE
:1030F000CB1C809125010E946D136EEB70E08CE378
:1031000092E00E94CB1C6CE771E08CE392E00E949D
:10311000CB1C809124010E946D136BEB70E08CE35B
:1031200092E00E94CB1C6CE771E08CE392E00E947D
:10313000CB1C809123010E946D1368EB70E08CE33F
:1031400092E00E94CB1C6CE771E08CE392E00E945D
:10315000CB1C809122010E946D1365EB70E08CE323
:1031600092E00E94CB1C6CE771E08CE392E00E943D
:10317000CB1C809121010E946D1362EB70E08CE307
:1031800092E00E94CB1C6CE771E08CE392E00E941D
:10319000CB1C809120010E946D136DE175E08CE3E2
:1031A00092E00E94CB1C6CE771E08CE392E00E94FD
:1031B000CB1C6091A8018CE392E00E9457136CE74E
:1031C00071E08CE392E00E94CB1C8091A8018111F8
:1031D00004C085E195E00E9401138091A80181302F
:1031E00009F0A1C08AE095E00E9401139CC0C73499
:1031F000D10509F045C060912E0370912F038CE337
:1032000092E00E94421360ED75E08CE392E00E9430
:10321000CB1C69EC75E08CE392E00E94CB1C67EC60
:1032200075E08CE392E00E94CB1C6CE771E08CE3CC
:1032300092E00E94CB1C4091A1015091A2016091AB
:10324000A3017091A40122E08CE392E00E94EF1BA5
:103250006EE171E08CE392E00E94CB1C6CE771E0C0
:103260008CE392E00E94CB1C6091B2018CE392E06F
:103270000E94571380E291E0DF91CF910C940113EB
:10328000C834D10581F40E94ED084091B9015091F4
:10329000BA016091BB017091BC0122E08CE392E025
:1032A0000E94EF1B3CC0C934D105E9F50E94A2077A
:1032B0000E940D1561E775E08CE392E00E94CB1C43
:1032C0000E949A070E940D1561E775E08CE392E079
:1032D0000E94CB1C0E9492070E940D156CE771E0C2
:1032E0008CE392E00E94CB1C0E948A070E940D157D
:1032F00068E075E08CE392E00E94CB1C0E9482079C
:103300000E940D1568E075E08CE392E00E94CB1CF2
:103310000E947807BC018CE392E00E944213DF9187
:10332000CF910C94FB12EF9721F4DF91CF910C9485
:103330000516DF91CF910895CF92DF92EF92FF9221
:103340000F931F93CF93DF936C017A018B01C0E041
:10335000D0E0CE15DF0581F0D8016D918D01D60149
:10336000ED91FC910190F081E02DC6010995892B2A
:1033700011F02196EECF7E01C701DF91CF911F9111
:103380000F91FF90EF90DF90CF900895FC01538D47
:10339000448D252F30E0842F90E0821B930B54172F
:1033A00010F0CF96089501970895FC01918D828DBC
:1033B000981761F0828DDF01A80FB11D5D968C9189
:1033C000928D9F5F9F73928F90E008958FEF9FEF94
:1033D0000895FC01918D828D981731F0828DE80F50
:1033E000F11D858D90E008958FEF9FEF0895FC010A
:1033F000918D228D892F90E0805C9F4F821B9109D7
:103400008F73992708958CE392E00E94F71921E0C9
:10341000892B09F420E0822F0895FC01848DDF01BF
:10342000A80FB11DA35ABF4F2C91848D90E0019637
:103430008F739927848FA689B7892C93A089B18926
:103440008C91837080648C93938D848D981306C0C7
:103450000288F389E02D80818F7D80830895EF922B
:10346000FF920F931F93CF93DF93EC0181E0888F3E
:103470009B8D8C8D981305C0E889F989808185FD25
:1034800026C0F62E0B8D10E00F5F1F4F0F73112714
:10349000E02E8C8DE8120CC00FB607FCFACFE8893D
:1034A000F989808185FFF5CFCE010E940D1AF1CFF9
:1034B0008B8DFE01E80FF11DE35AFF4FF0829FB79D
:1034C000F8940B8FEA89FB89808180620AC09FB7DC
:1034D000F894EE89FF896083E889F9898081837097
:1034E000806480839FBF81E090E0DF91CF911F9146
:1034F0000F91FF90EF900895CF93DF93EC01888DAB
:103500008823C9F0EA89FB89808185FD05C0A889E7
:10351000B9898C9186FD0FC00FB607FCF5CF80816D
:1035200085FFF2CFA889B9898C9185FFEDCFCE01B7
:103530000E940D1AE7CFDF91CF91089580E090E0CF
:10354000892B29F00E94031A81110C940000089520
:1035500085ED8093BC008091BC0084FDFCCF10926F
:103560003702089540917003262F30E0240F311D5B
:1035700021323105DCF4209137022430C9F4FC01FA
:1035800080E090E0861758F4309170032191DC01BF
:10359000A05BBC4FA30FB11D2C930196F3CF80917C
:1035A0007003680F6093700380E0089581E00895D0
:1035B00082E00895089508950895E0913B02809176
:1035C0003A02E81730F4F0E0E05DFC4F808190E0D3
:1035D00008958FEF9FEF089590913B0280913A02FA
:1035E000981750F4E92FF0E0E05DFC4F208130E0C7
:1035F0009F5F90933B0202C02FEF3FEFC9010895F8
:1036000080913A0290E020913B02821B910908953B
:10361000CF92DF92EF92FF920F931F93CF93DF939E
:103620007C01CB018A0120910F02222389F0EB015A
:103630006B01C40ED51ECC15DD0569F06991D7016B
:10364000ED91FC910190F081E02DC7010995F3CF38
:10365000642F0E94B21AC801DF91CF911F910F9180
:10366000FF90EF90DF90CF900895CF93DF931F925C
:10367000CDB7DEB7698320910F022223D1F02091CC
:103680003802203240F021E030E0FC013383228315
:1036900080E090E015C080913902E82FF0E0E05F13
:1036A000FD4F998190838F5F809339028093380218
:1036B00005C061E0CE0101960E94B21A81E090E05F
:1036C0000F90DF91CF9108950E94A730DC01ED911A
:1036D000FC910190F081E02D0994EF92FF920F93FD
:1036E0001F93CF93DF938C017B01C0E0D0E0F70103
:1036F000EC0FFD1F6491662361F0D801ED91FC9100
:103700000190F081E02DC8010995892B11F02196D7
:10371000EECFCE01DF91CF911F910F91FF90EF90EF
:1037200008956115710579F0FB0101900020E9F71A
:103730003197AF01461B570BDC01ED91FC910280E4
:10374000F381E02D099480E090E008958F929F929C
:10375000AF92BF92EF92FF920F931F93CF93DF939D
:10376000CDB7DEB7A1970FB6F894DEBF0FBECDBFC1
:103770007C01FA01CB0119A2223008F42AE08E0163
:103780000F5D1F4F822E912CA12CB12CBF01A501E2
:1037900094010E942330F901CA01015011096A30D5
:1037A00014F4605D01C0695CD8016C93232B242B59
:1037B000252B61F7B801C7010E94911BA1960FB696
:1037C000F894DEBF0FBECDBFDF91CF911F910F9157
:1037D000FF90EF90BF90AF909F908F9008957F9251
:1037E0008F929F92AF92BF92CF92DF92EF92FF9211
:1037F0000F931F93CF93DF938C016A017B01722E8D
:103800009A01AB01C701B6010E94FE2F882319F06F
:1038100062E871E027C046015701E894B7F82FEF3E
:103820003FEF4FE75FE7C501B4010E94FE2F811112
:103830000DC02FEF3FEF4FE75FE7C501B4010E94D6
:103840002D2E18161CF466E871E00CC02FEF3FEF28
:103850004FE75FE4C701B6010E948C2F181694F45D
:103860006AE871E0C801DF91CF911F910F91FF903D
:10387000EF90DF90CF90BF90AF909F908F907F9010
:103880000C94911B2FEF3FEF4FE75FECC701B601A0
:103890000E942D2E87FDE4CF20E030E0A901C70172
:1038A000B6010E942D2E87FF0AC06DE2C8010E945A
:1038B000661BEC01F7FAF094F7F8F09402C0C0E050
:1038C000D0E0B12C60E070E080E09FE37B1441F039
:1038D00020E030E040E251E40E94322EB394F6CF73
:1038E000A70196010E94C12D6B017C010E94AB2EA5
:1038F0004B015C012AE0AB01BC01C8010E94A61B80
:10390000C80FD91F7720C1F1C501B4010E94DA2E7A
:103910009B01AC01C701B6010E94C02D6B017C0167
:103920006EE2C8010E94661BC80FD91F20E030E07C
:1039300040E251E4C701B6010E94912F4B015C01A6
:103940000E94AB2E6B01E12CF12C2AE0B701A601FD
:10395000C8010E94A61BC80FD91FC701B6010E944B
:10396000DA2E9B01AC01C501B4010E94C02D6B0190
:103970007C017A947110DACFCE01DF91CF911F9143
:103980000F91FF90EF90DF90CF90BF90AF909F90FE
:103990008F907F9008950C94911B1F920F920FB6F9
:1039A0000F9211242F933F934F935F936F937F93C5
:1039B0008F939F93AF93BF93EF93FF938CE392E02A
:1039C0000E940D1AFF91EF91BF91AF919F918F913E
:1039D0007F916F915F914F913F912F910F900FBE0B
:1039E0000F901F9018951F920F920FB60F921124EF
:1039F0002F938F939F93EF93FF93E0914C02F0915D
:103A00004D028081E0915202F091530282FD12C07A
:103A10009081809155028F5F8F732091560282179B
:103A200051F0E0915502F0E0E45CFD4F958F8093FA
:103A3000550201C08081FF91EF919F918F912F914D
:103A40000F900FBE0F901F9018951F920F920FB6F8
:103A50000F9211242F933F934F935F936F937F9314
:103A60008F939F93AF93BF93EF93FF938091B90090
:103A7000887F803609F49CC068F5883209F45BC001
:103A800090F4803109F454C038F4882309F4F6C066
:103A9000883009F44DC0F6C0883109F44CC080323A
:103AA00009F45DC0EFC0803409F468C048F4803385
:103AB00009F455C0883309F0E5C080930E02D8C0E0
:103AC000803509F44FC0883509F45DC0883409F0A9
:103AD000D9C0D6C0883909F4C7C0A8F4883709F41A
:103AE00067C038F4883609F463C0803709F460C0D1
:103AF000C9C0883809F4B8C0803909F45FC080387B
:103B000009F0C0C05BC0803B09F486C038F4803A3D
:103B100009F466C0883A09F47FC0B4C0803C09F457
:103B2000A7C0883C09F4A4C0883B09F48AC0AAC095
:103B30008091EB0110C090910D0280910C029817BA
:103B400070F5E0910D0281E08E0F80930D02F0E0A0
:103B5000E451FE4F80818093BB0085EC86C080934A
:103B60000E028EC0E0910D0281E08E0F80930D0257
:103B70008091BB00F0E0E451FE4F808390910D02F4
:103B800080910C026EC0E0910D0281E08E0F809357
:103B90000D028091BB00F0E0E451FE4F80838091E4
:103BA000360281116DC081E08093350284EA61C0E4
:103BB00083E08093370210929203CFCF80919203DB
:103BC000803208F051C0E091920381E08E0F809323
:103BD00092038091BB00F0E0EE58FC4F8083BDCF94
:103BE00085EC8093BC001092370280919203803262
:103BF00030F4E0919203F0E0EE58FC4F10826091B7
:103C0000920370E0E0913102F091320282E793E09A
:103C100009951092920336C084E080933702109287
:103C2000710310927003E0913302F0913402099510
:103C300080917003811105C081E080937003109220
:103C40005003E091710381E08E0F80937103F0E0E7
:103C5000E05BFC4F80818093BB0090917103809169
:103C60007003981708F479CF85E88093BC000AC0E8
:103C700085EC8093BC001092370204C010920E02B3
:103C80000E94A81AFF91EF91BF91AF919F918F91E0
:103C90007F916F915F914F913F912F910F900FBE48
:103CA0000F901F9018950C94B22D0C94AA2D1F9272
:103CB0000F920FB60F9211242F933F938F939F93E0
:103CC000AF93BF938091E3019091E401A091E5014E
:103CD000B091E6013091930323E0230F2D3720F4B8
:103CE0000196A11DB11D05C026E8230F0296A11D56
:103CF000B11D209393038093E3019093E401A0937B
:103D0000E501B093E6018091E7019091E801A0916F
:103D1000E901B091EA010196A11DB11D8093E7016F
:103D20009093E801A093E901B093EA01BF91AF91AC
:103D30009F918F913F912F910F900FBE0F901F90E9
:103D40001895CF93DF93CDB7DEB765970FB6F8948C
:103D5000DEBF0FBECDBF789484B5826084BD84B5CC
:103D6000816084BD85B5826085BD85B5816085BD76
:103D700080916E00816080936E001092810080912E
:103D800081008260809381008091810081608093B6
:103D90008100809180008160809380008091B100DB
:103DA00084608093B1008091B00081608093B00006
:103DB00080917A00846080937A0080917A0082609A
:103DC00080937A0080917A00816080937A0080915C
:103DD0007A00806880937A001092C100E0914C02D2
:103DE000F0914D0282E08083E0914802F091490217
:103DF0001082E0914A02F0914B0280E180831092A0
:103E00005402E0915002F091510286E08083E091EB
:103E10004E02F0914F02808180618083E0914E02DA
:103E2000F0914F02808188608083E0914E02F09192
:103E30004F02808180688083E0914E02F0914F02B2
:103E400080818F7D808364EF71E080E090E00E944C
:103E5000C7140E94C91382E00E94FB130E94B31290
:103E600060E171E080E00E94DE1268E071E081E0D4
:103E70000E94DE1260E071E082E00E94DE1261E0EA
:103E800081E10E94741460E081E10E947C1360E093
:103E90008FE00E94741461E08AE00E94741461E073
:103EA0008AE00E947C130E948A100E9405168FE807
:103EB00095E090938F0180938E0180919401909171
:103EC0009501A0919601B0919701809390019093F4
:103ED0009101A0939201B09393010E9435048CE26A
:103EE00091E0A0E0B0E08093180190931901A093B5
:103EF0001A01B0931B018091940190919501A091BA
:103F00009601B0919701845D9E4FAF4FBF4F809354
:103F1000900190939101A0939201B09393010E941C
:103F2000350480919801909199010297F9F00E94CF
:103F3000B31262EA70E081EE92E00E94CB1C82EA4A
:103F400090E00E94011360EA7FE080E090E00E9430
:103F5000C71481E08093D2018BE090E09093A6019A
:103F60008093A5011092A7010E94B10A0E946E16CB
:103F7000E091FE02F091FF02138615861486DF01A0
:103F80001B9633961E92EA17FB07E1F71092FD028B
:103F900001E0BE01665F7F4F8091FE029091FF02BB
:103FA0000E946508882309F45BC067E0CE010A9689
:103FB0000E94AA0799898913ECCF8091F902811197
:103FC00027C08091FE029091FF020E942E08BE0140
:103FD000665F7F4F8091FE029091FF020E94EB0787
:103FE00040E064EB8091FE029091FF020E94B707CF
:103FF0008091FE029091FF020E940A08182F809182
:10400000FE029091FF020E942E08112309F457C569
:10401000BE016F5F7F4FCE010A960E94221210915F
:10402000FA028A85803111F40C94032CCE010A9691
:104030000E947712811718F48091FA0209C08A85CC
:10404000803111F48CE004C0CE010A960E947712F0
:104050008093FA028091FD028F5F8093FD0299CFD9
:104060000E94ED0898E288E10FB6F894A895809335
:1040700060000FBE90936000A89568EEA62E63E0E6
:10408000B62E78EEC72E73E0D72EE12CF12C8824C3
:104090008A94982C8091D20181119FC28091D9017C
:1040A0008111DFC188EB9BE090931D0180931C017F
:1040B0000E9401150091D5011091D6012091D701E0
:1040C0003091D801DC01CB01801B910BA20BB30B0B
:1040D000883B9B40A105B10508F47FC20E940115F1
:1040E0006093D5017093D6018093D7019093D80146
:1040F0008091D3019091D40101969093D401809343
:10410000D3018130910509F444C01CF4892B49F096
:1041100064C28230910509F46EC0039709F4DBC0D4
:104120005CC260E080E00E94BB120E94C61561E0A4
:1041300080E00E94BB124090B9015090BA0160909B
:10414000BB017090BC0120E030E048EC52ECC301B0
:10415000B2010E948C2F18169CF421E0B301A20139
:1041600081EE92E00E94EF1B60E081EE92E00E94FF
:10417000AB0A60E371E081EE92E00E946D1B27C202
:1041800064E271E081EE92E00E94CB1C62E271E099
:104190001AC261E080E00E94BB126091B20181EE20
:1041A00092E00E94571360E271E081EE92E00E947B
:1041B000CB1C6CE771E081EE92E00E94CB1C409139
:1041C000A1015091A2016091A3017091A40122E08C
:1041D00081EE92E00E94EF1B6EE171E081EE92E0D1
:1041E0000E94CB1C63E671E081EE92E00E94CB1C42
:1041F0000E94C615F2C160E080E00E94BB120E94DE
:10420000C61561E080E00E94BB120E9435040E9446
:104210005407E0919D018E2F90E0FC013197E7302B
:10422000F10508F055C0EC5CFF4F66E171E081EEEE
:1042300092E00C9464300E94CB1C6CE771E081EE3C
:1042400092E00E94CB1C6FE071E0BDC10E94CB1CCC
:104250006CE771E081EE92E00E94CB1C67E071E0B8
:10426000B2C10E94CB1C6CE771E081EE92E00E942B
:10427000CB1C61E071E0A7C10E94CB1C6CE771E030
:1042800081EE92E00E94CB1C6AEF70E09CC10E941C
:10429000CB1C6CE771E081EE92E00E94CB1C62EFD8
:1042A00070E091C10E94CB1C6CE771E081EE92E05E
:1042B0000E94CB1C6CEE70E086C10E94CB1C6CE7A8
:1042C00071E081EE92E00E94CB1C65EE70E07BC154
:1042D0006AED70E078C160E080E00E94BB1269EC9A
:1042E00070E081EE92E00E94CB1C63E671E081EE0B
:1042F00092E00E94CB1C61E08EE00E94BB1263E65C
:1043000071E081EE92E00E94CB1C61E080E00E94AF
:10431000BB1280912601823019F466EC70E008C06F
:1043200064EC70E081EE92E00E94CB1C64EC70E0E3
:1043300081EE92E00E94CB1C61E082E00E94BB1201
:1043400080912501823019F461EC70E008C064ECC2
:1043500070E081EE92E00E94CB1C64EC70E081EE94
:1043600092E00E94CB1C61E084E00E94BB1280912D
:104370002401823019F46EEB70E008C064EC70E048
:1043800081EE92E00E94CB1C64EC70E081EE92E042
:104390000E94CB1C61E086E00E94BB128091230149
:1043A000823019F46BEB70E008C064EC70E081EED1
:1043B00092E00E94CB1C64EC70E081EE92E00E94DF
:1043C000CB1C61E088E00E94BB1280912201823008
:1043D00019F468EB70E008C064EC70E081EE92E0E4
:1043E0000E94CB1C64EC70E081EE92E00E94CB1C3A
:1043F00061E08AE00E94BB1280912101823019F4B1
:1044000065EB70E008C064EC70E081EE92E00E9421
:10441000CB1C64EC70E081EE92E00E94CB1C61E06A
:104420008CE00E94BB1280912001823019F462EB73
:1044300070E008C064EC70E081EE92E00E94CB1C5A
:1044400064EC70E081EE92E00E94CB1C63E671E0C8
:1044500081EE92E00E94CB1C9092D4018092D30115
:10446000BCC0B0921D01A0921C010E9401150091D8
:10447000D5011091D6012091D7013091D801DC01EE
:10448000CB01801B910BA20BB30B883E9340A1057F
:10449000B10508F4A2C00E9401156093D501709384
:1044A000D6018093D7019093D80160E080E00E940C
:1044B000BB126EE771E081EE92E00E94CB1C6CE7CC
:1044C00071E081EE92E00E94CB1C80912D01882347
:1044D00019F061E471E002C068E371E081EE92E0FE
:1044E0000E94CB1C63E671E081EE92E00E94CB1C3F
:1044F00061E080E00E94BB126CE371E081EE92E02B
:104500000E94CB1C6CE771E081EE92E00E94CB1C14
:104510004091C5015091C6016091C7017091C801D9
:104520008091C1019091C201A091C301B091C401D9
:10453000840F951FA61FB71F0091DD021091DE02A8
:104540002091DF023091E002BC01CD01601B710BB4
:10455000820B930BA70196010E942330BA01A90197
:1045600081EE92E00E94101366E371E081EE92E02A
:104570000E94CB1C6091D9027091DA028091DB021B
:104580009091DC02A70196010E94233029013A0193
:104590006091B5017091B6018091B7019091B80119
:1045A000A70196010E942330D301C201821B930B05
:1045B000A40BB50BAC01BD012AE081EE92E00E9494
:1045C000A61B62E371E081EE92E00E94CB1C63E6E1
:1045D00071E081EE92E00E94CB1C0E946E168EE08C
:1045E0000E94B014823391059CF0833C91050CF439
:1045F0002CC48C37A1E09A070CF49AC28B32B2E03B
:104600009B070CF486C5863193400CF45BC221C035
:1046100060E971E080E090E00E94C7148CE591E0D1
:104620000E94011380911E0190911F018B30910512
:1046300009F4BCC58530910509F4B4C283309105F5
:1046400009F4BCC58130910509F4BEC5892B09F474
:10465000C1C58091DA01882309F4A8C06091D10115
:1046600082E090E00E94531E6091D00183E090E0D0
:104670000E94531E6091AB0184E090E00E94531EA3
:104680006091CE0185E090E00E94531E6091CD01C3
:1046900086E090E00E94531E6091AA0187E090E0BE
:1046A0000E94531E6091CB0188E090E00E94531E4F
:1046B0006091CA0189E090E00E94531E6091A901B7
:1046C0008AE090E00E94531E6091C0018BE090E070
:1046D0000E94531E6091BF018CE090E00E94531E27
:1046E0006091BE018DE090E00E94531E6091BD017B
:1046F00080E190E00E94531E6091260184E190E0E9
:104700000E94531E6091250185E190E00E94531E96
:104710006091240186E190E00E94531E6091230184
:1047200087E190E00E94531E6091220188E190E0B1
:104730000E94531E6091210189E190E00E94531E66
:10474000609120018AE190E00E94531E6091A801CF
:1047500082E190E00E94531E84E791E00E940113E1
:104760001092DA010E94CD1260E080E00E94BB123C
:1047700064E771E081EE92E00E94CB1C63E671E099
:1047800081EE92E00E94CB1C61E080E00E94BB12AF
:1047900063E671E081EE92E00E94CB1C60ED77E071
:1047A00080E090E00E94C7140E944C158091D201D5
:1047B000811181C10E948A0790932C0180932B0163
:1047C0000E94820790932A01809329010E94780712
:1047D000805D974090932801809327010E94A20753
:1047E0009093B1018093B0010E949A079093AF011A
:1047F0008093AE010E9492079093AD018093AC012B
:104800000E94ED080E942215882361F18091BD016C
:10481000823041F58091BE01813021F57090B20166
:1048200097E2971560F08091CF018111DAC48091F1
:10483000CC018111D6C48091C9018111D2C41091DB
:10484000B20188ED810F843108F41CC51091B201CA
:1048500084EC810F843108F470C51091B2011035D9
:1048600008F0C0C50E942215882309F45EC080911B
:10487000BE01823009F059C08091BD01813009F03C
:1048800054C04090B9015090BA016090BB01709043
:10489000BC0120E030E040E252E4C301B2010E94DA
:1048A0008C2F87FD0CC08091CF018111EAC58091CA
:1048B000CC018111E6C58091C9018111E2C540900A
:1048C000B9015090BA016090BB017090BC0120E02A
:1048D00030E040EF51E4C301B2010E948C2F87FF0A
:1048E00033C64090B9015090BA016090BB017090FE
:1048F000BC0120E030E040EA51E4C301B2010E9473
:104900008C2F87FF98C64090B9015090BA016090F3
:10491000BB017090BC0120E030E040EA50E4C301EC
:10492000B2010E948C2F87FFF7C68091D90188239E
:1049300009F472C00E9401156093DD027093DE02DB
:104940008093DF029093E00210912D01612F81E1AD
:104950000E947C138091DD029091DE02A091DF0223
:10496000B091E0024091C5015091C6016091C7012C
:104970007091C801841B950BA60BB70B4091C10128
:104980005091C2016091C3017091C40184179507D1
:10499000A607B70708F444C0112319F02091C001FD
:1049A00002C02091BF012A9DC0012B9D900D1124B2
:1049B000092E000CAA0BBB0B8093C1019093C2017E
:1049C000A093C301B093C4016EE771E08CE392E061
:1049D0000E94CB1C6CE771E08CE392E00E94CB1C40
:1049E00080912D0190E00E94481390912D0181E06B
:1049F000892780932D018091DD029091DE02A091A4
:104A0000DF02B091E0028093C5019093C601A093AC
:104A1000C701B093C80104C060E081E10E947C132B
:104A20000E94A2072091D10130E08217930789F4F8
:104A30000E949A072091D00130E08217930749F431
:104A40000E94920705972CF48091CF01882309F4E6
:104A5000CEC60E94A2072091CE0130E082179307B4
:104A600089F40E949A072091CD0130E082179307C4
:104A700049F40E94920705972CF48091CC01882379
:104A800009F4B9C60E94A2072091CB0130E0821739
:104A9000930789F40E949A072091CA0130E0821797
:104AA000930749F40E94920705972CF48091C9015D
:104AB000882309F4A4C6A8950E949E1AEBCA009305
:104AC000F902A6CA65E471E08CE392E00E94CB1C77
:104AD0008091A5019091A6010E94481381E08093E6
:104AE000D2018091A5010E94B10A8091A501909107
:104AF000A6018230910540F09C01277F23303105CB
:104B000019F08530910521F41092A7010E94B10A95
:104B10008091A5019091A60101969093A6018093A2
:104B2000A50160E273E080E090E00E94C71491CD9F
:104B300068EC70E080E090E00E94C7148AE491E0A5
:104B40000E94011380911E0190911F019C012C5025
:104B500031092230310578F41092D2011092DA0135
:104B60000E94CD1290921F0180921E011092A60108
:104B70001092A5016ECD8B30910509F076C0809121
:104B8000A701811121C080912B0190912C018230CD
:104B90009105A4F4AFE1B0E0B0932C01A0932B01F8
:104BA0008BE009C08091A7018F3F09F4D5C281E055
:104BB0008093A70185E00E94B10A4BCD01979093A5
:104BC0002C0180932B01ECCF813081F4809129015D
:104BD00090912A01823091051CF48CE090E001C094
:104BE000019790932A0180932901DACF8230A1F4B2
:104BF0008091270190912801843191053CF4A2E332
:104C0000B0E0B0932801A0932701CACF01979093F9
:104C1000280180932701C4CF833081F48091B001B3
:104C20009091B101181619061CF087E190E001C0BF
:104C300001979093B1018093B001B2CF843009F015
:104C400008CD8091AE019091AF01181619063CF085
:104C5000ABE3B0E0B093AF01A093AE01A1CF019759
:104C60009093AF018093AE019BCF8A30910551F4B0
:104C70008091BD01813011F08AE09DCF82E0809368
:104C8000BD01FACF8930910551F48091BE01813088
:104C900011F089E090CF82E08093BE01FACF883096
:104CA000910559F48091BF01811105C08AEF80936D
:104CB000BF0188E080CF8150FACF8730910559F449
:104CC0008091C001811105C08AEF8093C00187E007
:104CD00072CF8150FACF8630910559F48091A901A5
:104CE000863028F48AEF8093A90186E064CF85504E
:104CF000FACF85309105F9F48091A70181110CC09C
:104D00008091CB01811104C0B7E1B093CB0152CFA8
:104D100081508093CB014ECF813009F09ACC8091A5
:104D2000CA01811104C02BE32093CA0143CF8150F3
:104D30008093CA013FCF8430910559F48091AA0134
:104D4000863028F48AEF8093AA0184E034CF85501E
:104D5000FACF83309105F1F48091A70181110BC046
:104D60008091CE01811102C087E101C08150809302
:104D7000CE0183E020CF813009F06BCC8091CD0152
:104D8000811104C09BE39093CD01F3CF81508093B8
:104D9000CD01EFCF8230910559F48091AB0186307F
:104DA00028F48AEF8093AB0182E005CF8550FACFDB
:104DB0008130910501F58091A70181110DC080918D
:104DC000D101811105C0A7E1A093D10181E0F3CE0B
:104DD00081508093D101FACF813009F03ACC809193
:104DE000D001811104C0BBE3B093D001EFCF81505B
:104DF0008093D001EBCF892B09F02BCC8091A701B8
:104E0000811103C010922601D6CE813021F4109278
:104E1000250180E0D0CE823019F410922401F9CF20
:104E2000833019F410922301F4CF843019F41092D6
:104E30002201EFCF853019F410922101EACF86309C
:104E400009F007CC10922001E4CF68EC70E080E01C
:104E500090E00E94C7148FE491E00E9401138091BA
:104E60001E0190911F018D30910521F481E0809306
:104E7000DA0178CE8C30910539F58FEF9FEF909362
:104E80001F0180931E010E948B2C0E948A10109299
:104E9000AD011092AC011092AF011092AE011092D0
:104EA000B1011092B00181E090E090932C018093C9
:104EB0002B0190932A018093290182E190E0909345
:104EC00028018093270170CC8B30910509F051C0E7
:104ED0008091A70181110CC080912B0190912C0130
:104EE0008F3191051CF081E090E069CE019667CE8C
:104EF000813081F48091290190912A018C309105B3
:104F00003CF0A1E0B0E0B0932A01A093290148CE83
:104F1000019667CE823061F480912701909128013B
:104F2000823391051CF083E190E071CE01966FCE43
:104F3000833071F48091B0019091B1018731910576
:104F40002CF01092B1011092B0012ACE019671CED0
:104F5000843009F07ECB8091AE019091AF018B330C
:104F600091052CF01092AF011092AE0119CE01966E
:104F700077CE8A30910539F48091BD01823009F0F5
:104F80007BCE81E07CCE8930910539F48091BE01E1
:104F9000823009F07ECE81E07FCE8830910549F4E1
:104FA0008091BF018A3F18F01092BF0182CE8F5FBF
:104FB0007ECE8730910549F48091C0018A3F18F078
:104FC0001092C00184CE8F5F80CE8630910541F46F
:104FD0008091A9018A3F10F085E085CE8B5F83CE5A
:104FE00085309105C9F48091A701811109C0809194
:104FF000CB01873118F01092CB01DCCD8F5F89CEC9
:10500000813009F026CB8091CA018B3318F01092C1
:10501000CA01D0CD8F5F8CCE8430910541F4809150
:10502000AA018A3F10F085E08ECE8B5F8CCE833054
:105030009105C9F48091A701811109C08091CE0129
:10504000873118F01092CE0194CE8F5F90CE8130D0
:1050500009F0FFCA8091CD018B3318F01092CD0179
:1050600088CE8F5F94CE8230910541F48091AB0160
:105070008A3F10F085E096CE8B5F94CE813091050B
:10508000C9F48091A701811109C08091D1018731B4
:1050900018F01092D1019ACE8F5F9BCE813009F02B
:1050A000D8CA8091D0018B3318F01092D0018ECEE7
:1050B0008F5F9ECE892B09F0CCCA8091A701811108
:1050C00004C082E080932601A4CE813021F482E0E6
:1050D000809325019ECE823019F48093240199CECD
:1050E000833021F482E08093230193CE843021F435
:1050F00082E0809322018DCE853021F482E080937E
:10510000210187CE863009F0A4CA82E08093200175
:1051100080CE60E971E080E090E00E94C71486E5EF
:1051200091E00E94011380911E0190911F018B302C
:10513000910551F48091A701815019F08093A70146
:105140002FCD1092A7012CCD8530910541F480918F
:10515000A701815009F02CCD1092A7012BCD8330EF
:10516000910551F48091A701815019F08093A70116
:1051700000CE1092A701FDCD8130910551F48091B0
:10518000A701815019F08093A70120CE1092A701AA
:105190001DCE892B09F05DCA8091A701815019F0BD
:1051A0008093A70136CE1092A70133CE8091A7013C
:1051B0008F5F843008F4C2CF84E0C0CF8091A70114
:1051C0008F3FB9F281E0D2CF8091A7018F3FF1F2FA
:1051D00081E0D9CF8091A7018F5F863008F386E008
:1051E000DFCF81E08093D9010E9401156093D9023D
:1051F0007093DA028093DB029093DC02A7019601A0
:105200000E94233019012A010091B3011091B401C9
:105210006091B5017091B6018091B7019091B8018C
:10522000A70196010E942330D201C101821B930B7A
:10523000A40BB50B980136952795020F131F20E09C
:1052400030E080179107A207B30708F4F8CA20924C
:10525000B5013092B6014092B7015092B801109258
:10526000CF011092CC011092C9011092D901472DA3
:1052700050E060E070E081E190E00E945D030E94F8
:105280001E15DDCA8091CF01811109C08091CC012A
:10529000811105C08091C901882309F4D7CA81E032
:1052A0008093D9010E9401156093D9027093DA02AC
:1052B0008093DB029093DC02A70196010E942330C9
:1052C00029013A016091B5017091B6018091B70151
:1052D0009091B801A70196010E942330D301C20129
:1052E000821B930BA40BB50BAC01BD018091B301E4
:1052F0009091B401A0E0B0E0481759076A077B0716
:1053000008F4A4CA4092B5015092B6016092B70168
:105310007092B8011092CF011092CC011092C90185
:105320001092D901412F50E060E070E081E190E0FF
:105330000E945D030E941E1589CA8091CF018111D0
:1053400005C08091CC01882309F487CA81E080934D
:10535000D9010E9401156093D9027093DA028093FB
:10536000DB029093DC02A70196010E942330290101
:105370003A016091B5017091B6018091B7019091A9
:10538000B801A70196010E942330D301C201821BFC
:10539000930BA40BB50BAC01BD018091B3019091AF
:1053A000B401A0E0B0E0481759076A077B0708F48A
:1053B00054CA4092B5015092B6016092B701709202
:1053C000B8011092CF011092CC011092D901412F57
:1053D00050E060E070E081E190E00E945D030E9497
:1053E0001E153BCA8091CF01882309F43BCA81E096
:1053F0008093D9010E9401156093D9027093DA025B
:105400008093DB029093DC02A70196010E94233077
:1054100029013A016091B5017091B6018091B701FF
:105420009091B801A70196010E942330D301C201D7
:10543000821B930BA40BB50BAC01BD018091B30192
:105440009091B401A0E0B0E0481759076A077B07C4
:1054500008F408CA4092B5015092B6016092B701B3
:105460007092B8011092CF011092D901412F50E0F3
:1054700060E070E081E190E00E945D030E941E15F3
:10548000F1C981E08093D9010E9401156093D9028E
:105490007093DA028093DB029093DC02A7019601FD
:1054A0000E9423302A8B3B8B4C8B5D8B0091B30188
:1054B0001091B4016091B5017091B6018091B7016E
:1054C0009091B801A70196010E9423308A899B8997
:1054D000AC89BD89821B930BA40BB50B9801369543
:1054E0002795020F131F20E030E080179107A207D5
:1054F000B30708F4E4C98A899B89AC89BD89809384
:10550000B5019093B601A093B701B093B801109282
:10551000CF011092CC011092C9011092D90120E064
:1055200030E04AE754E4C301B2010E94912F0E9487
:10553000A42EAB01770F660B770B8EE090E00E94F4
:105540005D030E941E15BBC920E030E040E252E43A
:10555000C301B2010E942D2E87FFC3C98091CF01E4
:10556000811109C08091CC01811105C08091C901D0
:10557000882309F4B6C981E08093D9010E940115FE
:105580006093D9027093DA028093DB029093DC027D
:10559000A70196010E9423302A8B3B8B4C8B5D8B9D
:1055A0006091B5017091B6018091B7019091B801F9
:1055B000A70196010E9423308A899B89AC89BD8905
:1055C000821B930BA40BB50BAC01BD018091B30101
:1055D0009091B401A0E0B0E0481759076A077B0733
:1055E00008F47FC98A899B89AC89BD898093B501FC
:1055F0009093B601A093B701B093B8011092CF0178
:105600001092CC011092C9011092D90120E030E033
:105610004AE754E4C301B2010E94912F0E94A42ED4
:10562000AB01770F660B770B8EE090E00E945D0375
:105630000E941E1556C920E030E040EF51E4C3013E
:10564000B2010E942D2E87FF5EC98091CF0181118A
:1056500005C08091CC01882309F455C981E080936D
:10566000D9010E9401156093D9027093DA028093E8
:10567000DB029093DC02A70196010E9423302A8B63
:105680003B8B4C8B5D8B6091B5017091B601809125
:10569000B7019091B801A70196010E9423308A8931
:1056A0009B89AC89BD89821B930BA40BB50BAC0104
:1056B000BD018091B3019091B401A0E0B0E0481722
:1056C00059076A077B0708F41EC98A899B89AC8938
:1056D000BD898093B5019093B601A093B701B093B3
:1056E000B8011092CF011092CC011092D90120E0A4
:1056F00030E04AE754E4C301B2010E94912F0E94B6
:10570000A42EAB01770F660B770B8EE090E00E9422
:105710005D030E941E15F7C820E030E040EA51E426
:10572000C301B2010E942D2E87FFFFC88091CF01D7
:10573000882309F4FAC881E08093D9010E940115F9
:105740006093D9027093DA028093DB029093DC02BB
:10575000A70196010E9423302A8B3B8B4C8B5D8BDB
:105760006091B5017091B6018091B7019091B80137
:10577000A70196010E9423308A899B89AC89BD8943
:10578000821B930BA40BB50BAC01BD018091B3013F
:105790009091B401A0E0B0E0481759076A077B0771
:1057A00008F4C8C88A899B89AC89BD898093B501F2
:1057B0009093B601A093B701B093B8011092CF01B6
:1057C0001092D90120E030E04AE754E4C301B2016D
:1057D0000E94912F0E94A42EAB01770F660B770BCE
:1057E0008EE090E00E945D030E941E159EC881E03D
:1057F0000E9479032EC982E00E94790343C983E0A5
:105800000E94790358C91D3010F00C941C200C9490
:1058100022200F931F93CF938C0181E080930F027E
:1058200088E680933002109239021092380260E0CC
:105830008CE093E00E94351BF8018081CAE06C2F58
:105840000E940330692FF0E18F9F600D11248CE0DE
:1058500093E00E94351BF80181816C2F0E94033078
:10586000692FF0E18F9F600D11248CE093E00E947E
:10587000351BF80182816C2F0E940330692FF0E103
:105880008F9F600D11248CE093E00E94351BF8017E
:1058900083816C2F0E940330692FF0E18F9F600D90
:1058A00011248CE093E00E94351BF80184816C2F59
:1058B0000E940330692FF0E18F9F600D11248CE06E
:1058C00093E00E94351BF80185816C2F0E94033004
:1058D000692FF0E18F9F600D11248CE093E00E940E
:1058E000351BF80186818E516C2F0E940330692F81
:1058F000F0E18F9F600D11248CE093E00E94351B36
:1059000081E00E94C61191E0811190E0892FCF9132
:105910001F910F910895CF93DF93C0E0D0E060E036
:10592000CE010E94531E2196C11584E0D807B9F715
:1059300089E992E0DF91CF910C94011310923F021C
:1059400010923E0288EE93E0A0E0B0E08093400227
:1059500090934102A0934202B093430223E531E0C9
:1059600030933D0220933C0225EC30E03093490215
:105970002093480224EC30E030934B0220934A02FB
:1059800020EC30E030934D0220934C0221EC30E0CB
:1059900030934F0220934E0222EC30E030935102BC
:1059A0002093500226EC30E03093530220935202B1
:1059B00010925502109256021092570210925802FD
:1059C00010920F0310920E03809310039093110313
:1059D000A0931203B093130385E691E090930D0317
:1059E00080930C0360E080E10E947414E6EEF3E023
:1059F000E491E0931803E2EDF3E0E491F0E0EE0FC0
:105A0000FF1FE854FC4F8591949190931A03809363
:105A10001903109223031092250310922403E3E24A
:105A2000F3E08BE193E012928E179F07E1F78CED84
:105A30009AE190930B0380930A0388E193E090939B
:105A4000FF028093FE021092FD021092F90289E09B
:105A50008093FA0291E09093FB029093FC021092E3
:105A6000E4021092E30227E731E03093E202209350
:105A7000E10298E09093E5029FEF9093E602809315
:105A8000E70282E08093E80283E08093E90286E007
:105A90008093EA0287E08093EB021092EC0210926E
:105AA000ED021092EE021092EF0261E088E00E9497
:105AB00074148091E6028F3F19F061E00E94741423
:105AC00061E08091E7020E9474141092F00281E07C
:105AD0000E94FB130E9401156093DD027093DE02A9
