:100000000C94AD010C94D5010C94D5010C94D50140
:100010000C94D5010C94D5010C94D5010C949F023D
:100020000C94D5010C94D5010C94D5010C94D501F8
:100030000C94D5010C94D5010C94D5010C94D501E8
:100040000C94C21C0C94D5010C945E1B0C94381BB0
:100050000C94D5010C94D5010C94D5010C94D501C8
:100060000C94901B0C94D501861F911F9C1FA71FF9
:10007000B21FBD1FC81F6609680AB00AF00A230B29
:10008000630B960BD60B1C0C5D0CBB0C190DBD0D38
:10009000140E6209E713EA13ED13F013F313F613CA
:1000A000F9134300005EBCE2613FDD83C29C7E2009
:1000B000A3FD1F419DC3217FFCA2401E5F01E3BD44
:1000C0003E6082DC237D9FC1421CFEA0E1BF5D0338
:1000D00080DE3C62BEE0025CDF81633D7C22C09E2C
:1000E0001D43A1FF4618FAA427799BC584DA386618
:1000F000E5BB5907DB856739BAE406581947A5FB04
:100100007826C49A653BD987045AB8E6A7F91B45F7
:10011000C6987A24F8A6441A99C7257B3A6486D8EB
:100120005B05E7B98CD2306EEDB3510F4E10F2ACD7
:100130002F7193CD114FADF3702ECC92D38D6F31C3
:10014000B2EC0E50AFF1134DCE90722C6D33D18FB7
:100150000C52B0EE326C8ED0530DEFB1F0AE4C12AB
:1001600091CF2D73CA947628ABF517490856B4EA97
:100170006937D58B5709EBB536688AD495CB297783
:10018000F4AA4816E9B7550B88D6346A2B7597C977
:100190004A14F6A8742AC896154BA9F7B6E80A546B
:1001A000D7896B35454550524F4D206E616374655C
:1001B0006E69204F4B0000000000240027002A0039
:1001C00000000000250028002B00000000080002AD
:1001D0000100000304070000000000000000000010
:1001E000000023002600290004040404040404047D
:1001F00002020202020203030303030301020408D2
:100200001020408001020408102001020408102080
:100210002A2A2A2A2A2A2A2A2A2A2A2A2A2A2A2A3E
:100220002A2A2A2A2A2A00492056797073617420C2
:10023000646174756D206120636173004820567994
:1002400070736174207465706C6F7475004720560C
:100250007970736174206E6170657469207A6520AD
:10026000736F6E64790046205469736B2045455066
:10027000524F4D004520536D617A617420454550C1
:10028000524F4D0044204E6173746176697420644E
:100290006174756D20612063617300432053707534
:1002A000737469742070726F6772616D20330042DD
:1002B00020537075737469742070726F6772616D0A
:1002C0002032004120537075737469742070726F0E
:1002D0006772616D2031003F204E61706F766564FA
:1002E00061002A2A2A204D454E55202A2A2A2A2AE8
:1002F0002A2A2A2A2A2A2A2A007777772E706968DA
:1003000072742E636F6D0030002D002D002D0020C3
:1003100053656320302D35393A2000204D696E2019
:10032000302D35393A200020486F6420302D32338B
:100330003A2000204D657320312D31323A200020C3
:1003400044656E20312D33313A200020526F6B20EE
:1003500031392D39393A2000032B11241FBECFEF3C
:10036000D8E0DEBFCDBF13E0A0E0B1E0E6E2FEE5FD
:1003700002C005900D92AE3DB107D9F725E0AEED74
:10038000B3E001C01D92A33EB207E1F711E0CDEA50
:10039000D1E004C02197FE010E94C92ECC3AD107BA
:1003A000C9F70E940C1D0C94112F0C940000FC0145
:1003B00090810180F281E02D892F809560FF12C02D
:1003C000F8942281822382838181892B8183A3E215
:1003D000B0E01197F1F78281982B9283789487EDA2
:1003E00090E011C0F8942281822382838181892B3D
:1003F0008183AFEFB0E01197F1F78281982B928360
:1004000078948FE090E00197F1F70895089580E0E7
:1004100090E00895CF93DF93EC0160E08E810E941D
:100420002F1261E08E810E942F1260E08E810E9467
:100430002F128BE891E00197F1F7DF91CF910895AA
:10044000CF93C82F68E773E08BE894E00E94361BD7
:1004500065E072E08BE894E00E94361B6C2F8BE81D
:1004600094E00E940A1265E072E08BE894E00E943A
:10047000361BC13051F48091FA0390E0909303044D
:1004800080930204C0931E041AC0C23059F48091B4
:10049000F90390E0909303048093020481E0809339
:1004A0001B040DC0C33009F048C08091F80390E0F0
:1004B000909303048093020481E0809318040E94C7
:1004C000B4136093140470931504809316049093EE
:1004D000170410921004109211041092120410923A
:1004E00013040E94B4136093040470930504809372
:1004F00006049093070464EB71E08BE894E00E949B
:10050000361B65E072E08BE894E00E94361B409158
:1005100002045091030460E070E02AE08BE894E06C
:100520000E94111A65E072E08BE894E00E94361B8D
:100530008AEA91E0CF910C94B411CF9108951F9263
:100540000F920FB60F9211240F900FBE0F901F90B5
:1005500018950F931F936093E4037093E5038093C2
:10056000E6039093E703009118011091190120917F
:100570001A0130911B01DC01CB01800F911FA21FDA
:10058000B31F8093E0039093E103A093E203B09341
:10059000E30382E090E09093E9038093E8030E94F4
:1005A000B41360932E0470932F04809330049093BF
:1005B00031041F910F910895CF92DF92EF92FF9235
:1005C0000F931F930E94B413C0902E04D0902F0459
:1005D000E0903004F09031048B019C010C191D094E
:1005E0002E093F098091E4039091E503A091E60371
:1005F000B091E703083E134021053105D0F0019684
:10060000A11DB11D8093E4039093E503A093E6033D
:10061000B093E703B701A60148515C4F6F4F7F4F7E
:1006200040932E0450932F04609330047093310450
:10063000C9CF4091E0035091E1036091E2037091D2
:10064000E30384179507A607B707C8F1E091DE0317
:10065000F091DF03309799F10995611571058105D6
:10066000910519F00E94A9022AC04091E40350911B
:10067000E5036091E6037091E70380911801909182
:100680001901A0911A01B0911B01840F951FA61F9B
:10069000B71F8093E0039093E103A093E203B0932C
:1006A000E30381E090E02091E8033091E903232BFC
:1006B00011F480E090E09093E9038093E803609167
:1006C000E4037091E5038091E6039091E7031F91A5
:1006D0000F91FF90EF90DF90CF9008954F925F922F
:1006E0006F927F928F929F92AF92BF92CF92DF9242
:1006F000EF92FF920F931F93CF93DF93FC0116812C
:10070000A12FB0E020E833E341EE51E00E94E52E56
:100710004B015C01C2EBD7E09D0104E610E080E9EB
:10072000E82EFF24F394CE01825B97408217930753
:10073000D4F4CE0183709927892B99F4CE01B801A6
:100740000E94742E892B31F4CE01B7010E94742EC1
:10075000892B39F480E8880E81E5981E81E0A81E77
:10076000B11C2196E0CF4580512C2E54384FC90141
:1007700064E670E00E94742E7C01C90160E971E0BA
:100780000E94742E6C010CE813E0C1E0D0E0390146
:10079000A3E06A227724C415D50534F5C230D1050B
:1007A00089F46114710471F4E114F10419F4C114B1
:1007B000D10441F4B0E88B0EBBE39B1EB6E2AB1E46
:1007C000B11C0EC0D8018C91A82FB0E020E831E513
:1007D00041E050E00E94E52E860E971EA81EB91E2D
:1007E00021960F5F1F4FD7CF4181228130E0A0E1DA
:1007F000BEE00E94CF2E6B017C01242F30E0ACE3E1
:10080000B0E00E94CF2EDC01CB018C0D9D1DAE1DF2
:10081000BF1D20816C017D01C20ED11CE11CF11CA9
:10082000A481B0E0119720E831E541E050E00E945A
:10083000F02EDC01CB018C0D9D1DAE1DBF1DBC013A
:10084000CD01680D791D8A1D9B1DDF91CF911F91F0
:100850000F91FF90EF90DF90CF90BF90AF909F905F
:100860008F907F906F905F904F9008951F93CF93DC
:10087000DF93CDB7DEB727970FB6F894DEBF0FBE74
:10088000CDBF81E080935E0488E680937F04109260
:1008900088041092870460E08BE595E00E94A0191F
:1008A00081E00E9479108111B4C080918604811189
:1008B000FCCF81E080938604809385049FEF909322
:1008C0005D0410925C0496E090935B0480933A047C
:1008D00080913A04806D80933A0480918404813041
:1008E00061F41092840480913A048093BB0080915B
:1008F000BC0083FDF8CF85EC01C085EE8093BC0081
:10090000809186048130E1F380915C04873018F493
:1009100090915C0401C097E0ABE3B4E0EFE7F5E051
:1009200080E0891721F02D9121938F5FFACF1092EB
:100930008A048093890490E007970CF46AC08BE5E1
:1009400095E00E945719182F8695869586958E708A
:10095000982F990F990F890F912F9F70890F898375
:100960008BE595E00E945719982F92959F708F7094
:100970002AE0929F800D11248A838BE595E00E94E6
:100980005719982F9695969596959670292F220F20
:10099000220F920F8F70890F8B838BE595E00E9459
:1009A0005719982F92959F708F702AE0929F800D13
:1009B00011248C838BE595E00E945719982F92950E
:1009C0009F708F702AE0929F800D11248D838BE59C
:1009D00095E00E945719982F92959F708F702AE08A
:1009E000929F800D11248E838BE595E00E9457190C
:1009F000982F9F70925E82958F702AE0829F900D53
:100A000011249F8317FD05C0CE0101960E946E033D
:100A100003C060E070E0CB0127960FB6F894DEBF0C
:100A20000FBECDBFDF91CF911F9108956F927F923E
:100A30008F929F92AF92BF92CF92DF92EF92FF92EE
:100A40000F931F93CF93DF936B017C01EA018CE33B
:100A5000882E912CA12CB12CC701B601A5019401BF
:100A60000E94882E6883CA01B901A50194010E94E1
:100A7000882E6983C701B60120E13EE040E050E0E6
:100A80000E94882ECA01B90128E130E040E050E020
:100A90000E94882E6A83C701B60120E831E541E053
:100AA00050E00E94882E69017A01CA01B9016C5F89
:100AB0007F4F8F4F9F4F27E030E040E050E00E9493
:100AC000882E6F5F6B83812C912C540140E094E65B
:100AD000692E712C00E911E0242F30E02E54384F9C
:100AE000F901E370FF27309789F4C901B3010E942F
:100AF000742E892B31F4C901B8010E94742E892B00
:100B000029F48EE691E0A0E0B0E004C08DE691E02B
:100B1000A0E0B0E0880E991EAA1EBB1ED501C4013C
:100B2000AA27BB27C816D906EA06FB0610F04F5FB6
:100B3000D3CF4E83309799F4C90164E670E00E94E8
:100B4000742E892B39F4C90160E971E00E94742E7A
:100B5000892B29F48EE691E0A0E0B0E004C08DE698
:100B600091E0A0E0B0E0881A990AAA0ABB0AC81866
:100B7000D908EA08FB08C90164E670E00E94742EF7
:100B80008C01C90160E971E00E94742EACE8B3E009
:100B900020E0213041F4309751F40115110529F47A
:100BA000009729F402C04C9103C04DE101C04CE113
:100BB00050E060E070E0C416D506E606F70640F0A7
:100BC000C41AD50AE60AF70A2F5F11962C3009F7E6
:100BD0002F5F2D83C394CC82DF91CF911F910F9112
:100BE000FF90EF90DF90CF90BF90AF909F908F904D
:100BF0007F906F900895CF92DF92EF92FF92C09016
:100C00002A04D0902B04E0902C04F0902D04C616FA
:100C1000D706E806F90671F06B017C014AEE53E055
:100C20000E941605C0922A04D0922B04E0922C0454
:100C3000F0922D04FF90EF90DF90CF9008950E94E6
:100C4000DC020E94FB058091F00390E08E54984FE7
:100C500008950E94DC020E94FB058091EF0390E062
:100C600008950E94DC020E94FB058091EE0390E053
:100C700008950E94DC020E94FB058091EA0390E047
:100C800008950E94DC020E94FB058091EB0390E036
:100C900008950E94DC020E94FB058091EC0390E025
:100CA0000895DC0180E0615040F09D91E82FE92734
:100CB000F0E0EC55FF4F8491F6CF0895DF92EF926C
:100CC000FF920F931F93CF93DF93EC01D62EE42E68
:100CD00008E010E0FF24F39461E08D2D8F2109F4EA
:100CE00060E0CE010E94D701FF0C01501109A1F76D
:100CF000E11010C0F894E981FA8191818881809592
:100D000089238183E981FA81928188818095892371
:100D100082837894DF91CF911F910F91FF90EF9094
:100D2000DF900895EF92FF920F931F93CF93DF937D
:100D30008C017B0140E065E50E945E06E70188E0EA
:100D4000E80EF11C699140E0C8010E945E06CE15D4
:100D5000DF05C1F7DF91CF911F910F91FF90EF90C9
:100D60000895FC0190810180F281E02DF894818149
:100D7000892B81832281892F809528232283A7E0D4
:100D8000B0E01197F1F7218182238183A3E2B0E0E3
:100D90001197F1F780817894EFECF0E03197F1F75B
:100DA000982381E009F480E00895DC012C911196EC
:100DB000ED91FC911297F8948181922F909589235F
:100DC000818378948DE743E050E0815021F1DA018E
:100DD0001197F1F730813223C1F3F894828189238E
:100DE00082838181822B81837894ABE7B7E011976E
:100DF000F1F7F89481819823918383E191E0019741
:100E0000F1F78081282381E009F080E07894E3E61F
:100E1000F6E03197F1F70895BF92CF92DF92EF920B
:100E2000FF920F931F93CF93DF93EC01D62EC72E23
:100E30008D8581115BC0CE010E94D506811104C051
:100E40001B861D861C8666C040E060EFCE010E94B6
:100E50005E0601E0E12CB12C11E0CE010E94B1064A
:100E6000F82ECE010E94B10691E0F91203C0813044
:100E7000B1F434C02E2D30E0F8121BC08B8518174A
:100E800038F4FE01E20FF31F8381802341F402C096
:100E9000181729F0F12C193058F41C8709C0FE01ED
:100EA000EE0DF11D8381802B8383FF24F39409C011
:100EB000B12EFE01E20FF31F9381802F80958923CD
:100EC00083836F2DCE010E94D7011F5F000F11F4A5
:100ED000E39401E087E08E1508F0BFCF113430F0C5
:100EE000BB86B11012C081E08D870FC01B861D86A6
:100EF0001C8680E0DE011396ED2DFC2D2B969D9136
:100F00009193AC17BD07D9F705C08B81882371F386
:100F100081E0F0CFDF91CF911F910F91FF90EF9083
:100F2000DF90CF90BF900895CF93DF93CDB7DEB71A
:100F300061970FB6F894DEBF0FBECDBF809121043C
:100F40008111DAC080911E048111D6C080911B04EA
:100F50008111D2C0809118048111CEC080914D05BD
:100F600090914E050E94D50640E06CEC80914D05B5
:100F700090914E050E945E064091480564E4809180
:100F80004D0590914E050E945E0680914A0588238A
:100F9000A9F0E0914905E950E33040F4F0E0EE0FAC
:100FA000FF1FE856FC4F6081718102C06EEE72E057
:100FB000072E000C880B990B0E947A13E0914D05C7
:100FC000F0914E05138615861486DF011B96CF011E
:100FD00003961E928A179B07E1F7BE01665F7F4F5B
:100FE000CF010E940C07882309F4BCC067E0CE0142
:100FF0000A960E94510699898913B4C0BE016F5F99
:101000007F4FCE010A960E94D510882309F4B1C003
:1010100068E0CE0101960E94510699858913A9C006
:101020002A8130E0C901982F8827990F990F990FCD
:10103000698128E0629FB00111249C01262B372B87
:101040008A85803109F093C0688570E08F81AB019B
:10105000481B5109CA019695982F8827979587951F
:101060000E94742E60517109207F53E0220F331FBC
:101070005A95E1F7620F731F613854EE75070CF44F
:1010800071C0072E000C880B990B0E94412D20E0A7
:1010900030E040E05CE30E94F62D6093080470931A
:1010A000090480930A0490930B048FE00E94631359
:1010B00090937E0580937D05BC01990F880B990B59
:1010C0000E94412D20E030E040EA50E40E94F62DDD
:1010D00020E030E040E85AE30E94F62D6093F103EF
:1010E0007093F2038093F3039093F40361E070E054
:1010F00080E090E00E947A13A0917D05B0917E057A
:101100002AE431E00E94DE2E2FEF33E040E050E091
:101110000E94AA2EDA01C90186509F4FAF4FBF4FE0
:1011200090937E0580937D05ACE9BFEF0E94F32E7E
:101130002AE431E040E050E00E94AA2EDA01C90121
:101140008C599F4FAF4FBF4F843608F084E6809391
:10115000010461960FB6F894DEBF0FBECDBFDF91DC
:10116000CF91089560E070E08EEF92EC96CFB901D8
:1011700083CF60E874EE80CFAF92BF92CF92DF92C0
:10118000EF92FF920F931F93CF93DF935C017C014B
:1011900087E0E80EF11CC0E0D0E0062F10E0670108
:1011A00061E0F70181917F010E942713B8010C2EA5
:1011B00002C0759567950A94E2F76170F601808127
:1011C0000E942F122196C430D10549F7C501DF9145
:1011D000CF911F910F91FF90EF90DF90CF90BF9034
:1011E000AF900C940A02AF92BF92CF92DF92EF922F
:1011F000FF920F931F93CF93DF93EC01F62E642F92
:101200008C810E942F128D818F3F19F060E00E9427
:101210002F128F850F2D10E084FF2DC05E0187E017
:10122000A80EB11CE12CF12C650161E0F501819162
:101230005F010E942713B8010E2C02C075956795B7
:101240000A94E2F76170F60180810E942F12FFEF8D
:10125000EF1AFF0A88E0E816F10431F7CE01DF91BA
:10126000CF911F910F91FF90EF90DF90CF90BF90A3
:10127000AF900C940A02B80184E0759567958A9541
:10128000E1F7CE010E94BC086F2DCE01DF91CF9116
:101290001F910F91FF90EF90DF90CF90BF90AF9094
:1012A0000C94BC0841E00E94F30881E090E00895AE
:1012B00090E08F30910508F017C5FC01E55CFF4F09
:1012C0000C94C92E1092F6031092F50360E080E0B2
:1012D0000E946E1163E471E080E395E00E94361B8A
:1012E00061E08EE00E946E1165E072E080E395E0BF
:1012F0000E94361B6CE971E080E395E00E94361B8A
:1013000061E080E00E946E118091FE01823019F44C
:1013100060E471E008C06EE371E080E395E00E9454
:10132000361B6EE371E080E395E00E94361B61E0BE
:1013300082E00E946E118091FD01823019F46BE30E
:1013400071E008C06EE371E080E395E00E94361B17
:101350006EE371E080E395E00E94361B61E084E07B
:101360000E946E118091FC01823019F468E371E0F3
:1013700008C06EE371E080E395E00E94361B6EE3E7
:1013800071E080E395E00E94361B61E086E00E94F8
:101390006E118091FB01823019F465E371E008C0A1
:1013A0006EE371E080E395E00E94361B6EE371E02E
:1013B00080E395E00E94361B61E088E00E946E1198
:1013C0008091FA01823019F462E371E008C06EE3A3
:1013D00071E080E395E00E94361B6EE371E080E3EC
:1013E00095E00E94361B61E08AE00E946E118091B8
:1013F000F901823019F46FE271E008C06EE371E028
:1014000080E395E00E94361B6EE371E080E395E097
:101410000E94361B61E08CE00E946E118091F80101
:10142000823019F46CE271E008C06EE371E080E391
:1014300095E00E94361B6EE371E080E395E00E9428
:10144000361B1092D7011092D6018091F7038111BB
:1014500005C061E00E946E110E9488118091F7031F
:10146000813031F461E082E00E946E110E948811A7
:101470008091F703823031F461E084E00E946E11C4
:101480000E9488118091F703833031F461E086E097
:101490000E946E110E9488118091F703843031F40C
:1014A00061E088E00E946E110E9488118091F7032C
:1014B000853031F461E08AE00E946E110E9488114B
:1014C0008091F703863009F00FC461E08CE008C416
:1014D00060E080E00E946E1167EF72E080E395E0CB
:1014E0000E94361B61E080E00E946E118091200412
:1014F00090E00E94671464E773E080E395E00E9447
:10150000361B80911F0490E00E94671465E072E032
:1015100080E395E00E94361B6FEE72E080E395E079
:101520000E94361B6FED71E080E395E00E94361B50
:1015300081E090E09093D7018093D6018091F703EA
:10154000811106C061E081E00E946E110E94881145
:101550008091F703813009F0C7C361E084E0C0C324
:1015600060E080E00E946E116EED72E080E395E035
:101570000E94361B61E080E00E946E118091FA03A8
:1015800090E00E94671465E072E080E395E00E94BD
:10159000361B6AE873E080E395E00E94361B68ED35
:1015A00072E080E395E00E94361B65E072E080E324
:1015B00095E00E94361B6AEA71E080E395E00E94A4
:1015C000361B61E873E080E395E00E94361B6FED07
:1015D00071E080E395E00E94361B82E090E025C137
:1015E00060E080E00E946E1167EC72E080E395E0BD
:1015F0000E94361B61E080E00E946E1180911D0404
:1016000090E00E94671464E773E080E395E00E9435
:10161000361B80911C0490E00E94671465E072E024
:1016200080E395E00E94361B6FEE72E080E395E068
:101630000E94361B6FED71E080E395E00E94361B3F
:1016400083E090E077CF60E080E00E946E1166EB6F
:1016500072E080E395E00E94361B61E080E00E942A
:101660006E118091F90390E00E94671465E072E0CA
:1016700080E395E00E94361B6AE873E080E395E022
:101680000E94361B68ED72E080E395E00E94361BF5
:1016900065E072E080E395E00E94361B6AEA71E043
:1016A00080E395E00E94361B61E873E080E395E0FB
:1016B0000E94361B6FED71E080E395E00E94361BBF
:1016C00084E090E0B2C060E080E00E946E1165EAC4
:1016D00072E080E395E00E94361B61E080E00E94AA
:1016E0006E1180911A0490E00E94671464E773E021
:1016F00080E395E00E94361B8091190490E00E94DF
:10170000671465E072E080E395E00E94361B6FEE9F
:1017100072E080E395E00E94361B6FED71E080E39C
:1017200095E00E94361B85E090E004CF60E080E009
:101730000E946E1164E972E080E395E00E94361B1E
:1017400061E080E00E946E118091F80390E00E94B9
:10175000671465E072E080E395E00E94361B6AE85A
:1017600073E080E395E00E94361B68ED72E080E351
:1017700095E00E94361B65E072E080E395E00E94F0
:10178000361B6AEA71E080E395E00E94361B61E84F
:1017900073E080E395E00E94361B6FED71E080E31B
:1017A00095E00E94361B86E090E03FC060E080E05C
:1017B0000E946E1163E872E080E395E00E94361BA0
:1017C00061E080E00E946E1180910F0490E00E9421
:1017D000671465E072E080E395E00E94361B6AE8DA
:1017E00073E080E395E00E94361B6DE772E080E3D2
:1017F00095E00E94361B65E072E080E395E00E9470
:10180000361B6AEA71E080E395E00E94361B61E8CE
:1018100073E080E395E00E94361B6FED71E080E39A
:1018200095E00E94361B87E090E09093D70180936B
:10183000D60161E081E054C260E080E00E946E1158
:101840006CE672E080E395E00E94361B61E080E088
:101850000E946E1160910E0480E395E00E940A12CE
:1018600065E072E080E395E00E94361B6AE873E071
:1018700080E395E00E94361B6DE772E080E395E01F
:101880000E94361B65E072E080E395E00E94361B03
:101890006AEA71E080E395E00E94361B61E873E03C
:1018A00080E395E00E94361B6FED71E080E395E0E8
:1018B0000E94361B88E090E00DC260E080E00E944C
:1018C0006E116FE573E080E395E00E94361B61E0E6
:1018D00080E00E946E1180910D04823001F564E673
:1018E00072E080E395E00E94361B65E072E080E3E1
:1018F00095E00E94361B6AE873E080E395E00E9461
:10190000361B62E080E395E00E94520962E672E0D5
:1019100080E395E00E94361B69EB71E01FC06AE529
:1019200072E080E395E00E94361B65E072E080E3A0
:1019300095E00E94361B6AE873E080E395E00E9420
:10194000361B61E080E395E00E94520962E672E096
:1019500080E395E00E94361B60EB71E080E395E048
:101960000E94361B61E873E080E395E00E94361B1D
:1019700089E090E0AFC160E080E00E946E116EE30C
:1019800073E080E395E00E94361B61E080E00E94F6
:101990006E1180910C04823001F564E672E080E300
:1019A00095E00E94361B65E072E080E395E00E94BE
:1019B000361B6AE873E080E395E00E94361B62E024
:1019C00080E395E00E94520962E672E080E395E0D0
:1019D0000E94361B69EB71E01FC06AE572E080E38C
:1019E00095E00E94361B65E072E080E395E00E947E
:1019F000361B6AE873E080E395E00E94361B61E0E5
:101A000080E395E00E94520962E672E080E395E08F
:101A10000E94361B60EB71E080E395E00E94361B6C
:101A200061E873E080E395E00E94361B8AE090E075
:101A300051C160E080E00E946E1169E472E080E3D1
:101A400095E00E94361B61E080E00E946E116FED10
:101A500071E080E395E00E94361B61E080E00E9427
:101A60006E1180910302909104020E94671461E05C
:101A700082E00E946E116BE273E080E395E00E94C9
:101A8000361B80910102909102020E9467146FED53
:101A900071E080E395E00E94361B61E085E00E94E2
:101AA0006E116BE273E080E395E00E94361B80913B
:101AB000FF01909100020E9467146FED71E080E3D6
:101AC00095E00E94361B61E08BE00E946E118091D0
:101AD000FF03909100040E94671461E08DE00E9472
:101AE0006E1164E773E080E395E00E94361B8091FD
:101AF000FD039091FE030E9467146FED71E080E397
:101B000095E00E94361B8BE090E09093D701809384
:101B1000D6011092FC031092FB038091F703811110
:101B200006C061E081E00E946E110E9488118091E0
:101B3000F703813031F461E084E00E946E110E946D
:101B400088118091F703823031F461E087E00E94D0
:101B50006E110E9488118091F703833031F461E0A7
:101B60008CE00E946E110E9488118091F7038430EE
:101B700009F0BAC061E08FE0B3C060E080E00E948D
:101B80006E1168E372E080E395E00E94361B61E02D
:101B900080E00E946E116CE971E080E395E00E94A4
:101BA000361B65E072E080E395E00E94361B6AE830
:101BB00073E080E395E00E94361B62E080E395E0ED
:101BC0000E94520962E672E080E395E00E94361BB3
:101BD00064E372E080E395E00E94361B65E072E00A
:101BE00080E395E00E94361B61E080E395E00E946F
:101BF000520962E672E080E395E00E94361B61E3E1
:101C000072E080E395E00E94361B61E873E080E3B8
:101C100095E00E94361B6FED71E080E395E00E9435
:101C2000361B8CE090E056C060E080E00E946E11B0
:101C300060E272E080E395E00E94361B61E080E0A4
:101C40000E946E116CE971E080E395E00E94361B02
:101C500065E072E080E395E00E94361B6AE873E07D
:101C600080E395E00E94361B62E080E395E00E94ED
:101C7000520962E672E080E395E00E94361B64E35D
:101C800072E080E395E00E94361B65E072E080E33D
:101C900095E00E94361B61E080E395E00E945209C6
:101CA00062E672E080E395E00E94361B61E372E039
:101CB00080E395E00E94361B61E873E080E395E0E5
:101CC0000E94361B6FED71E080E395E00E94361BA9
:101CD0008DE090E09093D7018093D60161E080E0A1
:101CE0000E946E110C9488110895CF9382E090E0C9
:101CF0000E94C01C8093200483E090E00E94C01CDE
:101D000080931F0484E090E00E94C01C8093FA033B
:101D100085E090E00E94C01C80931D0486E090E066
:101D20000E94C01C80931C0487E090E00E94C01CAD
:101D30008093F90388E090E00E94C01C80931A040D
:101D400089E090E00E94C01C809319048AE090E032
:101D50000E94C01C8093F8038BE090E00E94C01C9E
:101D600080930F048CE090E00E94C01C80930E04CE
:101D70008DE090E00E94C01C80930D048EE090E006
:101D80000E94C01CC82F8FE090E00E94C01C90E011
:101D9000A0E0B0E0BA2FA92F982F88278C0F911DB3
:101DA000A11DB11D8093790590937A05A0937B05C1
:101DB000B0937C0580E190E00E94C01C80930C04ED
:101DC00081E190E00E94C01CC82F82E190E00E9457
:101DD000C01C90E0A0E0B0E0BA2FA92F982F882770
:101DE0008C0F911DA11DB11D8093750590937605F3
:101DF000A0937705B093780584E190E00E94C01C21
:101E00008093FE0185E190E00E94C01C8093FD015B
:101E100086E190E00E94C01C8093FC0187E190E085
:101E20000E94C01C8093FB0188E190E00E94C01CCE
:101E30008093FA0189E190E00E94C01C8093F9012F
:101E40008AE190E00E94C01C8093F80184EA91E04E
:101E5000CF910C941112CF92DF92EF92FF92CF9319
:101E6000DF93EC016A017B01642F0E94BE1C99275D
:101E7000F7FC9A958F2D7E2D6D2DCE010196DF9169
:101E8000CF91FF90EF90DF90CF900C94BE1C0E94FA
:101E9000750E80912004883138F066E082E090E091
:101EA0000E94BE1C81E001C080E090911F049C3321
:101EB00030F060E083E090E00E94BE1C81E09091F1
:101EC000FA039550963F30F06EE184E090E00E9476
:101ED000BE1C81E090911D04983130F062E185E0F4
:101EE00090E00E94BE1C81E090911C049C3330F075
:101EF00060E086E090E00E94BE1C81E09091F903D2
:101F00009550963F30F06EE187E090E00E94BE1C55
:101F100081E090911A04983130F069E088E090E017
:101F20000E94BE1C81E0909119049C3330F060E067
:101F300089E090E00E94BE1C81E09091F8039550EA
:101F4000963F30F06EE18AE090E00E94BE1C81E096
:101F500090910F049B3F30F065E08BE090E00E9491
:101F6000BE1C81E090910E049B3F30F064E18CE058
:101F700090E00E94BE1C81E090910D04915092303F
:101F800030F061E08DE090E00E94BE1C81E0409165
:101F9000790550917A0560917B0570917C054935F2
:101FA0005B416105710540F040E050E0BA018EE010
:101FB00090E00E942B0F81E090910C0491509230A0
:101FC00030F061E080E190E00E94BE1C81E0409131
:101FD00075055091760560917705709178054536C5
:101FE00051056105710540F040E050E0BA0181E122
:101FF00090E00E942B0F81E09091FE01933010F44D
:10200000913031F462E084E190E00E94BE1C81E0F6
:102010009091FD01933010F4913031F462E085E14C
:1020200090E00E94BE1C81E09091FC01933010F47E
:10203000913031F462E086E190E00E94BE1C81E0C4
:102040009091FB01933010F4913031F462E087E11C
:1020500090E00E94BE1C81E09091FA01933010F450
:10206000913031F462E088E190E00E94BE1C81E092
:102070009091F901933010F4913031F462E089E1EC
:1020800090E00E94BE1C81E09091F801933010F422
:10209000913031F462E08AE190E00E94BE1C01C000
:1020A00081110C94750E08953FB7F8948091360411
:1020B00090913704A0913804B091390426B5A89BBB
:1020C00005C02F3F19F00196A11DB11D3FBFBA2FCA
:1020D000A92F982F8827820F911DA11DB11DBC012A
:1020E000CD0142E0660F771F881F991F4A95D1F7EF
:1020F0000895282F30918704313208F04AC080912A
:1021000086048111FCCF90917F0442E040938604C5
:10211000209385042FEF20935D0410925C0430938C
:102120005B04EFE5F4E0ABE3B4E020E0321721F02C
:1021300041914D932F5FFACF10923A0420913A04C7
:10214000990F922B90933A0490918404913061F40A
:102150001092840490913A049093BB009091BC003B
:1021600093FDF8CF95EC01C095EE9093BC00909153
:1021700086049230E1F390915D049F3F79F0809165
:102180005D04803241F080915D04803331F084E061
:1021900005C081E003C082E001C083E010928804A2
:1021A0001092870410925E040895AF92BF92CF926E
:1021B000DF92EF92FF920F931F93CF93DF93EC0187
:1021C0008B0180914D0590914E050E94D506882384
:1021D000A1F1BE0180914D0590914E050E9492069D
:1021E00040E06EEB80914D0590914E050E945E0699
:1021F000E801680189E0C80ED11CA0904D05B0909F
:102200004E0588E0E82EF12C10E001E0C5010E94A7
:10221000B1068111102B000F81E0E81AF108B1F727
:102220001993CC16DD0649F780914D0590914E0526
:102230000E94D50691E0813009F090E0892FDF916E
:10224000CF911F910F91FF90EF90DF90CF90BF90B3
:10225000AF900895CF93DF93CDB7DEB729970FB630
:10226000F894DEBF0FBECDBFBE016F5F7F4F0E94EF
:10227000D510882341F068E0CE0101960E945106F6
:102280009985891711F080E012C08D818F3311F488
:102290008AE00DC0803420F48F31A9F789E007C0AF
:1022A0008F3521F08F3779F78CE001C08BE02996CC
:1022B0000FB6F894DEBF0FBECDBFDF91CF9108956A
:1022C00040E0682F80E395E00C94F30881E00E94E1
:1022D00060118BE39FE10197F1F70895643008F0F6
:1022E00063E090914305691710F06FEF690FE62FD7
:1022F000F0E0E05DFA4F9489890F80680C946011DA
:10230000E0E3F5E080898E7F808B88600C9460111B
:10231000E0E3F5E08089982F9160908B89600C94C0
:1023200060110F931F93CF93DF938B01877028E089
:10233000829FC001112480640E946011E801085F3F
:102340001F4F699180E395E00E945209C017D107A1
:10235000C1F7DF91CF911F910F9108956EEC73E05B
:102360008BE894E00C94FC19CF93DF93BC018BE8CD
:1023700094E00E94FC19EC010E94AE118C0F9D1F8D
:10238000DF91CF910895CF92DF92EF92FF920F935A
:102390001F93CF93DF9377FF1DC06A017B01EC0190
:1023A0006DE20E94D1198C0144275527BA014C19BE
:1023B0005D096E097F092AE0CE010E94111A800F83
:1023C000911FDF91CF911F910F91FF90EF90DF90C0
:1023D000CF9008952AE0DF91CF911F910F91FF9048
:1023E000EF90DF90CF900C94111AAB01770F660B32
:1023F000770B0C94C311CF93DF93BC018BE894E06F
:102400000E94F511EC010E94AE118C0F9D1FDF910F
:10241000CF910895462F50E060E070E02AE00C94E0
:10242000111ACF93DF93BC018BE894E00E94D81976
:10243000EC010E94AE118C0F9D1FDF91CF9108958A
:10244000CF93DF93682F8BE894E00E940A12EC018F
:102450000E94AE118C0F9D1FDF91CF91089590E0E7
:10246000FC01E653FE4F2491FC01E450FE4F3491F1
:10247000FC01E851FE4FE491EE2309F43CC0222315
:1024800039F1233091F038F42130A9F0223001F5F0
:1024900084B58F7D12C0273091F02830A1F0243010
:1024A000B9F4809180008F7D03C0809180008F7788
:1024B000809380000DC084B58F7784BD09C0809162
:1024C000B0008F7703C08091B0008F7D8093B00003
:1024D000F0E0EE0FFF1FE054FE4FA591B4919FB7BF
:1024E000F894611104C08C913095382302C0EC91AE
:1024F0003E2B3C939FBF089510928A04109289044A
:1025000010928804109287041092860481E08093D0
:1025100085041092840461E082E10E942F1261E040
:1025200083E10E942F12E9EBF0E080818E7F8083AF
:1025300080818D7F808388E48093B80085E48093D8
:10254000BC0085E499E1909383048093820486E43F
:1025500099E190938104809380040895CF93DF9351
:10256000823028F090913F05986090933F058093CA
:1025700043051092440580E48093450580E18093F3
:10258000460580E5809347058BE39DE00197F1F7D1
:1025900060E0809134050E942F1260E08091360542
:1025A0000E942F12809135058F3F19F060E00E9444
:1025B0002F1280913F0584FD20C063E080E395E009
:1025C0000E94BC08CBE4D6E4CE010197F1F763E0AA
:1025D00080E395E00E94BC082197F1F763E080E377
:1025E00095E00E94BC0883E592E00197F1F762E074
:1025F00080E395E00E94BC0815C080620E946011D3
:102600008BE496E40197F1F780913F0580620E9488
:10261000601183E592E00197F1F780913F058062B8
:102620000E94601180913F0580620E94601184E0E9
:10263000809340058CE00E9460110E94661182E048
:102640008093410586E0DF91CF910C946011CF9388
:10265000DF9390E0FC01E450FE4F2491FC01E8512F
:10266000FE4F8491882361F190E0880F991FFC014F
:10267000EA54FE4FC591D491FC01E054FE4FA59160
:10268000B491611109C09FB7F89488812095822385
:102690008883EC912E230BC0623061F49FB7F894CD
:1026A0008881322F309583238883EC912E2B2C93B5
:1026B0009FBF06C08FB7F894E8812E2B28838FBF69
:1026C000DF91CF9108958E3008F08E50877080642E
:1026D00080937C0080917A00806480937A0080915E
:1026E0007A0086FDFCCF809178002091790090E0FF
:1026F000922B08958F929F92AF92BF92CF92DF92CA
:10270000EF92FF926B017C010E9454104B015C011F
:10271000C114D104E104F104F1F00E945410DC0171
:10272000CB0188199909AA09BB09883E9340A105E4
:10273000B10570F321E0C21AD108E108F10888EE72
:10274000880E83E0981EA11CB11CC114D104E104C1
:10275000F10419F7DDCFFF90EF90DF90CF90BF909D
:10276000AF909F908F9008952FB7F89460913204A6
:102770007091330480913404909135042FBF0895F3
:10278000CF93DF93EC010A9728F460E38BE894E0A1
:102790000E949A18BE018BE894E0DF91CF910C94CF
:1027A000F51185E293E00C94B4110E94DC020E94C2
:1027B000FB05E091ED038E2F90E0FC013197E730AF
:1027C000F105D8F4E65BFF4F81E00C94C92E90919F
:1027D000F80111C09091FE010EC09091FD010BC057
:1027E0009091FC0108C09091FB0105C09091FA0105
:1027F00002C09091F901923009F080E00895CF93E2
:10280000DF93CDB7DEB727970FB6F894DEBF0FBEC4
:10281000CDBF87E193E00E94B41182E00E94601175
:102820008BE39FE10197F1F767E173E080E395E0C7
:102830000E94361B6FED71E080E395E00E94361B2D
:1028400061E080E00E946E116FED71E080E395E041
:102850000E94361B8091FF0190910002609101025D
:10286000509103022091FB033091FD034091FF033F
:10287000843691051CF0825B974001C04E96809390
:10288000F0036093EF035093EE034093EC03309317
:10289000EB032093EA038AEE93E00E946E030E940A
:1028A000A9020E94DC02AE014F5F5F4F0E94160535
:1028B000898180688983CE0101960E946E2A898170
:1028C0008F778983CE0101960E946E2AFFCFCF9326
:1028D000DF93EC010A9730F467E073E080E395E062
:1028E0000E94D819BE0180E395E0DF91CF910C944E
:1028F000F5110E9431060E9467146BE273E080E3D9
:1029000095E00E94361B0E9429060E9467146BE224
:1029100073E080E395E00E94361B0E941F06BC0115
:1029200080E395E00E94F51165E072E080E395E0B8
:102930000E94361B65E072E080E395E00E94361B42
:1029400060E08BE00E946E110E9449060E946714AD
:1029500064E773E080E395E00E94361B0E94410625
:102960000E94671465E072E080E395E00C94361BEA
:1029700060E080E00E946E1169EF72E080E395E014
:102980000E94D81961E080E00E946E1168E073E057
:1029900080E395E00E94361B82EE92E00E941112C5
:1029A00087ED92E00E94111283EC92E00E941112D6
:1029B0008FEA92E00E9411128BE992E00E941112BC
:1029C00084E892E00E94111284E792E00E941112C2
:1029D00086E692E00E9411128DE492E00E941112AC
:1029E0008CE392E00E94111287E292E00E941112A1
:1029F00080E192E00E94111260ED77E080E090E0CB
:102A00000C947A13CF93DF938BE894E00E946218C2
:102A1000181619060CF0F8C28BE894E00E944018D2
:102A2000EC018134910521F481E00E942002BDC0B7
:102A30008234910521F482E00E9420028CC283340A
:102A4000910521F483E00E94200298C2843491050C
:102A500009F086C06CE773E08BE894E00E94361BB7
:102A60006BE473E08BE894E00E94D8190E94E52B98
:102A700090E0909300028093FF010E94E52B90E08C
:102A8000909300028093FF010E94FB116CE773E0BA
:102A90008BE894E00E94361B6FE373E08BE894E0D0
:102AA0000E94D8190E94E52B90E090930402809335
:102AB00003020E94FB116CE773E08BE894E00E9434
:102AC000361B63E373E08BE894E00E94D8190E9400
:102AD000E52B90E090930202809301020E94FB118B
:102AE0006CE773E08BE894E00E94361B67E273E0CA
:102AF0008BE894E00E94D8190E94E52B90E0909317
:102B000000048093FF030E94FB116CE773E08BE8E5
:102B100094E00E94361B6BE173E08BE894E00E9426
:102B2000D8190E94E52B90E09093FE038093FD035B
:102B30000E94FB116CE773E08BE894E00E94361B67
:102B40006FE073E08BE894E00E94D8190E94E52BB7
:102B500090E09093FC038093FB030E94FB1123C041
:102B60008534910511F50E94F02A0E94470F1092BA
:102B7000FC031092FB031092FE031092FD031092CF
:102B800000041092FF0381E090E090930402809390
:102B90000302909302028093010282E190E09093FD
:102BA00000028093FF010E94FF13C634D10509F093
:102BB00089C10E94750E68E773E08BE894E00E947B
:102BC000361B66E773E08BE894E00E94361B65E0F5
:102BD00072E08BE894E00E94361B609120048BE841
:102BE00094E00E940A1264E773E08BE894E00E948C
:102BF000361B60911F048BE894E00E940A126DE07E
:102C000073E08BE894E00E94D8198091FA030E9447
:102C1000201268E773E08BE894E00E94361B62E7BD
:102C200073E08BE894E00E94361B65E072E08BE86D
:102C300094E00E94361B60911D048BE894E00E9492
:102C40000A1264E773E08BE894E00E94361B6091FF
:102C50001C048BE894E00E940A126BE073E08BE89E
:102C600094E00E94D8198091F9030E94201268E72D
:102C700073E08BE894E00E94361B60E773E08BE81A
:102C800094E00E94361B65E072E08BE894E00E94BD
:102C9000361B60911A048BE894E00E940A1264E7E4
:102CA00073E08BE894E00E94361B609119048BE876
:102CB00094E00E940A1269E073E08BE894E00E94BD
:102CC000D8198091F8030E94201267E072E08BE827
:102CD00094E00E94361B65E072E08BE894E00E946D
:102CE000361B60EB71E08BE894E00E94361B65E0D8
:102CF00072E08BE894E00E94361B80910F040E94E2
:102D0000201267E072E08BE894E00E94361B65E0D9
:102D100072E08BE894E00E94361B69EB71E08BE86F
:102D200094E00E94361B65E072E08BE894E00E941C
:102D3000361B80910E040E9420126FE573E08BE831
:102D400094E00E94361B65E072E08BE894E00E94FC
:102D5000361B80910D040E9420126FE473E08BE813
:102D600094E00E94361B65E072E08BE894E00E94DC
:102D7000361B4091790550917A0560917B057091E1
:102D80007C058BE894E00E94C3110E94AE116EE3B3
:102D900073E08BE894E00E94361B65E072E08BE8FC
:102DA00094E00E94361B80910C040E9420126DE278
:102DB00073E08BE894E00E94361B65E072E08BE8DC
:102DC00094E00E94361B4091750550917605609104
:102DD0007705709178058BE894E00E94C3110E94FA
:102DE000AE1160E471E08BE894E00E94361B65E070
:102DF00072E08BE894E00E94361B8091FE010E94F5
:102E000020126BE371E08BE894E00E94361B65E0D2
:102E100072E08BE894E00E94361B8091FD010E94D5
:102E2000201268E371E08BE894E00E94361B65E0B5
:102E300072E08BE894E00E94361B8091FC010E94B6
:102E4000201265E371E08BE894E00E94361B65E098
:102E500072E08BE894E00E94361B8091FB010E9497
:102E6000201262E371E08BE894E00E94361B65E07B
:102E700072E08BE894E00E94361B8091FA010E9478
:102E800020126FE271E08BE894E00E94361B65E04F
:102E900072E08BE894E00E94361B8091F9010E9459
:102EA00020126CE271E08BE894E00E94361B65E032
:102EB00072E08BE894E00E94361B8091F8010E943A
:102EC00020129CC0C734D10509F045C060917D0532
:102ED00070917E058BE894E00E94F5116AE873E03A
:102EE0008BE894E00E94361B63E873E08BE894E083
:102EF0000E94361B61E873E08BE894E00E94361B69
:102F000065E072E08BE894E00E94361B4091F1038B
:102F10005091F2036091F3037091F40322E08BE887
:102F200094E00E945A1A68E971E08BE894E00E94EC
:102F3000361B65E072E08BE894E00E94361B6091DE
:102F400001048BE894E00E940A128AE991E0DF9183
:102F5000CF910C94B411C834D10581F40E94940728
:102F6000409108045091090460910A0470910B0487
:102F700022E08BE894E00E945A1A3CC0C934D10583
:102F8000E9F50E9449060E94C01364E773E08BE8EC
:102F900094E00E94361B0E9441060E94C01364E721
:102FA00073E08BE894E00E94361B0E9439060E9471
:102FB000C01365E072E08BE894E00E94361B0E942B
:102FC00031060E94C0136BE273E08BE894E00E942C
:102FD000361B0E9429060E94C0136BE273E08BE847
:102FE00094E00E94361B0E941F06BC018BE894E00F
:102FF0000E94F511DF91CF910C94AE11EF9721F45F
:10300000DF91CF910C94B814DF91CF910895CF92B6
:10301000DF92EF92FF920F931F93CF93DF936C0198
:103020007A018B01C0E0D0E0CE15DF0581F0D80138
:103030006D918D01D601ED91FC910190F081E02D13
:10304000C6010995892B11F02196EECF7E01C701AB
:10305000DF91CF911F910F91FF90EF90DF90CF9074
:103060000895FC01538D448D252F30E0842F90E08E
:10307000821B930B541710F0CF9608950197089573
:10308000FC01918D828D981761F0828DDF01A80F70
:10309000B11D5D968C91928D9F5F9F73928F90E092
:1030A00008958FEF9FEF0895FC01918D828D981701
:1030B00031F0828DE80FF11D858D90E008958FEF3E
:1030C0009FEF0895FC01918D228D892F90E0805C07
:1030D0009F4F821B91098F73992708958BE894E085
:1030E0000E94621821E0892B09F420E0822F0895C4
:1030F000FC01848DDF01A80FB11DA35ABF4F2C9195
:10310000848D90E001968F739927848FA689B78963
:103110002C93A089B1898C91837080648C93938D5A
:10312000848D981306C00288F389E02D80818F7DFD
:1031300080830895EF92FF920F931F93CF93DF93B5
:10314000EC0181E0888F9B8D8C8D981305C0E889F8
:10315000F989808185FD26C0F62E0B8D10E00F5F6A
:103160001F4F0F731127E02E8C8DE8120CC00FB685
:1031700007FCFACFE889F989808185FFF5CFCE0178
:103180000E947818F1CF8B8DFE01E80FF11DE35AF4
:10319000FF4FF0829FB7F8940B8FEA89FB898081FB
:1031A00080620AC09FB7F894EE89FF896083E8893E
:1031B000F98980818370806480839FBF81E090E083
:1031C000DF91CF911F910F91FF90EF900895CF93D2
:1031D000DF93EC01888D8823C9F0EA89FB8980811F
:1031E00085FD05C0A889B9898C9186FD0FC00FB6F1
:1031F00007FCF5CF808185FFF2CFA889B9898C9132
:1032000085FFEDCFCE010E947818E7CFDF91CF91F7
:10321000089580E090E0892B29F00E946E188111BA
:103220000C940000089585ED8093BC008091BC0053
:1032300084FDFCCF1092860408954091BF05262F8F
:1032400030E0240F311D21323105DCF42091860459
:103250002430C9F4FC0180E090E0861758F43091E6
:10326000BF052191DC01A156BA4FA30FB11D2C93CC
:103270000196F3CF8091BF05680F6093BF0580E092
:10328000089581E0089582E00895089508950895CD
:10329000E0918A0480918904E81730F4F0E0E15865
:1032A000FA4F808190E008958FEF9FEF08959091FD
:1032B0008A0480918904981750F4E92FF0E0E158CE
:1032C000FA4F208130E09F5F90938A0402C02FEF75
:1032D0003FEFC90108958091890490E020918A040C
:1032E000821B91090895CF92DF92EF92FF920F9384
:1032F0001F93CF93DF937C01CB018A0120915E0461
:10330000222389F0EB016B01C40ED51ECC15DD051F
:1033100069F06991D701ED91FC910190F081E02D68
:10332000C7010995F3CF642F0E941D19C801DF91D1
:10333000CF911F910F91FF90EF90DF90CF90089564
:10334000CF93DF931F92CDB7DEB7698320915E04E0
:103350002223D1F020918704203240F021E030E098
:10336000FC013383228380E090E015C080918804C3
:10337000E82FF0E0E15AFB4F998190838F5F8093B3
:1033800088048093870405C061E0CE0101960E9405
:103390001D1981E090E00F90DF91CF9108950E9478
:1033A0000C2FDC01ED91FC910190F081E02D09944E
:1033B000EF92FF920F931F93CF93DF938C017B01CA
:1033C000C0E0D0E0F701EC0FFD1F6491662361F0CF
:1033D000D801ED91FC910190F081E02DC801099593
:1033E000892B11F02196EECFCE01DF91CF911F9165
:1033F0000F91FF90EF9008956115710579F0FB0131
:1034000001900020E9F73197AF01461B570BDC0113
:10341000ED91FC910280F381E02D099480E090E031
:1034200008958F929F92AF92BF92EF92FF920F9367
:103430001F93CF93DF93CDB7DEB7A1970FB6F89464
:10344000DEBF0FBECDBF7C01FA01CB0119A2223035
:1034500008F42AE08E010F5D1F4F822E912CA12CC3
:10346000B12CBF01A50194010E94882EF901CA0167
:10347000015011096A3014F4605D01C0695CD80123
:103480006C93232B242B252B61F7B801C7010E94D5
:10349000FC19A1960FB6F894DEBF0FBECDBFDF9129
:1034A000CF911F910F91FF90EF90BF90AF909F90A1
:1034B0008F9008957F928F929F92AF92BF92CF92FA
:1034C000DF92EF92FF920F931F93CF93DF938C01C4
:1034D0006A017B01722E9A01AB01C701B6010E94FD
:1034E000632E882319F061ED73E027C04601570170
:1034F000E894B7F82FEF3FEF4FE75FE7C501B4015E
:103500000E94632E81110DC02FEF3FEF4FE75FE761
:10351000C501B4010E94922C18161CF465ED73E0ED
:103520000CC02FEF3FEF4FE75FE4C701B6010E94E9
:10353000F12D181694F469ED73E0C801DF91CF9175
:103540001F910F91FF90EF90DF90CF90BF90AF90C1
:103550009F908F907F900C94FC192FEF3FEF4FE7D7
:103560005FECC701B6010E94922C87FDE4CF20E0FA
:1035700030E0A901C701B6010E94922C87FF0AC062
:103580006DE2C8010E94D119EC01F7FAF094F7F846
:10359000F09402C0C0E0D0E0B12C60E070E080E0C8
:1035A0009FE37B1441F020E030E040E251E40E94D0
:1035B000972CB394F6CFA70196010E94262C6B019D
:1035C0007C010E94102D4B015C012AE0AB01BC0183
:1035D000C8010E94111AC80FD91F7720C1F1C50177
:1035E000B4010E943F2D9B01AC01C701B6010E94AE
:1035F000252C6B017C016EE2C8010E94D119C80F15
:10360000D91F20E030E040E251E4C701B6010E943A
:10361000F62D4B015C010E94102D6B01E12CF12C69
:103620002AE0B701A601C8010E94111AC80FD91FCC
:10363000C701B6010E943F2D9B01AC01C501B40139
:103640000E94252C6B017C017A947110DACFCE0197
:10365000DF91CF911F910F91FF90EF90DF90CF906E
:10366000BF90AF909F908F907F9008950C94FC191D
:103670001F920F920FB60F9211242F933F934F93E7
:103680005F936F937F938F939F93AF93BF93EF93CA
:10369000FF938BE894E00E947818FF91EF91BF911F
:1036A000AF919F918F917F916F915F914F913F91DA
:1036B0002F910F900FBE0F901F9018951F920F9291
:1036C0000FB60F9211242F938F939F93EF93FF9335
:1036D000E0919B04F0919C048081E091A104F09121
:1036E000A20482FD12C090818091A4048F5F8F7329
:1036F0002091A504821751F0E091A404F0E0E55771
:10370000FB4F958F8093A40401C08081FF91EF91BE
:103710009F918F912F910F900FBE0F901F90189532
:103720001F920F920FB60F9211242F933F934F9336
:103730005F936F937F938F939F93AF93BF93EF9319
:10374000FF938091B900887F803609F49CC068F5AA
:10375000883209F45BC090F4803109F454C038F425
:10376000882309F4F6C0883009F44DC0F6C08831CA
:1037700009F44CC0803209F45DC0EFC0803409F414
:1037800068C048F4803309F455C0883309F0E5C0B7
:1037900080935D04D8C0803509F44FC0883509F4A2
:1037A0005DC0883409F0D9C0D6C0883909F4C7C0D3
:1037B000A8F4883709F467C038F4883609F463C080
:1037C000803709F460C0C9C0883809F4B8C08039AE
:1037D00009F45FC0803809F0C0C05BC0803B09F4C9
:1037E00086C038F4803A09F466C0883A09F47FC08C
:1037F000B4C0803C09F4A7C0883C09F4A4C0883B4D
:1038000009F48AC0AAC080913A0410C090915C0467
:1038100080915B04981770F5E0915C0481E08E0F55
:1038200080935C04F0E0E55CFB4F80818093BB00FB
:1038300085EC86C080935D048EC0E0915C0481E0DD
:103840008E0F80935C048091BB00F0E0E55CFB4F41
:10385000808390915C0480915B046EC0E0915C0475
:1038600081E08E0F80935C048091BB00F0E0E55C0A
:10387000FB4F80838091850481116DC081E080932E
:10388000840484EA61C083E0809386041092E10599
:10389000CFCF8091E105803208F051C0E091E10581
:1038A00081E08E0F8093E1058091BB00F0E0EF5343
:1038B000FA4F8083BDCF85EC8093BC0010928604C4
:1038C0008091E105803230F4E091E105F0E0EF53C2
:1038D000FA4F10826091E10570E0E0918004F09170
:1038E000810481EC95E009951092E10536C084E0F1
:1038F000809386041092C0051092BF05E091820467
:10390000F091830409958091BF05811105C081E084
:103910008093BF0510929F05E091C00581E08E0F56
:103920008093C005F0E0E156FA4F80818093BB00A0
:103930009091C0058091BF05981708F479CF85E86C
:103940008093BC000AC085EC8093BC001092860472
:1039500004C010925D040E941319FF91EF91BF9172
:10396000AF919F918F917F916F915F914F913F9117
:103970002F910F900FBE0F901F9018950C94172C3D
:103980000C940F2C1F920F920FB60F9211242F93AD
:103990003F938F939F93AF93BF9380913204909105
:1039A0003304A0913404B09135043091E20523E052
:1039B000230F2D3720F40196A11DB11D05C026E867
:1039C000230F0296A11DB11D2093E20580933204BE
:1039D00090933304A0933404B0933504809136045B
:1039E00090913704A0913804B09139040196A11D3B
:1039F000B11D8093360490933704A0933804B0939C
:103A00003904BF91AF919F918F913F912F910F906A
:103A10000FBE0F901F901895CF93DF93CDB7DEB7F1
:103A200065970FB6F894DEBF0FBECDBF789484B50E
:103A3000826084BD84B5816084BD85B5826085BDAA
:103A400085B5816085BD80916E00816080936E0038
:103A5000109281008091810082608093810080912A
:103A600081008160809381008091800081608093DB
:103A700080008091B10084608093B1008091B0009B
:103A800081608093B00080917A00846080937A0096
:103A900080917A00826080937A0080917A008160C0
:103AA00080937A0080917A00806880937A001092E7
:103AB000C100E0919B04F0919C0482E08083E0913E
:103AC0009704F09198041082E0919904F0919A047F
:103AD00080E180831092A304E0919F04F091A00400
:103AE00086E08083E0919D04F0919E048081806156
:103AF0008083E0919D04F0919E04808188608083A2
:103B0000E0919D04F0919E04808180688083E09123
:103B10009D04F0919E0480818F7D808364EF71E02D
:103B200080E090E00E947A130E947C1282E00E9462
:103B3000AE120E94661160E171E080E00E94911176
:103B400068E071E081E00E94911160E071E082E044
:103B50000E94911161E081E10E94271360E081E100
:103B60000E942F1260E08FE00E94271361E08AE03C
:103B70000E94271361E08AE00E942F120E94470FE3
:103B80000E94B81486E394E09093DF038093DE03F1
:103B90008091E4039091E503A091E603B091E703DF
:103BA0008093E0039093E103A093E203B093E303D7
:103BB0000E94DC028CE291E0A0E0B0E0809318016A
:103BC00090931901A0931A01B0931B018091E40313
:103BD0009091E503A091E603B091E703845D9E4FC9
:103BE000AF4FBF4F8093E0039093E103A093E203B4
:103BF000B093E3030E94DC028091E8039091E90313
:103C00000297F9F00E9466116CE171E080E395E0A3
:103C10000E94361B8CE191E00E94B41160EA7FE0C3
:103C200080E090E00E947A1381E0809321048BE091
:103C300090E09093F6038093F5031092F7030E94AF
:103C400058090E940215E0914D05F0914E0513862A
:103C500015861486DF011B9633961E92EA17FB0722
:103C6000E1F710924C0501E0BE01665F7F4F809145
:103C70004D0590914E050E940C07882309F45BC006
:103C800067E0CE010A960E94510699898913ECCF0C
:103C900080914805811127C080914D0590914E0576
:103CA0000E94D506BE01665F7F4F80914D059091C1
:103CB0004E050E94920640E064EB80914D05909184
:103CC0004E050E945E0680914D0590914E050E9422
:103CD000B106182F80914D0590914E050E94D50692
:103CE000112309F451C5BE016F5F7F4FCE010A96C3
:103CF0000E94D510109149058A85803111F40C94E9
:103D0000682ACE010A960E942A11811718F4809120
:103D1000490509C08A85803111F48CE004C0CE01C8
:103D20000A960E942A118093490580914C058F5F65
:103D300080934C0599CF0E94940798E288E10FB6D2
:103D4000F894A895809360000FBE90936000A895AA
:103D500068EEA62E63E0B62E78EEC72E73E0D72E5F
:103D6000E12CF12C88248A94982C809121048111D3
:103D70009FC2809128048111DFC188EB9BE0909362
:103D8000BE018093BD010E94B413009124041091E0
:103D900025042091260430912704DC01CB01801BEF
:103DA000910BA20BB30B883B9B40A105B10508F416
:103DB0007FC20E94B41360932404709325048093FF
:103DC0002604909327048091220490912304019665
:103DD00090932304809322048130910509F444C018
:103DE0001CF4892B49F064C28230910509F46EC03D
:103DF000039709F4DBC05CC260E080E00E946E11B2
:103E00000E94791461E080E00E946E1140900804E5
:103E10005090090460900A0470900B0420E030E098
:103E200048EC52ECC301B2010E94F12D18169CF42B
:103E300021E0B301A20180E395E00E945A1A60E0FC
:103E400080E395E00E94520962EA70E080E395E029
:103E50000E94D81927C26EE971E080E395E00E94C4
:103E6000361B6CE971E01AC261E080E00E946E11BD
:103E70006091010480E395E00E940A126AE971E012
:103E800080E395E00E94361B65E072E080E395E0F8
:103E90000E94361B4091F1035091F2036091F303AD
:103EA0007091F40322E080E395E00E945A1A68E9D9
:103EB00071E080E395E00E94361B6FED71E080E3D6
:103EC00095E00E94361B0E947914F2C160E080E008
:103ED0000E946E110E94791461E080E00E946E11D0
:103EE0000E94DC020E94FB05E091ED038E2F90E022
:103EF000FC013197E730F10508F055C0EC5CFF4F4D
:103F000060E971E080E395E00C94C92E0E94361BB5
:103F100065E072E080E395E00E94361B69E871E09D
:103F2000BDC10E94361B65E072E080E395E00E940F
:103F3000361B61E871E0B2C10E94361B65E072E099
:103F400080E395E00E94361B6BE771E0A7C10E94F9
:103F5000361B65E072E080E395E00E94361B64E763
:103F600071E09CC10E94361B65E072E080E395E041
:103F70000E94361B6CE671E091C10E94361B65E021
:103F800072E080E395E00E94361B66E671E086C130
:103F90000E94361B65E072E080E395E00E94361BCC
:103FA0006FE571E07BC164E571E078C160E080E0BD
:103FB0000E946E1163E471E080E395E00E94361B7D
:103FC0006FED71E080E395E00E94361B61E08EE0CA
:103FD0000E946E116FED71E080E395E00E94361B48
:103FE00061E080E00E946E118091FE01823019F440
:103FF00060E471E008C06EE371E080E395E00E9448
:10400000361B6EE371E080E395E00E94361B61E0B1
:1040100082E00E946E118091FD01823019F46BE301
:1040200071E008C06EE371E080E395E00E94361B0A
:104030006EE371E080E395E00E94361B61E084E06E
:104040000E946E118091FC01823019F468E371E0E6
:1040500008C06EE371E080E395E00E94361B6EE3DA
:1040600071E080E395E00E94361B61E086E00E94EB
:104070006E118091FB01823019F465E371E008C094
:104080006EE371E080E395E00E94361B6EE371E021
:1040900080E395E00E94361B61E088E00E946E118B
:1040A0008091FA01823019F462E371E008C06EE396
:1040B00071E080E395E00E94361B6EE371E080E3DF
:1040C00095E00E94361B61E08AE00E946E118091AB
:1040D000F901823019F46FE271E008C06EE371E01B
:1040E00080E395E00E94361B6EE371E080E395E08B
:1040F0000E94361B61E08CE00E946E118091F801F5
:10410000823019F46CE271E008C06EE371E080E384
:1041100095E00E94361B6EE371E080E395E00E941B
:10412000361B6FED71E080E395E00E94361B9092A4
:10413000230480922204BCC0B092BE01A092BD01B3
:104140000E94B413009124041091250420912604A8
:1041500030912704DC01CB01801B910BA20BB30B28
:10416000883E9340A105B10508F4A2C00E94B41393
:10417000609324047093250480932604909327046D
:1041800060E080E00E946E1167E072E080E395E0FD
:104190000E94361B65E072E080E395E00E94361BCA
:1041A00080911002882319F069EB71E002C060EB86
:1041B00071E080E395E00E94361B6FED71E080E3D3
:1041C00095E00E94361B61E080E00E946E1164EB76
:1041D00071E080E395E00E94361B65E072E080E3C9
:1041E00095E00E94361B4091140450911504609193
:1041F0001604709117048091100490911104A091FD
:104200001204B0911304840F951FA61FB71F0091CD
:104210002C0510912D0520912E0530912F05BC0104
:10422000CD01601B710B820B930BA70196010E94BD
:10423000882EBA01A90180E395E00E94C3116EEABD
:1042400071E080E395E00E94361B60912805709133
:10425000290580912A0590912B05A70196010E94BE
:10426000882E29013A01609104047091050480911F
:10427000060490910704A70196010E94882ED3019D
:10428000C201821B930BA40BB50BAC01BD012AE04C
:1042900080E395E00E94111A6AEA71E080E395E0FC
:1042A0000E94361B6FED71E080E395E00E94361BA3
:1042B0000E9402158EE00E946313823391059CF0E8
:1042C000833C91050CF426C48C37A1E09A070CF4CA
:1042D00094C28B32B2E09B070CF480C586319340C8
:1042E0000CF455C221C060E971E080E090E00E94CA
:1042F0007A1388ED91E00E94B4118091D6019091DB
:10430000D7018B30910509F4B6C58530910509F4C4
:10431000AEC28330910509F4B6C58130910509F428
:10432000B8C5892B09F4BBC580912904882309F4F9
:10433000A2C06091200482E090E00E94BE1C6091C7
:104340001F0483E090E00E94BE1C6091FA0384E0A9
:1043500090E00E94BE1C60911D0485E090E00E94E8
:10436000BE1C60911C0486E090E00E94BE1C60911F
:10437000F90387E090E00E94BE1C60911A0488E077
:1043800090E00E94BE1C6091190489E090E00E94B8
:10439000BE1C6091F8038AE090E00E94BE1C609110
:1043A0000F048BE090E00E94BE1C60910E048CE034
:1043B00090E00E94BE1C60910D048DE090E00E9490
:1043C000BE1C60910C0480E190E00E94BE1C6091D4
:1043D000FE0184E190E00E94BE1C6091FD0185E138
:1043E00090E00E94BE1C6091FC0186E190E00E947A
:1043F000BE1C6091FB0187E190E00E94BE1C6091B1
:10440000FA0188E190E00E94BE1C6091F90189E107
:1044100090E00E94BE1C6091F8018AE190E00E9449
:10442000BE1C80EF91E00E94B411109229040E94FA
:10443000801160E080E00E946E1160EF71E080E327
:1044400095E00E94361B6FED71E080E395E00E94DD
:10445000361B61E080E00E946E116FED71E080E339
:1044600095E00E94361B60ED77E080E090E00E94CE
:104470007A130E94FF1380912104811181C10E944F
:10448000310690930402809303020E9429069093C0
:104490000202809301020E941F06805D9740909364
:1044A00000028093FF010E944906909300048093CC
:1044B000FF030E9441069093FE038093FD030E9438
:1044C00039069093FC038093FB030E9494070E949B
:1044D000D513882361F180910C04823041F58091DD
:1044E0000D04813021F57090010497E2971560F07A
:1044F00080911E048111DAC480911B048111D6C4FD
:10450000809118048111D2C41091010488ED810FAB
:10451000843108F41CC51091010484EC810F8431AE
:1045200008F470C510910104103508F0C0C50E9450
:10453000D513882309F45EC080910D04823009F000
:1045400059C080910C04813009F054C04090080497
:104550005090090460900A0470900B0420E030E051
:1045600040E252E4C301B2010E94F12D87FD0CC06C
:1045700080911E048111EAC580911B048111E6C55A
:10458000809118048111E2C54090080450900904FC
:1045900060900A0470900B0420E030E040EF51E49A
:1045A000C301B2010E94F12D87FF33C64090080479
:1045B0005090090460900A0470900B0420E030E0F1
:1045C00040EA51E4C301B2010E94F12D87FF98C671
:1045D000409008045090090460900A0470900B0405
:1045E00020E030E040EA50E4C301B2010E94F12D26
:1045F00087FFF7C680912804882309F472C00E94BF
:10460000B41360932C0570932D0580932E05909321
:104610002F0510911002612F81E10E942F128091CD
:104620002C0590912D05A0912E05B0912F0540915C
:104630001404509115046091160470911704841BA2
:10464000950BA60BB70B409110045091110460918B
:1046500012047091130484179507A607B70708F48E
:1046600044C0112319F020910F0402C020910E04C0
:104670002A9DC0012B9D900D1124092E000CAA0B20
:10468000BB0B8093100490931104A0931204B09379
:10469000130467E072E08BE894E00E94361B65E04B
:1046A00072E08BE894E00E94361B8091100290E04B
:1046B0000E94FB119091100281E0892780931002E3
:1046C00080912C0590912D05A0912E05B0912F057C
:1046D0008093140490931504A0931604B0931704C8
:1046E00004C060E081E10E942F120E9449062091DF
:1046F000200430E08217930789F40E94410620913C
:104700001F0430E08217930749F40E943906059789
:104710002CF480911E04882309F4CEC60E94490619
:1047200020911D0430E08217930789F40E9441060E
:1047300020911C0430E08217930749F40E94390647
:1047400005972CF480911B04882309F4B9C60E94B4
:10475000490620911A0430E08217930789F40E94D9
:1047600041062091190430E08217930749F40E9412
:10477000390605972CF480911804882309F4A4C6FF
:10478000A8950E940919F1CA00934805ACCA6FEBBD
:1047900071E08BE894E00E94361B8091F5039091C4
:1047A000F6030E94FB1181E0809321048091F503C0
:1047B0000E9458098091F5039091F603823091058B
:1047C00040F09C01277F2330310519F08530910599
:1047D00021F41092F7030E9458098091F5039091FB
:1047E000F60301969093F6038093F50360E273E07D
:1047F00080E090E00E947A1397CD68EC70E080E052
:1048000090E00E947A1384EC91E00E94B4118091B0
:10481000D6019091D7019C012C50310922303105ED
:1048200078F410922104109229040E948011909231
:10483000D7018092D6011092F6031092F50374CD41
:104840008B30910509F076C08091F703811121C06A
:10485000809103029091040282309105A4F4AFE1AB
:10486000B0E0B0930402A09303028BE009C08091F2
:10487000F7038F3F09F4D5C281E08093F70385E009
:104880000E94580951CD019790930402809303022E
:10489000ECCF813081F4809101029091020282304C
:1048A00091051CF48CE090E001C001979093020206
:1048B00080930102DACF8230A1F48091FF019091C0
:1048C0000002843191053CF4A2E3B0E0B093000211
:1048D000A093FF01CACF0197909300028093FF013C
:1048E000C4CF833081F48091FF03909100041816A7
:1048F00019061CF087E190E001C001979093000435
:104900008093FF03B2CF843009F00ECD8091FD0378
:104910009091FE03181619063CF0ABE3B0E0B0939B
:10492000FE03A093FD03A1CF01979093FE03809314
:10493000FD039BCF8A30910551F480910C048130A6
:1049400011F08AE09DCF82E080930C04FACF893089
:10495000910551F480910D04813011F089E090CFE0
:1049600082E080930D04FACF8830910559F480914C
:104970000E04811105C08AEF80930E0488E080CF79
:104980008150FACF8730910559F480910F0481113D
:1049900005C08AEF80930F0487E072CF8150FACF71
:1049A0008630910559F48091F803863028F48AEF17
:1049B0008093F80386E064CF8550FACF8530910567
:1049C000F9F48091F70381110CC080911A048111D0
:1049D00004C0B7E1B0931A0452CF815080931A04F7
:1049E0004ECF813009F0A0CC80911904811104C010
:1049F0002BE32093190443CF8150809319043FCFB8
:104A00008430910559F48091F903863028F48AEFB7
:104A10008093F90384E034CF8550FACF8330910539
:104A2000F1F48091F70381110BC080911D04811175
:104A300002C087E101C0815080931D0483E020CF34
:104A4000813009F071CC80911C04811104C09BE37A
:104A500090931C04F3CF815080931C04EFCF8230DD
:104A6000910559F48091FA03863028F48AEF8093F7
:104A7000FA0382E005CF8550FACF8130910501F528
:104A80008091F70381110DC080912004811105C030
:104A9000A7E1A093200481E0F3CE8150809320040D
:104AA000FACF813009F040CC80911F04811104C0FD
:104AB000BBE3B0931F04EFCF815080931F04EBCF73
:104AC000892B09F031CC8091F703811103C010923A
:104AD000FE01D6CE813021F41092FD0180E0D0CECF
:104AE000823019F41092FC01F9CF833019F410923E
:104AF000FB01F4CF843019F41092FA01EFCF853026
:104B000019F41092F901EACF863009F00DCC109219
:104B1000F801E4CF68EC70E080E090E00E947A1346
:104B200089EC91E00E94B4118091D6019091D70157
:104B30008D30910521F481E08093290478CE8C306A
:104B4000910539F58FEF9FEF9093D7018093D601B0
:104B50000E94F02A0E94470F1092FC031092FB0360
:104B60001092FE031092FD03109200041092FF03B6
:104B700081E090E0909304028093030290930202FC
:104B80008093010282E190E0909300028093FF0104
:104B900070CC8B30910509F051C08091F7038111E1
:104BA0000CC080910302909104028F3191051CF09A
:104BB00081E090E069CE019667CE813081F48091EA
:104BC0000102909102028C3091053CF0A1E0B0E02E
:104BD000B0930202A093010248CE019667CE8230C4
:104BE00061F48091FF0190910002823391051CF0E5
:104BF00083E190E071CE01966FCE833071F48091A5
:104C0000FF0390910004873191052CF0109200046D
:104C10001092FF032ACE019671CE843009F084CB26
:104C20008091FD039091FE038B3391052CF010923F
:104C3000FE031092FD0319CE019677CE8A309105BE
:104C400039F480910C04823009F07BCE81E07CCE77
:104C50008930910539F480910D04823009F07ECEBF
:104C600081E07FCE8830910549F480910E048A3F1F
:104C700018F010920E0482CE8F5F7ECE87309105A1
:104C800049F480910F048A3F18F010920F0484CEEB
:104C90008F5F80CE8630910541F48091F8038A3F82
:104CA00010F085E085CE8B5F83CE85309105C9F409
:104CB0008091F703811109C080911A04873118F09F
:104CC00010921A04DCCD8F5F89CE813009F02CCB95
:104CD000809119048B3318F010921904D0CD8F5F96
:104CE0008CCE8430910541F48091F9038A3F10F015
:104CF00085E08ECE8B5F8CCE83309105C9F4809198
:104D0000F703811109C080911D04873118F01092BA
:104D10001D0494CE8F5F90CE813009F005CB809139
:104D20001C048B3318F010921C0488CE8F5F94CE35
:104D30008230910541F48091FA038A3F10F085E0BA
:104D400096CE8B5F94CE81309105C9F48091F703A4
:104D5000811109C080912004873118F0109220043D
:104D60009ACE8F5F9BCE813009F0DECA80911F04FE
:104D70008B3318F010921F048ECE8F5F9ECE892B3E
:104D800009F0D2CA8091F703811104C082E08093B8
:104D9000FE01A4CE813021F482E08093FD019ECEFD
:104DA000823019F48093FC0199CE833021F482E0A3
:104DB0008093FB0193CE843021F482E08093FA014A
:104DC0008DCE853021F482E08093F90187CE863044
:104DD00009F0AACA82E08093F80180CE60E971E010
:104DE00080E090E00E947A1380ED91E00E94B4117F
:104DF0008091D6019091D7018B30910551F480912B
:104E0000F703815019F08093F7032FCD1092F70329
:104E10002CCD8530910541F48091F703815009F044
:104E20002CCD1092F7032BCD8330910551F4809156
:104E3000F703815019F08093F70300CE1092F70327
:104E4000FDCD8130910551F48091F703815019F027
:104E50008093F70320CE1092F7031DCE892B09F023
:104E600063CA8091F703815019F08093F70336CE1F
:104E70001092F70333CE8091F7038F5F843008F4EC
:104E8000C2CF84E0C0CF8091F7038F3FB9F281E0B9
:104E9000D2CF8091F7038F3FF1F281E0D9CF80919B
:104EA000F7038F5F863008F386E0DFCF81E08093E1
:104EB00028040E94B41360932805709329058093F9
:104EC0002A0590932B05A70196010E94882E1901AF
:104ED0002A0100910204109103046091040470916E
:104EE00005048091060490910704A70196010E9491
:104EF000882ED201C101821B930BA40BB50B980124
:104F000036952795020F131F20E030E08017910798
:104F1000A207B30708F4F8CA2092040430920504EB
:104F2000409206045092070410921E0410921B0433
:104F30001092180410922804472D50E060E070E0B1
:104F400081E190E00E942B0F0E94D113DDCA809175
:104F50001E04811109C080911B04811105C080913C
:104F60001804882309F4D7CA81E0809328040E949A
:104F7000B413609328057093290580932A059093B4
:104F80002B05A70196010E94882E29013A01609104
:104F90000404709105048091060490910704A70110
:104FA00096010E94882ED301C201821B930BA40B91
:104FB000B50BAC01BD018091020490910304A0E007
:104FC000B0E0481759076A077B0708F4A4CA409263
:104FD0000404509205046092060470920704109233
:104FE0001E0410921B041092180410922804412FE2
:104FF00050E060E070E081E190E00E942B0F0E94A1
:10500000D11389CA80911E04811105C080911B04AF
:10501000882309F487CA81E0809328040E94B4138E
:10502000609328057093290580932A0590932B059A
:10503000A70196010E94882E29013A01609104047B
:10504000709105048091060490910704A7019601D0
:105050000E94882ED301C201821B930BA40BB50BB7
:10506000AC01BD018091020490910304A0E0B0E086
:10507000481759076A077B0708F454CA409204048A
:1050800050920504609206047092070410921E0468
:1050900010921B0410922804412F50E060E070E051
:1050A00081E190E00E942B0F0E94D1133BCA8091B6
:1050B0001E04882309F43BCA81E0809328040E94DF
:1050C000B413609328057093290580932A05909363
:1050D0002B05A70196010E94882E29013A016091B3
:1050E0000404709105048091060490910704A701BF
:1050F00096010E94882ED301C201821B930BA40B40
:10510000B50BAC01BD018091020490910304A0E0B5
:10511000B0E0481759076A077B0708F408CA4092AD
:1051200004045092050460920604709207041092E1
:105130001E0410922804412F50E060E070E081E1ED
:1051400090E00E942B0F0E94D113F1C981E080935F
:1051500028040E94B4136093280570932905809356
:105160002A0590932B05A70196010E94882E2A8B71
:105170003B8B4C8B5D8B009102041091030460917A
:105180000404709105048091060490910704A7011E
:1051900096010E94882E8A899B89AC89BD89821BD1
:1051A000930BA40BB50B980136952795020F131F8F
:1051B00020E030E080179107A207B30708F4E4C9A4
:1051C0008A899B89AC89BD898093040490930504E6
:1051D000A0930604B093070410921E0410921B04BF
:1051E000109218041092280420E030E04AE754E4BA
:1051F000C301B2010E94F62D0E94092DAB01770F69
:10520000660B770B8EE090E00E942B0F0E94D1136B
:10521000BBC920E030E040E252E4C301B2010E9489
:10522000922C87FFC3C980911E04811109C080910F
:105230001B04811105C080911804882309F4B6C9A4
:1052400081E0809328040E94B41360932805709332
:10525000290580932A0590932B05A70196010E94AA
:10526000882E2A8B3B8B4C8B5D8B60910404709154
:1052700005048091060490910704A70196010E94FD
:10528000882E8A899B89AC89BD89821B930BA40BCC
:10529000B50BAC01BD018091020490910304A0E024
:1052A000B0E0481759076A077B0708F47FC98A8965
:1052B0009B89AC89BD898093040490930504A093D5
:1052C0000604B093070410921E0410921B0410925F
:1052D00018041092280420E030E04AE754E4C301A7
:1052E000B2010E94F62D0E94092DAB01770F660BCB
:1052F000770B8EE090E00E942B0F0E94D11356C9CD
:1053000020E030E040EF51E4C301B2010E94922C52
:1053100087FF5EC980911E04811105C080911B0426
:10532000882309F455C981E0809328040E94B413AE
:10533000609328057093290580932A0590932B0587
:10534000A70196010E94882E2A8B3B8B4C8B5D8B8C
:105350006091040470910504809106049091070403
:10536000A70196010E94882E8A899B89AC89BD89F4
:10537000821B930BA40BB50BAC01BD018091020401
:1053800090910304A0E0B0E0481759076A077B0733
:1053900008F41EC98A899B89AC89BD89809304045D
:1053A00090930504A0930604B093070410921E0482
:1053B00010921B041092280420E030E04AE754E4E5
:1053C000C301B2010E94F62D0E94092DAB01770F97
:1053D000660B770B8EE090E00E942B0F0E94D1139A
:1053E000F7C820E030E040EA51E4C301B2010E9476
:1053F000922C87FFFFC880911E04882309F4FAC805
:1054000081E0809328040E94B41360932805709370
:10541000290580932A0590932B05A70196010E94E8
:10542000882E2A8B3B8B4C8B5D8B60910404709192
:1054300005048091060490910704A70196010E943B
:10544000882E8A899B89AC89BD89821B930BA40B0A
:10545000B50BAC01BD018091020490910304A0E062
:10546000B0E0481759076A077B0708F4C8C88A895B
:105470009B89AC89BD898093040490930504A09313
:105480000604B093070410921E041092280420E032
:1054900030E04AE754E4C301B2010E94F62D0E94B5
:1054A000092DAB01770F660B770B8EE090E00E9421
:1054B0002B0F0E94D1139EC881E00E9420022EC9AA
:1054C00082E00E94200243C983E00E94200258C962
:1054D0001D3010F00C94871E0C948D1E0F931F939B
:1054E000CF938C0181E080935E0488E680937F04F3
:1054F000109288041092870460E08BE595E00E948A
:10550000A019F8018081CAE06C2F0E94682E692FD3
:10551000F0E18F9F600D11248BE595E00E94A019AA
:10552000F80181816C2F0E94682E692FF0E18F9F16
:10553000600D11248BE595E00E94A019F80182818D
:105540006C2F0E94682E692FF0E18F9F600D11244F
:105550008BE595E00E94A019F80183816C2F0E94D1
:10556000682E692FF0E18F9F600D11248BE595E087
:105570000E94A019F80184816C2F0E94682E692F67
:10558000F0E18F9F600D11248BE595E00E94A0193A
:10559000F80185816C2F0E94682E692FF0E18F9FA2
:1055A000600D11248BE595E00E94A019F801868119
:1055B0008E516C2F0E94682E692FF0E18F9F600D35
:1055C00011248BE595E00E94A01981E00E947910DA
:1055D00091E0811190E0892FCF911F910F91089553
:1055E000CF93DF93C0E0D0E060E0CE010E94BE1C0C
:1055F0002196C11584E0D807B9F781E192E0DF91E7
:10560000CF910C94B41110928E0410928D0488EEF8
:1056100093E0A0E0B0E080938F0490939004A09377
:105620009104B093920422EA33E030938C042093E7
:105630008B0425EC30E0309398042093970424ECFD
:1056400030E030939A042093990420EC30E03093BA
:105650009C0420939B0421EC30E030939E04209323
:105660009D0422EC30E03093A00420939F0426ECAC
:1056700030E03093A2042093A1041092A40410926D
:10568000A5041092A6041092A70410925E05109231
:105690005D0580935F0590936005A0936105B093CD
:1056A000620584EB93E090935C0580935B0560E07A
:1056B00080E10E942713ECE0F2E0E491E0936705BB
:1056C000E8EFF1E0E491F0E0EE0FFF1FE252FE4F51
:1056D0008591949190936905809368051092720565
:1056E0001092740510927305E2E7F5E08AE695E002
:1056F00012928E179F07E1F787E499E190935A057C
:105700008093590587E695E090934E0580934D056B
:1057100010924C051092480589E08093490591E06C
:1057200090934A0590934B051092330510923205E1
:1057300026EC33E0309331052093300598E09093C8
:1057400034059FEF909335058093360582E0809372
:10575000370583E08093380586E08093390587E03C
:1057600080933A0510923B0510923C0510923D053E
:1057700010923E0561E088E00E9427138091350574
:105780008F3F19F061E00E94271361E08091360598
:105790000E94271310923F0581E00E94AE120E94E2
:1057A000B41360932C0570932D0580932E05909370
:1057B0002F050E94B41360932805709329058093E8
:1057C0002A0590932B050C947C12CF938BE894E0E0
:1057D0000E946218892B41F46AE070E080E090E05A
:1057E0000E947A13A895F2CF8BE894E00E944018AB
:1057F000C0E08A3069F080538A3028F49AE0C99F6B
:10580000800D1124C82F8BE894E00E944018F1CF3E
:105810008BE894E00E94E7188C2FCF910895F999B6
:10582000FECF92BD81BDF89A992780B50895262FA5
:10583000F999FECF1FBA92BD81BD20BD0FB6F89475
:10584000FA9AF99A0FBE019608955058BB27AA27D5
:105850000E943D2C0C94B72D0E94A92D38F00E9477
:10586000B02D20F039F49F3F19F426F40C94A62DA6
:105870000EF4E095E7FB0C94A02DE92F0E94C82DB3
:1058800058F3BA17620773078407950720F079F475
:10589000A6F50C94EA2D0EF4E0950B2EBA2FA02D50
:1058A0000B01B90190010C01CA01A0011124FF27CD
:1058B000591B99F0593F50F4503E68F11A16F040C8
:1058C000A22F232F342F4427585FF3CF46953795C7
:1058D0002795A795F0405395C9F77EF41F16BA0B8C
:1058E000620B730B840BBAF09150A1F0FF0FBB1F3A
:1058F000661F771F881FC2F70EC0BA0F621F731F83
:10590000841F48F4879577956795B795F7959E3FDF
:1059100008F0B0CF9395880F08F09927EE0F979570
:10592000879508950E947C2D08F481E008950E94D7
:10593000AB2C0C94B72D0E94B02D58F00E94A92DCD
:1059400040F029F45F3F29F00C94A02D51110C94E4
:10595000EB2D0C94A62D0E94C82D68F39923B1F36A
:10596000552391F3951B550BBB27AA276217730785
:10597000840738F09F5F5F4F220F331F441FAA1F19
:10598000A9F335D00E2E3AF0E0E832D091505040D5
:10599000E695001CCAF72BD0FE2F29D0660F771F83
:1059A000881FBB1F261737074807AB07B0E809F069
:1059B000BB0B802DBF01FF2793585F4F3AF09E3FEE
:1059C000510578F00C94A02D0C94EB2D5F3FE4F37F
:1059D000983ED4F3869577956795B795F7959F5F31
:1059E000C9F7880F911D9695879597F90895E1E07D
:1059F000660F771F881FBB1F621773078407BA07DC
:105A000020F0621B730B840BBA0BEE1F88F7E09536
:105A100008950E94102D6894B1110C94EB2D0895F7
:105A20000E94D02D88F09F5798F0B92F9927B75131
:105A3000B0F0E1F0660F771F881F991F1AF0BA9532
:105A4000C9F714C0B13091F00E94EA2DB1E0089579
:105A50000C94EA2D672F782F8827B85F39F0B93F6B
:105A6000CCF3869577956795B395D9F73EF49095E5
:105A70008095709561957F4F8F4F9F4F0895E89463
:105A800009C097FB3EF490958095709561957F4F86
:105A90008F4F9F4F9923A9F0F92F96E9BB27939534
:105AA000F695879577956795B795F111F8CFFAF444
:105AB000BB0F11F460FF1BC06F5F7F4F8F4F9F4F75
:105AC00016C0882311F096E911C0772321F09EE8D3
:105AD000872F762F05C0662371F096E8862F70E039
