:100000000C94AD010C94D5010C94D5010C94D50140
:100010000C94D5010C94D5010C94D5010C949F023D
:100020000C94D5010C94D5010C94D5010C94D501F8
:100030000C94D5010C94D5010C94D5010C94D501E8
:100040000C946F1C0C94D5010C940B1B0C94E51AAA
:100050000C94D5010C94D5010C94D5010C94D501C8
:100060000C943D1B0C94D501331F3E1F491F541F98
:100070005F1F6A1F751F38093A0A820AC20AF50A09
:10008000350B680BA80BEE0B2F0C8D0CEB0C8F0DAA
:10009000E60D3409B913BC13BF13C213C513C8133B
:1000A000CB134300005EBCE2613FDD83C29C7E2037
:1000B000A3FD1F419DC3217FFCA2401E5F01E3BD44
:1000C0003E6082DC237D9FC1421CFEA0E1BF5D0338
:1000D00080DE3C62BEE0025CDF81633D7C22C09E2C
:1000E0001D43A1FF4618FAA427799BC584DA386618
:1000F000E5BB5907DB856739BAE406581947A5FB04
:100100007826C49A653BD987045AB8E6A7F91B45F7
:10011000C6987A24F8A6441A99C7257B3A6486D8EB
:100120005B05E7B98CD2306EEDB3510F4E10F2ACD7
:100130002F7193CD114FADF3702ECC92D38D6F31C3
:10014000B2EC0E50AFF1134DCE90722C6D33D18FB7
:100150000C52B0EE326C8ED0530DEFB1F0AE4C12AB
:1001600091CF2D73CA947628ABF517490856B4EA97
:100170006937D58B5709EBB536688AD495CB297783
:10018000F4AA4816E9B7550B88D6346A2B7597C977
:100190004A14F6A8742AC896154BA9F7B6E80A546B
:1001A000D7896B35454550524F4D206E616374655C
:1001B0006E69204F4B0000000000240027002A0039
:1001C00000000000250028002B00000000080002AD
:1001D0000100000304070000000000000000000010
:1001E000000023002600290004040404040404047D
:1001F00002020202020203030303030301020408D2
:100200001020408001020408102001020408102080
:100210002A2A2A2A2A2A2A2A2A2A2A2A2A2A2A2A3E
:100220002A2A2A2A2A2A00492056797073617420C2
:10023000646174756D206120636173004820567994
:1002400070736174207465706C6F7475004720560C
:100250007970736174206E6170657469207A6520AD
:10026000736F6E64790046205469736B2045455066
:10027000524F4D004520536D617A617420454550C1
:10028000524F4D0044204E6173746176697420644E
:100290006174756D20612063617300432053707534
:1002A000737469742070726F6772616D20330042DD
:1002B00020537075737469742070726F6772616D0A
:1002C0002032004120537075737469742070726F0E
:1002D0006772616D2031003F204E61706F766564FA
:1002E00061002A2A2A204D454E55202A2A2A2A2AE8
:1002F0002A2A2A2A2A2A2A2A007777772E706968DA
:1003000072742E636F6D0030002D002D002D0020C3
:1003100053656320302D35393A2000204D696E2019
:10032000302D35393A200020486F6420302D32338B
:100330003A2000204D657320312D31323A200020C3
:1003400044656E20312D33313A200020526F6B20EE
:1003500031392D39393A2000CD2A11241FBECFEF73
:10036000D8E0DEBFCDBF13E0A0E0B1E0ECEAFDE5F0
:1003700002C005900D92A63DB107D9F725E0A6ED84
:10038000B3E001C01D92AB3DB207E1F711E0CDEA49
:10039000D1E004C02197FE010E94932ECC3AD107F0
:1003A000C9F70E94B91C0C94D42E0C940000FC01D7
:1003B00090810180F281E02D892F809560FF12C02D
:1003C000F8942281822382838181892B8183A3E215
:1003D000B0E01197F1F78281982B9283789487EDA2
:1003E00090E011C0F8942281822382838181892B3D
:1003F0008183AFEFB0E01197F1F78281982B928360
:1004000078948FE090E00197F1F70895089580E0E7
:1004100090E00895CF93DF93EC0160E08E810E941D
:10042000011261E08E810E94011260E08E810E94C3
:1004300001128BE891E00197F1F7DF91CF910895D8
:10044000CF93C82F6CE773E085E894E00E94E31A2D
:1004500065E072E085E894E00E94E31A6C2F85E87D
:1004600094E00E94DC1165E072E085E894E00E946F
:10047000E31AC13051F48091F20390E09093FC03B1
:100480008093FB03C09317041AC0C23059F48091C3
:10049000F10390E09093FC038093FB0381E0809351
:1004A00014040DC0C33009F048C08091F00390E0FF
:1004B0009093FC038093FB0381E0809311040E94DE
:1004C000861360930D0470930E0480930F04909331
:1004D00010041092090410920A0410920B04109256
:1004E0000C040E9486136093FD037093FE038093B7
:1004F000FF039093000464EB71E085E894E00E94B0
:10050000E31A65E072E085E894E00E94E31A409106
:10051000FB035091FC0360E070E02AE085E894E082
:100520000E94BE1965E072E085E894E00E94E31A3B
:100530008AEA91E0CF910C948611CF9108951F9291
:100540000F920FB60F9211240F900FBE0F901F90B5
:1005500018950F931F936093DC037093DD038093D2
:10056000DE039093DF03009118011091190120918F
:100570001A0130911B01DC01CB01800F911FA21FDA
:10058000B31F8093D8039093D903A093DA03B09359
:10059000DB0382E090E09093E1038093E0030E940C
:1005A0008613609328047093290480932A049093FF
:1005B0002B041F910F910895CF92DF92EF92FF923B
:1005C0000F931F930E948613C0902804D090290493
:1005D000E0902A04F0902B048B019C010C191D095A
:1005E0002E093F098091DC039091DD03A091DE0389
:1005F000B091DF03083E134021053105D0F001968C
:10060000A11DB11D8093DC039093DD03A093DE0355
:10061000B093DF03B701A60148515C4F6F4F7F4F86
:10062000409328045093290460932A0470932B0468
:10063000C9CF4091D8035091D9036091DA037091EA
:10064000DB0384179507A607B707C8F1E091D60327
:10065000F091D703309799F10995611571058105DE
:10066000910519F00E94A9022AC04091DC03509123
:10067000DD036091DE037091DF038091180190919A
:100680001901A0911A01B0911B01840F951FA61F9B
:10069000B71F8093D8039093D903A093DA03B09344
:1006A000DB0381E090E02091E0033091E103232B14
:1006B00011F480E090E09093E1038093E003609177
:1006C000DC037091DD038091DE039091DF031F91C5
:1006D0000F91FF90EF90DF90CF9008954F925F922F
:1006E0006F927F928F929F92AF92BF92CF92DF9242
:1006F000EF92FF920F931F93CF93DF93FC0116812C
:10070000A12FB0E020E833E341EE51E00E94A82E93
:100710004B015C01C2EBD7E09D0104E610E080E9EB
:10072000E82EFF24F394CE01825B97408217930753
:10073000D4F4CE0183709927892B99F4CE01B801A6
:100740000E943E2E892B31F4CE01B7010E943E2E2D
:10075000892B39F480E8880E81E5981E81E0A81E77
:10076000B11C2196E0CF4580512C2E54384FC90141
:1007700064E670E00E943E2E7C01C90160E971E0F0
:100780000E943E2E6C0105E813E0C1E0D0E0390183
:10079000A3E06A227724C415D50534F5C230D1050B
:1007A00089F46114710471F4E114F10419F4C114B1
:1007B000D10441F4B0E88B0EBBE39B1EB6E2AB1E46
:1007C000B11C0EC0D8018C91A82FB0E020E831E513
:1007D00041E050E00E94A82E860E971EA81EB91E6A
:1007E00021960F5F1F4FD7CF4181228130E0A0E1DA
:1007F000BEE00E94992E6B017C01242F30E0ACE317
:10080000B0E00E94992EDC01CB018C0D9D1DAE1D28
:10081000BF1D20816C017D01C20ED11CE11CF11CA9
:10082000A481B0E0119720E831E541E050E00E945A
:10083000B32EDC01CB018C0D9D1DAE1DBF1DBC0177
:10084000CD01680D791D8A1D9B1DDF91CF911F91F0
:100850000F91FF90EF90DF90CF90BF90AF909F905F
:100860008F907F906F905F904F9008951F93CF93DC
:10087000DF93CDB7DEB727970FB6F894DEBF0FBE74
:10088000CDBF81E08093580488E68093790410926C
:1008900082041092810460E085E595E00E944D1984
:1008A00081E00E944B108111B4C0809180048111BD
:1008B000FCCF81E08093800480937F049FEF90932E
:1008C00057041092560496E0909355048093340494
:1008D00080913404806D8093340480917E04813053
:1008E00061F410927E04809134048093BB00809167
:1008F000BC0083FDF8CF85EC01C085EE8093BC0081
:10090000809180048130E1F380915604873018F49F
:100910009091560401C097E0A5E3B4E0E7E7F5E065
:1009200080E0891721F02D9121938F5FFACF1092EB
:1009300084048093830490E007970CF46AC085E5F3
:1009400095E00E940419182F8695869586958E70DD
:10095000982F990F990F890F912F9F70890F898375
:1009600085E595E00E940419982F92959F708F70ED
:100970002AE0929F800D11248A8385E595E00E94EC
:100980000419982F9695969596959670292F220F73
:10099000220F920F8F70890F8B8385E595E00E945F
:1009A0000419982F92959F708F702AE0929F800D66
:1009B00011248C8385E595E00E940419982F929567
:1009C0009F708F702AE0929F800D11248D8385E5A2
:1009D00095E00E940419982F92959F708F702AE0DD
:1009E000929F800D11248E8385E595E00E94041965
:1009F000982F9F70925E82958F702AE0829F900D53
:100A000011249F8317FD05C0CE0101960E946E033D
:100A100003C060E070E0CB0127960FB6F894DEBF0C
:100A20000FBECDBFDF91CF911F9108956F927F923E
:100A30008F929F92AF92BF92CF92DF92EF92FF92EE
:100A40000F931F93CF93DF936B017C01EA018CE33B
:100A5000882E912CA12CB12CC701B601A5019401BF
:100A60000E94522E6883CA01B901A50194010E9417
:100A7000522E6983C701B60120E13EE040E050E01C
:100A80000E94522ECA01B90128E130E040E050E056
:100A90000E94522E6A83C701B60120E831E541E089
:100AA00050E00E94522E69017A01CA01B9016C5FBF
:100AB0007F4F8F4F9F4F27E030E040E050E00E9493
:100AC000522E6F5F6B83812C912C540140E094E691
:100AD000692E712C00E911E0242F30E02E54384F9C
:100AE000F901E370FF27309789F4C901B3010E942F
:100AF0003E2E892B31F4C901B8010E943E2E892B6C
:100B000029F48EE691E0A0E0B0E004C08DE691E02B
:100B1000A0E0B0E0880E991EAA1EBB1ED501C4013C
:100B2000AA27BB27C816D906EA06FB0610F04F5FB6
:100B3000D3CF4E83309799F4C90164E670E00E94E8
:100B40003E2E892B39F4C90160E971E00E943E2EE6
:100B5000892B29F48EE691E0A0E0B0E004C08DE698
:100B600091E0A0E0B0E0881A990AAA0ABB0AC81866
:100B7000D908EA08FB08C90164E670E00E943E2E2D
:100B80008C01C90160E971E00E943E2EA5E8B3E046
:100B900020E0213041F4309751F40115110529F47A
:100BA000009729F402C04C9103C04DE101C04CE113
:100BB00050E060E070E0C416D506E606F70640F0A7
:100BC000C41AD50AE60AF70A2F5F11962C3009F7E6
:100BD0002F5F2D83C394CC82DF91CF911F910F9112
:100BE000FF90EF90DF90CF90BF90AF909F908F904D
:100BF0007F906F900895CF92DF92EF92FF92C09016
:100C00002404D0902504E0902604F0902704C61612
:100C1000D706E806F90671F06B017C0142EE53E05D
:100C20000E941605C0922404D0922504E092260466
:100C3000F0922704FF90EF90DF90CF9008950E94EC
:100C4000DC020E94FB058091E80390E08E54984FEF
:100C500008950E94DC020E94FB058091E70390E06A
:100C600008950E94DC020E94FB058091E60390E05B
:100C700008950E94DC020E94FB058091E20390E04F
:100C800008950E94DC020E94FB058091E30390E03E
:100C900008950E94DC020E94FB058091E40390E02D
:100CA0000895DC0180E0615040F09D91E82FE92734
:100CB000F0E0EC55FF4F8491F6CF0895DF92EF926C
:100CC000FF920F931F93CF93DF93EC01D62EE42E68
:100CD00008E010E0FF24F39461E08D2D8F2109F4EA
:100CE00060E0CE010E94D701FF0C01501109A1F76D
:100CF000E11010C0F894E981FA8191818881809592
:100D000089238183E981FA81928188818095892371
:100D100082837894DF91CF911F910F91FF90EF9094
:100D2000DF900895EF92FF920F931F93CF93DF937D
:100D30008C017B0140E065E50E945E06E70188E0EA
:100D4000E80EF11C699140E0C8010E945E06CE15D4
:100D5000DF05C1F7DF91CF911F910F91FF90EF90C9
:100D60000895FC0190810180F281E02DF894818149
:100D7000892B81832281892F809528232283A7E0D4
:100D8000B0E01197F1F7218182238183A3E2B0E0E3
:100D90001197F1F780817894EFECF0E03197F1F75B
:100DA000982381E009F480E00895DC012C911196EC
:100DB000ED91FC911297F8948181922F909589235F
:100DC000818378948DE743E050E0815021F1DA018E
:100DD0001197F1F730813223C1F3F894828189238E
:100DE00082838181822B81837894ABE7B7E011976E
:100DF000F1F7F89481819823918383E191E0019741
:100E0000F1F78081282381E009F080E07894E3E61F
:100E1000F6E03197F1F70895BF92CF92DF92EF920B
:100E2000FF920F931F93CF93DF93EC01D62EC72E23
:100E30008D8581115BC0CE010E94D506811104C051
:100E40001B861D861C8666C040E060EFCE010E94B6
:100E50005E0601E0E12CB12C11E0CE010E94B1064A
:100E6000F82ECE010E94B10691E0F91203C0813044
:100E7000B1F434C02E2D30E0F8121BC08B8518174A
:100E800038F4FE01E20FF31F8381802341F402C096
:100E9000181729F0F12C193058F41C8709C0FE01ED
:100EA000EE0DF11D8381802B8383FF24F39409C011
:100EB000B12EFE01E20FF31F9381802F80958923CD
:100EC00083836F2DCE010E94D7011F5F000F11F4A5
:100ED000E39401E087E08E1508F0BFCF113430F0C5
:100EE000BB86B11012C081E08D870FC01B861D86A6
:100EF0001C8680E0DE011396ED2DFC2D2B969D9136
:100F00009193AC17BD07D9F705C08B81882371F386
:100F100081E0F0CFDF91CF911F910F91FF90EF9083
:100F2000DF90CF90BF900895CF93DF93CDB7DEB71A
:100F300061970FB6F894DEBF0FBECDBF80911A0443
:100F40008111E3C0809117048111DFC080911404E6
:100F50008111DBC0809111048111D7C080914705B8
:100F6000909148050E94D50640E06CEC80914705C1
:100F7000909148050E945E064091420564E480918C
:100F80004705909148050E945E068091440588239C
:100F9000A9F0E0914305E950E33040F4F0E0EE0FB2
:100FA000FF1FEF56FC4F6081718102C06EEE72E050
:100FB000072E000C880B990B0E944C13E0914705FB
:100FC000F0914805138615861486DF011B96CF0124
:100FD00003961E92A817B907E1F7BE01665F7F4F1F
:100FE000CF010E940C07882341F067E0CE010A96EA
:100FF0000E94510699898917A1F160E070E08EEF97
:1010000092EC609301047093020480930304909324
:1010100004048FE00E9435139093FA038093F90340
:10102000BC01990F880B990B0E940B2D20E030E03A
:1010300040EA50E40E94C02D20E030E040E85AE34E
:101040000E94C02D6093E9037093EA038093EB0341
:101050009093EC0361E070E080E090E00E944C131C
:1010600054C0BE016F5F7F4FCE010A960E94A71049
:10107000882309F447C068E0CE0101960E9451061A
:10108000998589133FC02A8130E0C901982F8827AC
:10109000990F990F990F698128E0629FB00111247F
:1010A0009C01262B372B8A85803151F5688570E0AD
:1010B0008F81AB01481B5109CA019695982F88274B
:1010C000979587950E943E2E60517109207F53E0CD
:1010D000220F331F5A95E1F7620F731F613854EEE8
:1010E00075070CF48ACF072E000C880B990B0E9411
:1010F0000B2D20E030E040E05CE30E94C02D81CF6A
:10110000B901ECCF60E874EEE9CF61960FB6F894C0
:10111000DEBF0FBECDBFDF91CF910895AF92BF92DA
:10112000CF92DF92EF92FF920F931F93CF93DF93B3
:101130005C017C0187E0E80EF11CC0E0D0E0062FE6
:1011400010E0670161E0F70181917F010E94F912CF
:10115000B8010C2E02C0759567950A94E2F761708C
:10116000F60180810E9401122196C430D10549F711
:10117000C501DF91CF911F910F91FF90EF90DF900C
:10118000CF90BF90AF900C940A02AF92BF92CF92D3
:10119000DF92EF92FF920F931F93CF93DF93EC01B7
:1011A000F62E642F8C810E9401128D818F3F19F0E1
:1011B00060E00E9401128F850F2D10E084FF2DC08A
:1011C0005E0187E0A80EB11CE12CF12C650161E005
:1011D000F50181915F010E94F912B8010E2C02C045
:1011E000759567950A94E2F76170F60180810E9417
:1011F0000112FFEFEF1AFF0A88E0E816F10431F759
:10120000CE01DF91CF911F910F91FF90EF90DF9072
:10121000CF90BF90AF900C940A02B80184E075950E
:1012200067958A95E1F7CE010E948E086F2DCE0159
:10123000DF91CF911F910F91FF90EF90DF90CF90B2
:10124000BF90AF900C948E0841E00E94C50881E0E9
:1012500090E0089590E08F30910508F017C5FC01EB
:10126000E55CFF4F0C94932E1092EE031092ED0369
:1012700060E080E00E94401163E471E08AE295E062
:101280000E94E31A61E08EE00E94401165E072E086
:101290008AE295E00E94E31A6CE971E08AE295E047
:1012A0000E94E31A61E080E00E9440118091FE01FB
:1012B000823019F460E471E008C06EE371E08AE204
:1012C00095E00E94E31A6EE371E08AE295E00E94E5
:1012D000E31A61E082E00E9440118091FD018230BA
:1012E00019F46BE371E008C06EE371E08AE295E007
:1012F0000E94E31A6EE371E08AE295E00E94E31A2D
:1013000061E084E00E9440118091FC01823019F478
:1013100068E371E008C06EE371E08AE295E00E9444
:10132000E31A6EE371E08AE295E00E94E31A61E05D
:1013300086E00E9440118091FB01823019F465E340
:1013400071E008C06EE371E08AE295E00E94E31A62
:101350006EE371E08AE295E00E94E31A61E088E0C2
:101360000E9440118091FA01823019F462E371E029
:1013700008C06EE371E08AE295E00E94E31A6EE332
:1013800071E08AE295E00E94E31A61E08AE00E943F
:1013900040118091F901823019F46FE271E008C0C8
:1013A0006EE371E08AE295E00E94E31A6EE371E079
:1013B0008AE295E00E94E31A61E08CE00E9440110D
:1013C0008091F801823019F46CE271E008C06EE39C
:1013D00071E08AE295E00E94E31A6EE371E08AE22E
:1013E00095E00E94E31A1092D7011092D6018091E5
:1013F000EF03811105C061E00E9440110E945A1163
:101400008091EF03813031F461E082E00E9440116D
:101410000E945A118091EF03823031F461E084E040
:101420000E9440110E945A118091EF03833031F4E1
:1014300061E086E00E9440110E945A118091EF0302
:10144000843031F461E088E00E9440110E945A111A
:101450008091EF03853031F461E08AE00E94401111
:101460000E945A118091EF03863009F00FC461E0A9
:101470008CE008C460E080E00E9440116BEF72E0F5
:101480008AE295E00E94E31A61E080E00E94401148
:101490008091190490E00E94391468E773E08AE2B1
:1014A00095E00E94E31A8091180490E00E9439149C
:1014B00065E072E08AE295E00E94E31A63EF72E071
:1014C0008AE295E00E94E31A6FED71E08AE295E00E
:1014D0000E94E31A81E090E09093D7018093D601B7
:1014E0008091EF03811106C061E081E00E9440110C
:1014F0000E945A118091EF03813009F0C7C361E067
:1015000084E0C0C360E080E00E94401162EE72E0BF
:101510008AE295E00E94E31A61E080E00E944011B7
:101520008091F20390E00E94391465E072E08AE253
:1015300095E00E94E31A60EE72E08AE295E00E9474
:10154000E31A6AED72E08AE295E00E94E31A65E030
:1015500072E08AE295E00E94E31A6AEA71E08AE2A8
:1015600095E00E94E31A68ED72E08AE295E00E943D
:10157000E31A6FED71E08AE295E00E94E31A82E0DF
:1015800090E025C160E080E00E94401167EC72E0CD
:101590008AE295E00E94E31A61E080E00E94401137
:1015A0008091160490E00E94391468E773E08AE2A3
:1015B00095E00E94E31A8091150490E00E9439148E
:1015C00065E072E08AE295E00E94E31A63EF72E060
:1015D0008AE295E00E94E31A6FED71E08AE295E0FD
:1015E0000E94E31A83E090E077CF60E080E00E9401
:1015F000401166EB72E08AE295E00E94E31A61E036
:1016000080E00E9440118091F10390E00E94391423
:1016100065E072E08AE295E00E94E31A60EE72E013
:101620008AE295E00E94E31A6AED72E08AE295E0B0
:101630000E94E31A65E072E08AE295E00E94E31AF4
:101640006AEA71E08AE295E00E94E31A68ED72E0CE
:101650008AE295E00E94E31A6FED71E08AE295E07C
:101660000E94E31A84E090E0B2C060E080E00E9453
:10167000401165EA72E08AE295E00E94E31A61E0B7
:1016800080E00E9440118091130490E00E94391480
:1016900068E773E08AE295E00E94E31A8091120401
:1016A00090E00E94391465E072E08AE295E00E94C1
:1016B000E31A63EF72E08AE295E00E94E31A6FEDAD
:1016C00071E08AE295E00E94E31A85E090E004CFA1
:1016D00060E080E00E94401164E972E08AE295E0F7
:1016E0000E94E31A61E080E00E9440118091F003C3
:1016F00090E00E94391465E072E08AE295E00E9471
:10170000E31A60EE72E08AE295E00E94E31A6AED65
:1017100072E08AE295E00E94E31A65E072E08AE2F4
:1017200095E00E94E31A6AEA71E08AE295E00E947D
:10173000E31A68ED72E08AE295E00E94E31A6FED29
:1017400071E08AE295E00E94E31A86E090E03FC0F3
:1017500060E080E00E94401163E872E08AE295E078
:101760000E94E31A61E080E00E9440118091080429
:1017700090E00E94391465E072E08AE295E00E94F0
:10178000E31A60EE72E08AE295E00E94E31A6DE7E8
:1017900072E08AE295E00E94E31A65E072E08AE274
:1017A00095E00E94E31A6AEA71E08AE295E00E94FD
:1017B000E31A68ED72E08AE295E00E94E31A6FEDA9
:1017C00071E08AE295E00E94E31A87E090E090934E
:1017D000D7018093D60161E081E054C260E080E0EF
:1017E0000E9440116CE672E08AE295E00E94E31AE2
:1017F00061E080E00E944011609107048AE295E078
:101800000E94DC1165E072E08AE295E00E94E31A32
:1018100060EE72E08AE295E00E94E31A6DE772E002
:101820008AE295E00E94E31A65E072E08AE295E0C0
:101830000E94E31A6AEA71E08AE295E00E94E31AE4
:1018400068ED72E08AE295E00E94E31A6FED71E0C4
:101850008AE295E00E94E31A88E090E00DC260E021
:1018600080E00E94401163E673E08AE295E00E9406
:10187000E31A61E080E00E9440118091060482300A
:1018800001F564E672E08AE295E00E94E31A65E001
:1018900072E08AE295E00E94E31A60EE72E08AE26A
:1018A00095E00E94E31A62E08AE295E00E94240932
:1018B00062E672E08AE295E00E94E31A69EB71E069
:1018C0001FC06AE572E08AE295E00E94E31A65E0D3
:1018D00072E08AE295E00E94E31A60EE72E08AE22A
:1018E00095E00E94E31A61E08AE295E00E942409F3
:1018F00062E672E08AE295E00E94E31A60EB71E032
:101900008AE295E00E94E31A68ED72E08AE295E0CF
:101910000E94E31A89E090E0AFC160E080E00E949D
:10192000401162E473E08AE295E00E94E31A61E00C
:1019300080E00E94401180910504823001F564E648
:1019400072E08AE295E00E94E31A65E072E08AE2C2
:1019500095E00E94E31A60EE72E08AE295E00E9450
:10196000E31A62E08AE295E00E94240962E672E0EE
:101970008AE295E00E94E31A69EB71E01FC06AE514
:1019800072E08AE295E00E94E31A65E072E08AE282
:1019900095E00E94E31A60EE72E08AE295E00E9410
:1019A000E31A61E08AE295E00E94240962E672E0AF
:1019B0008AE295E00E94E31A60EB71E08AE295E02A
:1019C0000E94E31A68ED72E08AE295E00E94E31A51
:1019D0008AE090E051C160E080E00E94401169E43B
:1019E00072E08AE295E00E94E31A61E080E00E94E2
:1019F00040116FED71E08AE295E00E94E31A61E028
:101A000080E00E94401180910302909104020E94A4
:101A1000391461E082E00E9440116FE273E08AE2D3
:101A200095E00E94E31A80910102909102020E94C7
:101A300039146FED71E08AE295E00E94E31A61E0EB
:101A400085E00E9440116FE273E08AE295E00E9417
:101A5000E31A8091FF01909100020E9439146FED0A
:101A600071E08AE295E00E94E31A61E08BE00E9457
:101A700040118091F7039091F8030E94391461E0BE
:101A80008DE00E94401168E773E08AE295E00E94D1
:101A9000E31A8091F5039091F6030E9439146FEDDB
:101AA00071E08AE295E00E94E31A8BE090E0909367
:101AB000D7018093D6011092F4031092F303809122
:101AC000EF03811106C061E081E00E9440110E9495
:101AD0005A118091EF03813031F461E084E00E947B
:101AE00040110E945A118091EF03823031F461E07D
:101AF00087E00E9440110E945A118091EF038330C9
:101B000031F461E08CE00E9440110E945A118091F2
:101B1000EF03843009F0BAC061E08FE0B3C060E049
:101B200080E00E94401168E372E08AE295E00E9442
:101B3000E31A61E080E00E9440116CE971E08AE202
:101B400095E00E94E31A65E072E08AE295E00E9467
:101B5000E31A60EE72E08AE295E00E94E31A62E026
:101B60008AE295E00E94240962E672E08AE295E04A
:101B70000E94E31A64E372E08AE295E00E94E31AAD
:101B800065E072E08AE295E00E94E31A61E08AE291
:101B900095E00E94240962E672E08AE295E00E94E4
:101BA000E31A61E372E08AE295E00E94E31A68EDCD
:101BB00072E08AE295E00E94E31A6FED71E08AE23A
:101BC00095E00E94E31A8CE090E056C060E080E06F
:101BD0000E94401160E272E08AE295E00E94E31AFE
:101BE00061E080E00E9440116CE971E08AE295E0DA
:101BF0000E94E31A65E072E08AE295E00E94E31A2F
:101C000060EE72E08AE295E00E94E31A62E08AE206
:101C100095E00E94240962E672E08AE295E00E9463
:101C2000E31A64E372E08AE295E00E94E31A65E059
:101C300072E08AE295E00E94E31A61E08AE295E0B0
:101C40000E94240962E672E08AE295E00E94E31AAB
:101C500061E372E08AE295E00E94E31A68ED72E0C7
:101C60008AE295E00E94E31A6FED71E08AE295E066
:101C70000E94E31A8DE090E09093D7018093D60103
:101C800061E080E00E9440110C945A110895CF93B6
:101C900082E090E00E946D1C8093190483E090E044
:101CA0000E946D1C8093180484E090E00E946D1CDB
:101CB0008093F20385E090E00E946D1C80931604EF
:101CC00086E090E00E946D1C8093150487E090E010
:101CD0000E946D1C8093F10388E090E00E946D1CCF
:101CE0008093130489E090E00E946D1C809312049D
:101CF0008AE090E00E946D1C8093F0038BE090E0FE
:101D00000E946D1C809308048CE090E00E946D1C82
:101D1000809307048DE090E00E946D1C8093060480
:101D20008EE090E00E946D1CC82F8FE090E00E9432
:101D30006D1C90E0A0E0B0E0BA2FA92F982F882763
:101D40008C0F911DA11DB11D809373059093740597
:101D5000A0937505B093760580E190E00E946D1C1C
:101D60008093050481E190E00E946D1CC82F82E100
:101D700090E00E946D1C90E0A0E0B0E0BA2FA92F87
:101D8000982F88278C0F911DA11DB11D80936F0581
:101D900090937005A0937105B093720584E190E073
:101DA0000E946D1C8093FE0185E190E00E946D1CF5
:101DB0008093FD0186E190E00E946D1C8093FC0100
:101DC00087E190E00E946D1C8093FB0188E190E028
:101DD0000E946D1C8093FA0189E190E00E946D1CC5
:101DE0008093F9018AE190E00E946D1C8093F801D4
:101DF00084EA91E0CF910C94E311CF92DF92EF92BD
:101E0000FF92CF93DF93EC016A017B01642F0E9464
:101E10006B1C9927F7FC9A958F2D7E2D6D2DCE0189
:101E20000196DF91CF91FF90EF90DF90CF900C94CF
:101E30006B1C0E94470E80911904883138F066E0CF
:101E400082E090E00E946B1C81E001C080E09091F4
:101E500018049C3330F060E083E090E00E946B1C3B
:101E600081E09091F2039550963F30F06EE184E06E
:101E700090E00E946B1C81E090911604983130F044
:101E800062E185E090E00E946B1C81E09091150476
:101E90009C3330F060E086E090E00E946B1C81E0B3
:101EA0009091F1039550963F30F06EE187E090E01D
:101EB0000E946B1C81E090911304983130F069E02E
:101EC00088E090E00E946B1C81E0909112049C33AA
:101ED00030F060E089E090E00E946B1C81E090911E
:101EE000F0039550963F30F06EE18AE090E00E945A
:101EF0006B1C81E0909108049B3F30F065E08BE023
:101F000090E00E946B1C81E0909107049B3F30F0B1
:101F100064E18CE090E00E946B1C81E090910604EB
:101F20009150923030F061E08DE090E00E946B1CA7
:101F300081E0409173055091740560917505709131
:101F4000760549355B416105710540F040E050E0A0
:101F5000BA018EE090E00E94FD0E81E090910504B0
:101F60009150923030F061E080E190E00E946B1C73
:101F700081E040916F0550917005609171057091FD
:101F80007205453651056105710540F040E050E0AD
:101F9000BA0181E190E00E94FD0E81E09091FE0186
:101FA000933010F4913031F462E084E190E00E94CB
:101FB0006B1C81E09091FD01933010F4913031F46D
:101FC00062E085E190E00E946B1C81E09091FC0151
:101FD000933010F4913031F462E086E190E00E9499
:101FE0006B1C81E09091FB01933010F4913031F43F
:101FF00062E087E190E00E946B1C81E09091FA0121
:10200000933010F4913031F462E088E190E00E9466
:102010006B1C81E09091F901933010F4913031F410
:1020200062E089E190E00E946B1C81E09091F801F0
:10203000933010F4913031F462E08AE190E00E9434
:102040006B1C01C081110C94470E08953FB7F894A2
:102050008091300490913104A0913204B091330406
:1020600026B5A89B05C02F3F19F00196A11DB11DF3
:102070003FBFBA2FA92F982F8827820F911DA11D2E
:10208000B11DBC01CD0142E0660F771F881F991F6B
:102090004A95D1F70895282F30918104313208F004
:1020A0004AC0809180048111FCCF9091790442E074
:1020B0004093800420937F042FEF209357041092C5
:1020C000560430935504E9E5F4E0A5E3B4E020E0DC
:1020D000321721F041914D932F5FFACF10923404C3
:1020E00020913404990F922B9093340490917E04A4
:1020F000913061F410927E04909134049093BB006F
:102100009091BC0093FDF8CF95EC01C095EE9093B3
:10211000BC00909180049230E1F3909157049F3F6E
:1021200079F080915704803241F0809157048033D8
:1021300031F084E005C081E003C082E001C083E0AB
:102140001092820410928104109258040895AF9264
:10215000BF92CF92DF92EF92FF920F931F93CF9394
:10216000DF93EC018B0180914705909148050E9417
:10217000D5068823A1F1BE018091470590914805BD
:102180000E94920640E06EEB8091470590914805D1
:102190000E945E06E801680189E0C80ED11CA0908B
:1021A0004705B090480588E0E82EF12C10E001E0EA
:1021B000C5010E94B1068111102B000F81E0E81AC1
:1021C000F108B1F71993CC16DD0649F78091470560
:1021D000909148050E94D50691E0813009F090E089
:1021E000892FDF91CF911F910F91FF90EF90DF909A
:1021F000CF90BF90AF900895CF93DF93CDB7DEB768
:1022000029970FB6F894DEBF0FBECDBFBE016F5F3A
:102210007F4F0E94A710882341F068E0CE0101960D
:102220000E9451069985891711F080E012C08D81B6
:102230008F3311F48AE00DC0803420F48F31A9F778
:1022400089E007C08F3521F08F3779F78CE001C026
:102250008BE029960FB6F894DEBF0FBECDBFDF919D
:10226000CF91089540E0682F8AE295E00C94C5086C
:1022700081E00E9432118BE39FE10197F1F708950D
:10228000643008F063E090913D05691710F06FEF3E
:10229000690FE62FF0E0E65DFA4F9489890F8068B8
:1022A0000C943211EAE2F5E080898E7F808B8860A1
:1022B0000C943211EAE2F5E08089982F9160908BBE
:1022C00089600C9432110F931F93CF93DF938B018E
:1022D000877028E0829FC001112480640E9432111F
:1022E000E801085F1F4F69918AE295E00E94240986
:1022F000C017D107C1F7DF91CF911F910F910895BA
:1023000067EC73E085E894E00C94A919CF93DF9310
:10231000BC0185E894E00E94A919EC010E9480119B
:102320008C0F9D1FDF91CF910895CF92DF92EF9296
:10233000FF920F931F93CF93DF9377FF1DC06A0126
:102340007B01EC016DE20E947E198C014427552728
:10235000BA014C195D096E097F092AE0CE010E947D
:10236000BE19800F911FDF91CF911F910F91FF90A8
:10237000EF90DF90CF9008952AE0DF91CF911F91E9
:102380000F91FF90EF90DF90CF900C94BE19AB01AE
:10239000770F660B770B0C949511CF93DF93BC01ED
:1023A00085E894E00E94C711EC010E9480118C0F17
:1023B0009D1FDF91CF910895462F50E060E070E0BF
:1023C0002AE00C94BE19CF93DF93BC0185E894E01A
:1023D0000E948519EC010E9480118C0F9D1FDF91D6
:1023E000CF910895CF93DF93682F85E894E00E9402
:1023F000DC11EC010E9480118C0F9D1FDF91CF91A9
:10240000089590E0FC01E653FE4F2491FC01E45056
:10241000FE4F3491FC01E851FE4FE491EE2309F4A4
:102420003CC0222339F1233091F038F42130A9F057
:10243000223001F584B58F7D12C0273091F028300D
:10244000A1F02430B9F4809180008F7D03C0809189
:1024500080008F77809380000DC084B58F7784BD16
:1024600009C08091B0008F7703C08091B0008F7D4C
:102470008093B000F0E0EE0FFF1FE054FE4FA591F7
:10248000B4919FB7F894611104C08C9130953823B2
:1024900002C0EC913E2B3C939FBF089510928404A0
:1024A000109283041092820410928104109280048E
:1024B00081E080937F0410927E0461E082E10E94BB
:1024C000011261E083E10E940112E9EBF0E08081FA
:1024D0008E7F808380818D7F808388E48093B800A5
:1024E00085E48093BC0082EF98E190937D04809313
:1024F0007C0483EF98E190937B0480937A040895A1
:10250000CF93DF93823028F09091390598609093B3
:10251000390580933D0510923E0580E480933F0588
:1025200080E18093400580E5809341058BE39DE049
:102530000197F1F760E080912E050E94011260E0A2
:10254000809130050E94011280912F058F3F19F074
:1025500060E00E9401128091390584FD20C063E093
:102560008AE295E00E948E08CBE4D6E4CE01019782
:10257000F1F763E08AE295E00E948E082197F1F777
:1025800063E08AE295E00E948E0883E592E001977D
:10259000F1F762E08AE295E00E948E0815C0806241
:1025A0000E9432118BE496E40197F1F7809139058E
:1025B00080620E94321183E592E00197F1F78091E9
:1025C000390580620E9432118091390580620E9433
:1025D000321184E080933A058CE00E9432110E940F
:1025E000381182E080933B0586E0DF91CF910C9417
:1025F0003211CF93DF9390E0FC01E450FE4F249121
:10260000FC01E851FE4F8491882361F190E0880F2E
:10261000991FFC01EA54FE4FC591D491FC01E0548E
:10262000FE4FA591B491611109C09FB7F8948881BC
:10263000209582238883EC912E230BC0623061F4B5
:102640009FB7F8948881322F309583238883EC914B
:102650002E2B2C939FBF06C08FB7F894E8812E2BAA
:1026600028838FBFDF91CF9108958E3008F08E5070
:102670008770806480937C0080917A00806480936E
:102680007A0080917A0086FDFCCF809178002091BD
:10269000790090E0922B08958F929F92AF92BF9213
:1026A000CF92DF92EF92FF926B017C010E94261085
:1026B0004B015C01C114D104E104F104F1F00E946A
:1026C0002610DC01CB0188199909AA09BB09883EAB
:1026D0009340A105B10570F321E0C21AD108E108C9
:1026E000F10888EE880E83E0981EA11CB11CC1146D
:1026F000D104E104F10419F7DDCFFF90EF90DF90F2
:10270000CF90BF90AF909F908F9008952FB7F8947F
:1027100060912C0470912D0480912E0490912F04CF
:102720002FBF0895CF93DF93EC010A9728F460E35D
:1027300085E894E00E944718BE0185E894E0DF91A7
:10274000CF910C94C71189E293E00C9486110E94FA
:10275000DC020E94FB05E091E5038E2F90E0FC0176
:102760003197E730F105D8F4E65BFF4F81E00C9438
:10277000932E9091F80111C09091FE010EC090919E
:10278000FD010BC09091FC0108C09091FB0105C0B8
:102790009091FA0102C09091F901923009F080E025
:1027A0000895CF93DF93CDB7DEB727970FB6F89490
:1027B000DEBF0FBECDBF8BE193E00E94861182E0A9
:1027C0000E9432118BE39FE10197F1F76BE173E017
:1027D0008AE295E00E94E31A6FED71E08AE295E0EB
:1027E0000E94E31A61E080E00E9440116FED71E009
:1027F0008AE295E00E94E31A8091FF019091000225
:1028000060910102509103022091F3033091F5038E
:102810004091F703843691051CF0825B974001C01C
:102820004E968093E8036093E7035093E60340934A
:10283000E4033093E3032093E20382EE93E00E94EB
:102840006E030E94A9020E94DC02AE014F5F5F4F3F
:102850000E941605898180688983CE0101960E94B5
:10286000382A89818F778983CE0101960E94382A80
:10287000FFCFCF93DF93EC010A9730F467E073E06A
:102880008AE295E00E948519BE018AE295E0DF9117
:10289000CF910C94C7110E9431060E9439146FE247
:1028A00073E08AE295E00E94E31A0E9429060E94E2
:1028B00039146FE273E08AE295E00E94E31A0E9405
:1028C0001F06BC018AE295E00E94C71165E072E034
:1028D0008AE295E00E94E31A65E072E08AE295E000
:1028E0000E94E31A60E08BE00E9440110E944906BA
:1028F0000E94391468E773E08AE295E00E94E31AC7
:102900000E9441060E94391465E072E08AE295E077
:102910000C94E31A60E080E00E94401169EF72E0DD
:102920008AE295E00E94851961E080E00E944011F2
:102930006CE073E08AE295E00E94E31A82EE92E096
:102940000E94E31187ED92E00E94E31183EC92E094
:102950000E94E3118FEA92E00E94E3118BE992E07A
:102960000E94E31184E892E00E94E31184E792E080
:102970000E94E31186E692E00E94E3118DE492E06A
:102980000E94E3118CE392E00E94E31187E292E05F
:102990000E94E31180E192E00E94E31160ED77E094
:1029A00080E090E00C944C13CF93DF9385E894E0A3
:1029B0000E940F18181619060CF0D3C285E894E08F
:1029C0000E94ED17EC018134910521F481E00E9411
:1029D0002002BDC08234910521F482E00E942002D1
:1029E00067C28334910521F483E00E94200273C200
:1029F0008434910509F086C060E873E085E894E0CE
:102A00000E94E31A6BE473E085E894E00E94851964
:102A10000E94AF2B90E0909300028093FF010E94F0
:102A2000AF2B90E0909300028093FF010E94CD11A4
:102A300060E873E085E894E00E94E31A6FE373E0D6
:102A400085E894E00E9485190E94AF2B90E0909356
:102A50000402809303020E94CD1160E873E085E8D0
:102A600094E00E94E31A63E373E085E894E00E9437
:102A700085190E94AF2B90E090930202809301028F
:102A80000E94CD1160E873E085E894E00E94E31AAB
:102A900067E273E085E894E00E9485190E94AF2BFD
:102AA00090E09093F8038093F7030E94CD1160E8C3
:102AB00073E085E894E00E94E31A6BE173E085E837
:102AC00094E00E9485190E94AF2B90E09093F6034A
:102AD0008093F5030E94CD1160E873E085E894E0EF
:102AE0000E94E31A6FE073E085E894E00E94851984
:102AF0000E94AF2B90E09093F4038093F3030E9425
:102B0000CD1123C08534910511F50E94BA2A0E9487
:102B1000190F1092F4031092F3031092F60310921F
:102B2000F5031092F8031092F70381E090E0909380
:102B3000040280930302909302028093010282E1D7
:102B400090E0909300028093FF010E94D113C6345D
:102B5000D10509F089C10E94470E6CE773E085E852
:102B600094E00E94E31A6AE773E085E894E00E942B
:102B7000E31A65E072E085E894E00E94E31A609150
:102B8000190485E894E00E94DC1168E773E085E8A9
:102B900094E00E94E31A6091180485E894E00E9492
:102BA000DC116DE073E085E894E00E948519809166
:102BB000F2030E94F2116CE773E085E894E00E9452
:102BC000E31A66E773E085E894E00E94E31A65E0A3
:102BD00072E085E894E00E94E31A6091160485E8AB
:102BE00094E00E94DC1168E773E085E894E00E94BD
:102BF000E31A6091150485E894E00E94DC116BE013
:102C000073E085E894E00E9485198091F1030E94A9
:102C1000F2116CE773E085E894E00E94E31A64E740
:102C200073E085E894E00E94E31A65E072E085E8CD
:102C300094E00E94E31A6091130485E894E00E94F6
:102C4000DC1168E773E085E894E00E94E31A609184
:102C5000120485E894E00E94DC1169E073E085E8E5
:102C600094E00E9485198091F0030E94F21167E0C0
:102C700072E085E894E00E94E31A65E072E085E87E
:102C800094E00E94E31A60EB71E085E894E00E9412
:102C9000E31A65E072E085E894E00E94E31A80910F
:102CA00008040E94F21167E072E085E894E00E9457
:102CB000E31A65E072E085E894E00E94E31A69EBAC
:102CC00071E085E894E00E94E31A65E072E085E82F
:102CD00094E00E94E31A809107040E94F21163E6D7
:102CE00073E085E894E00E94E31A65E072E085E80D
:102CF00094E00E94E31A809106040E94F21163E5B9
:102D000073E085E894E00E94E31A65E072E085E8EC
:102D100094E00E94E31A409173055091740560910C
:102D200075057091760585E894E00E9495110E94E2
:102D3000801162E473E085E894E00E94E31A65E0A4
:102D400072E085E894E00E94E31A809105040E94F5
:102D5000F21161E373E085E894E00E94E31A65E014
:102D600072E085E894E00E94E31A40916F0550916B
:102D70007005609171057091720585E894E00E947C
:102D800095110E94801160E471E085E894E00E9452
:102D9000E31A65E072E085E894E00E94E31A80910E
:102DA000FE010E94F2116BE371E085E894E00E945D
:102DB000E31A65E072E085E894E00E94E31A8091EE
:102DC000FD010E94F21168E371E085E894E00E9441
:102DD000E31A65E072E085E894E00E94E31A8091CE
:102DE000FC010E94F21165E371E085E894E00E9425
:102DF000E31A65E072E085E894E00E94E31A8091AE
:102E0000FB010E94F21162E371E085E894E00E9408
:102E1000E31A65E072E085E894E00E94E31A80918D
:102E2000FA010E94F2116FE271E085E894E00E94DD
:102E3000E31A65E072E085E894E00E94E31A80916D
:102E4000F9010E94F2116CE271E085E894E00E94C1
:102E5000E31A65E072E085E894E00E94E31A80914D
:102E6000F8010E94F21177C0C734D10509F56091CD
:102E7000F9037091FA0385E894E00E94C71165E0B8
:102E800072E085E894E00E94E31A4091E9035091D2
:102E9000EA036091EB037091EC0322E085E894E093
:102EA0000E94071A88E991E0DF91CF910C94861176
:102EB000C834D10581F40E949407409101045091D7
:102EC0000204609103047091040422E085E894E018
:102ED0000E94071A3CC0C934D105E9F50E94490691
:102EE0000E94921368E773E085E894E00E94E31A79
:102EF0000E9441060E94921368E773E085E894E01F
:102F00000E94E31A0E9439060E94921365E072E063
:102F100085E894E00E94E31A0E9431060E94921311
:102F20006FE273E085E894E00E94E31A0E942906AC
:102F30000E9492136FE273E085E894E00E94E31A26
:102F40000E941F06BC0185E894E00E94C711DF9132
:102F5000CF910C948011EF9721F4DF91CF910C94D5
:102F60008A14DF91CF910895CF92DF92EF92FF9272
:102F70000F931F93CF93DF936C017A018B01C0E015
:102F8000D0E0CE15DF0581F0D8016D918D01D6011D
:102F9000ED91FC910190F081E02DC6010995892BFE
:102FA00011F02196EECF7E01C701DF91CF911F91E5
:102FB0000F91FF90EF90DF90CF900895FC01538D1B
:102FC000448D252F30E0842F90E0821B930B541703
:102FD00010F0CF96089501970895FC01918D828D90
:102FE000981761F0828DDF01A80FB11D5D968C915D
:102FF000928D9F5F9F73928F90E008958FEF9FEF68
:103000000895FC01918D828D981731F0828DE80F23
:10301000F11D858D90E008958FEF9FEF0895FC01DD
:10302000918D228D892F90E0805C9F4F821B9109AA
:103030008F739927089585E894E00E940F1821E086
:10304000892B09F420E0822F0895FC01848DDF0193
:10305000A80FB11DA35ABF4F2C91848D90E001960B
:103060008F739927848FA689B7892C93A089B189FA
:103070008C91837080648C93938D848D981306C09B
:103080000288F389E02D80818F7D80830895EF92FF
:10309000FF920F931F93CF93DF93EC0181E0888F12
:1030A0009B8D8C8D981305C0E889F989808185FDF9
:1030B00026C0F62E0B8D10E00F5F1F4F0F731127E8
:1030C000E02E8C8DE8120CC00FB607FCFACFE88911
:1030D000F989808185FFF5CFCE010E942518F1CFB7
:1030E0008B8DFE01E80FF11DE35AFF4FF0829FB771
:1030F000F8940B8FEA89FB89808180620AC09FB7B0
:10310000F894EE89FF896083E889F989808183706A
:10311000806480839FBF81E090E0DF91CF911F9119
:103120000F91FF90EF900895CF93DF93EC01888D7E
:103130008823C9F0EA89FB89808185FD05C0A889BB
:10314000B9898C9186FD0FC00FB607FCF5CF808141
:1031500085FFF2CFA889B9898C9185FFEDCFCE018B
:103160000E942518E7CFDF91CF91089580E090E08D
:10317000892B29F00E941B1881110C9400000895DE
:1031800085ED8093BC008091BC0084FDFCCF109243
:10319000800408954091B705262F30E0240F311D9B
:1031A00021323105DCF4209180042430C9F4FC0183
:1031B00080E090E0861758F43091B7052191DC014A
:1031C000A956BA4FA30FB11D2C930196F3CF80914E
:1031D000B705680F6093B70580E0089581E0089512
:1031E00082E00895089508950895E09184048091FF
:1031F0008304E81730F4F0E0E958FA4F808190E05A
:1032000008958FEF9FEF0895909184048091830437
:10321000981750F4E92FF0E0E958FA4F208130E098
:103220009F5F9093840402C02FEF3FEFC901089580
:103230008091830490E020918404821B9109089579
:10324000CF92DF92EF92FF920F931F93CF93DF9372
:103250007C01CB018A0120915804222389F0EB01E3
:103260006B01C40ED51ECC15DD0569F06991D7013F
:10327000ED91FC910190F081E02DC7010995F3CF0C
:10328000642F0E94CA18C801DF91CF911F910F913E
:10329000FF90EF90DF90CF900895CF93DF931F9230
:1032A000CDB7DEB76983209158042223D1F0209155
:1032B0008104203240F021E030E0FC01338322839E
:1032C00080E090E015C080918204E82FF0E0E75A9A
:1032D000FB4F998190838F5F809382048093810458
:1032E00005C061E0CE0101960E94CA1881E090E01D
:1032F0000F90DF91CF9108950E94CF2EDC01ED91C8
:10330000FC910190F081E02D0994EF92FF920F93D0
:103310001F93CF93DF938C017B01C0E0D0E0F701D6
:10332000EC0FFD1F6491662361F0D801ED91FC91D3
:103330000190F081E02DC8010995892B11F02196AB
:10334000EECFCE01DF91CF911F910F91FF90EF90C3
:1033500008956115710579F0FB0101900020E9F7EE
:103360003197AF01461B570BDC01ED91FC910280B8
:10337000F381E02D099480E090E008958F929F9270
:10338000AF92BF92EF92FF920F931F93CF93DF9371
:10339000CDB7DEB7A1970FB6F894DEBF0FBECDBF95
:1033A0007C01FA01CB0119A2223008F42AE08E0137
:1033B0000F5D1F4F822E912CA12CB12CBF01A501B6
:1033C00094010E94522EF901CA01015011096A307C
:1033D00014F4605D01C0695CD8016C93232B242B2D
:1033E000252B61F7B801C7010E94A919A1960FB654
:1033F000F894DEBF0FBECDBFDF91CF911F910F912B
:10340000FF90EF90BF90AF909F908F9008957F9224
:103410008F929F92AF92BF92CF92DF92EF92FF92E4
:103420000F931F93CF93DF938C016A017B01722E60
:103430009A01AB01C701B6010E942D2E882319F015
:103440006AEC73E027C046015701E894B7F82FEF04
:103450003FEF4FE75FE7C501B4010E942D2E8111B8
:103460000DC02FEF3FEF4FE75FE7C501B4010E94AA
:103470005C2C18161CF46EEC73E00CC02FEF3FEFC1
:103480004FE75FE4C701B6010E94BB2D181694F404
:1034900062ED73E0C801DF91CF911F910F91FF9012
:1034A000EF90DF90CF90BF90AF909F908F907F90E4
:1034B0000C94A9192FEF3FEF4FE75FECC701B6015E
:1034C0000E945C2C87FDE4CF20E030E0A901C70119
:1034D000B6010E945C2C87FF0AC06DE2C8010E9401
:1034E0007E19EC01F7FAF094F7F8F09402C0C0E00E
:1034F000D0E0B12C60E070E080E09FE37B1441F00D
:1035000020E030E040E251E40E94612CB394F6CF19
:10351000A70196010E94F02B6B017C010E94DA2C1E
:103520004B015C012AE0AB01BC01C8010E94BE193D
:10353000C80FD91F7720C1F1C501B4010E94092D20
:103540009B01AC01C701B6010E94EF2B6B017C010E
:103550006EE2C8010E947E19C80FD91F20E030E03A
:1035600040E251E4C701B6010E94C02D4B015C014D
:103570000E94DA2C6B01E12CF12C2AE0B701A601A4
:10358000C8010E94BE19C80FD91FC701B6010E9409
:10359000092D9B01AC01C501B4010E94EF2B6B0109
:1035A0007C017A947110DACFCE01DF91CF911F9117
:1035B0000F91FF90EF90DF90CF90BF90AF909F90D2
:1035C0008F907F9008950C94A9191F920F920FB6B7
:1035D0000F9211242F933F934F935F936F937F9399
:1035E0008F939F93AF93BF93EF93FF9385E894E0FE
:1035F0000E942518FF91EF91BF91AF919F918F91FC
:103600007F916F915F914F913F912F910F900FBEDE
:103610000F901F9018951F920F920FB60F921124C2
:103620002F938F939F93EF93FF93E0919504F091E5
:1036300096048081E0919B04F0919C0482FD12C06D
:10364000908180919E048F5F8F7320919F048217D9
:1036500051F0E0919E04F0E0EB57FB4F958F809383
:103660009E0401C08081FF91EF919F918F912F91D6
:103670000F900FBE0F901F9018951F920F920FB6CC
:103680000F9211242F933F934F935F936F937F93E8
:103690008F939F93AF93BF93EF93FF938091B90064
:1036A000887F803609F49CC068F5883209F45BC0D5
:1036B00090F4803109F454C038F4882309F4F6C03A
:1036C000883009F44DC0F6C0883109F44CC080320E
:1036D00009F45DC0EFC0803409F468C048F4803359
:1036E00009F455C0883309F0E5C080935704D8C069
:1036F000803509F44FC0883509F45DC0883409F07D
:10370000D9C0D6C0883909F4C7C0A8F4883709F4ED
:1037100067C038F4883609F463C0803709F460C0A4
:10372000C9C0883809F4B8C0803909F45FC080384E
:1037300009F0C0C05BC0803B09F486C038F4803A11
:1037400009F466C0883A09F47FC0B4C0803C09F42B
:10375000A7C0883C09F4A4C0883B09F48AC0AAC069
:103760008091340410C090915604809155049817AC
:1037700070F5E091560481E08E0F80935604F0E0DE
:10378000EB5CFB4F80818093BB0085EC86C080930F
:1037900057048EC0E091560481E08E0F809356044A
:1037A0008091BB00F0E0EB5CFB4F8083909156046E
:1037B000809155046EC0E091560481E08E0F809395
:1037C00056048091BB00F0E0EB5CFB4F808380915E
:1037D0007F0481116DC081E080937E0484EA61C022
:1037E00083E0809380041092D905CFCF8091D905D2
:1037F000803208F051C0E091D90581E08E0F8093AE
:10380000D9058091BB00F0E0E754FA4F8083BDCF2B
:1038100085EC8093BC00109280048091D9058032A1
:1038200030F4E091D905F0E0E754FA4F108260914E
:10383000D90570E0E0917A04F0917B0489EB95E082
:1038400009951092D90536C084E0809380041092C7
:10385000B8051092B705E0917C04F0917D040995BC
:103860008091B705811105C081E08093B705109262
:103870009705E091B80581E08E0F8093B805F0E0E0
:10388000E956FA4F80818093BB009091B8058091F2
:10389000B705981708F479CF85E88093BC000AC073
:1038A00085EC8093BC001092800404C010925704F1
:1038B0000E94C018FF91EF91BF91AF919F918F919E
:1038C0007F916F915F914F913F912F910F900FBE1C
:1038D0000F901F9018950C94E12B0C94D92B1F92EC
:1038E0000F920FB60F9211242F933F938F939F93B4
:1038F000AF93BF9380912C0490912D04A0912E043E
:10390000B0912F043091DA0523E0230F2D3720F4F6
:103910000196A11DB11D05C026E8230F0296A11D29
:10392000B11D2093DA0580932C0490932D04A0936D
:103930002E04B0932F048091300490913104A09113
:103940003204B09133040196A11DB11D809330045F
:1039500090933104A0933204B0933304BF91AF919C
:103960009F918F913F912F910F900FBE0F901F90BD
:103970001895CF93DF93CDB7DEB765970FB6F89460
:10398000DEBF0FBECDBF789484B5826084BD84B5A0
:10399000816084BD85B5826085BD85B5816085BD4A
:1039A00080916E00816080936E0010928100809102
:1039B000810082608093810080918100816080938A
:1039C0008100809180008160809380008091B100AF
:1039D00084608093B1008091B00081608093B000DA
:1039E00080917A00846080937A0080917A0082606E
:1039F00080937A0080917A00816080937A00809130
:103A00007A00806880937A001092C100E09195045A
:103A1000F091960482E08083E0919104F091920409
:103A20001082E0919304F091940480E180831092DD
:103A30009D04E0919904F0919A0486E08083E091DE
:103A40009704F0919804808180618083E0919704CD
:103A5000F0919804808188608083E0919704F091D0
:103A60009804808180688083E0919704F0919804A5
:103A700080818F7D808364EF71E080E090E00E9420
:103A80004C130E944E1282E00E9480120E94381154
:103A900060E171E080E00E94631168E071E081E024
:103AA0000E94631160E071E082E00E94631161E0B6
:103AB00081E10E94F91260E081E10E94011260E060
:103AC0008FE00E94F91261E08AE00E94F91261E041
:103AD0008AE00E9401120E94190F0E948A1486E354
:103AE00094E09093D7038093D6038091DC03909168
:103AF000DD03A091DE03B091DF038093D8039093A0
:103B0000D903A093DA03B093DB030E94DC028CE2BA
:103B100091E0A0E0B0E08093180190931901A09388
:103B20001A01B0931B018091DC039091DD03A091F9
:103B3000DE03B091DF03845D9E4FAF4FBF4F809394
:103B4000D8039093D903A093DA03B093DB030E94C8
:103B5000DC028091E0039091E1030297F9F00E946A
:103B600038116CE171E08AE295E00E94E31A8CE181
:103B700091E00E94861160EA7FE080E090E00E9480
:103B80004C1381E080931A048BE090E09093EE0355
:103B90008093ED031092EF030E942A090E94D4142F
:103BA000E0914705F0914805138615861486DF01DC
:103BB0001B9633961E92EA17FB07E1F71092460513
:103BC00001E0BE01665F7F4F8091470590914805F7
:103BD0000E940C07882309F45BC067E0CE010A96B7
:103BE0000E94510699898913ECCF80914205811179
:103BF00027C080914705909148050E94D506BE01D7
:103C0000665F7F4F80914705909148050E9492061C
:103C100040E064EB80914705909148050E945E0664
:103C200080914705909148050E94B106182F809118
:103C30004705909148050E94D506112309F474C5E3
:103C4000BE016F5F7F4FCE010A960E94A7101091B0
:103C500043058A85803111F40C94322ACE010A96EC
:103C60000E94FC10811718F48091430509C08A85D1
:103C7000803111F48CE004C0CE010A960E94FC1041
:103C800080934305809146058F5F8093460599CFC9
:103C90000E94940798E288E10FB6F894A895809363
:103CA00060000FBE90936000A89568EEA62E63E0BA
:103CB000B62E78EEC72E73E0D72EE12CF12C882497
:103CC0008A94982C80911A0481119FC280912204B9
:103CD0008111DFC188EB9BE09093BE018093BD0111
:103CE0000E94861300911D0410911E0420911F0450
:103CF00030912004DC01CB01801B910BA20BB30B94
:103D0000883B9B40A105B10508F47FC20E94861341
:103D100060931D0470931E0480931F0490932004ED
:103D200080911B0490911C04019690931C04809335
:103D30001B048130910509F444C01CF4892B49F01F
:103D400064C28230910509F46EC0039709F4DBC0A8
:103D50005CC260E080E00E9440110E944B1461E070
:103D600080E00E9440114090010450900204609055
:103D700003047090040420E030E048EC52ECC301EE
:103D8000B2010E94BB2D18169CF421E0B301A201E0
:103D90008AE295E00E94071A60E08AE295E00E94BC
:103DA000240962EA70E08AE295E00E94851927C240
:103DB0006EE971E08AE295E00E94E31A6CE971E035
:103DC0001AC261E080E00E944011609121048AE201
:103DD00095E00E94DC116AE971E08AE295E00E94B8
:103DE000E31A65E072E08AE295E00E94E31A4091EE
:103DF000E9035091EA036091EB037091EC0322E038
:103E00008AE295E00E94071A68E971E08AE295E08B
:103E10000E94E31A6FED71E08AE295E00E94E31AD6
:103E20000E944B14F2C160E080E00E9440110E94A9
:103E30004B1461E080E00E9440110E94DC020E946D
:103E4000FB05E091E5038E2F90E0FC013197E73010
:103E5000F10508F055C0EC5CFF4F60E971E08AE2C3
:103E600095E00C94932E0E94E31A65E072E08AE2DA
:103E700095E00E94E31A69E871E0BDC10E94E31A6F
:103E800065E072E08AE295E00E94E31A61E871E081
:103E9000B2C10E94E31A65E072E08AE295E00E94F6
:103EA000E31A6BE771E0A7C10E94E31A65E072E0D4
:103EB0008AE295E00E94E31A64E771E09CC10E94E7
:103EC000E31A65E072E08AE295E00E94E31A6CE68C
:103ED00071E091C10E94E31A65E072E08AE295E028
:103EE0000E94E31A66E671E086C10E94E31A65E06B
:103EF00072E08AE295E00E94E31A6FE571E07BC10F
:103F000064E571E078C160E080E00E94401163E404
:103F100071E08AE295E00E94E31A6FED71E08AE2B7
:103F200095E00E94E31A61E08EE00E9440116FED7F
:103F300071E08AE295E00E94E31A61E080E00E946D
:103F400040118091FE01823019F460E471E008C0F4
:103F50006EE371E08AE295E00E94E31A6EE371E09D
:103F60008AE295E00E94E31A61E082E00E9440113B
:103F70008091FD01823019F46BE371E008C06EE3BB
:103F800071E08AE295E00E94E31A6EE371E08AE252
:103F900095E00E94E31A61E084E00E944011809164
:103FA000FC01823019F468E371E008C06EE371E04F
:103FB0008AE295E00E94E31A6EE371E08AE295E0FE
:103FC0000E94E31A61E086E00E9440118091FB01AB
:103FD000823019F465E371E008C06EE371E08AE2B3
:103FE00095E00E94E31A6EE371E08AE295E00E9498
:103FF000E31A61E088E00E9440118091FA0182306A
:1040000019F462E371E008C06EE371E08AE295E0C2
:104010000E94E31A6EE371E08AE295E00E94E31ADF
:1040200061E08AE00E9440118091F901823019F428
:104030006FE271E008C06EE371E08AE295E00E94F1
:10404000E31A6EE371E08AE295E00E94E31A61E010
:104050008CE00E9440118091F801823019F46CE2EA
:1040600071E008C06EE371E08AE295E00E94E31A15
:104070006EE371E08AE295E00E94E31A6FED71E071
:104080008AE295E00E94E31A90921C0480921B043D
:10409000BCC0B092BE01A092BD010E9486130091E7
:1040A0001D0410911E0420911F0430912004DC0196
:1040B000CB01801B910BA20BB30B883E9340A10553
:1040C000B10508F4A2C00E94861360931D0470938A
:1040D0001E0480931F049093200460E080E00E94FF
:1040E000401167E072E08AE295E00E94E31A65E021
:1040F00072E08AE295E00E94E31A80911002882320
:1041000019F069EB71E002C060EB71E08AE295E0C2
:104110000E94E31A6FED71E08AE295E00E94E31AD3
:1041200061E080E00E94401164EB71E08AE295E07A
:104130000E94E31A65E072E08AE295E00E94E31AC9
:1041400040910D0450910E0460910F047091100481
:104150008091090490910A04A0910B04B0910C0481
:10416000840F951FA61FB71F0091260510912705E4
:104170002091280530912905BC01CD01601B710BF0
:10418000820B930BA70196010E94522EBA01A9013E
:104190008AE295E00E9495116EEA71E08AE295E06C
:1041A0000E94E31A609122057091230580912405F5
:1041B00090912505A70196010E94522E29013A01EE
:1041C0006091FD037091FE038091FF0390910004C4
:1041D000A70196010E94522ED301C201821B930BAC
:1041E000A40BB50BAC01BD012AE08AE295E00E9468
:1041F000BE196AEA71E08AE295E00E94E31A6FED67
:1042000071E08AE295E00E94E31A0E94D4148EE0E5
:104210000E943513823391059CF0833C91050CF488
:1042200043C48C37A1E09A070CF4B7C28B32B2E0DA
:104230009B070CF49DC5863193400CF478C221C0D5
:1042400060E971E080E090E00E944C1388ED91E01D
:104250000E9486118091D6019091D7018B309105F3
:1042600009F4D3C58530910509F4D1C28330910595
:1042700009F4D3C58130910509F4D5C5892B09F41A
:10428000D8C580912304882309F4A2C06091190441
:1042900082E090E00E946B1C6091180483E090E043
:1042A0000E946B1C6091F20384E090E00E946B1C02
:1042B0006091160485E090E00E946B1C60911504EB
:1042C00086E090E00E946B1C6091F10387E090E033
:1042D0000E946B1C6091130488E090E00E946B1CAC
:1042E0006091120489E090E00E946B1C6091F003E1
:1042F0008AE090E00E946B1C609108048BE090E0E3
:104300000E946B1C609107048CE090E00E946B1C83
:10431000609106048DE090E00E946B1C60910504A2
:1043200080E190E00E946B1C6091FE0184E190E0CE
:104330000E946B1C6091FD0185E190E00E946B1C66
:104340006091FC0186E190E00E946B1C6091FB0192
:1043500087E190E00E946B1C6091FA0188E190E097
:104360000E946B1C6091F90189E190E00E946B1C36
:104370006091F8018AE190E00E946B1C80EF91E06F
:104380000E948611109223040E94521160E080E086
:104390000E94401160EF71E08AE295E00E94E31A0A
:1043A0006FED71E08AE295E00E94E31A61E080E03F
:1043B0000E9440116FED71E08AE295E00E94E31ADD
:1043C00060ED77E080E090E00E944C130E94D113F2
:1043D00080911A048111A4C10E94310690930402B5
:1043E000809303020E9429069093020280930102A7
:1043F0000E941F06805D9740909300028093FF010A
:104400000E9449069093F8038093F7030E944106A7
:104410009093F6038093F5030E9439069093F4037A
:104420008093F3030E9494072091F9033091FA03DB
:10443000C901330FAA0BBB0B9C01AD0124543240C0
:1044400041095109ACE9BFEF0E94B62E26EB3EEFC1
:104450004FEF5FEF0E94742EDA01C9018C599F4F14
:10446000AF4FBF4F843608F084E6809321040E944A
:10447000A713882361F180910504823041F5809172
:104480000604813021F57090210497E2971560F0C1
:10449000809117048111D4C4809114048111D0C477
:1044A000809111048111CCC41091210488ED810FF9
:1044B000843108F416C51091210484EC810F8431F5
:1044C00008F46AC510912104103508F0BAC50E949D
:1044D000A713882309F45EC080910604823009F096
:1044E00059C080910504813009F054C04090010406
:1044F00050900204609003047090040420E030E0C7
:1045000040E252E4C301B2010E94BB2D87FD0CC002
:10451000809117048111E4C5809114048111E0C5D4
:10452000809111048111DCC5409001045090020477
:10453000609003047090040420E030E040EF51E408
:10454000C301B2010E94BB2D87FF2DC6409001041C
:1045500050900204609003047090040420E030E066
:1045600040EA51E4C301B2010E94BB2D87FF92C60D
:104570004090010450900204609003047090040481
:1045800020E030E040EA50E4C301B2010E94BB2DBC
:1045900087FFF1C680912204882309F472C00E942B
:1045A00086136093260570932705809328059093C2
:1045B000290510911002612F81E10E940112809162
:1045C000260590912705A0912805B09129054091D5
:1045D0000D0450910E0460910F0470911004841B1F
:1045E000950BA60BB70B4091090450910A046091FA
:1045F0000B0470910C0484179507A607B70708F4FD
:1046000044C0112319F02091080402C0209107042E
:104610002A9DC0012B9D900D1124092E000CAA0B80
:10462000BB0B8093090490930A04A0930B04B093EE
:104630000C0467E072E085E894E00E94E31A65E00C
:1046400072E085E894E00E94E31A8091100290E005
:104650000E94CD119091100281E089278093100271
:104660008091260590912705A0912805B0912905F4
:1046700080930D0490930E04A0930F04B093100444
:1046800004C060E081E10E9401120E94490620916D
:10469000190430E08217930789F40E9441062091A3
:1046A000180430E08217930749F40E9439060597F1
:1046B0002CF480911704882309F4C8C60E94490687
:1046C0002091160430E08217930789F40E94410676
:1046D0002091150430E08217930749F40E943906AF
:1046E00005972CF480911404882309F4B3C60E9422
:1046F00049062091130430E08217930789F40E9441
:1047000041062091120430E08217930749F40E9479
:10471000390605972CF480911104882309F49EC66C
:10472000A8950E94B618CECA0093420589CA6FEBBD
:1047300071E085E894E00E94E31A8091ED03909186
:10474000EE030E94CD1181E080931A048091ED0365
:104750000E942A098091ED039091EE038230910529
:1047600040F09C01277F2330310519F085309105F9
:1047700021F41092EF030E942A098091ED03909199
:10478000EE0301969093EE038093ED0360E273E0F5
:1047900080E090E00E944C1374CD68EC70E080E003
:1047A00090E00E944C1384EC91E00E94861180916D
:1047B000D6019091D7019C012C503109223031054E
:1047C00078F410921A04109223040E9452119092CD
:1047D000D7018092D6011092EE031092ED0351CDD5
:1047E0008B30910509F076C08091EF03811121C0D3
:1047F000809103029091040282309105A4F4AFE10C
:10480000B0E0B0930402A09303028BE009C0809152
:10481000EF038F3F09F4CFC281E08093EF0385E07F
:104820000E942A092ECD01979093040280930302DF
:10483000ECCF813081F480910102909102028230AC
:1048400091051CF48CE090E001C001979093020266
:1048500080930102DACF8230A1F48091FF01909120
:104860000002843191053CF4A2E3B0E0B093000271
:10487000A093FF01CACF0197909300028093FF019C
:10488000C4CF833081F48091F7039091F803181618
:1048900019061CF087E190E001C001979093F8039E
:1048A0008093F703B2CF843009F0EBCC8091F5030D
:1048B0009091F603181619063CF0ABE3B0E0B09304
:1048C000F603A093F503A1CF01979093F60380938D
:1048D000F5039BCF8A30910551F480910504813016
:1048E00011F08AE09DCF82E080930504FACF8930F1
:1048F000910551F480910604813011F089E090CF48
:1049000082E080930604FACF8830910559F48091B3
:104910000704811105C08AEF8093070488E080CFE7
:104920008150FACF8730910559F4809108048111A4
:1049300005C08AEF8093080487E072CF8150FACFD8
:104940008630910559F48091F003863028F48AEF7F
:104950008093F00386E064CF8550FACF85309105CF
:10496000E9F48091EF0381110AC080911304811151
:1049700002C087E101C081508093130450CF813081
:1049800009F07FCC80911204811104C0BBE3B09385
:10499000120445CF81508093120441CF8430910599
:1049A00059F48091F103863028F48AEF8093F10363
:1049B00084E036CF8550FACF83309105F1F48091B1
:1049C000EF0381110BC080911604811102C087E1B1
:1049D00001C081508093160483E022CF813009F01A
:1049E00050CC80911504811104C02BE32093150451
:1049F000F3CF815080931504EFCF8230910559F4A5
:104A00008091F203863028F48AEF8093F20382E0EB
:104A100007CF8550FACF81309105E1F48091EF0303
:104A200081110BC080911904811102C087E101C07E
:104A300081508093190481E0F3CE813009F021CCBC
:104A400080911804811102C08BE301C081508093D2
:104A50001804F1CF892B09F014CC8091EF03811158
:104A600003C01092FE01DCCE813021F41092FD01D2
:104A700080E0D6CE823019F41092FC01F9CF833059
:104A800019F41092FB01F4CF843019F41092FA015A
:104A9000EFCF853019F41092F901EACF863009F092
:104AA000F0CB1092F801E4CF68EC70E080E090E089
:104AB0000E944C1389EC91E00E9486118091D601EE
:104AC0009091D7018D30910521F481E080932304EA
:104AD0007ECE8C30910539F58FEF9FEF9093D70103
:104AE0008093D6010E94BA2A0E94190F1092F403F3
:104AF0001092F3031092F6031092F5031092F8034C
:104B00001092F70381E090E09093040280930302F7
:104B1000909302028093010282E190E09093000260
:104B20008093FF0153CC8B30910509F051C08091E7
:104B3000EF0381110CC080910302909104028F3128
:104B400091051CF081E090E06FCE01966DCE813032
:104B500081F480910102909102028C3091053CF029
:104B6000A1E0B0E0B0930202A09301024ECE019604
:104B70006DCE823061F48091FF019091000282330A
:104B800091051CF083E190E077CE019675CE8330DD
:104B900071F48091F7039091F803873191052CF01F
:104BA0001092F8031092F70330CE019677CE84303E
:104BB00009F067CB8091F5039091F6038B33910553
:104BC0002CF01092F6031092F5031FCE01967DCEC5
:104BD0008A30910539F480910504823009F081CE44
:104BE00081E082CE8930910539F4809106048230CB
:104BF00009F084CE81E085CE8830910549F480911A
:104C000007048A3F18F01092070488CE8F5F84CE85
:104C10008730910549F4809108048A3F18F010927A
:104C200008048ACE8F5F86CE8630910541F480914C
:104C3000F0038A3F10F085E08BCE8B5F89CE853004
:104C40009105C9F48091EF03811109C0809113048B
:104C5000873118F010921304E2CD8F5F8DCE813032
:104C600009F00FCB809112048B3318F010921204CC
:104C7000D6CD8F5F90CE8430910541F48091F103C1
:104C80008A3F10F085E092CE8B5F90CE8330910505
:104C9000C9F48091EF03811109C080911604873116
:104CA00018F01092160498CE8F5F94CE813009F0E0
:104CB000E8CA809115048B3318F0109215048CCE3D
:104CC0008F5F98CE8230910541F48091F2038A3F44
:104CD00010F085E09ACE8B5F98CE81309105C9F4B3
:104CE0008091EF03811109C080911904873118F078
:104CF00010921904A0CE8F5F9CCE813009F0C1CAFA
:104D0000809118048B3318F01092180494CE8F5FA2
:104D10009ECE892B09F0B5CA8091EF03811104C0A2
:104D200082E08093FE01A4CE813021F482E0809362
:104D3000FD019ECE823019F48093FC0199CE833020
:104D400021F482E08093FB0193CE843021F482E051
:104D50008093FA018DCE853021F482E08093F901B1
:104D600087CE863009F08DCA82E08093F80180CE2C
:104D700060E971E080E090E00E944C1380ED91E0EA
:104D80000E9486118091D6019091D7018B309105B8
:104D900051F48091EF03815019F08093EF0335CDEA
:104DA0001092EF0332CD8530910541F48091EF03ED
:104DB000815009F032CD1092EF0331CD833091054F
:104DC00051F48091EF03815019F08093EF0304CEEA
:104DD0001092EF0301CE8130910551F48091EF03E1
:104DE000815019F08093EF0326CE1092EF0323CE6B
:104DF000892B09F046CA8091EF03815019F0809306
:104E0000EF0336CE1092EF0333CE8091EF038F5F26
:104E1000843008F4C2CF84E0C0CF8091EF038F3F8D
:104E2000B9F281E0D2CF8091EF038F3FF1F281E0C0
:104E3000D9CF8091EF038F5F863008F386E0DFCF14
:104E400081E0809322040E94861360932205709370
:104E500023058093240590932505A70196010E94C0
:104E6000522E19012A010091FB031091FC0360915D
:104E7000FD037091FE038091FF0390910004A70150
:104E800096010E94522ED201C101821B930BA40BEA
:104E9000B50B980136952795020F131F20E030E0DF
:104EA00080179107A207B30708F4FECA2092FD03FA
:104EB0003092FE034092FF035092000410921704B8
:104EC000109214041092110410922204472D50E005
:104ED00060E070E081E190E00E94FD0E0E94A3136B
:104EE000E3CA80911704811109C0809114048111D3
:104EF00005C080911104882309F4DDCA81E0809304
:104F000022040E94861360932205709323058093E8
:104F1000240590932505A70196010E94522E290190
:104F20003A016091FD037091FE038091FF0390911F
:104F30000004A70196010E94522ED301C201821BD8
:104F4000930BA40BB50BAC01BD018091FB039091B9
:104F5000FC03A0E0B0E0481759076A077B0708F494
:104F6000AACA4092FD035092FE036092FF03709222
:104F7000000410921704109214041092110410925D
:104F80002204412F50E060E070E081E190E00E9457
:104F9000FD0E0E94A3138FCA80911704811105C0D2
:104FA00080911404882309F48DCA81E0809322043F
:104FB0000E94861360932205709323058093240535
:104FC00090932505A70196010E94522E29013A01CE
:104FD0006091FD037091FE038091FF0390910004A6
:104FE000A70196010E94522ED301C201821B930B8E
:104FF000A40BB50BAC01BD018091FB039091FC03A8
:10500000A0E0B0E0481759076A077B0708F45ACABE
:105010004092FD035092FE036092FF0370920004E1
:10502000109217041092140410922204412F50E0A1
:1050300060E070E081E190E00E94FD0E0E94A31309
:1050400041CA80911704882309F441CA81E0809302
:1050500022040E9486136093220570932305809397
:10506000240590932505A70196010E94522E29013F
:105070003A016091FD037091FE038091FF039091CE
:105080000004A70196010E94522ED301C201821B87
:10509000930BA40BB50BAC01BD018091FB03909168
:1050A000FC03A0E0B0E0481759076A077B0708F443
:1050B0000ECA4092FD035092FE036092FF0370926D
:1050C00000041092170410922204412F50E060E077
:1050D00070E081E190E00E94FD0E0E94A313F7C9E9
:1050E00081E0809322040E948613609322057093CE
:1050F00023058093240590932505A70196010E941E
:10510000522E2A8B3B8B4C8B5D8B0091FB031091B5
:10511000FC036091FD037091FE038091FF03909169
:105120000004A70196010E94522E8A899B89AC89AE
:10513000BD89821B930BA40BB50B9801369527955F
:10514000020F131F20E030E080179107A207B3077A
:1051500008F4EAC98A899B89AC89BD898093FD03DB
:105160009093FE03A093FF03B093000410921704E2
:1051700010921404109211041092220420E030E0E6
:105180004AE754E4C301B2010E94C02D0E94D32C0F
:10519000AB01770F660B770B8EE090E00E94FD0E5F
:1051A0000E94A313C1C920E030E040E252E4C301F1
:1051B000B2010E945C2C87FFC9C98091170481113C
:1051C00009C080911404811105C0809111048823C5
:1051D00009F4BCC981E0809322040E948613609385
:1051E0002205709323058093240590932505A7013C
:1051F00096010E94522E2A8B3B8B4C8B5D8B6091CB
:10520000FD037091FE038091FF0390910004A701BC
:1052100096010E94522E8A899B89AC89BD89821B86
:10522000930BA40BB50BAC01BD018091FB039091D6
:10523000FC03A0E0B0E0481759076A077B0708F4B1
:1052400085C98A899B89AC89BD898093FD03909328
:10525000FE03A093FF03B093000410921704109272
:105260001404109211041092220420E030E04AE766
:1052700054E4C301B2010E94C02D0E94D32CAB01A3
:10528000770F660B770B8EE090E00E94FD0E0E9478
:10529000A3135CC920E030E040EF51E4C301B20148
:1052A0000E945C2C87FF64C980911704811105C09E
:1052B00080911404882309F45BC981E0809322045F
:1052C0000E94861360932205709323058093240522
:1052D00090932505A70196010E94522E2A8B3B8BA5
:1052E0004C8B5D8B6091FD037091FE038091FF03F9
:1052F00090910004A70196010E94522E8A899B89F1
:10530000AC89BD89821B930BA40BB50BAC01BD010D
:105310008091FB039091FC03A0E0B0E0481759078F
:105320006A077B0708F424C98A899B89AC89BD89EF
:105330008093FD039093FE03A093FF03B0930004BA
:1053400010921704109214041092220420E030E00E
:105350004AE754E4C301B2010E94C02D0E94D32C3D
:10536000AB01770F660B770B8EE090E00E94FD0E8D
:105370000E94A313FDC820E030E040EA51E4C301DD
:10538000B2010E945C2C87FF05C980911704882315
:1053900009F400C981E0809322040E94861360937F
:1053A0002205709323058093240590932505A7017A
:1053B00096010E94522E2A8B3B8B4C8B5D8B609109
:1053C000FD037091FE038091FF0390910004A701FB
:1053D00096010E94522E8A899B89AC89BD89821BC5
:1053E000930BA40BB50BAC01BD018091FB03909115
:1053F000FC03A0E0B0E0481759076A077B0708F4F0
:10540000CEC88A899B89AC89BD898093FD0390931E
:10541000FE03A093FF03B0930004109217041092B0
:10542000220420E030E04AE754E4C301B2010E94C4
:10543000C02D0E94D32CAB01770F660B770B8EE04B
:1054400090E00E94FD0E0E94A313A4C881E00E9478
:10545000200234C982E00E94200249C983E00E94F0
:1054600020025EC91D3010F00C94341E0C943A1EBC
:105470000F931F93CF938C0181E08093580488E6AB
:1054800080937904109282041092810460E085E593
:1054900095E00E944D19F8018081CAE06C2F0E94AE
:1054A000322E692FF0E18F9F600D112485E595E084
:1054B0000E944D19F80181816C2F0E94322E692FB4
:1054C000F0E18F9F600D112485E595E00E944D1954
:1054D000F80182816C2F0E94322E692FF0E18F9F9C
:1054E000600D112485E595E00E944D19F801838136
:1054F0006C2F0E94322E692FF0E18F9F600D1124D6
:1055000085E595E00E944D19F80184816C2F0E9479
:10551000322E692FF0E18F9F600D112485E595E013
:105520000E944D19F80185816C2F0E94322E692F3F
:10553000F0E18F9F600D112485E595E00E944D19E3
:10554000F80186818E516C2F0E94322E692FF0E176
:105550008F9F600D112485E595E00E944D1981E033
:105560000E944B1091E0811190E0892FCF911F9103
:105570000F910895CF93DF93C0E0D0E060E0CE01BB
:105580000E946B1C2196C11584E0D807B9F781E110
:1055900092E0DF91CF910C948611109288041092C2
:1055A000870488EE93E0A0E0B0E0809389049093B4
:1055B0008A04A0938B04B0938C042BE933E03093DE
:1055C00086042093850425EC30E0309392042093E8
:1055D000910424EC30E0309394042093930420EC65
:1055E00030E0309396042093950421EC30E0309322
:1055F00098042093970422EC30E030939A0420938F
:10560000990426EC30E030939C0420939B04109284
:105610009E0410929F041092A0041092A104109274
:105620005805109257058093590590935A05A093F9
:105630005B05B0935C058DEA93E0909356058093EB
:10564000550560E080E10E94F912ECE0F2E0E4919F
:10565000E0936105E8EFF1E0E491F0E0EE0FFF1F69
:10566000E252FE4F85919491909363058093620579
:1056700010926C0510926E0510926D05ECE6F5E047
:1056800084E695E012928E179F07E1F784EF98E188
:10569000909354058093530581E695E090934805D7
:1056A00080934705109246051092420589E0809349
:1056B000430591E0909344059093450510922D0584
:1056C00010922C052FEB33E030932B0520932A0505
:1056D00098E090932E059FEF90932F0580933005CF
:1056E00082E08093310583E08093320586E08093E9
:1056F000330587E080933405109235051092360506
:10570000109237051092380561E088E00E94F91286
:1057100080912F058F3F19F061E00E94F91261E03E
:10572000809130050E94F9121092390581E00E94A3
:1057300080120E948613609326057093270580933C
:105740002805909329050E94861360932205709383
:10575000230580932405909325050C944E12CF9336
:1057600085E894E00E940F18892B41F46AE070E00C
:1057700080E090E00E944C13A895F2CF85E894E079
:105780000E94ED17C0E08A3069F080538A3028F417
:105790009AE0C99F800D1124C82F85E894E00E94EB
:1057A000ED17F1CF85E894E00E9494188C2FCF91EB
:1057B0000895F999FECF92BD81BDF89A992780B5D9
:1057C0000895262FF999FECF1FBA92BD81BD20BD45
:1057D0000FB6F894FA9AF99A0FBE019608955058A8
:1057E000BB27AA270E94072C0C94812D0E94732DA1
:1057F00038F00E947A2D20F039F49F3F19F426F4F6
:105800000C94702D0EF4E095E7FB0C946A2DE92FB3
:105810000E94922D58F3BA17620773078407950701
:1058200020F079F4A6F50C94B42D0EF4E0950B2E2F
:10583000BA2FA02D0B01B90190010C01CA01A001E2
:105840001124FF27591B99F0593F50F4503E68F13D
:105850001A16F040A22F232F342F4427585FF3CF7E
:10586000469537952795A795F0405395C9F77EF44F
:105870001F16BA0B620B730B840BBAF09150A1F098
:10588000FF0FBB1F661F771F881FC2F70EC0BA0F1E
:10589000621F731F841F48F4879577956795B795A6
:1058A000F7959E3F08F0B0CF9395880F08F09927A1
:1058B000EE0F9795879508950E94462D08F481E094
:1058C00008950E94752C0C94812D0E947A2D58F019
:1058D0000E94732D40F029F45F3F29F00C946A2D4B
:1058E00051110C94B52D0C94702D0E94922D68F3DB
:1058F0009923B1F3552391F3951B550BBB27AA2789
:1059000062177307840738F09F5F5F4F220F331FC2
:10591000441FAA1FA9F335D00E2E3AF0E0E832D08A
:1059200091505040E695001CCAF72BD0FE2F29D08D
:10593000660F771F881FBB1F261737074807AB075F
:10594000B0E809F0BB0B802DBF01FF2793585F4FD4
:105950003AF09E3F510578F00C946A2D0C94B52DC9
:105960005F3FE4F3983ED4F3869577956795B795B6
:10597000F7959F5FC9F7880F911D9695879597F9C1
:105980000895E1E0660F771F881FBB1F621773073A
:105990008407BA0720F0621B730B840BBA0BEE1F4F
:1059A00088F7E09508950E94DA2C6894B1110C9460
:1059B000B52D08950E949A2D88F09F5798F0B92F21
:1059C0009927B751B0F0E1F0660F771F881F991F34
:1059D0001AF0BA95C9F714C0B13091F00E94B42DF5
:1059E000B1E008950C94B42D672F782F8827B85F05
:1059F00039F0B93FCCF3869577956795B395D9F78C
:105A00003EF490958095709561957F4F8F4F9F4F95
:105A10000895E89409C097FB3EF4909580957095A1
:105A200061957F4F8F4F9F4F9923A9F0F92F96E9EA
:105A3000BB279395F695879577956795B795F1115F
:105A4000F8CFFAF4BB0F11F460FF1BC06F5F7F4FFC
:105A50008F4F9F4F16C0882311F096E911C077230E
:105A600021F09EE8872F762F05C0662371F096E817
:105A7000862F70E060E02AF09A95660F771F881FE6
:105A8000DAF7880F9695879597F90895990F00088A
:105A9000550FAA0BE0E8FEEF16161706E807F90700
:105AA000C0F012161306E407F50798F0621B730B9B
:105AB000840B950B39F40A2661F0232B242B252B1C
:105AC00021F408950A2609F4A140A6958FEF811DBF
:105AD000811D089597F99F6780E870E060E0089560
